{
  "contractName": "Moloch2",
  "abi": [
    {
      "inputs": [
        {
          "internalType": "address",
          "name": "summoner",
          "type": "address"
        },
        {
          "internalType": "address[]",
          "name": "_approvedTokens",
          "type": "address[]"
        },
        {
          "internalType": "uint256",
          "name": "_periodDuration",
          "type": "uint256"
        },
        {
          "internalType": "uint256",
          "name": "_votingPeriodLength",
          "type": "uint256"
        },
        {
          "internalType": "uint256",
          "name": "_gracePeriodLength",
          "type": "uint256"
        },
        {
          "internalType": "uint256",
          "name": "_emergencyExitWait",
          "type": "uint256"
        },
        {
          "internalType": "uint256",
          "name": "_proposalDeposit",
          "type": "uint256"
        },
        {
          "internalType": "uint256",
          "name": "_dilutionBound",
          "type": "uint256"
        },
        {
          "internalType": "uint256",
          "name": "_processingReward",
          "type": "uint256"
        }
      ],
      "payable": false,
      "stateMutability": "nonpayable",
      "type": "constructor"
    },
    {
      "anonymous": false,
      "inputs": [
        {
          "indexed": true,
          "internalType": "uint256",
          "name": "proposalIndex",
          "type": "uint256"
        },
        {
          "indexed": false,
          "internalType": "address",
          "name": "applicantAddress",
          "type": "address"
        }
      ],
      "name": "CancelProposal",
      "type": "event"
    },
    {
      "anonymous": false,
      "inputs": [
        {
          "indexed": true,
          "internalType": "uint256",
          "name": "proposalIndex",
          "type": "uint256"
        },
        {
          "indexed": true,
          "internalType": "address",
          "name": "applicant",
          "type": "address"
        },
        {
          "indexed": true,
          "internalType": "address",
          "name": "memberAddress",
          "type": "address"
        },
        {
          "indexed": false,
          "internalType": "uint256",
          "name": "tributeOffered",
          "type": "uint256"
        },
        {
          "indexed": false,
          "internalType": "uint256",
          "name": "sharesRequested",
          "type": "uint256"
        },
        {
          "indexed": false,
          "internalType": "bool",
          "name": "didPass",
          "type": "bool"
        }
      ],
      "name": "ProcessProposal",
      "type": "event"
    },
    {
      "anonymous": false,
      "inputs": [
        {
          "indexed": true,
          "internalType": "address",
          "name": "memberAddress",
          "type": "address"
        },
        {
          "indexed": false,
          "internalType": "uint256",
          "name": "sharesToBurn",
          "type": "uint256"
        }
      ],
      "name": "Ragequit",
      "type": "event"
    },
    {
      "anonymous": false,
      "inputs": [
        {
          "indexed": false,
          "internalType": "uint256",
          "name": "proposalIndex",
          "type": "uint256"
        },
        {
          "indexed": true,
          "internalType": "address",
          "name": "delegateKey",
          "type": "address"
        },
        {
          "indexed": true,
          "internalType": "address",
          "name": "memberAddress",
          "type": "address"
        },
        {
          "indexed": true,
          "internalType": "address",
          "name": "applicant",
          "type": "address"
        },
        {
          "indexed": false,
          "internalType": "uint256",
          "name": "tributeOffered",
          "type": "uint256"
        },
        {
          "indexed": false,
          "internalType": "uint256",
          "name": "sharesRequested",
          "type": "uint256"
        }
      ],
      "name": "SubmitProposal",
      "type": "event"
    },
    {
      "anonymous": false,
      "inputs": [
        {
          "indexed": true,
          "internalType": "uint256",
          "name": "proposalIndex",
          "type": "uint256"
        },
        {
          "indexed": true,
          "internalType": "address",
          "name": "delegateKey",
          "type": "address"
        },
        {
          "indexed": true,
          "internalType": "address",
          "name": "memberAddress",
          "type": "address"
        },
        {
          "indexed": false,
          "internalType": "uint8",
          "name": "uintVote",
          "type": "uint8"
        }
      ],
      "name": "SubmitVote",
      "type": "event"
    },
    {
      "anonymous": false,
      "inputs": [
        {
          "indexed": true,
          "internalType": "address",
          "name": "summoner",
          "type": "address"
        },
        {
          "indexed": false,
          "internalType": "uint256",
          "name": "shares",
          "type": "uint256"
        }
      ],
      "name": "SummonComplete",
      "type": "event"
    },
    {
      "anonymous": false,
      "inputs": [
        {
          "indexed": true,
          "internalType": "address",
          "name": "memberAddress",
          "type": "address"
        },
        {
          "indexed": false,
          "internalType": "address",
          "name": "newDelegateKey",
          "type": "address"
        }
      ],
      "name": "UpdateDelegateKey",
      "type": "event"
    },
    {
      "constant": true,
      "inputs": [
        {
          "internalType": "uint256",
          "name": "",
          "type": "uint256"
        }
      ],
      "name": "approvedTokens",
      "outputs": [
        {
          "internalType": "contract IERC20",
          "name": "",
          "type": "address"
        }
      ],
      "payable": false,
      "stateMutability": "view",
      "type": "function"
    },
    {
      "constant": true,
      "inputs": [],
      "name": "depositToken",
      "outputs": [
        {
          "internalType": "contract IERC20",
          "name": "",
          "type": "address"
        }
      ],
      "payable": false,
      "stateMutability": "view",
      "type": "function"
    },
    {
      "constant": true,
      "inputs": [],
      "name": "dilutionBound",
      "outputs": [
        {
          "internalType": "uint256",
          "name": "",
          "type": "uint256"
        }
      ],
      "payable": false,
      "stateMutability": "view",
      "type": "function"
    },
    {
      "constant": true,
      "inputs": [],
      "name": "emergencyExitWait",
      "outputs": [
        {
          "internalType": "uint256",
          "name": "",
          "type": "uint256"
        }
      ],
      "payable": false,
      "stateMutability": "view",
      "type": "function"
    },
    {
      "constant": true,
      "inputs": [],
      "name": "gracePeriodLength",
      "outputs": [
        {
          "internalType": "uint256",
          "name": "",
          "type": "uint256"
        }
      ],
      "payable": false,
      "stateMutability": "view",
      "type": "function"
    },
    {
      "constant": true,
      "inputs": [],
      "name": "guildBank",
      "outputs": [
        {
          "internalType": "contract GuildBank2",
          "name": "",
          "type": "address"
        }
      ],
      "payable": false,
      "stateMutability": "view",
      "type": "function"
    },
    {
      "constant": true,
      "inputs": [
        {
          "internalType": "address",
          "name": "",
          "type": "address"
        }
      ],
      "name": "memberAddressByDelegateKey",
      "outputs": [
        {
          "internalType": "address",
          "name": "",
          "type": "address"
        }
      ],
      "payable": false,
      "stateMutability": "view",
      "type": "function"
    },
    {
      "constant": true,
      "inputs": [
        {
          "internalType": "address",
          "name": "",
          "type": "address"
        }
      ],
      "name": "members",
      "outputs": [
        {
          "internalType": "address",
          "name": "delegateKey",
          "type": "address"
        },
        {
          "internalType": "uint256",
          "name": "shares",
          "type": "uint256"
        },
        {
          "internalType": "bool",
          "name": "exists",
          "type": "bool"
        },
        {
          "internalType": "uint256",
          "name": "highestIndexYesVote",
          "type": "uint256"
        }
      ],
      "payable": false,
      "stateMutability": "view",
      "type": "function"
    },
    {
      "constant": true,
      "inputs": [],
      "name": "periodDuration",
      "outputs": [
        {
          "internalType": "uint256",
          "name": "",
          "type": "uint256"
        }
      ],
      "payable": false,
      "stateMutability": "view",
      "type": "function"
    },
    {
      "constant": true,
      "inputs": [],
      "name": "processingReward",
      "outputs": [
        {
          "internalType": "uint256",
          "name": "",
          "type": "uint256"
        }
      ],
      "payable": false,
      "stateMutability": "view",
      "type": "function"
    },
    {
      "constant": true,
      "inputs": [],
      "name": "proposalCount",
      "outputs": [
        {
          "internalType": "uint256",
          "name": "",
          "type": "uint256"
        }
      ],
      "payable": false,
      "stateMutability": "view",
      "type": "function"
    },
    {
      "constant": true,
      "inputs": [],
      "name": "proposalDeposit",
      "outputs": [
        {
          "internalType": "uint256",
          "name": "",
          "type": "uint256"
        }
      ],
      "payable": false,
      "stateMutability": "view",
      "type": "function"
    },
    {
      "constant": true,
      "inputs": [
        {
          "internalType": "uint256",
          "name": "",
          "type": "uint256"
        }
      ],
      "name": "proposalQueue",
      "outputs": [
        {
          "internalType": "uint256",
          "name": "",
          "type": "uint256"
        }
      ],
      "payable": false,
      "stateMutability": "view",
      "type": "function"
    },
    {
      "constant": true,
      "inputs": [
        {
          "internalType": "uint256",
          "name": "",
          "type": "uint256"
        }
      ],
      "name": "proposals",
      "outputs": [
        {
          "internalType": "address",
          "name": "applicant",
          "type": "address"
        },
        {
          "internalType": "address",
          "name": "proposer",
          "type": "address"
        },
        {
          "internalType": "address",
          "name": "sponsor",
          "type": "address"
        },
        {
          "internalType": "uint256",
          "name": "sharesRequested",
          "type": "uint256"
        },
        {
          "internalType": "uint256",
          "name": "tributeOffered",
          "type": "uint256"
        },
        {
          "internalType": "contract IERC20",
          "name": "tributeToken",
          "type": "address"
        },
        {
          "internalType": "uint256",
          "name": "paymentRequested",
          "type": "uint256"
        },
        {
          "internalType": "contract IERC20",
          "name": "paymentToken",
          "type": "address"
        },
        {
          "internalType": "uint256",
          "name": "startingPeriod",
          "type": "uint256"
        },
        {
          "internalType": "uint256",
          "name": "yesVotes",
          "type": "uint256"
        },
        {
          "internalType": "uint256",
          "name": "noVotes",
          "type": "uint256"
        },
        {
          "internalType": "string",
          "name": "details",
          "type": "string"
        },
        {
          "internalType": "uint256",
          "name": "maxTotalSharesAtYesVote",
          "type": "uint256"
        }
      ],
      "payable": false,
      "stateMutability": "view",
      "type": "function"
    },
    {
      "constant": true,
      "inputs": [
        {
          "internalType": "address",
          "name": "",
          "type": "address"
        }
      ],
      "name": "proposedToKick",
      "outputs": [
        {
          "internalType": "bool",
          "name": "",
          "type": "bool"
        }
      ],
      "payable": false,
      "stateMutability": "view",
      "type": "function"
    },
    {
      "constant": true,
      "inputs": [
        {
          "internalType": "address",
          "name": "",
          "type": "address"
        }
      ],
      "name": "proposedToWhitelist",
      "outputs": [
        {
          "internalType": "bool",
          "name": "",
          "type": "bool"
        }
      ],
      "payable": false,
      "stateMutability": "view",
      "type": "function"
    },
    {
      "constant": true,
      "inputs": [],
      "name": "summoningTime",
      "outputs": [
        {
          "internalType": "uint256",
          "name": "",
          "type": "uint256"
        }
      ],
      "payable": false,
      "stateMutability": "view",
      "type": "function"
    },
    {
      "constant": true,
      "inputs": [
        {
          "internalType": "address",
          "name": "",
          "type": "address"
        }
      ],
      "name": "tokenWhitelist",
      "outputs": [
        {
          "internalType": "bool",
          "name": "",
          "type": "bool"
        }
      ],
      "payable": false,
      "stateMutability": "view",
      "type": "function"
    },
    {
      "constant": true,
      "inputs": [],
      "name": "totalShares",
      "outputs": [
        {
          "internalType": "uint256",
          "name": "",
          "type": "uint256"
        }
      ],
      "payable": false,
      "stateMutability": "view",
      "type": "function"
    },
    {
      "constant": true,
      "inputs": [],
      "name": "totalSharesRequested",
      "outputs": [
        {
          "internalType": "uint256",
          "name": "",
          "type": "uint256"
        }
      ],
      "payable": false,
      "stateMutability": "view",
      "type": "function"
    },
    {
      "constant": true,
      "inputs": [],
      "name": "votingPeriodLength",
      "outputs": [
        {
          "internalType": "uint256",
          "name": "",
          "type": "uint256"
        }
      ],
      "payable": false,
      "stateMutability": "view",
      "type": "function"
    },
    {
      "constant": false,
      "inputs": [
        {
          "internalType": "address",
          "name": "applicant",
          "type": "address"
        },
        {
          "internalType": "uint256",
          "name": "sharesRequested",
          "type": "uint256"
        },
        {
          "internalType": "uint256",
          "name": "tributeOffered",
          "type": "uint256"
        },
        {
          "internalType": "address",
          "name": "tributeToken",
          "type": "address"
        },
        {
          "internalType": "uint256",
          "name": "paymentRequested",
          "type": "uint256"
        },
        {
          "internalType": "address",
          "name": "paymentToken",
          "type": "address"
        },
        {
          "internalType": "string",
          "name": "details",
          "type": "string"
        }
      ],
      "name": "submitProposal",
      "outputs": [],
      "payable": false,
      "stateMutability": "nonpayable",
      "type": "function"
    },
    {
      "constant": false,
      "inputs": [
        {
          "internalType": "address",
          "name": "tokenToWhitelist",
          "type": "address"
        },
        {
          "internalType": "string",
          "name": "details",
          "type": "string"
        }
      ],
      "name": "submitWhitelistProposal",
      "outputs": [],
      "payable": false,
      "stateMutability": "nonpayable",
      "type": "function"
    },
    {
      "constant": false,
      "inputs": [
        {
          "internalType": "address",
          "name": "memberToKick",
          "type": "address"
        },
        {
          "internalType": "string",
          "name": "details",
          "type": "string"
        }
      ],
      "name": "submitGuildKickProposal",
      "outputs": [],
      "payable": false,
      "stateMutability": "nonpayable",
      "type": "function"
    },
    {
      "constant": false,
      "inputs": [
        {
          "internalType": "uint256",
          "name": "proposalId",
          "type": "uint256"
        }
      ],
      "name": "sponsorProposal",
      "outputs": [],
      "payable": false,
      "stateMutability": "nonpayable",
      "type": "function"
    },
    {
      "constant": false,
      "inputs": [
        {
          "internalType": "uint256",
          "name": "proposalIndex",
          "type": "uint256"
        },
        {
          "internalType": "uint8",
          "name": "uintVote",
          "type": "uint8"
        }
      ],
      "name": "submitVote",
      "outputs": [],
      "payable": false,
      "stateMutability": "nonpayable",
      "type": "function"
    },
    {
      "constant": false,
      "inputs": [
        {
          "internalType": "uint256",
          "name": "proposalIndex",
          "type": "uint256"
        }
      ],
      "name": "processProposal",
      "outputs": [],
      "payable": false,
      "stateMutability": "nonpayable",
      "type": "function"
    },
    {
      "constant": false,
      "inputs": [
        {
          "internalType": "uint256",
          "name": "sharesToBurn",
          "type": "uint256"
        }
      ],
      "name": "ragequit",
      "outputs": [],
      "payable": false,
      "stateMutability": "nonpayable",
      "type": "function"
    },
    {
      "constant": false,
      "inputs": [
        {
          "internalType": "uint256",
          "name": "sharesToBurn",
          "type": "uint256"
        },
        {
          "internalType": "contract IERC20[]",
          "name": "tokenList",
          "type": "address[]"
        }
      ],
      "name": "safeRagequit",
      "outputs": [],
      "payable": false,
      "stateMutability": "nonpayable",
      "type": "function"
    },
    {
      "constant": false,
      "inputs": [
        {
          "internalType": "uint256",
          "name": "proposalId",
          "type": "uint256"
        }
      ],
      "name": "cancelProposal",
      "outputs": [],
      "payable": false,
      "stateMutability": "nonpayable",
      "type": "function"
    },
    {
      "constant": false,
      "inputs": [
        {
          "internalType": "address",
          "name": "newDelegateKey",
          "type": "address"
        }
      ],
      "name": "updateDelegateKey",
      "outputs": [],
      "payable": false,
      "stateMutability": "nonpayable",
      "type": "function"
    },
    {
      "constant": true,
      "inputs": [],
      "name": "getCurrentPeriod",
      "outputs": [
        {
          "internalType": "uint256",
          "name": "",
          "type": "uint256"
        }
      ],
      "payable": false,
      "stateMutability": "view",
      "type": "function"
    },
    {
      "constant": true,
      "inputs": [],
      "name": "getProposalQueueLength",
      "outputs": [
        {
          "internalType": "uint256",
          "name": "",
          "type": "uint256"
        }
      ],
      "payable": false,
      "stateMutability": "view",
      "type": "function"
    },
    {
      "constant": true,
      "inputs": [
        {
          "internalType": "uint256",
          "name": "highestIndexYesVote",
          "type": "uint256"
        }
      ],
      "name": "canRagequit",
      "outputs": [
        {
          "internalType": "bool",
          "name": "",
          "type": "bool"
        }
      ],
      "payable": false,
      "stateMutability": "view",
      "type": "function"
    },
    {
      "constant": true,
      "inputs": [
        {
          "internalType": "uint256",
          "name": "startingPeriod",
          "type": "uint256"
        }
      ],
      "name": "hasVotingPeriodExpired",
      "outputs": [
        {
          "internalType": "bool",
          "name": "",
          "type": "bool"
        }
      ],
      "payable": false,
      "stateMutability": "view",
      "type": "function"
    },
    {
      "constant": true,
      "inputs": [
        {
          "internalType": "address",
          "name": "memberAddress",
          "type": "address"
        },
        {
          "internalType": "uint256",
          "name": "proposalIndex",
          "type": "uint256"
        }
      ],
      "name": "getMemberProposalVote",
      "outputs": [
        {
          "internalType": "enum Moloch2.Vote",
          "name": "",
          "type": "uint8"
        }
      ],
      "payable": false,
      "stateMutability": "view",
      "type": "function"
    }
  ],
  "bytecode": "0x60806040526000600a556000600b556000600c553480156200002057600080fd5b506040516200823a3803806200823a83398181016040526101208110156200004757600080fd5b8101908080519060200190929190805160405193929190846401000000008211156200007257600080fd5b838201915060208201858111156200008957600080fd5b8251866020820283011164010000000082111715620000a757600080fd5b8083526020830192505050908051906020019060200280838360005b83811015620000e0578082015181840152602081019050620000c3565b5050505090500160405260200180519060200190929190805190602001909291908051906020019092919080519060200190929190805190602001909291908051906020019092919080519060200190929190505050600073ffffffffffffffffffffffffffffffffffffffff168973ffffffffffffffffffffffffffffffffffffffff161415620001be576040517f08c379a000000000000000000000000000000000000000000000000000000000815260040180806020018281038252602a81526020018062007ff8602a913960400191505060405180910390fd5b6000871162000219576040517f08c379a00000000000000000000000000000000000000000000000000000000081526004018080602001828103825260318152602001806200817b6031913960400191505060405180910390fd5b6000861162000274576040517f08c379a0000000000000000000000000000000000000000000000000000000008152600401808060200182810382526035815260200180620081466035913960400191505060405180910390fd5b670de0b6b3a7640000861115620002d7576040517f08c379a0000000000000000000000000000000000000000000000000000000008152600401808060200182810382526037815260200180620080226037913960400191505060405180910390fd5b670de0b6b3a76400008511156200033a576040517f08c379a0000000000000000000000000000000000000000000000000000000008152600401808060200182810382526036815260200180620080da6036913960400191505060405180910390fd5b6000841162000395576040517f08c379a000000000000000000000000000000000000000000000000000000000815260040180806020018281038252603481526020018062007fc46034913960400191505060405180910390fd5b60008211620003f0576040517f08c379a0000000000000000000000000000000000000000000000000000000008152600401808060200182810382526030815260200180620081dc6030913960400191505060405180910390fd5b670de0b6b3a764000082111562000453576040517f08c379a0000000000000000000000000000000000000000000000000000000008152600401808060200182810382526032815260200180620080a86032913960400191505060405180910390fd5b6000885111620004af576040517f08c379a0000000000000000000000000000000000000000000000000000000008152600401808060200182810382526036815260200180620081106036913960400191505060405180910390fd5b808310156200050a576040517f08c379a000000000000000000000000000000000000000000000000000000000815260040180806020018281038252604f81526020018062008059604f913960600191505060405180910390fd5b876000815181106200051857fe5b6020026020010151600860006101000a81548173ffffffffffffffffffffffffffffffffffffffff021916908373ffffffffffffffffffffffffffffffffffffffff16021790555060008090505b8851811015620007b957600073ffffffffffffffffffffffffffffffffffffffff168982815181106200059557fe5b602002602001015173ffffffffffffffffffffffffffffffffffffffff1614156200060c576040517f08c379a0000000000000000000000000000000000000000000000000000000008152600401808060200182810382526030815260200180620081ac6030913960400191505060405180910390fd5b600d60008a83815181106200061d57fe5b602002602001015173ffffffffffffffffffffffffffffffffffffffff1673ffffffffffffffffffffffffffffffffffffffff16815260200190815260200160002060009054906101000a900460ff1615620006c5576040517f08c379a000000000000000000000000000000000000000000000000000000000815260040180806020018281038252602e8152602001806200820c602e913960400191505060405180910390fd5b6001600d60008b8481518110620006d857fe5b602002602001015173ffffffffffffffffffffffffffffffffffffffff1673ffffffffffffffffffffffffffffffffffffffff16815260200190815260200160002060006101000a81548160ff021916908315150217905550600e8982815181106200074057fe5b602002602001015190806001815401808255809150509060018203906000526020600020016000909192909190916101000a81548173ffffffffffffffffffffffffffffffffffffffff021916908373ffffffffffffffffffffffffffffffffffffffff16021790555050808060010191505062000566565b50604051620007c89062000a3b565b604051809103906000f080158015620007e5573d6000803e3d6000fd5b50600960006101000a81548173ffffffffffffffffffffffffffffffffffffffff021916908373ffffffffffffffffffffffffffffffffffffffff160217905550866000819055508560018190555084600281905550836003819055508260048190555081600581905550806006819055504260078190555060405180608001604052808a73ffffffffffffffffffffffffffffffffffffffff168152602001600181526020016001151581526020016000815250601160008b73ffffffffffffffffffffffffffffffffffffffff1673ffffffffffffffffffffffffffffffffffffffff16815260200190815260200160002060008201518160000160006101000a81548173ffffffffffffffffffffffffffffffffffffffff021916908373ffffffffffffffffffffffffffffffffffffffff1602179055506020820151816001015560408201518160020160006101000a81548160ff0219169083151502179055506060820151816003015590505088601260008b73ffffffffffffffffffffffffffffffffffffffff1673ffffffffffffffffffffffffffffffffffffffff16815260200190815260200160002060006101000a81548173ffffffffffffffffffffffffffffffffffffffff021916908373ffffffffffffffffffffffffffffffffffffffff1602179055506001600b819055508873ffffffffffffffffffffffffffffffffffffffff167f03995a801b13c36325306deef859ef977ce61c6e15a794281bf969d20482522760016040518082815260200191505060405180910390a250505050505050505062000a49565b610da6806200721e83390190565b6167c58062000a596000396000f3fe608060405234801561001057600080fd5b506004361061021c5760003560e01c80638340bbce11610125578063b470aade116100ad578063de9ee2021161007c578063de9ee20214610c86578063e0a8f6f514610d48578063e178034514610d76578063e63bc62d14610dd2578063feb7ea1d14610e005761021c565b8063b470aade14610be2578063c89039c514610c00578063da29899814610c4a578063da35c66414610c685761021c565b80639746d940116100f45780639746d94014610acb57806399653fbe14610af9578063a3dc380014610b34578063a42afd2914610b7a578063afe5475f14610bc45761021c565b80638340bbce14610a1b5780638436593f14610a395780638b15a60514610a675780639425a47614610a855761021c565b80633a98ef39116101a857806357064c581161017757806357064c581461082c57806363858f2d14610965578063753d756314610983578063797daf70146109df5780637d5b6c72146109fd5761021c565b80633a98ef39146106ec5780633b214a741461070a5780633fc24bba1461074c578063402c1794146107a85761021c565b806308ae4b0c116101ef57806308ae4b0c146104a4578063115b2d18146105415780631a396a4a1461061c5780631dafede01461063a5780632582bf2a146106a85761021c565b8063013cf08b1461022157806303e32fa1146103f8578063044a0ca814610416578063086146d214610486575b600080fd5b61024d6004803603602081101561023757600080fd5b8101908080359060200190929190505050610edb565b604051808e73ffffffffffffffffffffffffffffffffffffffff1673ffffffffffffffffffffffffffffffffffffffff1681526020018d73ffffffffffffffffffffffffffffffffffffffff1673ffffffffffffffffffffffffffffffffffffffff1681526020018c73ffffffffffffffffffffffffffffffffffffffff1673ffffffffffffffffffffffffffffffffffffffff1681526020018b81526020018a81526020018973ffffffffffffffffffffffffffffffffffffffff1673ffffffffffffffffffffffffffffffffffffffff1681526020018881526020018773ffffffffffffffffffffffffffffffffffffffff1673ffffffffffffffffffffffffffffffffffffffff16815260200186815260200185815260200184815260200180602001838152602001828103825284818151815260200191508051906020019080838360005b838110156103b1578082015181840152602081019050610396565b50505050905090810190601f1680156103de5780820380516001836020036101000a031916815260200191505b509e50505050505050505050505050505060405180910390f35b610400611079565b6040518082815260200191505060405180910390f35b6104626004803603604081101561042c57600080fd5b81019080803573ffffffffffffffffffffffffffffffffffffffff1690602001909291908035906020019092919050505061107f565b6040518082600281111561047257fe5b60ff16815260200191505060405180910390f35b61048e611203565b6040518082815260200191505060405180910390f35b6104e6600480360360208110156104ba57600080fd5b81019080803573ffffffffffffffffffffffffffffffffffffffff169060200190929190505050611233565b604051808573ffffffffffffffffffffffffffffffffffffffff1673ffffffffffffffffffffffffffffffffffffffff1681526020018481526020018315151515815260200182815260200194505050505060405180910390f35b61061a6004803603604081101561055757600080fd5b81019080803573ffffffffffffffffffffffffffffffffffffffff1690602001909291908035906020019064010000000081111561059457600080fd5b8201836020820111156105a657600080fd5b803590602001918460018302840111640100000000831117156105c857600080fd5b91908080601f016020809104026020016040519081016040528093929190818152602001838380828437600081840152601f19601f820116905080830192505050505050509192919290505050611290565b005b610624611645565b6040518082815260200191505060405180910390f35b6106666004803603602081101561065057600080fd5b810190808035906020019092919050505061164b565b604051808273ffffffffffffffffffffffffffffffffffffffff1673ffffffffffffffffffffffffffffffffffffffff16815260200191505060405180910390f35b6106ea600480360360208110156106be57600080fd5b81019080803573ffffffffffffffffffffffffffffffffffffffff169060200190929190505050611687565b005b6106f4611bac565b6040518082815260200191505060405180910390f35b6107366004803603602081101561072057600080fd5b8101908080359060200190929190505050611bb2565b6040518082815260200191505060405180910390f35b61078e6004803603602081101561076257600080fd5b81019080803573ffffffffffffffffffffffffffffffffffffffff169060200190929190505050611bd3565b604051808215151515815260200191505060405180910390f35b6107ea600480360360208110156107be57600080fd5b81019080803573ffffffffffffffffffffffffffffffffffffffff169060200190929190505050611bf3565b604051808273ffffffffffffffffffffffffffffffffffffffff1673ffffffffffffffffffffffffffffffffffffffff16815260200191505060405180910390f35b610963600480360360e081101561084257600080fd5b81019080803573ffffffffffffffffffffffffffffffffffffffff1690602001909291908035906020019092919080359060200190929190803573ffffffffffffffffffffffffffffffffffffffff16906020019092919080359060200190929190803573ffffffffffffffffffffffffffffffffffffffff169060200190929190803590602001906401000000008111156108dd57600080fd5b8201836020820111156108ef57600080fd5b8035906020019184600183028401116401000000008311171561091157600080fd5b91908080601f016020809104026020016040519081016040528093929190818152602001838380828437600081840152601f19601f820116905080830192505050505050509192919290505050611c26565b005b61096d612237565b6040518082815260200191505060405180910390f35b6109c56004803603602081101561099957600080fd5b81019080803573ffffffffffffffffffffffffffffffffffffffff16906020019092919050505061223d565b604051808215151515815260200191505060405180910390f35b6109e761225d565b6040518082815260200191505060405180910390f35b610a0561226a565b6040518082815260200191505060405180910390f35b610a23612270565b6040518082815260200191505060405180910390f35b610a6560048036036020811015610a4f57600080fd5b8101908080359060200190929190505050612276565b005b610a6f6123a4565b6040518082815260200191505060405180910390f35b610ab160048036036020811015610a9b57600080fd5b81019080803590602001909291905050506123aa565b604051808215151515815260200191505060405180910390f35b610af760048036036020811015610ae157600080fd5b81019080803590602001909291905050506123d2565b005b610b3260048036036040811015610b0f57600080fd5b8101908080359060200190929190803560ff169060200190929190505050612df7565b005b610b6060048036036020811015610b4a57600080fd5b81019080803590602001909291905050506134b0565b604051808215151515815260200191505060405180910390f35b610b82613565565b604051808273ffffffffffffffffffffffffffffffffffffffff1673ffffffffffffffffffffffffffffffffffffffff16815260200191505060405180910390f35b610bcc61358b565b6040518082815260200191505060405180910390f35b610bea613591565b6040518082815260200191505060405180910390f35b610c08613597565b604051808273ffffffffffffffffffffffffffffffffffffffff1673ffffffffffffffffffffffffffffffffffffffff16815260200191505060405180910390f35b610c526135bd565b6040518082815260200191505060405180910390f35b610c706135c3565b6040518082815260200191505060405180910390f35b610d4660048036036040811015610c9c57600080fd5b810190808035906020019092919080359060200190640100000000811115610cc357600080fd5b820183602082011115610cd557600080fd5b80359060200191846020830284011164010000000083111715610cf757600080fd5b919080806020026020016040519081016040528093929190818152602001838360200280828437600081840152601f19601f8201169050808301925050505050505091929192905050506135c9565b005b610d7460048036036020811015610d5e57600080fd5b81019080803590602001909291905050506137fb565b005b610db860048036036020811015610d8c57600080fd5b81019080803573ffffffffffffffffffffffffffffffffffffffff169060200190929190505050613b32565b604051808215151515815260200191505060405180910390f35b610dfe60048036036020811015610de857600080fd5b8101908080359060200190929190505050613b52565b005b610ed960048036036040811015610e1657600080fd5b81019080803573ffffffffffffffffffffffffffffffffffffffff16906020019092919080359060200190640100000000811115610e5357600080fd5b820183602082011115610e6557600080fd5b80359060200191846001830284011164010000000083111715610e8757600080fd5b91908080601f016020809104026020016040519081016040528093929190818152602001838380828437600081840152601f19601f8201169050808301925050505050505091929192905050506150ae565b005b60136020528060005260406000206000915090508060000160009054906101000a900473ffffffffffffffffffffffffffffffffffffffff16908060010160009054906101000a900473ffffffffffffffffffffffffffffffffffffffff16908060020160009054906101000a900473ffffffffffffffffffffffffffffffffffffffff16908060030154908060040154908060050160009054906101000a900473ffffffffffffffffffffffffffffffffffffffff16908060060154908060070160009054906101000a900473ffffffffffffffffffffffffffffffffffffffff169080600801549080600901549080600a01549080600c018054600181600116156101000203166002900480601f0160208091040260200160405190810160405280929190818152602001828054600181600116156101000203166002900480156110695780601f1061103e57610100808354040283529160200191611069565b820191906000526020600020905b81548152906001019060200180831161104c57829003601f168201915b50505050509080600d015490508d565b60065481565b6000601160008473ffffffffffffffffffffffffffffffffffffffff1673ffffffffffffffffffffffffffffffffffffffff16815260200190815260200160002060020160009054906101000a900460ff16611126576040517f08c379a00000000000000000000000000000000000000000000000000000000081526004018080602001828103825260348152602001806164896034913960400191505060405180910390fd5b6014805490508210611183576040517f08c379a00000000000000000000000000000000000000000000000000000000081526004018080602001828103825260368152602001806160cd6036913960400191505060405180910390fd5b601360006014848154811061119457fe5b90600052602060002001548152602001908152602001600020600e0160008473ffffffffffffffffffffffffffffffffffffffff1673ffffffffffffffffffffffffffffffffffffffff16815260200190815260200160002060009054906101000a900460ff16905092915050565b600061122e600054611220600754426154f190919063ffffffff16565b61553b90919063ffffffff16565b905090565b60116020528060005260406000206000915090508060000160009054906101000a900473ffffffffffffffffffffffffffffffffffffffff16908060010154908060020160009054906101000a900460ff16908060030154905084565b6000601160008473ffffffffffffffffffffffffffffffffffffffff1673ffffffffffffffffffffffffffffffffffffffff168152602001908152602001600020600101541161132b576040517f08c379a00000000000000000000000000000000000000000000000000000000081526004018080602001828103825260458152602001806164446045913960600191505060405180910390fd5b611333615b54565b60018160056006811061134257fe5b602002019015159081151581525050611359615b76565b604051806101c001604052808573ffffffffffffffffffffffffffffffffffffffff1681526020013373ffffffffffffffffffffffffffffffffffffffff168152602001600073ffffffffffffffffffffffffffffffffffffffff1681526020016000815260200160008152602001600073ffffffffffffffffffffffffffffffffffffffff16815260200160008152602001600073ffffffffffffffffffffffffffffffffffffffff168152602001600081526020016000815260200160008152602001838152602001848152602001600081525090508060136000600a54815260200190815260200160002060008201518160000160006101000a81548173ffffffffffffffffffffffffffffffffffffffff021916908373ffffffffffffffffffffffffffffffffffffffff16021790555060208201518160010160006101000a81548173ffffffffffffffffffffffffffffffffffffffff021916908373ffffffffffffffffffffffffffffffffffffffff16021790555060408201518160020160006101000a81548173ffffffffffffffffffffffffffffffffffffffff021916908373ffffffffffffffffffffffffffffffffffffffff160217905550606082015181600301556080820151816004015560a08201518160050160006101000a81548173ffffffffffffffffffffffffffffffffffffffff021916908373ffffffffffffffffffffffffffffffffffffffff16021790555060c0820151816006015560e08201518160070160006101000a81548173ffffffffffffffffffffffffffffffffffffffff021916908373ffffffffffffffffffffffffffffffffffffffff1602179055506101008201518160080155610120820151816009015561014082015181600a015561016082015181600b01906006611601929190615c59565b5061018082015181600c01908051906020019061161f929190615cf2565b506101a082015181600d01559050506001600a6000828254019250508190555050505050565b600c5481565b600e818154811061165857fe5b906000526020600020016000915054906101000a900473ffffffffffffffffffffffffffffffffffffffff1681565b6000601160003373ffffffffffffffffffffffffffffffffffffffff1673ffffffffffffffffffffffffffffffffffffffff1681526020019081526020016000206001015411611722576040517f08c379a0000000000000000000000000000000000000000000000000000000008152600401808060200182810382526021815260200180615f1f6021913960400191505060405180910390fd5b600073ffffffffffffffffffffffffffffffffffffffff168173ffffffffffffffffffffffffffffffffffffffff1614156117a8576040517f08c379a00000000000000000000000000000000000000000000000000000000081526004018080602001828103825260368152602001806166806036913960400191505060405180910390fd5b3373ffffffffffffffffffffffffffffffffffffffff168173ffffffffffffffffffffffffffffffffffffffff161461198757601160008273ffffffffffffffffffffffffffffffffffffffff1673ffffffffffffffffffffffffffffffffffffffff16815260200190815260200160002060020160009054906101000a900460ff1615611881576040517f08c379a000000000000000000000000000000000000000000000000000000000815260040180806020018281038252603b815260200180615eaf603b913960400191505060405180910390fd5b60116000601260008473ffffffffffffffffffffffffffffffffffffffff1673ffffffffffffffffffffffffffffffffffffffff16815260200190815260200160002060009054906101000a900473ffffffffffffffffffffffffffffffffffffffff1673ffffffffffffffffffffffffffffffffffffffff1673ffffffffffffffffffffffffffffffffffffffff16815260200190815260200160002060020160009054906101000a900460ff1615611986576040517f08c379a00000000000000000000000000000000000000000000000000000000081526004018080602001828103825260418152602001806165aa6041913960600191505060405180910390fd5b5b6000601160003373ffffffffffffffffffffffffffffffffffffffff1673ffffffffffffffffffffffffffffffffffffffff16815260200190815260200160002090506000601260008360000160009054906101000a900473ffffffffffffffffffffffffffffffffffffffff1673ffffffffffffffffffffffffffffffffffffffff1673ffffffffffffffffffffffffffffffffffffffff16815260200190815260200160002060006101000a81548173ffffffffffffffffffffffffffffffffffffffff021916908373ffffffffffffffffffffffffffffffffffffffff16021790555033601260008473ffffffffffffffffffffffffffffffffffffffff1673ffffffffffffffffffffffffffffffffffffffff16815260200190815260200160002060006101000a81548173ffffffffffffffffffffffffffffffffffffffff021916908373ffffffffffffffffffffffffffffffffffffffff160217905550818160000160006101000a81548173ffffffffffffffffffffffffffffffffffffffff021916908373ffffffffffffffffffffffffffffffffffffffff1602179055503373ffffffffffffffffffffffffffffffffffffffff167fde7b64a369e10562cc2e71f0f1f944eaf144b75fead6ecb51fac9c4dd693488583604051808273ffffffffffffffffffffffffffffffffffffffff1673ffffffffffffffffffffffffffffffffffffffff16815260200191505060405180910390a25050565b600b5481565b60148181548110611bbf57fe5b906000526020600020016000915090505481565b60106020528060005260406000206000915054906101000a900460ff1681565b60126020528060005260406000206000915054906101000a900473ffffffffffffffffffffffffffffffffffffffff1681565b600d60008573ffffffffffffffffffffffffffffffffffffffff1673ffffffffffffffffffffffffffffffffffffffff16815260200190815260200160002060009054906101000a900460ff16611cc8576040517f08c379a00000000000000000000000000000000000000000000000000000000081526004018080602001828103825260388152602001806161356038913960400191505060405180910390fd5b600d60008373ffffffffffffffffffffffffffffffffffffffff1673ffffffffffffffffffffffffffffffffffffffff16815260200190815260200160002060009054906101000a900460ff16611d6a576040517f08c379a000000000000000000000000000000000000000000000000000000000815260040180806020018281038252603381526020018061609a6033913960400191505060405180910390fd5b600073ffffffffffffffffffffffffffffffffffffffff168773ffffffffffffffffffffffffffffffffffffffff161415611df0576040517f08c379a000000000000000000000000000000000000000000000000000000000815260040180806020018281038252602e81526020018061619b602e913960400191505060405180910390fd5b8373ffffffffffffffffffffffffffffffffffffffff166323b872dd3330886040518463ffffffff1660e01b8152600401808473ffffffffffffffffffffffffffffffffffffffff1673ffffffffffffffffffffffffffffffffffffffff1681526020018373ffffffffffffffffffffffffffffffffffffffff1673ffffffffffffffffffffffffffffffffffffffff1681526020018281526020019350505050602060405180830381600087803b158015611eab57600080fd5b505af1158015611ebf573d6000803e3d6000fd5b505050506040513d6020811015611ed557600080fd5b8101908080519060200190929190505050611f3b576040517f08c379a0000000000000000000000000000000000000000000000000000000008152600401808060200182810382526036815260200180615fdf6036913960400191505060405180910390fd5b611f43615b54565b611f4b615b76565b604051806101c001604052808a73ffffffffffffffffffffffffffffffffffffffff1681526020013373ffffffffffffffffffffffffffffffffffffffff168152602001600073ffffffffffffffffffffffffffffffffffffffff1681526020018981526020018881526020018773ffffffffffffffffffffffffffffffffffffffff1681526020018681526020018573ffffffffffffffffffffffffffffffffffffffff168152602001600081526020016000815260200160008152602001838152602001848152602001600081525090508060136000600a54815260200190815260200160002060008201518160000160006101000a81548173ffffffffffffffffffffffffffffffffffffffff021916908373ffffffffffffffffffffffffffffffffffffffff16021790555060208201518160010160006101000a81548173ffffffffffffffffffffffffffffffffffffffff021916908373ffffffffffffffffffffffffffffffffffffffff16021790555060408201518160020160006101000a81548173ffffffffffffffffffffffffffffffffffffffff021916908373ffffffffffffffffffffffffffffffffffffffff160217905550606082015181600301556080820151816004015560a08201518160050160006101000a81548173ffffffffffffffffffffffffffffffffffffffff021916908373ffffffffffffffffffffffffffffffffffffffff16021790555060c0820151816006015560e08201518160070160006101000a81548173ffffffffffffffffffffffffffffffffffffffff021916908373ffffffffffffffffffffffffffffffffffffffff1602179055506101008201518160080155610120820151816009015561014082015181600a015561016082015181600b019060066121ee929190615c59565b5061018082015181600c01908051906020019061220c929190615cf2565b506101a082015181600d01559050506001600a60008282540192505081905550505050505050505050565b60025481565b600d6020528060005260406000206000915054906101000a900460ff1681565b6000601480549050905090565b60075481565b60015481565b6000601160003373ffffffffffffffffffffffffffffffffffffffff1673ffffffffffffffffffffffffffffffffffffffff1681526020019081526020016000206001015411612311576040517f08c379a0000000000000000000000000000000000000000000000000000000008152600401808060200182810382526021815260200180615f1f6021913960400191505060405180910390fd5b6123a181600e80548060200260200160405190810160405280929190818152602001828054801561239757602002820191906000526020600020905b8160009054906101000a900473ffffffffffffffffffffffffffffffffffffffff1673ffffffffffffffffffffffffffffffffffffffff168152602001906001019080831161234d575b5050505050615585565b50565b60045481565b60006123c1600154836158a690919063ffffffff16565b6123c9611203565b10159050919050565b600060116000601260003373ffffffffffffffffffffffffffffffffffffffff1673ffffffffffffffffffffffffffffffffffffffff16815260200190815260200160002060009054906101000a900473ffffffffffffffffffffffffffffffffffffffff1673ffffffffffffffffffffffffffffffffffffffff1673ffffffffffffffffffffffffffffffffffffffff16815260200190815260200160002060010154116124cc576040517f08c379a0000000000000000000000000000000000000000000000000000000008152600401808060200182810382526025815260200180615fba6025913960400191505060405180910390fd5b600860009054906101000a900473ffffffffffffffffffffffffffffffffffffffff1673ffffffffffffffffffffffffffffffffffffffff166323b872dd33306004546040518463ffffffff1660e01b8152600401808473ffffffffffffffffffffffffffffffffffffffff1673ffffffffffffffffffffffffffffffffffffffff1681526020018373ffffffffffffffffffffffffffffffffffffffff1673ffffffffffffffffffffffffffffffffffffffff1681526020018281526020019350505050602060405180830381600087803b1580156125ab57600080fd5b505af11580156125bf573d6000803e3d6000fd5b505050506040513d60208110156125d557600080fd5b810190808051906020019092919050505061263b576040517f08c379a000000000000000000000000000000000000000000000000000000000815260040180806020018281038252603f815260200180615dea603f913960400191505060405180910390fd5b612643615b76565b60136000838152602001908152602001600020604051806101c00160405290816000820160009054906101000a900473ffffffffffffffffffffffffffffffffffffffff1673ffffffffffffffffffffffffffffffffffffffff1673ffffffffffffffffffffffffffffffffffffffff1681526020016001820160009054906101000a900473ffffffffffffffffffffffffffffffffffffffff1673ffffffffffffffffffffffffffffffffffffffff1673ffffffffffffffffffffffffffffffffffffffff1681526020016002820160009054906101000a900473ffffffffffffffffffffffffffffffffffffffff1673ffffffffffffffffffffffffffffffffffffffff1673ffffffffffffffffffffffffffffffffffffffff16815260200160038201548152602001600482015481526020016005820160009054906101000a900473ffffffffffffffffffffffffffffffffffffffff1673ffffffffffffffffffffffffffffffffffffffff1673ffffffffffffffffffffffffffffffffffffffff168152602001600682015481526020016007820160009054906101000a900473ffffffffffffffffffffffffffffffffffffffff1673ffffffffffffffffffffffffffffffffffffffff1673ffffffffffffffffffffffffffffffffffffffff1681526020016008820154815260200160098201548152602001600a8201548152602001600b82016006806020026040519081016040528092919082600680156128ad576020028201916000905b82829054906101000a900460ff161515815260200190600101906020826000010492830192600103820291508084116128775790505b50505050508152602001600c82018054600181600116156101000203166002900480601f01602080910402602001604051908101604052809291908181526020018280546001816001161561010002031660029004801561294f5780601f106129245761010080835404028352916020019161294f565b820191906000526020600020905b81548152906001019060200180831161293257829003601f168201915b50505050508152602001600d82015481525050905080610160015160006006811061297657fe5b6020020151156129d1576040517f08c379a000000000000000000000000000000000000000000000000000000000815260040180806020018281038252603d815260200180615f7d603d913960400191505060405180910390fd5b8061016001516003600681106129e357fe5b602002015115612a3e576040517f08c379a0000000000000000000000000000000000000000000000000000000008152600401808060200182810382526035815260200180615eea6035913960400191505060405180910390fd5b806101600151600460068110612a5057fe5b602002015115612b1657600f60008260a0015173ffffffffffffffffffffffffffffffffffffffff1673ffffffffffffffffffffffffffffffffffffffff16815260200190815260200160002060009054906101000a900460ff1615612ab557600080fd5b6001600f60008360a0015173ffffffffffffffffffffffffffffffffffffffff1673ffffffffffffffffffffffffffffffffffffffff16815260200190815260200160002060006101000a81548160ff021916908315150217905550612c9c565b806101600151600560068110612b2857fe5b602002015115612bee5760106000826000015173ffffffffffffffffffffffffffffffffffffffff1673ffffffffffffffffffffffffffffffffffffffff16815260200190815260200160002060009054906101000a900460ff1615612b8d57600080fd5b600160106000836000015173ffffffffffffffffffffffffffffffffffffffff1673ffffffffffffffffffffffffffffffffffffffff16815260200190815260200160002060006101000a81548160ff021916908315150217905550612c9b565b670de0b6b3a7640000612c248260600151612c16600c54600b546158a690919063ffffffff16565b6158a690919063ffffffff16565b1115612c7b576040517f08c379a00000000000000000000000000000000000000000000000000000000081526004018080602001828103825260328152602001806164f26032913960400191505060405180910390fd5b612c948160600151600c546158a690919063ffffffff16565b600c819055505b5b6000612d1c6001612d0e612cae611203565b600060148054905014612d0657601360006014612cda60016014805490506154f190919063ffffffff16565b81548110612ce457fe5b9060005260206000200154815260200190815260200160002060080154612d09565b60005b61592e565b6158a690919063ffffffff16565b905080826101000181815250506000601260003373ffffffffffffffffffffffffffffffffffffffff1673ffffffffffffffffffffffffffffffffffffffff16815260200190815260200160002060009054906101000a900473ffffffffffffffffffffffffffffffffffffffff16905080836040019073ffffffffffffffffffffffffffffffffffffffff16908173ffffffffffffffffffffffffffffffffffffffff1681525050601484908060018154018082558091505090600182039060005260206000200160009091929091909150555050505050565b600060116000601260003373ffffffffffffffffffffffffffffffffffffffff1673ffffffffffffffffffffffffffffffffffffffff16815260200190815260200160002060009054906101000a900473ffffffffffffffffffffffffffffffffffffffff1673ffffffffffffffffffffffffffffffffffffffff1673ffffffffffffffffffffffffffffffffffffffff1681526020019081526020016000206001015411612ef1576040517f08c379a0000000000000000000000000000000000000000000000000000000008152600401808060200182810382526025815260200180615fba6025913960400191505060405180910390fd5b6000601260003373ffffffffffffffffffffffffffffffffffffffff1673ffffffffffffffffffffffffffffffffffffffff16815260200190815260200160002060009054906101000a900473ffffffffffffffffffffffffffffffffffffffff1690506000601160008373ffffffffffffffffffffffffffffffffffffffff1673ffffffffffffffffffffffffffffffffffffffff16815260200190815260200160002090506014805490508410612ff5576040517f08c379a000000000000000000000000000000000000000000000000000000000815260040180806020018281038252602c8152602001806162bf602c913960400191505060405180910390fd5b6000601360006014878154811061300857fe5b90600052602060002001548152602001908152602001600020905060038460ff161061307f576040517f08c379a00000000000000000000000000000000000000000000000000000000081526004018080602001828103825260318152602001806166b66031913960400191505060405180910390fd5b60008460ff16600281111561309057fe5b905081600b016000600681106130a257fe5b602091828204019190069054906101000a900460ff1661310d576040517f08c379a000000000000000000000000000000000000000000000000000000000815260040180806020018281038252603481526020018061622d6034913960400191505060405180910390fd5b816008015461311a611203565b1015613171576040517f08c379a00000000000000000000000000000000000000000000000000000000081526004018080602001828103825260328152602001806165eb6032913960400191505060405180910390fd5b61317e82600801546123aa565b156131d4576040517f08c379a00000000000000000000000000000000000000000000000000000000081526004018080602001828103825260378152602001806161f66037913960400191505060405180910390fd5b600060028111156131e157fe5b82600e0160008673ffffffffffffffffffffffffffffffffffffffff1673ffffffffffffffffffffffffffffffffffffffff16815260200190815260200160002060009054906101000a900460ff16600281111561323b57fe5b14613291576040517f08c379a000000000000000000000000000000000000000000000000000000000815260040180806020018281038252603e81526020018061656c603e913960400191505060405180910390fd5b6001600281111561329e57fe5b8160028111156132aa57fe5b14806132cb57506002808111156132bd57fe5b8160028111156132c957fe5b145b613320576040517f08c379a00000000000000000000000000000000000000000000000000000000081526004018080602001828103825260328152602001806161036032913960400191505060405180910390fd5b8082600e0160008673ffffffffffffffffffffffffffffffffffffffff1673ffffffffffffffffffffffffffffffffffffffff16815260200190815260200160002060006101000a81548160ff0219169083600281111561337d57fe5b02179055506001600281111561338f57fe5b81600281111561339b57fe5b14156133f9576133bc836001015483600901546158a690919063ffffffff16565b826009018190555082600301548611156133da578583600301819055505b81600d0154600b5411156133f457600b5482600d01819055505b61343c565b60028081111561340557fe5b81600281111561341157fe5b141561343b57613432836001015483600a01546158a690919063ffffffff16565b82600a01819055505b5b8373ffffffffffffffffffffffffffffffffffffffff163373ffffffffffffffffffffffffffffffffffffffff16877f29bf0061f2faa9daa482f061b116195432d435536d8af4ae6b3c5dd78223679b88604051808260ff1660ff16815260200191505060405180910390a4505050505050565b6000601480549050821061350f576040517f08c379a000000000000000000000000000000000000000000000000000000000815260040180806020018281038252602d8152602001806161c9602d913960400191505060405180910390fd5b601360006014848154811061352057fe5b90600052602060002001548152602001908152602001600020600b0160016006811061354857fe5b602091828204019190069054906101000a900460ff169050919050565b600960009054906101000a900473ffffffffffffffffffffffffffffffffffffffff1681565b60055481565b60005481565b600860009054906101000a900473ffffffffffffffffffffffffffffffffffffffff1681565b60035481565b600a5481565b6000601160003373ffffffffffffffffffffffffffffffffffffffff1673ffffffffffffffffffffffffffffffffffffffff1681526020019081526020016000206001015411613664576040517f08c379a0000000000000000000000000000000000000000000000000000000008152600401808060200182810382526021815260200180615f1f6021913960400191505060405180910390fd5b60008090505b81518110156137ec57600d600083838151811061368357fe5b602002602001015173ffffffffffffffffffffffffffffffffffffffff1673ffffffffffffffffffffffffffffffffffffffff16815260200190815260200160002060009054906101000a900460ff16613728576040517f08c379a000000000000000000000000000000000000000000000000000000000815260040180806020018281038252602e81526020018061616d602e913960400191505060405180910390fd5b60008111156137df5781600182038151811061374057fe5b602002602001015173ffffffffffffffffffffffffffffffffffffffff1682828151811061376a57fe5b602002602001015173ffffffffffffffffffffffffffffffffffffffff16116137de576040517f08c379a00000000000000000000000000000000000000000000000000000000081526004018080602001828103825260468152602001806160546046913960600191505060405180910390fd5b5b808060010191505061366a565b506137f78282615585565b5050565b600060136000838152602001908152602001600020905080600b0160006006811061382257fe5b602091828204019190069054906101000a900460ff161561388e576040517f08c379a000000000000000000000000000000000000000000000000000000000815260040180806020018281038252603c81526020018061636e603c913960400191505060405180910390fd5b8060010160009054906101000a900473ffffffffffffffffffffffffffffffffffffffff1673ffffffffffffffffffffffffffffffffffffffff163373ffffffffffffffffffffffffffffffffffffffff1614613936576040517f08c379a00000000000000000000000000000000000000000000000000000000081526004018080602001828103825260358152602001806164bd6035913960400191505060405180910390fd5b600181600b0160036006811061394857fe5b602091828204019190066101000a81548160ff0219169083151502179055508060050160009054906101000a900473ffffffffffffffffffffffffffffffffffffffff1673ffffffffffffffffffffffffffffffffffffffff1663a9059cbb8260010160009054906101000a900473ffffffffffffffffffffffffffffffffffffffff1683600401546040518363ffffffff1660e01b8152600401808373ffffffffffffffffffffffffffffffffffffffff1673ffffffffffffffffffffffffffffffffffffffff16815260200182815260200192505050602060405180830381600087803b158015613a3a57600080fd5b505af1158015613a4e573d6000803e3d6000fd5b505050506040513d6020811015613a6457600080fd5b8101908080519060200190929190505050613aca576040517f08c379a000000000000000000000000000000000000000000000000000000000815260040180806020018281038252603e815260200180616406603e913960400191505060405180910390fd5b817fc215fed6680bb02d323dc3f8b8f85241572607538426059c9232601bd293c3be33604051808273ffffffffffffffffffffffffffffffffffffffff1673ffffffffffffffffffffffffffffffffffffffff16815260200191505060405180910390a25050565b600f6020528060005260406000206000915054906101000a900460ff1681565b6014805490508110613baf576040517f08c379a00000000000000000000000000000000000000000000000000000000081526004018080602001828103825260318152602001806167606031913960400191505060405180910390fd5b60006013600060148481548110613bc257fe5b906000526020600020015481526020019081526020016000209050613c0a600254613bfc60015484600801546158a690919063ffffffff16565b6158a690919063ffffffff16565b613c12611203565b1015613c69576040517f08c379a000000000000000000000000000000000000000000000000000000000815260040180806020018281038252603f815260200180616015603f913960400191505060405180910390fd5b6000151581600b01600160068110613c7d57fe5b602091828204019190069054906101000a900460ff16151514613ceb576040517f08c379a000000000000000000000000000000000000000000000000000000000815260040180806020018281038252603d815260200180616723603d913960400191505060405180910390fd5b6000821480613d585750601360006014613d0f6001866154f190919063ffffffff16565b81548110613d1957fe5b90600052602060002001548152602001908152602001600020600b01600160068110613d4157fe5b602091828204019190069054906101000a900460ff165b613dad576040517f08c379a000000000000000000000000000000000000000000000000000000000815260040180806020018281038252603d815260200180616331603d913960400191505060405180910390fd5b600181600b01600160068110613dbf57fe5b602091828204019190066101000a81548160ff021916908315150217905550613df78160030154600c546154f190919063ffffffff16565b600c81905550600081600a015482600901541190506000809050613e52600354613e44600254613e3660015488600801546158a690919063ffffffff16565b6158a690919063ffffffff16565b6158a690919063ffffffff16565b613e5a611203565b10613e685760019050600091505b82600d0154613e84600554600b5461594890919063ffffffff16565b1015613e8f57600091505b8260070160009054906101000a900473ffffffffffffffffffffffffffffffffffffffff1673ffffffffffffffffffffffffffffffffffffffff166370a08231600960009054906101000a900473ffffffffffffffffffffffffffffffffffffffff166040518263ffffffff1660e01b8152600401808273ffffffffffffffffffffffffffffffffffffffff1673ffffffffffffffffffffffffffffffffffffffff16815260200191505060206040518083038186803b158015613f5257600080fd5b505afa158015613f66573d6000803e3d6000fd5b505050506040513d6020811015613f7c57600080fd5b8101908080519060200190929190505050836006015410613f9c57600091505b8115614b4057600183600b01600260068110613fb457fe5b602091828204019190066101000a81548160ff02191690831515021790555082600b01600460068110613fe357fe5b602091828204019190069054906101000a900460ff1615614109576001600d60008560050160009054906101000a900473ffffffffffffffffffffffffffffffffffffffff1673ffffffffffffffffffffffffffffffffffffffff1673ffffffffffffffffffffffffffffffffffffffff16815260200190815260200160002060006101000a81548160ff021916908315150217905550600e8360050160009054906101000a900473ffffffffffffffffffffffffffffffffffffffff1690806001815401808255809150509060018203906000526020600020016000909192909190916101000a81548173ffffffffffffffffffffffffffffffffffffffff021916908373ffffffffffffffffffffffffffffffffffffffff16021790555050614b3b565b82600b0160056006811061411957fe5b602091828204019190069054906101000a900460ff161561422f5761422a601160008560000160009054906101000a900473ffffffffffffffffffffffffffffffffffffffff1673ffffffffffffffffffffffffffffffffffffffff1673ffffffffffffffffffffffffffffffffffffffff16815260200190815260200160002060010154600e80548060200260200160405190810160405280929190818152602001828054801561422057602002820191906000526020600020905b8160009054906101000a900473ffffffffffffffffffffffffffffffffffffffff1673ffffffffffffffffffffffffffffffffffffffff16815260200190600101908083116141d6575b5050505050615585565b614b3a565b601160008460000160009054906101000a900473ffffffffffffffffffffffffffffffffffffffff1673ffffffffffffffffffffffffffffffffffffffff1673ffffffffffffffffffffffffffffffffffffffff16815260200190815260200160002060020160009054906101000a900460ff1615614394576143258360030154601160008660000160009054906101000a900473ffffffffffffffffffffffffffffffffffffffff1673ffffffffffffffffffffffffffffffffffffffff1673ffffffffffffffffffffffffffffffffffffffff168152602001908152602001600020600101546158a690919063ffffffff16565b601160008560000160009054906101000a900473ffffffffffffffffffffffffffffffffffffffff1673ffffffffffffffffffffffffffffffffffffffff1673ffffffffffffffffffffffffffffffffffffffff16815260200190815260200160002060010181905550614800565b60116000601260008660000160009054906101000a900473ffffffffffffffffffffffffffffffffffffffff1673ffffffffffffffffffffffffffffffffffffffff1673ffffffffffffffffffffffffffffffffffffffff16815260200190815260200160002060009054906101000a900473ffffffffffffffffffffffffffffffffffffffff1673ffffffffffffffffffffffffffffffffffffffff1673ffffffffffffffffffffffffffffffffffffffff16815260200190815260200160002060020160009054906101000a900460ff16156145f5576000601260008560000160009054906101000a900473ffffffffffffffffffffffffffffffffffffffff1673ffffffffffffffffffffffffffffffffffffffff1673ffffffffffffffffffffffffffffffffffffffff16815260200190815260200160002060009054906101000a900473ffffffffffffffffffffffffffffffffffffffff16905080601260008373ffffffffffffffffffffffffffffffffffffffff1673ffffffffffffffffffffffffffffffffffffffff16815260200190815260200160002060006101000a81548173ffffffffffffffffffffffffffffffffffffffff021916908373ffffffffffffffffffffffffffffffffffffffff16021790555080601160008373ffffffffffffffffffffffffffffffffffffffff1673ffffffffffffffffffffffffffffffffffffffff16815260200190815260200160002060000160006101000a81548173ffffffffffffffffffffffffffffffffffffffff021916908373ffffffffffffffffffffffffffffffffffffffff160217905550505b60405180608001604052808460000160009054906101000a900473ffffffffffffffffffffffffffffffffffffffff1673ffffffffffffffffffffffffffffffffffffffff168152602001846003015481526020016001151581526020016000815250601160008560000160009054906101000a900473ffffffffffffffffffffffffffffffffffffffff1673ffffffffffffffffffffffffffffffffffffffff1673ffffffffffffffffffffffffffffffffffffffff16815260200190815260200160002060008201518160000160006101000a81548173ffffffffffffffffffffffffffffffffffffffff021916908373ffffffffffffffffffffffffffffffffffffffff1602179055506020820151816001015560408201518160020160006101000a81548160ff021916908315150217905550606082015181600301559050508260000160009054906101000a900473ffffffffffffffffffffffffffffffffffffffff16601260008560000160009054906101000a900473ffffffffffffffffffffffffffffffffffffffff1673ffffffffffffffffffffffffffffffffffffffff1673ffffffffffffffffffffffffffffffffffffffff16815260200190815260200160002060006101000a81548173ffffffffffffffffffffffffffffffffffffffff021916908373ffffffffffffffffffffffffffffffffffffffff1602179055505b6148198360030154600b546158a690919063ffffffff16565b600b819055508260050160009054906101000a900473ffffffffffffffffffffffffffffffffffffffff1673ffffffffffffffffffffffffffffffffffffffff1663a9059cbb600960009054906101000a900473ffffffffffffffffffffffffffffffffffffffff1685600401546040518363ffffffff1660e01b8152600401808373ffffffffffffffffffffffffffffffffffffffff1673ffffffffffffffffffffffffffffffffffffffff16815260200182815260200192505050602060405180830381600087803b1580156148f057600080fd5b505af1158015614904573d6000803e3d6000fd5b505050506040513d602081101561491a57600080fd5b8101908080519060200190929190505050614980576040517f08c379a000000000000000000000000000000000000000000000000000000000815260040180806020018281038252603d81526020018061661d603d913960400191505060405180910390fd5b600960009054906101000a900473ffffffffffffffffffffffffffffffffffffffff1673ffffffffffffffffffffffffffffffffffffffff166301e336678460070160009054906101000a900473ffffffffffffffffffffffffffffffffffffffff168560000160009054906101000a900473ffffffffffffffffffffffffffffffffffffffff1686600601546040518463ffffffff1660e01b8152600401808473ffffffffffffffffffffffffffffffffffffffff1673ffffffffffffffffffffffffffffffffffffffff1681526020018373ffffffffffffffffffffffffffffffffffffffff1673ffffffffffffffffffffffffffffffffffffffff1681526020018281526020019350505050602060405180830381600087803b158015614aa957600080fd5b505af1158015614abd573d6000803e3d6000fd5b505050506040513d6020811015614ad357600080fd5b8101908080519060200190929190505050614b39576040517f08c379a000000000000000000000000000000000000000000000000000000000815260040180806020018281038252603b8152602001806163aa603b913960400191505060405180910390fd5b5b5b614caa565b80614ca9578260050160009054906101000a900473ffffffffffffffffffffffffffffffffffffffff1673ffffffffffffffffffffffffffffffffffffffff1663a9059cbb8460010160009054906101000a900473ffffffffffffffffffffffffffffffffffffffff1685600401546040518363ffffffff1660e01b8152600401808373ffffffffffffffffffffffffffffffffffffffff1673ffffffffffffffffffffffffffffffffffffffff16815260200182815260200192505050602060405180830381600087803b158015614c1857600080fd5b505af1158015614c2c573d6000803e3d6000fd5b505050506040513d6020811015614c4257600080fd5b8101908080519060200190929190505050614ca8576040517f08c379a000000000000000000000000000000000000000000000000000000000815260040180806020018281038252603c815260200180615e73603c913960400191505060405180910390fd5b5b5b82600b01600460068110614cba57fe5b602091828204019190069054906101000a900460ff1615614d52576000600f60008560050160009054906101000a900473ffffffffffffffffffffffffffffffffffffffff1673ffffffffffffffffffffffffffffffffffffffff1673ffffffffffffffffffffffffffffffffffffffff16815260200190815260200160002060006101000a81548160ff0219169083151502179055505b82600b01600560068110614d6257fe5b602091828204019190069054906101000a900460ff1615614dfa576000601060008560000160009054906101000a900473ffffffffffffffffffffffffffffffffffffffff1673ffffffffffffffffffffffffffffffffffffffff1673ffffffffffffffffffffffffffffffffffffffff16815260200190815260200160002060006101000a81548160ff0219169083151502179055505b600860009054906101000a900473ffffffffffffffffffffffffffffffffffffffff1673ffffffffffffffffffffffffffffffffffffffff1663a9059cbb336006546040518363ffffffff1660e01b8152600401808373ffffffffffffffffffffffffffffffffffffffff1673ffffffffffffffffffffffffffffffffffffffff16815260200182815260200192505050602060405180830381600087803b158015614ea557600080fd5b505af1158015614eb9573d6000803e3d6000fd5b505050506040513d6020811015614ecf57600080fd5b8101908080519060200190929190505050614f35576040517f08c379a00000000000000000000000000000000000000000000000000000000081526004018080602001828103825260488152602001806165246048913960600191505060405180910390fd5b600860009054906101000a900473ffffffffffffffffffffffffffffffffffffffff1673ffffffffffffffffffffffffffffffffffffffff1663a9059cbb8460020160009054906101000a900473ffffffffffffffffffffffffffffffffffffffff16614faf6006546004546154f190919063ffffffff16565b6040518363ffffffff1660e01b8152600401808373ffffffffffffffffffffffffffffffffffffffff1673ffffffffffffffffffffffffffffffffffffffff16815260200182815260200192505050602060405180830381600087803b15801561501857600080fd5b505af115801561502c573d6000803e3d6000fd5b505050506040513d602081101561504257600080fd5b81019080805190602001909291905050506150a8576040517f08c379a00000000000000000000000000000000000000000000000000000000081526004018080602001828103825260468152602001806162eb6046913960600191505060405180910390fd5b50505050565b600073ffffffffffffffffffffffffffffffffffffffff168273ffffffffffffffffffffffffffffffffffffffff161415615134576040517f08c379a000000000000000000000000000000000000000000000000000000000815260040180806020018281038252603c8152602001806166e7603c913960400191505060405180910390fd5b600d60008373ffffffffffffffffffffffffffffffffffffffff1673ffffffffffffffffffffffffffffffffffffffff16815260200190815260200160002060009054906101000a900460ff16156151d7576040517f08c379a000000000000000000000000000000000000000000000000000000000815260040180806020018281038252604a815260200180615e29604a913960600191505060405180910390fd5b6151df615b54565b6001816004600681106151ee57fe5b602002019015159081151581525050615205615b76565b604051806101c00160405280600073ffffffffffffffffffffffffffffffffffffffff1681526020013373ffffffffffffffffffffffffffffffffffffffff168152602001600073ffffffffffffffffffffffffffffffffffffffff16815260200160008152602001600081526020018573ffffffffffffffffffffffffffffffffffffffff16815260200160008152602001600073ffffffffffffffffffffffffffffffffffffffff168152602001600081526020016000815260200160008152602001838152602001848152602001600081525090508060136000600a54815260200190815260200160002060008201518160000160006101000a81548173ffffffffffffffffffffffffffffffffffffffff021916908373ffffffffffffffffffffffffffffffffffffffff16021790555060208201518160010160006101000a81548173ffffffffffffffffffffffffffffffffffffffff021916908373ffffffffffffffffffffffffffffffffffffffff16021790555060408201518160020160006101000a81548173ffffffffffffffffffffffffffffffffffffffff021916908373ffffffffffffffffffffffffffffffffffffffff160217905550606082015181600301556080820151816004015560a08201518160050160006101000a81548173ffffffffffffffffffffffffffffffffffffffff021916908373ffffffffffffffffffffffffffffffffffffffff16021790555060c0820151816006015560e08201518160070160006101000a81548173ffffffffffffffffffffffffffffffffffffffff021916908373ffffffffffffffffffffffffffffffffffffffff1602179055506101008201518160080155610120820151816009015561014082015181600a015561016082015181600b019060066154ad929190615c59565b5061018082015181600c0190805190602001906154cb929190615cf2565b506101a082015181600d01559050506001600a6000828254019250508190555050505050565b600061553383836040518060400160405280601e81526020017f536166654d6174683a207375627472616374696f6e206f766572666c6f7700008152506159ce565b905092915050565b600061557d83836040518060400160405280601a81526020017f536166654d6174683a206469766973696f6e206279207a65726f000000000000815250615a8e565b905092915050565b6000600b5490506000601160003373ffffffffffffffffffffffffffffffffffffffff1673ffffffffffffffffffffffffffffffffffffffff1681526020019081526020016000209050838160010154101561562c576040517f08c379a000000000000000000000000000000000000000000000000000000000815260040180806020018281038252602681526020018061665a6026913960400191505060405180910390fd5b61563981600301546134b0565b61568e576040517f08c379a000000000000000000000000000000000000000000000000000000000815260040180806020018281038252605e815260200180616261605e913960600191505060405180910390fd5b6156a58482600101546154f190919063ffffffff16565b81600101819055506156c284600b546154f190919063ffffffff16565b600b81905550600960009054906101000a900473ffffffffffffffffffffffffffffffffffffffff1673ffffffffffffffffffffffffffffffffffffffff1663732c8f57338685876040518563ffffffff1660e01b8152600401808573ffffffffffffffffffffffffffffffffffffffff1673ffffffffffffffffffffffffffffffffffffffff16815260200184815260200183815260200180602001828103825283818151815260200191508051906020019060200280838360005b8381101561579a57808201518184015260208101905061577f565b5050505090500195505050505050602060405180830381600087803b1580156157c257600080fd5b505af11580156157d6573d6000803e3d6000fd5b505050506040513d60208110156157ec57600080fd5b8101908080519060200190929190505050615852576040517f08c379a000000000000000000000000000000000000000000000000000000000815260040180806020018281038252603d815260200180615f40603d913960400191505060405180910390fd5b3373ffffffffffffffffffffffffffffffffffffffff167f667cb7a1818eacd2e3a421e734429ba9c4c7dec85e578e098b6d72cd2bfbf2f6856040518082815260200191505060405180910390a250505050565b600080828401905083811015615924576040517f08c379a000000000000000000000000000000000000000000000000000000000815260040180806020018281038252601b8152602001807f536166654d6174683a206164646974696f6e206f766572666c6f77000000000081525060200191505060405180910390fd5b8091505092915050565b60008183101561593e5781615940565b825b905092915050565b60008083141561595b57600090506159c8565b600082840290508284828161596c57fe5b04146159c3576040517f08c379a00000000000000000000000000000000000000000000000000000000081526004018080602001828103825260218152602001806163e56021913960400191505060405180910390fd5b809150505b92915050565b6000838311158290615a7b576040517f08c379a00000000000000000000000000000000000000000000000000000000081526004018080602001828103825283818151815260200191508051906020019080838360005b83811015615a40578082015181840152602081019050615a25565b50505050905090810190601f168015615a6d5780820380516001836020036101000a031916815260200191505b509250505060405180910390fd5b5060008385039050809150509392505050565b60008083118290615b3a576040517f08c379a00000000000000000000000000000000000000000000000000000000081526004018080602001828103825283818151815260200191508051906020019080838360005b83811015615aff578082015181840152602081019050615ae4565b50505050905090810190601f168015615b2c5780820380516001836020036101000a031916815260200191505b509250505060405180910390fd5b506000838581615b4657fe5b049050809150509392505050565b6040518060c00160405280600690602082028038833980820191505090505090565b604051806101c00160405280600073ffffffffffffffffffffffffffffffffffffffff168152602001600073ffffffffffffffffffffffffffffffffffffffff168152602001600073ffffffffffffffffffffffffffffffffffffffff1681526020016000815260200160008152602001600073ffffffffffffffffffffffffffffffffffffffff16815260200160008152602001600073ffffffffffffffffffffffffffffffffffffffff168152602001600081526020016000815260200160008152602001615c45615d72565b815260200160608152602001600081525090565b826006601f01602090048101928215615ce15791602002820160005b83821115615cb257835183826101000a81548160ff0219169083151502179055509260200192600101602081600001049283019260010302615c75565b8015615cdf5782816101000a81549060ff0219169055600101602081600001049283019260010302615cb2565b505b509050615cee9190615d94565b5090565b828054600181600116156101000203166002900490600052602060002090601f016020900481019282601f10615d3357805160ff1916838001178555615d61565b82800160010185558215615d61579182015b82811115615d60578251825591602001919060010190615d45565b5b509050615d6e9190615dc4565b5090565b6040518060c00160405280600690602082028038833980820191505090505090565b615dc191905b80821115615dbd57600081816101000a81549060ff021916905550600101615d9a565b5090565b90565b615de691905b80821115615de2576000816000905550600101615dca565b5090565b9056fe4d6f6c6f63683a3a7375626d697450726f706f73616c202d2070726f706f73616c206465706f73697420746f6b656e207472616e73666572206661696c65644d6f6c6f63683a3a7375626d697457686974656c69737450726f706f73616c202d2063616e277420616c726561647920686176652077686974656c69737465642074686520746f6b656e4d6f6c6f63683a3a70726f6365737350726f706f73616c202d206661696c696e6720766f746520746f6b656e207472616e73666572206661696c65644d6f6c6f63683a3a75706461746544656c65676174654b6579202d2063616e74206f7665727772697465206578697374696e67206d656d626572734d6f6c6f63683a3a73706f6e736f7250726f706f73616c202d2070726f706f73616c20686173206265656e2063616e63656c6c65644d6f6c6f63683a3a6f6e6c794d656d626572202d206e6f742061206d656d6265724d6f6c6f63683a3a7261676571756974202d207769746864726177616c206f6620746f6b656e732066726f6d206775696c6442616e6b206661696c65644d6f6c6f63683a3a73706f6e736f7250726f706f73616c202d2070726f706f73616c2068617320616c7265616479206265656e2073706f6e736f7265644d6f6c6f63683a3a6f6e6c7944656c6567617465202d206e6f7420612064656c65676174654d6f6c6f63683a3a7375626d697450726f706f73616c202d207472696275746520746f6b656e207472616e73666572206661696c65644d6f6c6f63683a3a70726f6365737350726f706f73616c202d2070726f706f73616c206973206e6f7420726561647920746f2062652070726f6365737365644d6f6c6f63683a3a736166655261676571756974202d20746f6b656e4c697374206d75737420626520756e6971756520616e6420696e20617363656e64696e67206f726465724d6f6c6f63683a3a7375626d697450726f706f73616c202d207061796d656e74206973206e6f742077686974656c69737465644d6f6c6f63683a3a6765744d656d62657250726f706f73616c566f7465202d2070726f706f73616c20646f65736e27742065786973744d6f6c6f63683a3a7375626d6974566f7465202d20766f7465206d7573742062652065697468657220596573206f72204e6f4d6f6c6f63683a3a7375626d697450726f706f73616c202d2074726962757465546f6b656e206973206e6f742077686974656c69737465644d6f6c6f63683a3a73616665526571756974202d20746f6b656e206d7573742062652077686974656c69737465644d6f6c6f63683a3a7375626d697450726f706f73616c202d206170706c6963616e742063616e6e6f7420626520304d6f6c6f63683a3a63616e5261676571756974202d2070726f706f73616c20646f6573206e6f742065786973744d6f6c6f63683a3a7375626d6974566f7465202d2070726f706f73616c20766f74696e6720706572696f642068617320657870697265644d6f6c6f63683a3a7375626d6974566f7465202d2070726f706f73616c20686173206e6f74206265656e2073706f6e736f7265644d6f6c6f63683a3a7261676571756974202d2063616e7420726167657175697420756e74696c206869676865737420696e6465782070726f706f73616c206d656d62657220766f74656420594553206f6e2069732070726f6365737365644d6f6c6f63683a3a7375626d6974566f7465202d2070726f706f73616c20646f6573206e6f742065786973744d6f6c6f63683a3a70726f6365737350726f706f73616c202d206661696c656420746f2072657475726e2070726f706f73616c206465706f73697420746f2073706f6e736f724d6f6c6f63683a3a70726f6365737350726f706f73616c202d2070726576696f75732070726f706f73616c206d7573742062652070726f6365737365644d6f6c6f63683a3a63616e63656c50726f706f73616c202d2070726f706f73616c2068617320616c7265616479206265656e2073706f6e736f7265644d6f6c6f63683a3a70726f6365737350726f706f73616c202d20746f6b656e207061796d656e7420746f206170706c6963616e74206661696c6564536166654d6174683a206d756c7469706c69636174696f6e206f766572666c6f774d6f6c6f63683a3a70726f6365737350726f706f73616c202d206661696c656420746f2072657475726e207472696275746520746f2070726f706f7365724d6f6c6f63683a3a7375626d69744775696c644b69636b50726f706f73616c202d206d656d626572206d7573742068617665206174206c65617374206f6e652073686172654d6f6c6f63683a3a6765744d656d62657250726f706f73616c566f7465202d206d656d62657220646f65736e27742065786973744d6f6c6f63683a3a63616e63656c50726f706f73616c202d206f6e6c79207468652070726f706f7365722063616e2063616e63656c4d6f6c6f63683a3a7375626d697450726f706f73616c202d20746f6f206d616e7920736861726573207265717565737465644d6f6c6f63683a3a70726f6365737350726f706f73616c202d206661696c656420746f2073656e642070726f63657373696e672072657761726420746f206d73672e73656e6465724d6f6c6f63683a3a7375626d6974566f7465202d206d656d6265722068617320616c726561647920766f746564206f6e20746869732070726f706f73616c4d6f6c6f63683a3a75706461746544656c65676174654b6579202d2063616e74206f7665727772697465206578697374696e672064656c6567617465206b6579734d6f6c6f63683a3a7375626d6974566f7465202d20766f74696e6720706572696f6420686173206e6f7420737461727465644d6f6c6f63683a3a70726f6365737350726f706f73616c202d20746f6b656e207472616e7366657220746f206775696c642062616e6b206661696c65644d6f6c6f63683a3a7261676571756974202d20696e73756666696369656e74207368617265734d6f6c6f63683a3a75706461746544656c65676174654b6579202d206e657744656c65676174654b65792063616e6e6f7420626520304d6f6c6f63683a3a7375626d6974566f7465202d2075696e74566f7465206d757374206265206c657373207468616e20334d6f6c6f63683a3a7375626d697457686974656c69737450726f706f73616c202d206d7573742070726f7669646520746f6b656e20616464726573734d6f6c6f63683a3a70726f6365737350726f706f73616c202d2070726f706f73616c2068617320616c7265616479206265656e2070726f6365737365644d6f6c6f63683a3a70726f6365737350726f706f73616c202d2070726f706f73616c20646f6573206e6f74206578697374a265627a7a723158208e8a16171d601e0bfeabb7dcb5fa64785a632b0108ca24d182528f92f172746f64736f6c63430005100032608060405260006100146100b760201b60201c565b9050806000806101000a81548173ffffffffffffffffffffffffffffffffffffffff021916908373ffffffffffffffffffffffffffffffffffffffff1602179055508073ffffffffffffffffffffffffffffffffffffffff16600073ffffffffffffffffffffffffffffffffffffffff167f8be0079c531659141344cd1fd0a4f28419497f9722a3daafe3b4186f6b6457e060405160405180910390a3506100bf565b600033905090565b610cd8806100ce6000396000f3fe608060405234801561001057600080fd5b50600436106100625760003560e01c806301e3366714610067578063715018a6146100ed578063732c8f57146100f75780638da5cb5b146101fb5780638f32d59b14610245578063f2fde38b14610267575b600080fd5b6100d36004803603606081101561007d57600080fd5b81019080803573ffffffffffffffffffffffffffffffffffffffff169060200190929190803573ffffffffffffffffffffffffffffffffffffffff169060200190929190803590602001909291905050506102ab565b604051808215151515815260200191505060405180910390f35b6100f5610457565b005b6101e16004803603608081101561010d57600080fd5b81019080803573ffffffffffffffffffffffffffffffffffffffff16906020019092919080359060200190929190803590602001909291908035906020019064010000000081111561015e57600080fd5b82018360208201111561017057600080fd5b8035906020019184602083028401116401000000008311171561019257600080fd5b919080806020026020016040519081016040528093929190818152602001838360200280828437600081840152601f19601f820116905080830192505050505050509192919290505050610590565b604051808215151515815260200191505060405180910390f35b61020361086d565b604051808273ffffffffffffffffffffffffffffffffffffffff1673ffffffffffffffffffffffffffffffffffffffff16815260200191505060405180910390f35b61024d610896565b604051808215151515815260200191505060405180910390f35b6102a96004803603602081101561027d57600080fd5b81019080803573ffffffffffffffffffffffffffffffffffffffff1690602001909291905050506108f4565b005b60006102b5610896565b610327576040517f08c379a00000000000000000000000000000000000000000000000000000000081526004018080602001828103825260208152602001807f4f776e61626c653a2063616c6c6572206973206e6f7420746865206f776e657281525060200191505060405180910390fd5b8373ffffffffffffffffffffffffffffffffffffffff168373ffffffffffffffffffffffffffffffffffffffff167f2717ead6b9200dd235aad468c9809ea400fe33ac69b5bfaa6d3e90fc922b6398846040518082815260200191505060405180910390a38373ffffffffffffffffffffffffffffffffffffffff1663a9059cbb84846040518363ffffffff1660e01b8152600401808373ffffffffffffffffffffffffffffffffffffffff1673ffffffffffffffffffffffffffffffffffffffff16815260200182815260200192505050602060405180830381600087803b15801561041357600080fd5b505af1158015610427573d6000803e3d6000fd5b505050506040513d602081101561043d57600080fd5b810190808051906020019092919050505090509392505050565b61045f610896565b6104d1576040517f08c379a00000000000000000000000000000000000000000000000000000000081526004018080602001828103825260208152602001807f4f776e61626c653a2063616c6c6572206973206e6f7420746865206f776e657281525060200191505060405180910390fd5b600073ffffffffffffffffffffffffffffffffffffffff166000809054906101000a900473ffffffffffffffffffffffffffffffffffffffff1673ffffffffffffffffffffffffffffffffffffffff167f8be0079c531659141344cd1fd0a4f28419497f9722a3daafe3b4186f6b6457e060405160405180910390a360008060006101000a81548173ffffffffffffffffffffffffffffffffffffffff021916908373ffffffffffffffffffffffffffffffffffffffff160217905550565b600061059a610896565b61060c576040517f08c379a00000000000000000000000000000000000000000000000000000000081526004018080602001828103825260208152602001807f4f776e61626c653a2063616c6c6572206973206e6f7420746865206f776e657281525060200191505060405180910390fd5b6000809050825181101561086357600061070b856106fd8887868151811061063057fe5b602002602001015173ffffffffffffffffffffffffffffffffffffffff166370a08231306040518263ffffffff1660e01b8152600401808273ffffffffffffffffffffffffffffffffffffffff1673ffffffffffffffffffffffffffffffffffffffff16815260200191505060206040518083038186803b1580156106b457600080fd5b505afa1580156106c8573d6000803e3d6000fd5b505050506040513d60208110156106de57600080fd5b810190808051906020019092919050505061097a90919063ffffffff16565b610a0090919063ffffffff16565b905083828151811061071957fe5b602002602001015173ffffffffffffffffffffffffffffffffffffffff168773ffffffffffffffffffffffffffffffffffffffff167f2717ead6b9200dd235aad468c9809ea400fe33ac69b5bfaa6d3e90fc922b6398836040518082815260200191505060405180910390a383828151811061079157fe5b602002602001015173ffffffffffffffffffffffffffffffffffffffff1663a9059cbb88836040518363ffffffff1660e01b8152600401808373ffffffffffffffffffffffffffffffffffffffff1673ffffffffffffffffffffffffffffffffffffffff16815260200182815260200192505050602060405180830381600087803b15801561081f57600080fd5b505af1158015610833573d6000803e3d6000fd5b505050506040513d602081101561084957600080fd5b810190808051906020019092919050505092505050610865565b505b949350505050565b60008060009054906101000a900473ffffffffffffffffffffffffffffffffffffffff16905090565b60008060009054906101000a900473ffffffffffffffffffffffffffffffffffffffff1673ffffffffffffffffffffffffffffffffffffffff166108d8610a4a565b73ffffffffffffffffffffffffffffffffffffffff1614905090565b6108fc610896565b61096e576040517f08c379a00000000000000000000000000000000000000000000000000000000081526004018080602001828103825260208152602001807f4f776e61626c653a2063616c6c6572206973206e6f7420746865206f776e657281525060200191505060405180910390fd5b61097781610a52565b50565b60008083141561098d57600090506109fa565b600082840290508284828161099e57fe5b04146109f5576040517f08c379a0000000000000000000000000000000000000000000000000000000008152600401808060200182810382526021815260200180610c836021913960400191505060405180910390fd5b809150505b92915050565b6000610a4283836040518060400160405280601a81526020017f536166654d6174683a206469766973696f6e206279207a65726f000000000000815250610b96565b905092915050565b600033905090565b600073ffffffffffffffffffffffffffffffffffffffff168173ffffffffffffffffffffffffffffffffffffffff161415610ad8576040517f08c379a0000000000000000000000000000000000000000000000000000000008152600401808060200182810382526026815260200180610c5d6026913960400191505060405180910390fd5b8073ffffffffffffffffffffffffffffffffffffffff166000809054906101000a900473ffffffffffffffffffffffffffffffffffffffff1673ffffffffffffffffffffffffffffffffffffffff167f8be0079c531659141344cd1fd0a4f28419497f9722a3daafe3b4186f6b6457e060405160405180910390a3806000806101000a81548173ffffffffffffffffffffffffffffffffffffffff021916908373ffffffffffffffffffffffffffffffffffffffff16021790555050565b60008083118290610c42576040517f08c379a00000000000000000000000000000000000000000000000000000000081526004018080602001828103825283818151815260200191508051906020019080838360005b83811015610c07578082015181840152602081019050610bec565b50505050905090810190601f168015610c345780820380516001836020036101000a031916815260200191505b509250505060405180910390fd5b506000838581610c4e57fe5b04905080915050939250505056fe4f776e61626c653a206e6577206f776e657220697320746865207a65726f2061646472657373536166654d6174683a206d756c7469706c69636174696f6e206f766572666c6f77a265627a7a723158209197d892a9f5edccfb0196ebb45be8e699e0c0a1a45f151ea853e62d714a496f64736f6c634300051000324d6f6c6f63683a3a636f6e7374727563746f72202d205f656d657267656e637945786974576169742063616e6e6f7420626520304d6f6c6f63683a3a636f6e7374727563746f72202d2073756d6d6f6e65722063616e6e6f7420626520304d6f6c6f63683a3a636f6e7374727563746f72202d205f766f74696e67506572696f644c656e6774682065786365656473206c696d69744d6f6c6f63683a3a636f6e7374727563746f72202d205f70726f706f73616c4465706f7369742063616e6e6f7420626520736d616c6c6572207468616e205f70726f63657373696e675265776172644d6f6c6f63683a3a636f6e7374727563746f72202d205f64696c7574696f6e426f756e642065786365656473206c696d69744d6f6c6f63683a3a636f6e7374727563746f72202d205f6772616365506572696f644c656e6774682065786365656473206c696d69744d6f6c6f63683a3a636f6e7374727563746f72202d206e656564206174206c65617374206f6e6520617070726f76656420746f6b656e4d6f6c6f63683a3a636f6e7374727563746f72202d205f766f74696e67506572696f644c656e6774682063616e6e6f7420626520304d6f6c6f63683a3a636f6e7374727563746f72202d205f706572696f644475726174696f6e2063616e6e6f7420626520304d6f6c6f63683a3a636f6e7374727563746f72202d205f617070726f766564546f6b656e2063616e6e6f7420626520304d6f6c6f63683a3a636f6e7374727563746f72202d205f64696c7574696f6e426f756e642063616e6e6f7420626520304d6f6c6f63683a3a636f6e7374727563746f72202d206475706c696361746520617070726f76656420746f6b656e",
  "source": "pragma solidity ^0.5.3;\n\nimport \"@openzeppelin/contracts/math/SafeMath.sol\";\nimport \"@openzeppelin/contracts/token/ERC20/IERC20.sol\";\nimport \"./GuildBank.sol\";\n\ncontract Moloch2 {\n    using SafeMath for uint256;\n\n    // ****************\n    // GLOBAL CONSTANTS\n    // ****************\n    uint256 public periodDuration; // default = 17280 = 4.8 hours in seconds (5 periods per day)\n    uint256 public votingPeriodLength; // default = 35 periods (7 days)\n    uint256 public gracePeriodLength; // default = 35 periods (7 days)\n    uint256 public emergencyExitWait; // default = 35 periods (7 days) - if proposal has not been processed after this time, its logic will be skipped\n    uint256 public proposalDeposit; // default = 10 ETH (~$1,000 worth of ETH at contract deployment)\n    uint256 public dilutionBound; // default = 3 - maximum multiplier a YES voter will be obligated to pay in case of mass ragequit\n    uint256 public processingReward; // default = 0.1 - amount of ETH to give to whoever processes a proposal\n    uint256 public summoningTime; // needed to determine the current period\n\n    IERC20 public depositToken; // reference to the deposit token\n    GuildBank2 public guildBank; // guild bank contract reference\n\n    // HARD-CODED LIMITS\n    // These numbers are quite arbitrary; they are small enough to avoid overflows when doing calculations\n    // with periods or shares, yet big enough to not limit reasonable use cases.\n    uint256 constant MAX_VOTING_PERIOD_LENGTH = 10**18; // maximum length of voting period\n    uint256 constant MAX_GRACE_PERIOD_LENGTH = 10**18; // maximum length of grace period\n    uint256 constant MAX_DILUTION_BOUND = 10**18; // maximum dilution bound\n    uint256 constant MAX_NUMBER_OF_SHARES = 10**18; // maximum number of shares that can be minted\n\n    // ***************\n    // EVENTS\n    // ***************\n    event SubmitProposal(uint256 proposalIndex, address indexed delegateKey, address indexed memberAddress, address indexed applicant, uint256 tributeOffered, uint256 sharesRequested);\n    event SubmitVote(uint256 indexed proposalIndex, address indexed delegateKey, address indexed memberAddress, uint8 uintVote);\n    event ProcessProposal(uint256 indexed proposalIndex, address indexed applicant, address indexed memberAddress, uint256 tributeOffered, uint256 sharesRequested, bool didPass);\n    event Ragequit(address indexed memberAddress, uint256 sharesToBurn);\n    event CancelProposal(uint256 indexed proposalIndex, address applicantAddress);\n    event UpdateDelegateKey(address indexed memberAddress, address newDelegateKey);\n    event SummonComplete(address indexed summoner, uint256 shares);\n\n    // *******************\n    // INTERNAL ACCOUNTING\n    // *******************\n    uint256 public proposalCount = 0; // total proposals submitted\n    uint256 public totalShares = 0; // total shares across all members\n    uint256 public totalSharesRequested = 0; // total shares that have been requested in unprocessed proposals\n\n    enum Vote {\n        Null, // default value, counted as abstention\n        Yes,\n        No\n    }\n\n    struct Member {\n        address delegateKey; // the key responsible for submitting proposals and voting - defaults to member address unless updated\n        uint256 shares; // the # of shares assigned to this member\n        bool exists; // always true once a member has been created\n        uint256 highestIndexYesVote; // highest proposal index # on which the member voted YES\n    }\n\n    struct Proposal {\n        address applicant; // the applicant who wishes to become a member - this key will be used for withdrawals\n        address proposer; // whoever submitted the proposal (can be non-member)\n        address sponsor; // the member who sponsored the proposal\n        uint256 sharesRequested; // the # of shares the applicant is requesting\n        uint256 tributeOffered; // amount of tokens offered as tribute\n        IERC20 tributeToken; // token being offered as tribute\n        uint256 paymentRequested; // the payments requested for each applicant\n        IERC20 paymentToken; // token to send payment in\n        uint256 startingPeriod; // the period in which voting can start for this proposal\n        uint256 yesVotes; // the total number of YES votes for this proposal\n        uint256 noVotes; // the total number of NO votes for this proposal\n        bool[6] flags; // [sponsored, processed, didPass, cancelled, whitelist, guildkick]\n        // 0. sponsored - true only if the proposal has been submitted by a member\n        // 1. processed - true only if the proposal has been processed\n        // 2. didPass - true only if the proposal passed\n        // 3. cancelled - true only if the proposer called cancelProposal before a member sponsored the proposal\n        // 4. whitelist - true only if this is a whitelist proposal, NOTE - tributeToken is target of whitelist\n        // 5. guildkick - true only if this is a guild kick proposal, NOTE - applicant is target of guild kick\n        string details; // proposal details - could be IPFS hash, plaintext, or JSON\n        uint256 maxTotalSharesAtYesVote; // the maximum # of total shares encountered at a yes vote on this proposal\n        mapping (address => Vote) votesByMember; // the votes on this proposal by each member\n    }\n\n    mapping (address => bool) public tokenWhitelist;\n    IERC20[] public approvedTokens;\n\n    mapping (address => bool) public proposedToWhitelist; // true if a token has been proposed to the whitelist (to avoid duplicate whitelist proposals)\n    mapping (address => bool) public proposedToKick; // true if a member has been proposed to be kicked (to avoid duplicate guild kick proposals)\n\n    mapping (address => Member) public members;\n    mapping (address => address) public memberAddressByDelegateKey;\n\n    // proposals by ID\n    mapping (uint256 => Proposal) public proposals;\n\n    // the queue of proposals (only store a reference by the proposal id)\n    uint256[] public proposalQueue;\n\n    // *********\n    // MODIFIERS\n    // *********\n    modifier onlyMember {\n        require(members[msg.sender].shares > 0, \"Moloch::onlyMember - not a member\");\n        _;\n    }\n\n    modifier onlyDelegate {\n        require(members[memberAddressByDelegateKey[msg.sender]].shares > 0, \"Moloch::onlyDelegate - not a delegate\");\n        _;\n    }\n\n    // *********\n    // FUNCTIONS\n    // *********\n    constructor(\n        address summoner,\n        address[] memory _approvedTokens,\n        uint256 _periodDuration,\n        uint256 _votingPeriodLength,\n        uint256 _gracePeriodLength,\n        uint256 _emergencyExitWait,\n        uint256 _proposalDeposit,\n        uint256 _dilutionBound,\n        uint256 _processingReward\n    ) public {\n        require(summoner != address(0), \"Moloch::constructor - summoner cannot be 0\");\n        require(_periodDuration > 0, \"Moloch::constructor - _periodDuration cannot be 0\");\n        require(_votingPeriodLength > 0, \"Moloch::constructor - _votingPeriodLength cannot be 0\");\n        require(_votingPeriodLength <= MAX_VOTING_PERIOD_LENGTH, \"Moloch::constructor - _votingPeriodLength exceeds limit\");\n        require(_gracePeriodLength <= MAX_GRACE_PERIOD_LENGTH, \"Moloch::constructor - _gracePeriodLength exceeds limit\");\n        require(_emergencyExitWait > 0, \"Moloch::constructor - _emergencyExitWait cannot be 0\");\n        require(_dilutionBound > 0, \"Moloch::constructor - _dilutionBound cannot be 0\");\n        require(_dilutionBound <= MAX_DILUTION_BOUND, \"Moloch::constructor - _dilutionBound exceeds limit\");\n        require(_approvedTokens.length > 0, \"Moloch::constructor - need at least one approved token\");\n        require(_proposalDeposit >= _processingReward, \"Moloch::constructor - _proposalDeposit cannot be smaller than _processingReward\");\n\n        // first approved token is the deposit token\n        depositToken = IERC20(_approvedTokens[0]);\n\n        for (uint256 i=0; i < _approvedTokens.length; i++) {\n            require(_approvedTokens[i] != address(0), \"Moloch::constructor - _approvedToken cannot be 0\");\n            require(!tokenWhitelist[_approvedTokens[i]], \"Moloch::constructor - duplicate approved token\");\n            tokenWhitelist[_approvedTokens[i]] = true;\n            approvedTokens.push(IERC20(_approvedTokens[i]));\n        }\n\n        guildBank = new GuildBank2();\n\n        periodDuration = _periodDuration;\n        votingPeriodLength = _votingPeriodLength;\n        gracePeriodLength = _gracePeriodLength;\n        emergencyExitWait = _emergencyExitWait;\n        proposalDeposit = _proposalDeposit;\n        dilutionBound = _dilutionBound;\n        processingReward = _processingReward;\n\n        summoningTime = now;\n\n        members[summoner] = Member(summoner, 1, true, 0);\n        memberAddressByDelegateKey[summoner] = summoner;\n        totalShares = 1;\n\n        emit SummonComplete(summoner, 1);\n    }\n\n    // ******************\n    // PROPOSAL FUNCTIONS\n    // ******************\n\n    function submitProposal(\n        address applicant,\n        uint256 sharesRequested,\n        uint256 tributeOffered,\n        address tributeToken,\n        uint256 paymentRequested,\n        address paymentToken,\n        string memory details\n    )\n        public\n    {\n        require(tokenWhitelist[tributeToken], \"Moloch::submitProposal - tributeToken is not whitelisted\");\n        require(tokenWhitelist[paymentToken], \"Moloch::submitProposal - payment is not whitelisted\");\n        require(applicant != address(0), \"Moloch::submitProposal - applicant cannot be 0\");\n\n        // collect tribute from applicant and store it in the Moloch until the proposal is processed\n        require(IERC20(tributeToken).transferFrom(msg.sender, address(this), tributeOffered), \"Moloch::submitProposal - tribute token transfer failed\");\n\n        bool[6] memory flags;\n\n        // create proposal...\n        Proposal memory proposal = Proposal({\n            applicant: applicant,\n            proposer: msg.sender,\n            sponsor: address(0),\n            sharesRequested: sharesRequested,\n            tributeOffered: tributeOffered,\n            tributeToken: IERC20(tributeToken),\n            paymentRequested: paymentRequested,\n            paymentToken: IERC20(paymentToken),\n            startingPeriod: 0,\n            yesVotes: 0,\n            noVotes: 0,\n            flags: flags,\n            details: details,\n            maxTotalSharesAtYesVote: 0\n        });\n\n        proposals[proposalCount] = proposal; // save proposal by its id\n        proposalCount += 1; // increment proposal counter\n\n        // uint256 proposalIndex = proposalQueue.length.sub(1);\n        // TODO emit SubmitProposal(proposalIndex, msg.sender, memberAddress, applicant, tributeOffered, sharesRequested);\n    }\n\n    function submitWhitelistProposal(address tokenToWhitelist, string memory details) public {\n        require(tokenToWhitelist != address(0), \"Moloch::submitWhitelistProposal - must provide token address\");\n        require(!tokenWhitelist[tokenToWhitelist], \"Moloch::submitWhitelistProposal - can't already have whitelisted the token\");\n\n        bool[6] memory flags;\n        flags[4] = true; // whitelist proposal = true\n\n        // create proposal ...\n        Proposal memory proposal = Proposal({\n            applicant: address(0),\n            proposer: msg.sender,\n            sponsor: address(0),\n            sharesRequested: 0,\n            tributeOffered: 0,\n            tributeToken: IERC20(tokenToWhitelist), // tributeToken = tokenToWhitelist\n            paymentRequested: 0,\n            paymentToken: IERC20(address(0)),\n            startingPeriod: 0,\n            yesVotes: 0,\n            noVotes: 0,\n            flags: flags,\n            details: details,\n            maxTotalSharesAtYesVote: 0\n        });\n\n\n        proposals[proposalCount] = proposal; // save proposal by its id\n        proposalCount += 1; // increment proposal counter\n\n        // uint256 proposalIndex = proposalQueue.length.sub(1);\n        // TODO emit SubmitProposal(proposalIndex, msg.sender, memberAddress, applicant, tributeOffered, sharesRequested);\n    }\n\n    function submitGuildKickProposal(address memberToKick, string memory details) public {\n        require(members[memberToKick].shares > 0, \"Moloch::submitGuildKickProposal - member must have at least one share\");\n\n        bool[6] memory flags;\n        flags[5] = true; // guild kick proposal = true\n\n        // create proposal ...\n        Proposal memory proposal = Proposal({\n            applicant: memberToKick, // applicant = memberToKick\n            proposer: msg.sender,\n            sponsor: address(0),\n            sharesRequested: 0,\n            tributeOffered: 0,\n            tributeToken: IERC20(address(0)),\n            paymentRequested: 0,\n            paymentToken: IERC20(address(0)),\n            startingPeriod: 0,\n            yesVotes: 0,\n            noVotes: 0,\n            flags: flags,\n            details: details,\n            maxTotalSharesAtYesVote: 0\n        });\n\n        proposals[proposalCount] = proposal; // save proposal by its id\n        proposalCount += 1; // increment proposal counter\n\n        // uint256 proposalIndex = proposalQueue.length.sub(1);\n        // TODO emit SubmitProposal(proposalIndex, msg.sender, memberAddress, applicant, tributeOffered, sharesRequested);\n    }\n\n    function sponsorProposal(uint256 proposalId) public onlyDelegate {\n        // collect proposal deposit from proposer and store it in the Moloch until the proposal is processed\n        require(depositToken.transferFrom(msg.sender, address(this), proposalDeposit), \"Moloch::submitProposal - proposal deposit token transfer failed\");\n\n        Proposal memory proposal = proposals[proposalId];\n\n        require(!proposal.flags[0], \"Moloch::sponsorProposal - proposal has already been sponsored\");\n        require(!proposal.flags[3], \"Moloch::sponsorProposal - proposal has been cancelled\");\n\n        // token whitelist proposal\n        if (proposal.flags[4]) {\n            require(!proposedToWhitelist[address(proposal.tributeToken)]); // already an active proposal to whitelist this token\n            proposedToWhitelist[address(proposal.tributeToken)] = true;\n\n        // gkick proposal\n        } else if (proposal.flags[5]) {\n            require(!proposedToKick[proposal.applicant]); // already an active proposal to kick this member\n            proposedToKick[proposal.applicant] = true;\n\n        // standard proposal\n        } else {\n            // Make sure we won't run into overflows when doing calculations with shares.\n            // Note that totalShares + totalSharesRequested + sharesRequested is an upper bound\n            // on the number of shares that can exist until this proposal has been processed.\n            require(totalShares.add(totalSharesRequested).add(proposal.sharesRequested) <= MAX_NUMBER_OF_SHARES, \"Moloch::submitProposal - too many shares requested\");\n            totalSharesRequested = totalSharesRequested.add(proposal.sharesRequested);\n        }\n\n        // compute startingPeriod for proposal\n        uint256 startingPeriod = max(\n            getCurrentPeriod(),\n            proposalQueue.length == 0 ? 0 : proposals[proposalQueue[proposalQueue.length.sub(1)]].startingPeriod\n        ).add(1);\n\n        proposal.startingPeriod = startingPeriod;\n\n        address memberAddress = memberAddressByDelegateKey[msg.sender];\n        proposal.sponsor = memberAddress;\n\n        // ... and append it to the queue by its id\n        proposalQueue.push(proposalId);\n\n        // uint256 proposalIndex = proposalQueue.length.sub(1);\n        // emit SponsorProposal(proposalId, proposalIndex, msg.sender, memberAddress, applicant, tributeOffered, sharesRequested);\n    }\n\n    function submitVote(uint256 proposalIndex, uint8 uintVote) public onlyDelegate {\n        address memberAddress = memberAddressByDelegateKey[msg.sender];\n        Member storage member = members[memberAddress];\n\n        require(proposalIndex < proposalQueue.length, \"Moloch::submitVote - proposal does not exist\");\n        Proposal storage proposal = proposals[proposalQueue[proposalIndex]];\n\n        require(uintVote < 3, \"Moloch::submitVote - uintVote must be less than 3\");\n        Vote vote = Vote(uintVote);\n\n        require(proposal.flags[0], \"Moloch::submitVote - proposal has not been sponsored\");\n        require(getCurrentPeriod() >= proposal.startingPeriod, \"Moloch::submitVote - voting period has not started\");\n        require(!hasVotingPeriodExpired(proposal.startingPeriod), \"Moloch::submitVote - proposal voting period has expired\");\n        require(proposal.votesByMember[memberAddress] == Vote.Null, \"Moloch::submitVote - member has already voted on this proposal\");\n        require(vote == Vote.Yes || vote == Vote.No, \"Moloch::submitVote - vote must be either Yes or No\");\n\n        // store vote\n        proposal.votesByMember[memberAddress] = vote;\n\n        // count vote\n        if (vote == Vote.Yes) {\n            proposal.yesVotes = proposal.yesVotes.add(member.shares);\n\n            // set highest index (latest) yes vote - must be processed for member to ragequit\n            if (proposalIndex > member.highestIndexYesVote) {\n                member.highestIndexYesVote = proposalIndex;\n            }\n\n            // set maximum of total shares encountered at a yes vote - used to bound dilution for yes voters\n            if (totalShares > proposal.maxTotalSharesAtYesVote) {\n                proposal.maxTotalSharesAtYesVote = totalShares;\n            }\n\n        } else if (vote == Vote.No) {\n            proposal.noVotes = proposal.noVotes.add(member.shares);\n        }\n\n        emit SubmitVote(proposalIndex, msg.sender, memberAddress, uintVote);\n    }\n\n    function processProposal(uint256 proposalIndex) public {\n        require(proposalIndex < proposalQueue.length, \"Moloch::processProposal - proposal does not exist\");\n        Proposal storage proposal = proposals[proposalQueue[proposalIndex]];\n\n        require(getCurrentPeriod() >= proposal.startingPeriod.add(votingPeriodLength).add(gracePeriodLength), \"Moloch::processProposal - proposal is not ready to be processed\");\n        require(proposal.flags[1] == false, \"Moloch::processProposal - proposal has already been processed\");\n        require(proposalIndex == 0 || proposals[proposalQueue[proposalIndex.sub(1)]].flags[1], \"Moloch::processProposal - previous proposal must be processed\");\n\n        proposal.flags[1] = true;\n        totalSharesRequested = totalSharesRequested.sub(proposal.sharesRequested);\n\n        bool didPass = proposal.yesVotes > proposal.noVotes;\n\n        // If emergencyExitWait has passed from when this proposal *should* have been able to be processed, skip all effects\n        bool emergencyProcessing = false;\n        if (getCurrentPeriod() >= proposal.startingPeriod.add(votingPeriodLength).add(gracePeriodLength).add(emergencyExitWait)) {\n            emergencyProcessing = true;\n            didPass = false;\n        }\n\n        // Make the proposal fail if the dilutionBound is exceeded\n        if (totalShares.mul(dilutionBound) < proposal.maxTotalSharesAtYesVote) {\n            didPass = false;\n        }\n\n        // Make sure there is enough tokens for payments, or auto-fail\n        if (proposal.paymentRequested >= proposal.paymentToken.balanceOf(address(guildBank))) {\n            didPass = false;\n        }\n\n        // PROPOSAL PASSED\n        if (didPass) {\n\n            proposal.flags[2] = true; // didPass = true\n\n            // whitelist proposal passed, add token to whitelist\n            if (proposal.flags[4]) {\n               tokenWhitelist[address(proposal.tributeToken)] = true;\n               approvedTokens.push(proposal.tributeToken);\n\n            // guild kick proposal passed, ragequit 100% of the member's shares\n            // NOTE - if any approvedToken is broken gkicks will fail and get stuck here (until emergency processing)\n            } else if (proposal.flags[5]) {\n                _ragequit(members[proposal.applicant].shares, approvedTokens);\n\n            // standard proposal passed, collect tribute, send payment, mint shares\n            } else {\n                // if the applicant is already a member, add to their existing shares\n                if (members[proposal.applicant].exists) {\n                    members[proposal.applicant].shares = members[proposal.applicant].shares.add(proposal.sharesRequested);\n\n                // the applicant is a new member, create a new record for them\n                } else {\n                    // if the applicant address is already taken by a member's delegateKey, reset it to their member address\n                    if (members[memberAddressByDelegateKey[proposal.applicant]].exists) {\n                        address memberToOverride = memberAddressByDelegateKey[proposal.applicant];\n                        memberAddressByDelegateKey[memberToOverride] = memberToOverride;\n                        members[memberToOverride].delegateKey = memberToOverride;\n                    }\n\n                    // use applicant address as delegateKey by default\n                    members[proposal.applicant] = Member(proposal.applicant, proposal.sharesRequested, true, 0);\n                    memberAddressByDelegateKey[proposal.applicant] = proposal.applicant;\n                }\n\n                // mint new shares\n                totalShares = totalShares.add(proposal.sharesRequested);\n\n                // transfer tribute tokens to guild bank\n                require(\n                    proposal.tributeToken.transfer(address(guildBank), proposal.tributeOffered),\n                    \"Moloch::processProposal - token transfer to guild bank failed\"\n                );\n\n                // transfer payment tokens to applicant\n                require(\n                    guildBank.withdrawToken(proposal.paymentToken, proposal.applicant, proposal.paymentRequested),\n                    \"Moloch::processProposal - token payment to applicant failed\"\n                );\n            }\n\n        // PROPOSAL FAILED\n        } else {\n            // Don't return applicant tokens if we are in emergency processing - likely the tokens are broken\n            if (!emergencyProcessing) {\n                // return all tokens to the proposer\n                require(\n                    proposal.tributeToken.transfer(proposal.proposer, proposal.tributeOffered),\n                    \"Moloch::processProposal - failing vote token transfer failed\"\n                );\n            }\n        }\n\n        // if token whitelist proposal, remove token from tokens proposed to whitelist\n        if (proposal.flags[4]) {\n            proposedToWhitelist[address(proposal.tributeToken)] = false;\n        }\n\n        // if guild kick proposal, remove member from list of members proposed to be kicked\n        if (proposal.flags[5]) {\n            proposedToKick[proposal.applicant] = false;\n        }\n\n        // send msg.sender the processingReward\n        require(\n            depositToken.transfer(msg.sender, processingReward),\n            \"Moloch::processProposal - failed to send processing reward to msg.sender\"\n        );\n\n        // return deposit to sponsor (subtract processing reward)\n        require(\n            depositToken.transfer(proposal.sponsor, proposalDeposit.sub(processingReward)),\n            \"Moloch::processProposal - failed to return proposal deposit to sponsor\"\n        );\n\n        // TODO emit ProcessProposal()\n    }\n\n    function ragequit(uint256 sharesToBurn) public onlyMember {\n        _ragequit(sharesToBurn, approvedTokens);\n    }\n\n    function safeRagequit(uint256 sharesToBurn, IERC20[] memory tokenList) public onlyMember {\n        // all tokens in tokenList must be in the tokenWhitelist\n        for (uint256 i=0; i < tokenList.length; i++) {\n            require(tokenWhitelist[address(tokenList[i])], \"Moloch::safeRequit - token must be whitelisted\");\n\n            // check token uniqueness - for every token address after the first, enforce ascending lexical order\n            if (i > 0) {\n                require(tokenList[i] > tokenList[i-1], \"Moloch::safeRagequit - tokenList must be unique and in ascending order\");\n            }\n        }\n\n        _ragequit(sharesToBurn, tokenList);\n    }\n\n    function _ragequit(uint256 sharesToBurn, IERC20[] memory _approvedTokens) internal {\n        uint256 initialTotalShares = totalShares;\n\n        Member storage member = members[msg.sender];\n\n        require(member.shares >= sharesToBurn, \"Moloch::ragequit - insufficient shares\");\n\n        require(canRagequit(member.highestIndexYesVote), \"Moloch::ragequit - cant ragequit until highest index proposal member voted YES on is processed\");\n\n        // burn shares\n        member.shares = member.shares.sub(sharesToBurn);\n        totalShares = totalShares.sub(sharesToBurn);\n\n        // instruct guildBank to transfer fair share of tokens to the ragequitter\n        require(\n            guildBank.withdraw(msg.sender, sharesToBurn, initialTotalShares, _approvedTokens),\n            \"Moloch::ragequit - withdrawal of tokens from guildBank failed\"\n        );\n\n        emit Ragequit(msg.sender, sharesToBurn);\n    }\n\n    function cancelProposal(uint256 proposalId) public {\n        Proposal storage proposal = proposals[proposalId];\n        require(!proposal.flags[0], \"Moloch::cancelProposal - proposal has already been sponsored\");\n        require(msg.sender == proposal.proposer, \"Moloch::cancelProposal - only the proposer can cancel\");\n\n        proposal.flags[3] = true; // cancelled\n\n        require(\n            proposal.tributeToken.transfer(proposal.proposer, proposal.tributeOffered),\n            \"Moloch::processProposal - failed to return tribute to proposer\"\n        );\n\n        emit CancelProposal(proposalId, msg.sender);\n    }\n\n    function updateDelegateKey(address newDelegateKey) public onlyMember {\n        require(newDelegateKey != address(0), \"Moloch::updateDelegateKey - newDelegateKey cannot be 0\");\n\n        // skip checks if member is setting the delegate key to their member address\n        if (newDelegateKey != msg.sender) {\n            require(!members[newDelegateKey].exists, \"Moloch::updateDelegateKey - cant overwrite existing members\");\n            require(!members[memberAddressByDelegateKey[newDelegateKey]].exists, \"Moloch::updateDelegateKey - cant overwrite existing delegate keys\");\n        }\n\n        Member storage member = members[msg.sender];\n        memberAddressByDelegateKey[member.delegateKey] = address(0);\n        memberAddressByDelegateKey[newDelegateKey] = msg.sender;\n        member.delegateKey = newDelegateKey;\n\n        emit UpdateDelegateKey(msg.sender, newDelegateKey);\n    }\n\n    // ****************\n    // GETTER FUNCTIONS\n    // ****************\n\n    function max(uint256 x, uint256 y) internal pure returns (uint256) {\n        return x >= y ? x : y;\n    }\n\n    function getCurrentPeriod() public view returns (uint256) {\n        return now.sub(summoningTime).div(periodDuration);\n    }\n\n    function getProposalQueueLength() public view returns (uint256) {\n        return proposalQueue.length;\n    }\n\n    // can only ragequit if the latest proposal you voted YES on has been processed\n    function canRagequit(uint256 highestIndexYesVote) public view returns (bool) {\n        require(highestIndexYesVote < proposalQueue.length, \"Moloch::canRagequit - proposal does not exist\");\n        return proposals[proposalQueue[highestIndexYesVote]].flags[1]; // processed\n    }\n\n    function hasVotingPeriodExpired(uint256 startingPeriod) public view returns (bool) {\n        return getCurrentPeriod() >= startingPeriod.add(votingPeriodLength);\n    }\n\n    function getMemberProposalVote(address memberAddress, uint256 proposalIndex) public view returns (Vote) {\n        require(members[memberAddress].exists, \"Moloch::getMemberProposalVote - member doesn't exist\");\n        require(proposalIndex < proposalQueue.length, \"Moloch::getMemberProposalVote - proposal doesn't exist\");\n        return proposals[proposalQueue[proposalIndex]].votesByMember[memberAddress];\n    }\n}",
  "sourcePath": "/home/jnaviask/cw/commonwealth/eth/contracts/MolochV2/Moloch.sol",
  "compiler": {
    "name": "solc",
    "version": "0.5.16+commit.9c3226ce.Emscripten.clang"
  },
  "schemaVersion": "3.2.0",
  "updatedAt": "2020-06-04T17:21:38.704Z",
  "devdoc": {
    "methods": {}
  },
  "userdoc": {
    "methods": {}
  }
}