{
  "contracts/Compound/GovernorBravoDelegate.sol": {
    "GovernorBravoDelegate": {
      "abi": [
        {
          "anonymous": false,
          "inputs": [
            {
              "indexed": false,
              "internalType": "address",
              "name": "oldAdmin",
              "type": "address"
            },
            {
              "indexed": false,
              "internalType": "address",
              "name": "newAdmin",
              "type": "address"
            }
          ],
          "name": "NewAdmin",
          "type": "event"
        },
        {
          "anonymous": false,
          "inputs": [
            {
              "indexed": false,
              "internalType": "address",
              "name": "oldImplementation",
              "type": "address"
            },
            {
              "indexed": false,
              "internalType": "address",
              "name": "newImplementation",
              "type": "address"
            }
          ],
          "name": "NewImplementation",
          "type": "event"
        },
        {
          "anonymous": false,
          "inputs": [
            {
              "indexed": false,
              "internalType": "address",
              "name": "oldPendingAdmin",
              "type": "address"
            },
            {
              "indexed": false,
              "internalType": "address",
              "name": "newPendingAdmin",
              "type": "address"
            }
          ],
          "name": "NewPendingAdmin",
          "type": "event"
        },
        {
          "anonymous": false,
          "inputs": [
            {
              "indexed": false,
              "internalType": "uint256",
              "name": "id",
              "type": "uint256"
            }
          ],
          "name": "ProposalCanceled",
          "type": "event"
        },
        {
          "anonymous": false,
          "inputs": [
            {
              "indexed": false,
              "internalType": "uint256",
              "name": "id",
              "type": "uint256"
            },
            {
              "indexed": false,
              "internalType": "address",
              "name": "proposer",
              "type": "address"
            },
            {
              "indexed": false,
              "internalType": "address[]",
              "name": "targets",
              "type": "address[]"
            },
            {
              "indexed": false,
              "internalType": "uint256[]",
              "name": "values",
              "type": "uint256[]"
            },
            {
              "indexed": false,
              "internalType": "string[]",
              "name": "signatures",
              "type": "string[]"
            },
            {
              "indexed": false,
              "internalType": "bytes[]",
              "name": "calldatas",
              "type": "bytes[]"
            },
            {
              "indexed": false,
              "internalType": "uint256",
              "name": "startBlock",
              "type": "uint256"
            },
            {
              "indexed": false,
              "internalType": "uint256",
              "name": "endBlock",
              "type": "uint256"
            },
            {
              "indexed": false,
              "internalType": "string",
              "name": "description",
              "type": "string"
            }
          ],
          "name": "ProposalCreated",
          "type": "event"
        },
        {
          "anonymous": false,
          "inputs": [
            {
              "indexed": false,
              "internalType": "uint256",
              "name": "id",
              "type": "uint256"
            }
          ],
          "name": "ProposalExecuted",
          "type": "event"
        },
        {
          "anonymous": false,
          "inputs": [
            {
              "indexed": false,
              "internalType": "uint256",
              "name": "id",
              "type": "uint256"
            },
            {
              "indexed": false,
              "internalType": "uint256",
              "name": "eta",
              "type": "uint256"
            }
          ],
          "name": "ProposalQueued",
          "type": "event"
        },
        {
          "anonymous": false,
          "inputs": [
            {
              "indexed": false,
              "internalType": "uint256",
              "name": "oldProposalThreshold",
              "type": "uint256"
            },
            {
              "indexed": false,
              "internalType": "uint256",
              "name": "newProposalThreshold",
              "type": "uint256"
            }
          ],
          "name": "ProposalThresholdSet",
          "type": "event"
        },
        {
          "anonymous": false,
          "inputs": [
            {
              "indexed": true,
              "internalType": "address",
              "name": "voter",
              "type": "address"
            },
            {
              "indexed": false,
              "internalType": "uint256",
              "name": "proposalId",
              "type": "uint256"
            },
            {
              "indexed": false,
              "internalType": "uint8",
              "name": "support",
              "type": "uint8"
            },
            {
              "indexed": false,
              "internalType": "uint256",
              "name": "votes",
              "type": "uint256"
            },
            {
              "indexed": false,
              "internalType": "string",
              "name": "reason",
              "type": "string"
            }
          ],
          "name": "VoteCast",
          "type": "event"
        },
        {
          "anonymous": false,
          "inputs": [
            {
              "indexed": false,
              "internalType": "uint256",
              "name": "oldVotingDelay",
              "type": "uint256"
            },
            {
              "indexed": false,
              "internalType": "uint256",
              "name": "newVotingDelay",
              "type": "uint256"
            }
          ],
          "name": "VotingDelaySet",
          "type": "event"
        },
        {
          "anonymous": false,
          "inputs": [
            {
              "indexed": false,
              "internalType": "uint256",
              "name": "oldVotingPeriod",
              "type": "uint256"
            },
            {
              "indexed": false,
              "internalType": "uint256",
              "name": "newVotingPeriod",
              "type": "uint256"
            }
          ],
          "name": "VotingPeriodSet",
          "type": "event"
        },
        {
          "constant": true,
          "inputs": [],
          "name": "BALLOT_TYPEHASH",
          "outputs": [
            {
              "internalType": "bytes32",
              "name": "",
              "type": "bytes32"
            }
          ],
          "payable": false,
          "stateMutability": "view",
          "type": "function"
        },
        {
          "constant": true,
          "inputs": [],
          "name": "DOMAIN_TYPEHASH",
          "outputs": [
            {
              "internalType": "bytes32",
              "name": "",
              "type": "bytes32"
            }
          ],
          "payable": false,
          "stateMutability": "view",
          "type": "function"
        },
        {
          "constant": true,
          "inputs": [],
          "name": "MAX_PROPOSAL_THRESHOLD",
          "outputs": [
            {
              "internalType": "uint256",
              "name": "",
              "type": "uint256"
            }
          ],
          "payable": false,
          "stateMutability": "view",
          "type": "function"
        },
        {
          "constant": true,
          "inputs": [],
          "name": "MAX_VOTING_DELAY",
          "outputs": [
            {
              "internalType": "uint256",
              "name": "",
              "type": "uint256"
            }
          ],
          "payable": false,
          "stateMutability": "view",
          "type": "function"
        },
        {
          "constant": true,
          "inputs": [],
          "name": "MAX_VOTING_PERIOD",
          "outputs": [
            {
              "internalType": "uint256",
              "name": "",
              "type": "uint256"
            }
          ],
          "payable": false,
          "stateMutability": "view",
          "type": "function"
        },
        {
          "constant": true,
          "inputs": [],
          "name": "MIN_PROPOSAL_THRESHOLD",
          "outputs": [
            {
              "internalType": "uint256",
              "name": "",
              "type": "uint256"
            }
          ],
          "payable": false,
          "stateMutability": "view",
          "type": "function"
        },
        {
          "constant": true,
          "inputs": [],
          "name": "MIN_VOTING_DELAY",
          "outputs": [
            {
              "internalType": "uint256",
              "name": "",
              "type": "uint256"
            }
          ],
          "payable": false,
          "stateMutability": "view",
          "type": "function"
        },
        {
          "constant": true,
          "inputs": [],
          "name": "MIN_VOTING_PERIOD",
          "outputs": [
            {
              "internalType": "uint256",
              "name": "",
              "type": "uint256"
            }
          ],
          "payable": false,
          "stateMutability": "view",
          "type": "function"
        },
        {
          "constant": false,
          "inputs": [],
          "name": "_acceptAdmin",
          "outputs": [],
          "payable": false,
          "stateMutability": "nonpayable",
          "type": "function"
        },
        {
          "constant": false,
          "inputs": [
            {
              "internalType": "address",
              "name": "newPendingAdmin",
              "type": "address"
            }
          ],
          "name": "_setPendingAdmin",
          "outputs": [],
          "payable": false,
          "stateMutability": "nonpayable",
          "type": "function"
        },
        {
          "constant": false,
          "inputs": [
            {
              "internalType": "uint256",
              "name": "newProposalThreshold",
              "type": "uint256"
            }
          ],
          "name": "_setProposalThreshold",
          "outputs": [],
          "payable": false,
          "stateMutability": "nonpayable",
          "type": "function"
        },
        {
          "constant": false,
          "inputs": [
            {
              "internalType": "uint256",
              "name": "newVotingDelay",
              "type": "uint256"
            }
          ],
          "name": "_setVotingDelay",
          "outputs": [],
          "payable": false,
          "stateMutability": "nonpayable",
          "type": "function"
        },
        {
          "constant": false,
          "inputs": [
            {
              "internalType": "uint256",
              "name": "newVotingPeriod",
              "type": "uint256"
            }
          ],
          "name": "_setVotingPeriod",
          "outputs": [],
          "payable": false,
          "stateMutability": "nonpayable",
          "type": "function"
        },
        {
          "constant": true,
          "inputs": [],
          "name": "admin",
          "outputs": [
            {
              "internalType": "address",
              "name": "",
              "type": "address"
            }
          ],
          "payable": false,
          "stateMutability": "view",
          "type": "function"
        },
        {
          "constant": false,
          "inputs": [
            {
              "internalType": "uint256",
              "name": "proposalId",
              "type": "uint256"
            }
          ],
          "name": "cancel",
          "outputs": [],
          "payable": false,
          "stateMutability": "nonpayable",
          "type": "function"
        },
        {
          "constant": false,
          "inputs": [
            {
              "internalType": "uint256",
              "name": "proposalId",
              "type": "uint256"
            },
            {
              "internalType": "uint8",
              "name": "support",
              "type": "uint8"
            }
          ],
          "name": "castVote",
          "outputs": [],
          "payable": false,
          "stateMutability": "nonpayable",
          "type": "function"
        },
        {
          "constant": false,
          "inputs": [
            {
              "internalType": "uint256",
              "name": "proposalId",
              "type": "uint256"
            },
            {
              "internalType": "uint8",
              "name": "support",
              "type": "uint8"
            },
            {
              "internalType": "uint8",
              "name": "v",
              "type": "uint8"
            },
            {
              "internalType": "bytes32",
              "name": "r",
              "type": "bytes32"
            },
            {
              "internalType": "bytes32",
              "name": "s",
              "type": "bytes32"
            }
          ],
          "name": "castVoteBySig",
          "outputs": [],
          "payable": false,
          "stateMutability": "nonpayable",
          "type": "function"
        },
        {
          "constant": false,
          "inputs": [
            {
              "internalType": "uint256",
              "name": "proposalId",
              "type": "uint256"
            },
            {
              "internalType": "uint8",
              "name": "support",
              "type": "uint8"
            },
            {
              "internalType": "string",
              "name": "reason",
              "type": "string"
            }
          ],
          "name": "castVoteWithReason",
          "outputs": [],
          "payable": false,
          "stateMutability": "nonpayable",
          "type": "function"
        },
        {
          "constant": true,
          "inputs": [],
          "name": "comp",
          "outputs": [
            {
              "internalType": "contract CompInterface",
              "name": "",
              "type": "address"
            }
          ],
          "payable": false,
          "stateMutability": "view",
          "type": "function"
        },
        {
          "constant": false,
          "inputs": [
            {
              "internalType": "uint256",
              "name": "proposalId",
              "type": "uint256"
            }
          ],
          "name": "execute",
          "outputs": [],
          "payable": true,
          "stateMutability": "payable",
          "type": "function"
        },
        {
          "constant": true,
          "inputs": [
            {
              "internalType": "uint256",
              "name": "proposalId",
              "type": "uint256"
            }
          ],
          "name": "getActions",
          "outputs": [
            {
              "internalType": "address[]",
              "name": "targets",
              "type": "address[]"
            },
            {
              "internalType": "uint256[]",
              "name": "values",
              "type": "uint256[]"
            },
            {
              "internalType": "string[]",
              "name": "signatures",
              "type": "string[]"
            },
            {
              "internalType": "bytes[]",
              "name": "calldatas",
              "type": "bytes[]"
            }
          ],
          "payable": false,
          "stateMutability": "view",
          "type": "function"
        },
        {
          "constant": true,
          "inputs": [
            {
              "internalType": "uint256",
              "name": "proposalId",
              "type": "uint256"
            },
            {
              "internalType": "address",
              "name": "voter",
              "type": "address"
            }
          ],
          "name": "getReceipt",
          "outputs": [
            {
              "components": [
                {
                  "internalType": "bool",
                  "name": "hasVoted",
                  "type": "bool"
                },
                {
                  "internalType": "uint8",
                  "name": "support",
                  "type": "uint8"
                },
                {
                  "internalType": "uint96",
                  "name": "votes",
                  "type": "uint96"
                }
              ],
              "internalType": "struct GovernorBravoDelegateStorageV1.Receipt",
              "name": "",
              "type": "tuple"
            }
          ],
          "payable": false,
          "stateMutability": "view",
          "type": "function"
        },
        {
          "constant": true,
          "inputs": [],
          "name": "implementation",
          "outputs": [
            {
              "internalType": "address",
              "name": "",
              "type": "address"
            }
          ],
          "payable": false,
          "stateMutability": "view",
          "type": "function"
        },
        {
          "constant": true,
          "inputs": [],
          "name": "initialProposalId",
          "outputs": [
            {
              "internalType": "uint256",
              "name": "",
              "type": "uint256"
            }
          ],
          "payable": false,
          "stateMutability": "view",
          "type": "function"
        },
        {
          "constant": false,
          "inputs": [
            {
              "internalType": "address",
              "name": "timelock_",
              "type": "address"
            },
            {
              "internalType": "address",
              "name": "comp_",
              "type": "address"
            },
            {
              "internalType": "uint256",
              "name": "votingPeriod_",
              "type": "uint256"
            },
            {
              "internalType": "uint256",
              "name": "votingDelay_",
              "type": "uint256"
            },
            {
              "internalType": "uint256",
              "name": "proposalThreshold_",
              "type": "uint256"
            }
          ],
          "name": "initialize",
          "outputs": [],
          "payable": false,
          "stateMutability": "nonpayable",
          "type": "function"
        },
        {
          "constant": true,
          "inputs": [
            {
              "internalType": "address",
              "name": "",
              "type": "address"
            }
          ],
          "name": "latestProposalIds",
          "outputs": [
            {
              "internalType": "uint256",
              "name": "",
              "type": "uint256"
            }
          ],
          "payable": false,
          "stateMutability": "view",
          "type": "function"
        },
        {
          "constant": true,
          "inputs": [],
          "name": "name",
          "outputs": [
            {
              "internalType": "string",
              "name": "",
              "type": "string"
            }
          ],
          "payable": false,
          "stateMutability": "view",
          "type": "function"
        },
        {
          "constant": true,
          "inputs": [],
          "name": "pendingAdmin",
          "outputs": [
            {
              "internalType": "address",
              "name": "",
              "type": "address"
            }
          ],
          "payable": false,
          "stateMutability": "view",
          "type": "function"
        },
        {
          "constant": true,
          "inputs": [],
          "name": "proposalCount",
          "outputs": [
            {
              "internalType": "uint256",
              "name": "",
              "type": "uint256"
            }
          ],
          "payable": false,
          "stateMutability": "view",
          "type": "function"
        },
        {
          "constant": true,
          "inputs": [],
          "name": "proposalMaxOperations",
          "outputs": [
            {
              "internalType": "uint256",
              "name": "",
              "type": "uint256"
            }
          ],
          "payable": false,
          "stateMutability": "view",
          "type": "function"
        },
        {
          "constant": true,
          "inputs": [],
          "name": "proposalThreshold",
          "outputs": [
            {
              "internalType": "uint256",
              "name": "",
              "type": "uint256"
            }
          ],
          "payable": false,
          "stateMutability": "view",
          "type": "function"
        },
        {
          "constant": true,
          "inputs": [
            {
              "internalType": "uint256",
              "name": "",
              "type": "uint256"
            }
          ],
          "name": "proposals",
          "outputs": [
            {
              "internalType": "uint256",
              "name": "id",
              "type": "uint256"
            },
            {
              "internalType": "address",
              "name": "proposer",
              "type": "address"
            },
            {
              "internalType": "uint256",
              "name": "eta",
              "type": "uint256"
            },
            {
              "internalType": "uint256",
              "name": "startBlock",
              "type": "uint256"
            },
            {
              "internalType": "uint256",
              "name": "endBlock",
              "type": "uint256"
            },
            {
              "internalType": "uint256",
              "name": "forVotes",
              "type": "uint256"
            },
            {
              "internalType": "uint256",
              "name": "againstVotes",
              "type": "uint256"
            },
            {
              "internalType": "uint256",
              "name": "abstainVotes",
              "type": "uint256"
            },
            {
              "internalType": "bool",
              "name": "canceled",
              "type": "bool"
            },
            {
              "internalType": "bool",
              "name": "executed",
              "type": "bool"
            }
          ],
          "payable": false,
          "stateMutability": "view",
          "type": "function"
        },
        {
          "constant": false,
          "inputs": [
            {
              "internalType": "address[]",
              "name": "targets",
              "type": "address[]"
            },
            {
              "internalType": "uint256[]",
              "name": "values",
              "type": "uint256[]"
            },
            {
              "internalType": "string[]",
              "name": "signatures",
              "type": "string[]"
            },
            {
              "internalType": "bytes[]",
              "name": "calldatas",
              "type": "bytes[]"
            },
            {
              "internalType": "string",
              "name": "description",
              "type": "string"
            }
          ],
          "name": "propose",
          "outputs": [
            {
              "internalType": "uint256",
              "name": "",
              "type": "uint256"
            }
          ],
          "payable": false,
          "stateMutability": "nonpayable",
          "type": "function"
        },
        {
          "constant": false,
          "inputs": [
            {
              "internalType": "uint256",
              "name": "proposalId",
              "type": "uint256"
            }
          ],
          "name": "queue",
          "outputs": [],
          "payable": false,
          "stateMutability": "nonpayable",
          "type": "function"
        },
        {
          "constant": true,
          "inputs": [],
          "name": "quorumVotes",
          "outputs": [
            {
              "internalType": "uint256",
              "name": "",
              "type": "uint256"
            }
          ],
          "payable": false,
          "stateMutability": "view",
          "type": "function"
        },
        {
          "constant": true,
          "inputs": [
            {
              "internalType": "uint256",
              "name": "proposalId",
              "type": "uint256"
            }
          ],
          "name": "state",
          "outputs": [
            {
              "internalType": "enum GovernorBravoDelegateStorageV1.ProposalState",
              "name": "",
              "type": "uint8"
            }
          ],
          "payable": false,
          "stateMutability": "view",
          "type": "function"
        },
        {
          "constant": true,
          "inputs": [],
          "name": "timelock",
          "outputs": [
            {
              "internalType": "contract TimelockInterface",
              "name": "",
              "type": "address"
            }
          ],
          "payable": false,
          "stateMutability": "view",
          "type": "function"
        },
        {
          "constant": true,
          "inputs": [],
          "name": "votingDelay",
          "outputs": [
            {
              "internalType": "uint256",
              "name": "",
              "type": "uint256"
            }
          ],
          "payable": false,
          "stateMutability": "view",
          "type": "function"
        },
        {
          "constant": true,
          "inputs": [],
          "name": "votingPeriod",
          "outputs": [
            {
              "internalType": "uint256",
              "name": "",
              "type": "uint256"
            }
          ],
          "payable": false,
          "stateMutability": "view",
          "type": "function"
        }
      ],
      "evm": {
        "bytecode": {
          "linkReferences": {},
          "object": "608060405234801561001057600080fd5b506142b1806100206000396000f3fe6080604052600436106102305760003560e01c80635c60da1b1161012e578063da35c664116100ab578063e48083fe1161006f578063e48083fe1461062e578063e9c714f214610643578063f851a44014610658578063fc4eee421461066d578063fe0d94c11461068257610230565b8063da35c66414610597578063da95691a146105ac578063ddf0b009146105cc578063deaaa7cc146105ec578063e23a9a521461060157610230565b8063b1126263116100f2578063b112626314610518578063b58131b01461052d578063b71d1a0c14610542578063d13f90b414610562578063d33219b41461058257610230565b80635c60da1b146104a4578063791f5d23146104b95780637b3c71d3146104ce5780637bdbe4d0146104ee578063a64e024a1461050357610230565b8063215809ca116101bc5780633932abb1116101805780633932abb1146104025780633bccf4fd146104175780633e4f49e61461043757806340e58ee514610464578063567813881461048457610230565b8063215809ca1461037157806324bc1a641461038657806325fd935a1461039b57806326782247146103b0578063328dd982146103d257610230565b8063109d0af811610203578063109d0af8146102da57806317977c61146102fc57806317ba1b8b1461031c5780631dfb1b5a1461033c57806320606b701461035c57610230565b8063013cf08b1461023557806302a251a31461027457806306fdde03146102965780630ea2d98c146102b8575b600080fd5b34801561024157600080fd5b50610255610250366004612a19565b610695565b60405161026b9a99989796959493929190613fc8565b60405180910390f35b34801561028057600080fd5b506102896106f8565b60405161026b9190613c25565b3480156102a257600080fd5b506102ab6106fe565b60405161026b9190613ce1565b3480156102c457600080fd5b506102d86102d3366004612a19565b610731565b005b3480156102e657600080fd5b506102ef6107db565b60405161026b9190613cc5565b34801561030857600080fd5b5061028961031736600461282e565b6107ea565b34801561032857600080fd5b506102d8610337366004612a19565b6107fc565b34801561034857600080fd5b506102d8610357366004612a19565b6108a0565b34801561036857600080fd5b50610289610933565b34801561037d57600080fd5b5061028961094a565b34801561039257600080fd5b50610289610950565b3480156103a757600080fd5b5061028961095e565b3480156103bc57600080fd5b506103c561096c565b60405161026b9190613aeb565b3480156103de57600080fd5b506103f26103ed366004612a19565b61097b565b60405161026b9493929190613bd8565b34801561040e57600080fd5b50610289610c0a565b34801561042357600080fd5b506102d8610432366004612b09565b610c10565b34801561044357600080fd5b50610457610452366004612a19565b610deb565b60405161026b9190613cd3565b34801561047057600080fd5b506102d861047f366004612a19565b610f71565b34801561049057600080fd5b506102d861049f366004612a71565b6111c5565b3480156104b057600080fd5b506103c561120f565b3480156104c557600080fd5b5061028961121e565b3480156104da57600080fd5b506102d86104e9366004612aa1565b61122c565b3480156104fa57600080fd5b5061028961127c565b34801561050f57600080fd5b50610289611281565b34801561052457600080fd5b50610289611288565b34801561053957600080fd5b5061028961128e565b34801561054e57600080fd5b506102d861055d36600461282e565b611294565b34801561056e57600080fd5b506102d861057d366004612854565b611311565b34801561058e57600080fd5b506102ef61148e565b3480156105a357600080fd5b5061028961149d565b3480156105b857600080fd5b506102896105c73660046128c9565b6114a3565b3480156105d857600080fd5b506102d86105e7366004612a19565b6118eb565b3480156105f857600080fd5b50610289611b67565b34801561060d57600080fd5b5061062161061c366004612a37565b611b73565b60405161026b9190613f12565b34801561063a57600080fd5b50610289611be0565b34801561064f57600080fd5b506102d8611be5565b34801561066457600080fd5b506103c5611cc3565b34801561067957600080fd5b50610289611cd2565b6102d8610690366004612a19565b611cd8565b600a60208190526000918252604090912080546001820154600283015460078401546008850154600986015496860154600b870154600c9097015495976001600160a01b0390951696939592949193919290919060ff808216916101009004168a565b60045481565b60405180604001604052806017815260200176436f6d706f756e6420476f7665726e6f7220427261766f60481b81525081565b6000546001600160a01b031633146107645760405162461bcd60e51b815260040161075b90613d32565b60405180910390fd5b6116808110158015610779575062013b008111155b6107955760405162461bcd60e51b815260040161075b90613d72565b60048054908290556040517f7e3f7f0708a84de9203036abaa450dccc85ad5ff52f78c170f3edb55cf5e8828906107cf908390859061404e565b60405180910390a15050565b6009546001600160a01b031681565b600b6020526000908152604090205481565b6000546001600160a01b031633146108265760405162461bcd60e51b815260040161075b90613ed2565b690a968163f0a57b400000811015801561084a575069152d02c7e14af68000008111155b6108665760405162461bcd60e51b815260040161075b90613e12565b60058054908290556040517fccb45da8d5717e6c4544694297c4ba5cf151d455c9bb0ed4fc7a38411bc05461906107cf908390859061404e565b6000546001600160a01b031633146108ca5760405162461bcd60e51b815260040161075b90613d52565b600181101580156108dd5750619d808111155b6108f95760405162461bcd60e51b815260040161075b90613da2565b60038054908290556040517fc565b045403dc03c2eea82b81a0465edad9e2e7fc4d97e11421c209da93d7a93906107cf908390859061404e565b60405161093f90613ae0565b604051809103902081565b61168081565b6954b40b1f852bda00000081565b69152d02c7e14af680000081565b6001546001600160a01b031681565b6060806060806000600a6000878152602001908152602001600020905080600301816004018260050183600601838054806020026020016040519081016040528092919081815260200182805480156109fd57602002820191906000526020600020905b81546001600160a01b031681526001909101906020018083116109df575b5050505050935082805480602002602001604051908101604052809291908181526020018280548015610a4f57602002820191906000526020600020905b815481526020019060010190808311610a3b575b5050505050925081805480602002602001604051908101604052809291908181526020016000905b82821015610b225760008481526020908190208301805460408051601f6002600019610100600187161502019094169390930492830185900485028101850190915281815292830182828015610b0e5780601f10610ae357610100808354040283529160200191610b0e565b820191906000526020600020905b815481529060010190602001808311610af157829003601f168201915b505050505081526020019060010190610a77565b50505050915080805480602002602001604051908101604052809291908181526020016000905b82821015610bf45760008481526020908190208301805460408051601f6002600019610100600187161502019094169390930492830185900485028101850190915281815292830182828015610be05780601f10610bb557610100808354040283529160200191610be0565b820191906000526020600020905b815481529060010190602001808311610bc357829003601f168201915b505050505081526020019060010190610b49565b5050505090509450945094509450509193509193565b60035481565b6000604051610c1e90613ae0565b604080519182900382208282019091526017825276436f6d706f756e6420476f7665726e6f7220427261766f60481b6020909201919091527f3d9e905142ff365fb68ce863f26a44f5583cf7ec11bcde450555f50b7e1b5614610c7f611e91565b30604051602001610c939493929190613c33565b6040516020818303038152906040528051906020012090506000604051610cb990613aa4565b604051908190038120610cd29189908990602001613c68565b60405160208183030381529060405280519060200120905060008282604051602001610cff929190613aaf565b604051602081830303815290604052805190602001209050600060018288888860405160008152602001604052604051610d3c9493929190613c90565b6020604051602081039080840390855afa158015610d5e573d6000803e3d6000fd5b5050604051601f1901519150506001600160a01b038116610d915760405162461bcd60e51b815260040161075b90613dd2565b806001600160a01b03167fb8e138887d0aa13bab447e82de9d5c1777041ecd21ca36ba824ff1e6c07ddda48a8a610dc9858e8e611e96565b604051610dd8939291906140a2565b60405180910390a2505050505050505050565b60008160075410158015610e00575060065482115b610e1c5760405162461bcd60e51b815260040161075b90613ee2565b6000828152600a60205260409020600c81015460ff1615610e41576002915050610f6c565b80600701544311610e56576000915050610f6c565b80600801544311610e6b576001915050610f6c565b80600a01548160090154111580610e8f57506954b40b1f852bda0000008160090154105b15610e9e576003915050610f6c565b6002810154610eb1576004915050610f6c565b600c810154610100900460ff1615610ecd576007915050610f6c565b6002810154600854604080516360d143f160e11b81529051610f5693926001600160a01b03169163c1a287e2916004808301926020929190829003018186803b158015610f1957600080fd5b505afa158015610f2d573d6000803e3d6000fd5b505050506040513d601f19601f82011682018060405250610f5191908101906129c6565b612087565b4210610f66576006915050610f6c565b60059150505b919050565b6007610f7c82610deb565b6007811115610f8757fe5b1415610fa55760405162461bcd60e51b815260040161075b90613ec2565b6000818152600a6020526040902060018101546001600160a01b031633148061106d57506005546009546001838101546001600160a01b039283169263782d6fe192911690610ff59043906120ac565b6040518363ffffffff1660e01b8152600401611012929190613b2f565b60206040518083038186803b15801561102a57600080fd5b505afa15801561103e573d6000803e3d6000fd5b505050506040513d601f19601f820116820180604052506110629190810190612b4f565b6001600160601b0316105b6110895760405162461bcd60e51b815260040161075b90613e72565b600c8101805460ff1916600117905560005b6003820154811015611195576008546003830180546001600160a01b039092169163591fcdfe9190849081106110cd57fe5b6000918252602090912001546004850180546001600160a01b0390921691859081106110f557fe5b906000526020600020015485600501858154811061110f57fe5b9060005260206000200186600601868154811061112857fe5b9060005260206000200187600201546040518663ffffffff1660e01b8152600401611157959493929190613b97565b600060405180830381600087803b15801561117157600080fd5b505af1158015611185573d6000803e3d6000fd5b50506001909201915061109b9050565b507f789cf55be980739dad1d0699b93b58e806b51c9d96619bfa8fe0a28abaa7b30c826040516107cf9190613c25565b337fb8e138887d0aa13bab447e82de9d5c1777041ecd21ca36ba824ff1e6c07ddda483836111f4848383611e96565b604051611203939291906140a2565b60405180910390a25050565b6002546001600160a01b031681565b690a968163f0a57b40000081565b337fb8e138887d0aa13bab447e82de9d5c1777041ecd21ca36ba824ff1e6c07ddda4858561125b848383611e96565b868660405161126e95949392919061405c565b60405180910390a250505050565b600a81565b62013b0081565b619d8081565b60055481565b6000546001600160a01b031633146112be5760405162461bcd60e51b815260040161075b90613d12565b600180546001600160a01b038381166001600160a01b03198316179092556040519116907fca4f2f25d0898edd99413412fb94012f9e54ec8142f9b093e7720646a95b16a9906107cf9083908590613b14565b6008546001600160a01b03161561133a5760405162461bcd60e51b815260040161075b90613d02565b6000546001600160a01b031633146113645760405162461bcd60e51b815260040161075b90613e02565b6001600160a01b03851661138a5760405162461bcd60e51b815260040161075b90613d42565b6001600160a01b0384166113b05760405162461bcd60e51b815260040161075b90613e62565b61168083101580156113c5575062013b008311155b6113e15760405162461bcd60e51b815260040161075b90613ef2565b600182101580156113f45750619d808211155b6114105760405162461bcd60e51b815260040161075b90613de2565b690a968163f0a57b4000008110158015611434575069152d02c7e14af68000008111155b6114505760405162461bcd60e51b815260040161075b90613db2565b600880546001600160a01b039687166001600160a01b0319918216179091556009805495909616941693909317909355600455600391909155600555565b6008546001600160a01b031681565b60075481565b6000600654600014156114c85760405162461bcd60e51b815260040161075b90613d62565b6005546009546001600160a01b031663782d6fe1336114e84360016120ac565b6040518363ffffffff1660e01b8152600401611505929190613af9565b60206040518083038186803b15801561151d57600080fd5b505afa158015611531573d6000803e3d6000fd5b505050506040513d601f19601f820116820180604052506115559190810190612b4f565b6001600160601b03161161157b5760405162461bcd60e51b815260040161075b90613eb2565b8451865114801561158d575083518651145b801561159a575082518651145b6115b65760405162461bcd60e51b815260040161075b90613df2565b85516115d45760405162461bcd60e51b815260040161075b90613e42565b600a865111156115f65760405162461bcd60e51b815260040161075b90613e82565b336000908152600b6020526040902054801561167357600061161782610deb565b9050600181600781111561162757fe5b14156116455760405162461bcd60e51b815260040161075b90613ea2565b600081600781111561165357fe5b14156116715760405162461bcd60e51b815260040161075b90613e92565b505b600061168143600354612087565b9050600061169182600454612087565b60078054600101905590506116a4612233565b604051806101c001604052806007548152602001336001600160a01b03168152602001600081526020018b81526020018a815260200189815260200188815260200184815260200183815260200160008152602001600081526020016000815260200160001515815260200160001515815250905080600a6000836000015181526020019081526020016000206000820151816000015560208201518160010160006101000a8154816001600160a01b0302191690836001600160a01b0316021790555060408201518160020155606082015181600301908051906020019061178e9291906122af565b50608082015180516117aa916004840191602090910190612314565b5060a082015180516117c691600584019160209091019061235b565b5060c082015180516117e29160068401916020909101906123b4565b5060e082015181600701556101008201518160080155610120820151816009015561014082015181600a015561016082015181600b015561018082015181600c0160006101000a81548160ff0219169083151502179055506101a082015181600c0160016101000a81548160ff0219169083151502179055509050508060000151600b600083602001516001600160a01b03166001600160a01b03168152602001908152602001600020819055507f7d84a6263ae0d98d3329bd7b46bb4e8d6f98cd35a7adb45c274c8b7fd5ebd5e08160000151338c8c8c8c89898e6040516118d399989796959493929190613f20565b60405180910390a15193505050505b95945050505050565b60046118f682610deb565b600781111561190157fe5b1461191e5760405162461bcd60e51b815260040161075b90613e22565b6000818152600a602090815260408083206008548251630d48571f60e31b815292519194936119789342936001600160a01b0390931692636a42b8f892600480840193919291829003018186803b158015610f1957600080fd5b905060005b6003830154811015611b2057611b1883600301828154811061199b57fe5b6000918252602090912001546004850180546001600160a01b0390921691849081106119c357fe5b90600052602060002001548560050184815481106119dd57fe5b600091825260209182902001805460408051601f6002600019610100600187161502019094169390930492830185900485028101850190915281815292830182828015611a6b5780601f10611a4057610100808354040283529160200191611a6b565b820191906000526020600020905b815481529060010190602001808311611a4e57829003601f168201915b5050505050866006018581548110611a7f57fe5b600091825260209182902001805460408051601f6002600019610100600187161502019094169390930492830185900485028101850190915281815292830182828015611b0d5780601f10611ae257610100808354040283529160200191611b0d565b820191906000526020600020905b815481529060010190602001808311611af057829003601f168201915b5050505050866120d4565b60010161197d565b50600282018190556040517f9a2e42fd6722813d69113e7d0079d3d940171428df7373df9c7f7617cfda289290611b5a908590849061404e565b60405180910390a1505050565b60405161093f90613aa4565b611b7b61240d565b506000828152600a602090815260408083206001600160a01b0385168452600d018252918290208251606081018452905460ff8082161515835261010082041692820192909252620100009091046001600160601b0316918101919091525b92915050565b600181565b6001546001600160a01b031633148015611bfe57503315155b611c1a5760405162461bcd60e51b815260040161075b90613e52565b60008054600180546001600160a01b038082166001600160a01b03198086168217968790559092169092556040519282169390927ff9ffabca9c8276e99321725bcb43fb076a6c66a54b7f21c4e8146d8519b417dc92611c7e928692911690613b14565b60405180910390a16001546040517fca4f2f25d0898edd99413412fb94012f9e54ec8142f9b093e7720646a95b16a9916107cf9184916001600160a01b031690613b14565b6000546001600160a01b031681565b60065481565b6005611ce382610deb565b6007811115611cee57fe5b14611d0b5760405162461bcd60e51b815260040161075b90613dc2565b6000818152600a60205260408120600c8101805461ff001916610100179055905b6003820154811015611e61576008546004830180546001600160a01b0390921691630825f38f919084908110611d5e57fe5b9060005260206000200154846003018481548110611d7857fe5b6000918252602090912001546004860180546001600160a01b039092169186908110611da057fe5b9060005260206000200154866005018681548110611dba57fe5b90600052602060002001876006018781548110611dd357fe5b9060005260206000200188600201546040518763ffffffff1660e01b8152600401611e02959493929190613b97565b6000604051808303818588803b158015611e1b57600080fd5b505af1158015611e2f573d6000803e3d6000fd5b50505050506040513d6000823e601f3d908101601f19168201604052611e5891908101906129e4565b50600101611d2c565b507f712ae1383f79ac853f8d882153778e0260ef8f03b504e2866e0593e04d2b291f826040516107cf9190613c25565b465b90565b60006001611ea384610deb565b6007811115611eae57fe5b14611ecb5760405162461bcd60e51b815260040161075b90613d82565b60028260ff161115611eef5760405162461bcd60e51b815260040161075b90613cf2565b6000838152600a602090815260408083206001600160a01b0388168452600d8101909252909120805460ff1615611f385760405162461bcd60e51b815260040161075b90613d92565b600954600783015460405163782d6fe160e01b81526000926001600160a01b03169163782d6fe191611f6e918b91600401613b2f565b60206040518083038186803b158015611f8657600080fd5b505afa158015611f9a573d6000803e3d6000fd5b505050506040513d601f19601f82011682018060405250611fbe9190810190612b4f565b905060ff8516611fe957611fdf83600a0154826001600160601b0316612087565b600a84015561203f565b8460ff16600114156120165761200c8360090154826001600160601b0316612087565b600984015561203f565b8460ff166002141561203f5761203983600b0154826001600160601b0316612087565b600b8401555b8154600160ff199091161761ff00191661010060ff871602176dffffffffffffffffffffffff00001916620100006001600160601b03831602179091559150505b9392505050565b6000828201838110156120805760405162461bcd60e51b815260040161075b90613e32565b6000828211156120ce5760405162461bcd60e51b815260040161075b90613f02565b50900390565b6008546040516001600160a01b039091169063f2b06537906121029088908890889088908890602001613b3d565b604051602081830303815290604052805190602001206040518263ffffffff1660e01b81526004016121349190613c25565b60206040518083038186803b15801561214c57600080fd5b505afa158015612160573d6000803e3d6000fd5b505050506040513d601f19601f8201168201806040525061218491908101906129a8565b156121a15760405162461bcd60e51b815260040161075b90613d22565b600854604051633a66f90160e01b81526001600160a01b0390911690633a66f901906121d99088908890889088908890600401613b3d565b602060405180830381600087803b1580156121f357600080fd5b505af1158015612207573d6000803e3d6000fd5b505050506040513d601f19601f8201168201806040525061222b91908101906129c6565b505050505050565b604051806101c001604052806000815260200160006001600160a01b03168152602001600081526020016060815260200160608152602001606081526020016060815260200160008152602001600081526020016000815260200160008152602001600081526020016000151581526020016000151581525090565b828054828255906000526020600020908101928215612304579160200282015b8281111561230457825182546001600160a01b0319166001600160a01b039091161782556020909201916001909101906122cf565b5061231092915061242d565b5090565b82805482825590600052602060002090810192821561234f579160200282015b8281111561234f578251825591602001919060010190612334565b50612310929150612451565b8280548282559060005260206000209081019282156123a8579160200282015b828111156123a8578251805161239891849160209091019061246b565b509160200191906001019061237b565b506123109291506124d8565b828054828255906000526020600020908101928215612401579160200282015b8281111561240157825180516123f191849160209091019061246b565b50916020019190600101906123d4565b506123109291506124fb565b604080516060810182526000808252602082018190529181019190915290565b611e9391905b808211156123105780546001600160a01b0319168155600101612433565b611e9391905b808211156123105760008155600101612457565b828054600181600116156101000203166002900490600052602060002090601f016020900481019282601f106124ac57805160ff191683800117855561234f565b8280016001018555821561234f579182018281111561234f578251825591602001919060010190612334565b611e9391905b808211156123105760006124f2828261251e565b506001016124de565b611e9391905b80821115612310576000612515828261251e565b50600101612501565b50805460018160011615610100020316600290046000825580601f106125445750612562565b601f0160209004906000526020600020908101906125629190612451565b50565b8035611bda81614216565b600082601f83011261258157600080fd5b813561259461258f82614102565b6140db565b915081818352602084019350602081019050838560208402820111156125b957600080fd5b60005b838110156125e557816125cf8882612565565b84525060209283019291909101906001016125bc565b5050505092915050565b600082601f83011261260057600080fd5b813561260e61258f82614102565b81815260209384019390925082018360005b838110156125e55781358601612636888261273a565b8452506020928301929190910190600101612620565b600082601f83011261265d57600080fd5b813561266b61258f82614102565b81815260209384019390925082018360005b838110156125e55781358601612693888261273a565b845250602092830192919091019060010161267d565b600082601f8301126126ba57600080fd5b81356126c861258f82614102565b915081818352602084019350602081019050838560208402820111156126ed57600080fd5b60005b838110156125e557816127038882612724565b84525060209283019291909101906001016126f0565b8051611bda8161422a565b8035611bda81614233565b8051611bda81614233565b600082601f83011261274b57600080fd5b813561275961258f82614123565b9150808252602083016020830185838301111561277557600080fd5b6127808382846141ca565b50505092915050565b600082601f83011261279a57600080fd5b81516127a861258f82614123565b915080825260208301602083018583830111156127c457600080fd5b6127808382846141d6565b60008083601f8401126127e157600080fd5b50813567ffffffffffffffff8111156127f957600080fd5b60208301915083600182028301111561281157600080fd5b9250929050565b8035611bda8161423c565b8051611bda81614245565b60006020828403121561284057600080fd5b600061284c8484612565565b949350505050565b600080600080600060a0868803121561286c57600080fd5b60006128788888612565565b955050602061288988828901612565565b945050604061289a88828901612724565b93505060606128ab88828901612724565b92505060806128bc88828901612724565b9150509295509295909350565b600080600080600060a086880312156128e157600080fd5b853567ffffffffffffffff8111156128f857600080fd5b61290488828901612570565b955050602086013567ffffffffffffffff81111561292157600080fd5b61292d888289016126a9565b945050604086013567ffffffffffffffff81111561294a57600080fd5b6129568882890161264c565b935050606086013567ffffffffffffffff81111561297357600080fd5b61297f888289016125ef565b925050608086013567ffffffffffffffff81111561299c57600080fd5b6128bc8882890161273a565b6000602082840312156129ba57600080fd5b600061284c8484612719565b6000602082840312156129d857600080fd5b600061284c848461272f565b6000602082840312156129f657600080fd5b815167ffffffffffffffff811115612a0d57600080fd5b61284c84828501612789565b600060208284031215612a2b57600080fd5b600061284c8484612724565b60008060408385031215612a4a57600080fd5b6000612a568585612724565b9250506020612a6785828601612565565b9150509250929050565b60008060408385031215612a8457600080fd5b6000612a908585612724565b9250506020612a6785828601612818565b60008060008060608587031215612ab757600080fd5b6000612ac38787612724565b9450506020612ad487828801612818565b935050604085013567ffffffffffffffff811115612af157600080fd5b612afd878288016127cf565b95989497509550505050565b600080600080600060a08688031215612b2157600080fd5b6000612b2d8888612724565b9550506020612b3e88828901612818565b945050604061289a88828901612818565b600060208284031215612b6157600080fd5b600061284c8484612823565b6000612b798383612ba8565b505060200190565b60006120808383612d4a565b6000612b798383612d30565b612ba2816141a2565b82525050565b612ba28161416a565b6000612bbc8261415d565b612bc68185614161565b9350612bd18361414b565b8060005b83811015612bff578151612be98882612b6d565b9750612bf48361414b565b925050600101612bd5565b509495945050505050565b6000612c158261415d565b612c1f8185614161565b935083602082028501612c318561414b565b8060005b85811015612c6b5784840389528151612c4e8582612b81565b9450612c598361414b565b60209a909a0199925050600101612c35565b5091979650505050505050565b6000612c838261415d565b612c8d8185614161565b935083602082028501612c9f8561414b565b8060005b85811015612c6b5784840389528151612cbc8582612b81565b9450612cc78361414b565b60209a909a0199925050600101612ca3565b6000612ce48261415d565b612cee8185614161565b9350612cf98361414b565b8060005b83811015612bff578151612d118882612b8d565b9750612d1c8361414b565b925050600101612cfd565b612ba281614175565b612ba281611e93565b612ba2612d4582611e93565b611e93565b6000612d558261415d565b612d5f8185614161565b9350612d6f8185602086016141d6565b612d7881614202565b9093019392505050565b600081546001811660008114612d9f5760018114612dc557612e04565b607f6002830416612db08187614161565b60ff1984168152955050602085019250612e04565b60028204612dd38187614161565b9550612dde85614151565b60005b82811015612dfd57815488820152600190910190602001612de1565b8701945050505b505092915050565b612ba2816141a9565b612ba2816141b4565b6000612e2a8385614161565b9350612e378385846141ca565b612d7883614202565b6000612e4d603283614161565b7f476f7665726e6f72427261766f3a3a63617374566f7465496e7465726e616c3a81527120696e76616c696420766f7465207479706560701b602082015260400192915050565b6000612ea1602883610f6c565b7f42616c6c6f742875696e743235362070726f706f73616c49642c75696e743820815267737570706f72742960c01b602082015260280192915050565b6000612eeb603383614161565b7f476f7665726e6f72427261766f3a3a696e697469616c697a653a2063616e206f8152726e6c7920696e697469616c697a65206f6e636560681b602082015260400192915050565b6000612f40602a83614161565b7f476f7665726e6f72427261766f3a5f73657450656e64696e6741646d696e3a2081526961646d696e206f6e6c7960b01b602082015260400192915050565b6000612f8c605583614161565b7f476f7665726e6f72427261766f3a3a71756575654f72526576657274496e746581527f726e616c3a206964656e746963616c2070726f706f73616c20616374696f6e20602082015274616c7265616479207175657565642061742065746160581b604082015260600192915050565b6000613009602b83614161565b7f476f7665726e6f72427261766f3a3a5f736574566f74696e67506572696f643a81526a2061646d696e206f6e6c7960a81b602082015260400192915050565b6000613056603383614161565b60008051602061424f83398151915281527269642074696d656c6f636b206164647265737360681b602082015260400192915050565b6000613099602a83614161565b7f476f7665726e6f72427261766f3a3a5f736574566f74696e6744656c61793a2081526961646d696e206f6e6c7960b01b602082015260400192915050565b60006130e5603183614161565b7f476f7665726e6f72427261766f3a3a70726f706f73653a20476f7665726e6f7281527020427261766f206e6f742061637469766560781b602082015260400192915050565b6000613138600283610f6c565b61190160f01b815260020192915050565b6000613156603683614161565b7f476f7665726e6f72427261766f3a3a5f736574566f74696e67506572696f643a815275081a5b9d985b1a59081d9bdd1a5b99c81c195c9a5bd960521b602082015260400192915050565b60006131ae603183614161565b7f476f7665726e6f72427261766f3a3a63617374566f7465496e7465726e616c3a815270081d9bdd1a5b99c81a5cc818db1bdcd959607a1b602082015260400192915050565b6000613201603483614161565b7f476f7665726e6f72427261766f3a3a63617374566f7465496e7465726e616c3a815273081d9bdd195c88185b1c9958591e481d9bdd195960621b602082015260400192915050565b6000613257603483614161565b7f476f7665726e6f72427261766f3a3a5f736574566f74696e6744656c61793a20815273696e76616c696420766f74696e672064656c617960601b602082015260400192915050565b60006132ad603583614161565b60008051602061424f8339815191528152741a59081c1c9bdc1bdcd85b081d1a1c995cda1bdb19605a1b602082015260400192915050565b60006132f2604583614161565b7f476f7665726e6f72427261766f3a3a657865637574653a2070726f706f73616c81527f2063616e206f6e6c7920626520657865637574656420696620697420697320716020820152641d595d595960da1b604082015260600192915050565b600061335f602f83614161565b7f476f7665726e6f72427261766f3a3a63617374566f746542795369673a20696e81526e76616c6964207369676e617475726560881b602082015260400192915050565b60006133b0602f83614161565b60008051602061424f83398151915281526e696420766f74696e672064656c617960881b602082015260400192915050565b60006133ef604483614161565b7f476f7665726e6f72427261766f3a3a70726f706f73653a2070726f706f73616c81527f2066756e6374696f6e20696e666f726d6174696f6e206172697479206d69736d6020820152630c2e8c6d60e31b604082015260600192915050565b600061345b602583614161565b7f476f7665726e6f72427261766f3a3a696e697469616c697a653a2061646d696e815264206f6e6c7960d81b602082015260400192915050565b60006134a2604083614161565b7f476f7665726e6f72427261766f3a3a5f73657450726f706f73616c546872657381527f686f6c643a20696e76616c69642070726f706f73616c207468726573686f6c64602082015260400192915050565b6000613501604483614161565b7f476f7665726e6f72427261766f3a3a71756575653a2070726f706f73616c206381527f616e206f6e6c79206265207175657565642069662069742069732073756363656020820152631959195960e21b604082015260600192915050565b600061356d601183614161565b706164646974696f6e206f766572666c6f7760781b815260200192915050565b600061359a604383610f6c565b7f454950373132446f6d61696e28737472696e67206e616d652c75696e7432353681527f20636861696e49642c6164647265737320766572696679696e67436f6e74726160208201526263742960e81b604082015260430192915050565b6000613605602c83614161565b7f476f7665726e6f72427261766f3a3a70726f706f73653a206d7573742070726f81526b7669646520616374696f6e7360a01b602082015260400192915050565b6000613653602e83614161565b7f476f7665726e6f72427261766f3a5f61636365707441646d696e3a2070656e6481526d696e672061646d696e206f6e6c7960901b602082015260400192915050565b60006136a3602f83614161565b60008051602061424f83398151915281526e696420636f6d70206164647265737360881b602082015260400192915050565b60006136e2602f83614161565b7f476f7665726e6f72427261766f3a3a63616e63656c3a2070726f706f7365722081526e18589bdd99481d1a1c995cda1bdb19608a1b602082015260400192915050565b6000613733602883614161565b7f476f7665726e6f72427261766f3a3a70726f706f73653a20746f6f206d616e7981526720616374696f6e7360c01b602082015260400192915050565b600061377d605983614161565b7f476f7665726e6f72427261766f3a3a70726f706f73653a206f6e65206c69766581527f2070726f706f73616c207065722070726f706f7365722c20666f756e6420616e60208201527f20616c72656164792070656e64696e672070726f706f73616c00000000000000604082015260600192915050565b6000613802605883614161565b7f476f7665726e6f72427261766f3a3a70726f706f73653a206f6e65206c69766581527f2070726f706f73616c207065722070726f706f7365722c20666f756e6420616e60208201527f20616c7265616479206163746976652070726f706f73616c0000000000000000604082015260600192915050565b6000611bda600083614161565b6000613894603f83614161565b7f476f7665726e6f72427261766f3a3a70726f706f73653a2070726f706f73657281527f20766f7465732062656c6f772070726f706f73616c207468726573686f6c6400602082015260400192915050565b60006138f3603683614161565b7f476f7665726e6f72427261766f3a3a63616e63656c3a2063616e6e6f742063618152751b98d95b08195e1958dd5d1959081c1c9bdc1bdcd85b60521b602082015260400192915050565b600061394b603083614161565b7f476f7665726e6f72427261766f3a3a5f73657450726f706f73616c546872657381526f686f6c643a2061646d696e206f6e6c7960801b602082015260400192915050565b600061399d602983614161565b7f476f7665726e6f72427261766f3a3a73746174653a20696e76616c69642070728152681bdc1bdcd85b081a5960ba1b602082015260400192915050565b60006139e8603083614161565b60008051602061424f83398151915281526f1a59081d9bdd1a5b99c81c195c9a5bd960821b602082015260400192915050565b6000613a28601583614161565b747375627472616374696f6e20756e646572666c6f7760581b815260200192915050565b80516060830190613a5d8482612d27565b506020820151613a706020850182613a89565b506040820151613a836040850182613a9b565b50505050565b612ba281614190565b612ba2816141bf565b612ba281614196565b6000611bda82612e94565b6000613aba8261312b565b9150613ac68285612d39565b602082019150613ad68284612d39565b5060200192915050565b6000611bda8261358d565b60208101611bda8284612ba8565b60408101613b078285612b99565b6120806020830184612d30565b60408101613b228285612ba8565b6120806020830184612ba8565b60408101613b078285612ba8565b60a08101613b4b8288612ba8565b613b586020830187612d30565b8181036040830152613b6a8186612d4a565b90508181036060830152613b7e8185612d4a565b9050613b8d6080830184612d30565b9695505050505050565b60a08101613ba58288612ba8565b613bb26020830187612d30565b8181036040830152613bc48186612d82565b90508181036060830152613b7e8185612d82565b60808082528101613be98187612bb1565b90508181036020830152613bfd8186612cd9565b90508181036040830152613c118185612c78565b90508181036060830152613b8d8184612c0a565b60208101611bda8284612d30565b60808101613c418287612d30565b613c4e6020830186612d30565b613c5b6040830185612d30565b6118e26060830184612ba8565b60608101613c768286612d30565b613c836020830185612d30565b61284c6040830184613a89565b60808101613c9e8287612d30565b613cab6020830186613a89565b613cb86040830185612d30565b6118e26060830184612d30565b60208101611bda8284612e0c565b60208101611bda8284612e15565b602080825281016120808184612d4a565b60208082528101611bda81612e40565b60208082528101611bda81612ede565b60208082528101611bda81612f33565b60208082528101611bda81612f7f565b60208082528101611bda81612ffc565b60208082528101611bda81613049565b60208082528101611bda8161308c565b60208082528101611bda816130d8565b60208082528101611bda81613149565b60208082528101611bda816131a1565b60208082528101611bda816131f4565b60208082528101611bda8161324a565b60208082528101611bda816132a0565b60208082528101611bda816132e5565b60208082528101611bda81613352565b60208082528101611bda816133a3565b60208082528101611bda816133e2565b60208082528101611bda8161344e565b60208082528101611bda81613495565b60208082528101611bda816134f4565b60208082528101611bda81613560565b60208082528101611bda816135f8565b60208082528101611bda81613646565b60208082528101611bda81613696565b60208082528101611bda816136d5565b60208082528101611bda81613726565b60208082528101611bda81613770565b60208082528101611bda816137f5565b60208082528101611bda81613887565b60208082528101611bda816138e6565b60208082528101611bda8161393e565b60208082528101611bda81613990565b60208082528101611bda816139db565b60208082528101611bda81613a1b565b60608101611bda8284613a4c565b6101208101613f2f828c612d30565b613f3c602083018b612b99565b8181036040830152613f4e818a612bb1565b90508181036060830152613f628189612cd9565b90508181036080830152613f768188612c78565b905081810360a0830152613f8a8187612c0a565b9050613f9960c0830186612d30565b613fa660e0830185612d30565b818103610100830152613fb98184612d4a565b9b9a5050505050505050505050565b6101408101613fd7828d612d30565b613fe4602083018c612ba8565b613ff1604083018b612d30565b613ffe606083018a612d30565b61400b6080830189612d30565b61401860a0830188612d30565b61402560c0830187612d30565b61403260e0830186612d30565b614040610100830185612d27565b613fb9610120830184612d27565b60408101613b078285612d30565b6080810161406a8288612d30565b6140776020830187613a89565b6140846040830186613a92565b8181036060830152614097818486612e1e565b979650505050505050565b608081016140b08286612d30565b6140bd6020830185613a89565b6140ca6040830184613a92565b81810360608301526118e28161387a565b60405181810167ffffffffffffffff811182821017156140fa57600080fd5b604052919050565b600067ffffffffffffffff82111561411957600080fd5b5060209081020190565b600067ffffffffffffffff82111561413a57600080fd5b506020601f91909101601f19160190565b60200190565b60009081526020902090565b5190565b90815260200190565b6000611bda82614184565b151590565b80610f6c8161420c565b6001600160a01b031690565b60ff1690565b6001600160601b031690565b6000611bda825b6000611bda8261416a565b6000611bda8261417a565b6000611bda82614196565b82818337506000910152565b60005b838110156141f15781810151838201526020016141d9565b83811115613a835750506000910152565b601f01601f191690565b6008811061256257fe5b61421f8161416a565b811461256257600080fd5b61421f81614175565b61421f81611e93565b61421f81614190565b61421f8161419656fe476f7665726e6f72427261766f3a3a696e697469616c697a653a20696e76616ca365627a7a7231582060988686456a6ed3991f7e5be7f8a1fd8fcdf6cd480d1759762c1d9bf558868d6c6578706572696d656e74616cf564736f6c63430005100040",
          "opcodes": "PUSH1 0x80 PUSH1 0x40 MSTORE CALLVALUE DUP1 ISZERO PUSH2 0x10 JUMPI PUSH1 0x0 DUP1 REVERT JUMPDEST POP PUSH2 0x42B1 DUP1 PUSH2 0x20 PUSH1 0x0 CODECOPY PUSH1 0x0 RETURN INVALID PUSH1 0x80 PUSH1 0x40 MSTORE PUSH1 0x4 CALLDATASIZE LT PUSH2 0x230 JUMPI PUSH1 0x0 CALLDATALOAD PUSH1 0xE0 SHR DUP1 PUSH4 0x5C60DA1B GT PUSH2 0x12E JUMPI DUP1 PUSH4 0xDA35C664 GT PUSH2 0xAB JUMPI DUP1 PUSH4 0xE48083FE GT PUSH2 0x6F JUMPI DUP1 PUSH4 0xE48083FE EQ PUSH2 0x62E JUMPI DUP1 PUSH4 0xE9C714F2 EQ PUSH2 0x643 JUMPI DUP1 PUSH4 0xF851A440 EQ PUSH2 0x658 JUMPI DUP1 PUSH4 0xFC4EEE42 EQ PUSH2 0x66D JUMPI DUP1 PUSH4 0xFE0D94C1 EQ PUSH2 0x682 JUMPI PUSH2 0x230 JUMP JUMPDEST DUP1 PUSH4 0xDA35C664 EQ PUSH2 0x597 JUMPI DUP1 PUSH4 0xDA95691A EQ PUSH2 0x5AC JUMPI DUP1 PUSH4 0xDDF0B009 EQ PUSH2 0x5CC JUMPI DUP1 PUSH4 0xDEAAA7CC EQ PUSH2 0x5EC JUMPI DUP1 PUSH4 0xE23A9A52 EQ PUSH2 0x601 JUMPI PUSH2 0x230 JUMP JUMPDEST DUP1 PUSH4 0xB1126263 GT PUSH2 0xF2 JUMPI DUP1 PUSH4 0xB1126263 EQ PUSH2 0x518 JUMPI DUP1 PUSH4 0xB58131B0 EQ PUSH2 0x52D JUMPI DUP1 PUSH4 0xB71D1A0C EQ PUSH2 0x542 JUMPI DUP1 PUSH4 0xD13F90B4 EQ PUSH2 0x562 JUMPI DUP1 PUSH4 0xD33219B4 EQ PUSH2 0x582 JUMPI PUSH2 0x230 JUMP JUMPDEST DUP1 PUSH4 0x5C60DA1B EQ PUSH2 0x4A4 JUMPI DUP1 PUSH4 0x791F5D23 EQ PUSH2 0x4B9 JUMPI DUP1 PUSH4 0x7B3C71D3 EQ PUSH2 0x4CE JUMPI DUP1 PUSH4 0x7BDBE4D0 EQ PUSH2 0x4EE JUMPI DUP1 PUSH4 0xA64E024A EQ PUSH2 0x503 JUMPI PUSH2 0x230 JUMP JUMPDEST DUP1 PUSH4 0x215809CA GT PUSH2 0x1BC JUMPI DUP1 PUSH4 0x3932ABB1 GT PUSH2 0x180 JUMPI DUP1 PUSH4 0x3932ABB1 EQ PUSH2 0x402 JUMPI DUP1 PUSH4 0x3BCCF4FD EQ PUSH2 0x417 JUMPI DUP1 PUSH4 0x3E4F49E6 EQ PUSH2 0x437 JUMPI DUP1 PUSH4 0x40E58EE5 EQ PUSH2 0x464 JUMPI DUP1 PUSH4 0x56781388 EQ PUSH2 0x484 JUMPI PUSH2 0x230 JUMP JUMPDEST DUP1 PUSH4 0x215809CA EQ PUSH2 0x371 JUMPI DUP1 PUSH4 0x24BC1A64 EQ PUSH2 0x386 JUMPI DUP1 PUSH4 0x25FD935A EQ PUSH2 0x39B JUMPI DUP1 PUSH4 0x26782247 EQ PUSH2 0x3B0 JUMPI DUP1 PUSH4 0x328DD982 EQ PUSH2 0x3D2 JUMPI PUSH2 0x230 JUMP JUMPDEST DUP1 PUSH4 0x109D0AF8 GT PUSH2 0x203 JUMPI DUP1 PUSH4 0x109D0AF8 EQ PUSH2 0x2DA JUMPI DUP1 PUSH4 0x17977C61 EQ PUSH2 0x2FC JUMPI DUP1 PUSH4 0x17BA1B8B EQ PUSH2 0x31C JUMPI DUP1 PUSH4 0x1DFB1B5A EQ PUSH2 0x33C JUMPI DUP1 PUSH4 0x20606B70 EQ PUSH2 0x35C JUMPI PUSH2 0x230 JUMP JUMPDEST DUP1 PUSH4 0x13CF08B EQ PUSH2 0x235 JUMPI DUP1 PUSH4 0x2A251A3 EQ PUSH2 0x274 JUMPI DUP1 PUSH4 0x6FDDE03 EQ PUSH2 0x296 JUMPI DUP1 PUSH4 0xEA2D98C EQ PUSH2 0x2B8 JUMPI JUMPDEST PUSH1 0x0 DUP1 REVERT JUMPDEST CALLVALUE DUP1 ISZERO PUSH2 0x241 JUMPI PUSH1 0x0 DUP1 REVERT JUMPDEST POP PUSH2 0x255 PUSH2 0x250 CALLDATASIZE PUSH1 0x4 PUSH2 0x2A19 JUMP JUMPDEST PUSH2 0x695 JUMP JUMPDEST PUSH1 0x40 MLOAD PUSH2 0x26B SWAP11 SWAP10 SWAP9 SWAP8 SWAP7 SWAP6 SWAP5 SWAP4 SWAP3 SWAP2 SWAP1 PUSH2 0x3FC8 JUMP JUMPDEST PUSH1 0x40 MLOAD DUP1 SWAP2 SUB SWAP1 RETURN JUMPDEST CALLVALUE DUP1 ISZERO PUSH2 0x280 JUMPI PUSH1 0x0 DUP1 REVERT JUMPDEST POP PUSH2 0x289 PUSH2 0x6F8 JUMP JUMPDEST PUSH1 0x40 MLOAD PUSH2 0x26B SWAP2 SWAP1 PUSH2 0x3C25 JUMP JUMPDEST CALLVALUE DUP1 ISZERO PUSH2 0x2A2 JUMPI PUSH1 0x0 DUP1 REVERT JUMPDEST POP PUSH2 0x2AB PUSH2 0x6FE JUMP JUMPDEST PUSH1 0x40 MLOAD PUSH2 0x26B SWAP2 SWAP1 PUSH2 0x3CE1 JUMP JUMPDEST CALLVALUE DUP1 ISZERO PUSH2 0x2C4 JUMPI PUSH1 0x0 DUP1 REVERT JUMPDEST POP PUSH2 0x2D8 PUSH2 0x2D3 CALLDATASIZE PUSH1 0x4 PUSH2 0x2A19 JUMP JUMPDEST PUSH2 0x731 JUMP JUMPDEST STOP JUMPDEST CALLVALUE DUP1 ISZERO PUSH2 0x2E6 JUMPI PUSH1 0x0 DUP1 REVERT JUMPDEST POP PUSH2 0x2EF PUSH2 0x7DB JUMP JUMPDEST PUSH1 0x40 MLOAD PUSH2 0x26B SWAP2 SWAP1 PUSH2 0x3CC5 JUMP JUMPDEST CALLVALUE DUP1 ISZERO PUSH2 0x308 JUMPI PUSH1 0x0 DUP1 REVERT JUMPDEST POP PUSH2 0x289 PUSH2 0x317 CALLDATASIZE PUSH1 0x4 PUSH2 0x282E JUMP JUMPDEST PUSH2 0x7EA JUMP JUMPDEST CALLVALUE DUP1 ISZERO PUSH2 0x328 JUMPI PUSH1 0x0 DUP1 REVERT JUMPDEST POP PUSH2 0x2D8 PUSH2 0x337 CALLDATASIZE PUSH1 0x4 PUSH2 0x2A19 JUMP JUMPDEST PUSH2 0x7FC JUMP JUMPDEST CALLVALUE DUP1 ISZERO PUSH2 0x348 JUMPI PUSH1 0x0 DUP1 REVERT JUMPDEST POP PUSH2 0x2D8 PUSH2 0x357 CALLDATASIZE PUSH1 0x4 PUSH2 0x2A19 JUMP JUMPDEST PUSH2 0x8A0 JUMP JUMPDEST CALLVALUE DUP1 ISZERO PUSH2 0x368 JUMPI PUSH1 0x0 DUP1 REVERT JUMPDEST POP PUSH2 0x289 PUSH2 0x933 JUMP JUMPDEST CALLVALUE DUP1 ISZERO PUSH2 0x37D JUMPI PUSH1 0x0 DUP1 REVERT JUMPDEST POP PUSH2 0x289 PUSH2 0x94A JUMP JUMPDEST CALLVALUE DUP1 ISZERO PUSH2 0x392 JUMPI PUSH1 0x0 DUP1 REVERT JUMPDEST POP PUSH2 0x289 PUSH2 0x950 JUMP JUMPDEST CALLVALUE DUP1 ISZERO PUSH2 0x3A7 JUMPI PUSH1 0x0 DUP1 REVERT JUMPDEST POP PUSH2 0x289 PUSH2 0x95E JUMP JUMPDEST CALLVALUE DUP1 ISZERO PUSH2 0x3BC JUMPI PUSH1 0x0 DUP1 REVERT JUMPDEST POP PUSH2 0x3C5 PUSH2 0x96C JUMP JUMPDEST PUSH1 0x40 MLOAD PUSH2 0x26B SWAP2 SWAP1 PUSH2 0x3AEB JUMP JUMPDEST CALLVALUE DUP1 ISZERO PUSH2 0x3DE JUMPI PUSH1 0x0 DUP1 REVERT JUMPDEST POP PUSH2 0x3F2 PUSH2 0x3ED CALLDATASIZE PUSH1 0x4 PUSH2 0x2A19 JUMP JUMPDEST PUSH2 0x97B JUMP JUMPDEST PUSH1 0x40 MLOAD PUSH2 0x26B SWAP5 SWAP4 SWAP3 SWAP2 SWAP1 PUSH2 0x3BD8 JUMP JUMPDEST CALLVALUE DUP1 ISZERO PUSH2 0x40E JUMPI PUSH1 0x0 DUP1 REVERT JUMPDEST POP PUSH2 0x289 PUSH2 0xC0A JUMP JUMPDEST CALLVALUE DUP1 ISZERO PUSH2 0x423 JUMPI PUSH1 0x0 DUP1 REVERT JUMPDEST POP PUSH2 0x2D8 PUSH2 0x432 CALLDATASIZE PUSH1 0x4 PUSH2 0x2B09 JUMP JUMPDEST PUSH2 0xC10 JUMP JUMPDEST CALLVALUE DUP1 ISZERO PUSH2 0x443 JUMPI PUSH1 0x0 DUP1 REVERT JUMPDEST POP PUSH2 0x457 PUSH2 0x452 CALLDATASIZE PUSH1 0x4 PUSH2 0x2A19 JUMP JUMPDEST PUSH2 0xDEB JUMP JUMPDEST PUSH1 0x40 MLOAD PUSH2 0x26B SWAP2 SWAP1 PUSH2 0x3CD3 JUMP JUMPDEST CALLVALUE DUP1 ISZERO PUSH2 0x470 JUMPI PUSH1 0x0 DUP1 REVERT JUMPDEST POP PUSH2 0x2D8 PUSH2 0x47F CALLDATASIZE PUSH1 0x4 PUSH2 0x2A19 JUMP JUMPDEST PUSH2 0xF71 JUMP JUMPDEST CALLVALUE DUP1 ISZERO PUSH2 0x490 JUMPI PUSH1 0x0 DUP1 REVERT JUMPDEST POP PUSH2 0x2D8 PUSH2 0x49F CALLDATASIZE PUSH1 0x4 PUSH2 0x2A71 JUMP JUMPDEST PUSH2 0x11C5 JUMP JUMPDEST CALLVALUE DUP1 ISZERO PUSH2 0x4B0 JUMPI PUSH1 0x0 DUP1 REVERT JUMPDEST POP PUSH2 0x3C5 PUSH2 0x120F JUMP JUMPDEST CALLVALUE DUP1 ISZERO PUSH2 0x4C5 JUMPI PUSH1 0x0 DUP1 REVERT JUMPDEST POP PUSH2 0x289 PUSH2 0x121E JUMP JUMPDEST CALLVALUE DUP1 ISZERO PUSH2 0x4DA JUMPI PUSH1 0x0 DUP1 REVERT JUMPDEST POP PUSH2 0x2D8 PUSH2 0x4E9 CALLDATASIZE PUSH1 0x4 PUSH2 0x2AA1 JUMP JUMPDEST PUSH2 0x122C JUMP JUMPDEST CALLVALUE DUP1 ISZERO PUSH2 0x4FA JUMPI PUSH1 0x0 DUP1 REVERT JUMPDEST POP PUSH2 0x289 PUSH2 0x127C JUMP JUMPDEST CALLVALUE DUP1 ISZERO PUSH2 0x50F JUMPI PUSH1 0x0 DUP1 REVERT JUMPDEST POP PUSH2 0x289 PUSH2 0x1281 JUMP JUMPDEST CALLVALUE DUP1 ISZERO PUSH2 0x524 JUMPI PUSH1 0x0 DUP1 REVERT JUMPDEST POP PUSH2 0x289 PUSH2 0x1288 JUMP JUMPDEST CALLVALUE DUP1 ISZERO PUSH2 0x539 JUMPI PUSH1 0x0 DUP1 REVERT JUMPDEST POP PUSH2 0x289 PUSH2 0x128E JUMP JUMPDEST CALLVALUE DUP1 ISZERO PUSH2 0x54E JUMPI PUSH1 0x0 DUP1 REVERT JUMPDEST POP PUSH2 0x2D8 PUSH2 0x55D CALLDATASIZE PUSH1 0x4 PUSH2 0x282E JUMP JUMPDEST PUSH2 0x1294 JUMP JUMPDEST CALLVALUE DUP1 ISZERO PUSH2 0x56E JUMPI PUSH1 0x0 DUP1 REVERT JUMPDEST POP PUSH2 0x2D8 PUSH2 0x57D CALLDATASIZE PUSH1 0x4 PUSH2 0x2854 JUMP JUMPDEST PUSH2 0x1311 JUMP JUMPDEST CALLVALUE DUP1 ISZERO PUSH2 0x58E JUMPI PUSH1 0x0 DUP1 REVERT JUMPDEST POP PUSH2 0x2EF PUSH2 0x148E JUMP JUMPDEST CALLVALUE DUP1 ISZERO PUSH2 0x5A3 JUMPI PUSH1 0x0 DUP1 REVERT JUMPDEST POP PUSH2 0x289 PUSH2 0x149D JUMP JUMPDEST CALLVALUE DUP1 ISZERO PUSH2 0x5B8 JUMPI PUSH1 0x0 DUP1 REVERT JUMPDEST POP PUSH2 0x289 PUSH2 0x5C7 CALLDATASIZE PUSH1 0x4 PUSH2 0x28C9 JUMP JUMPDEST PUSH2 0x14A3 JUMP JUMPDEST CALLVALUE DUP1 ISZERO PUSH2 0x5D8 JUMPI PUSH1 0x0 DUP1 REVERT JUMPDEST POP PUSH2 0x2D8 PUSH2 0x5E7 CALLDATASIZE PUSH1 0x4 PUSH2 0x2A19 JUMP JUMPDEST PUSH2 0x18EB JUMP JUMPDEST CALLVALUE DUP1 ISZERO PUSH2 0x5F8 JUMPI PUSH1 0x0 DUP1 REVERT JUMPDEST POP PUSH2 0x289 PUSH2 0x1B67 JUMP JUMPDEST CALLVALUE DUP1 ISZERO PUSH2 0x60D JUMPI PUSH1 0x0 DUP1 REVERT JUMPDEST POP PUSH2 0x621 PUSH2 0x61C CALLDATASIZE PUSH1 0x4 PUSH2 0x2A37 JUMP JUMPDEST PUSH2 0x1B73 JUMP JUMPDEST PUSH1 0x40 MLOAD PUSH2 0x26B SWAP2 SWAP1 PUSH2 0x3F12 JUMP JUMPDEST CALLVALUE DUP1 ISZERO PUSH2 0x63A JUMPI PUSH1 0x0 DUP1 REVERT JUMPDEST POP PUSH2 0x289 PUSH2 0x1BE0 JUMP JUMPDEST CALLVALUE DUP1 ISZERO PUSH2 0x64F JUMPI PUSH1 0x0 DUP1 REVERT JUMPDEST POP PUSH2 0x2D8 PUSH2 0x1BE5 JUMP JUMPDEST CALLVALUE DUP1 ISZERO PUSH2 0x664 JUMPI PUSH1 0x0 DUP1 REVERT JUMPDEST POP PUSH2 0x3C5 PUSH2 0x1CC3 JUMP JUMPDEST CALLVALUE DUP1 ISZERO PUSH2 0x679 JUMPI PUSH1 0x0 DUP1 REVERT JUMPDEST POP PUSH2 0x289 PUSH2 0x1CD2 JUMP JUMPDEST PUSH2 0x2D8 PUSH2 0x690 CALLDATASIZE PUSH1 0x4 PUSH2 0x2A19 JUMP JUMPDEST PUSH2 0x1CD8 JUMP JUMPDEST PUSH1 0xA PUSH1 0x20 DUP2 SWAP1 MSTORE PUSH1 0x0 SWAP2 DUP3 MSTORE PUSH1 0x40 SWAP1 SWAP2 KECCAK256 DUP1 SLOAD PUSH1 0x1 DUP3 ADD SLOAD PUSH1 0x2 DUP4 ADD SLOAD PUSH1 0x7 DUP5 ADD SLOAD PUSH1 0x8 DUP6 ADD SLOAD PUSH1 0x9 DUP7 ADD SLOAD SWAP7 DUP7 ADD SLOAD PUSH1 0xB DUP8 ADD SLOAD PUSH1 0xC SWAP1 SWAP8 ADD SLOAD SWAP6 SWAP8 PUSH1 0x1 PUSH1 0x1 PUSH1 0xA0 SHL SUB SWAP1 SWAP6 AND SWAP7 SWAP4 SWAP6 SWAP3 SWAP5 SWAP2 SWAP4 SWAP2 SWAP3 SWAP1 SWAP2 SWAP1 PUSH1 0xFF DUP1 DUP3 AND SWAP2 PUSH2 0x100 SWAP1 DIV AND DUP11 JUMP JUMPDEST PUSH1 0x4 SLOAD DUP2 JUMP JUMPDEST PUSH1 0x40 MLOAD DUP1 PUSH1 0x40 ADD PUSH1 0x40 MSTORE DUP1 PUSH1 0x17 DUP2 MSTORE PUSH1 0x20 ADD PUSH23 0x436F6D706F756E6420476F7665726E6F7220427261766F PUSH1 0x48 SHL DUP2 MSTORE POP DUP2 JUMP JUMPDEST PUSH1 0x0 SLOAD PUSH1 0x1 PUSH1 0x1 PUSH1 0xA0 SHL SUB AND CALLER EQ PUSH2 0x764 JUMPI PUSH1 0x40 MLOAD PUSH3 0x461BCD PUSH1 0xE5 SHL DUP2 MSTORE PUSH1 0x4 ADD PUSH2 0x75B SWAP1 PUSH2 0x3D32 JUMP JUMPDEST PUSH1 0x40 MLOAD DUP1 SWAP2 SUB SWAP1 REVERT JUMPDEST PUSH2 0x1680 DUP2 LT ISZERO DUP1 ISZERO PUSH2 0x779 JUMPI POP PUSH3 0x13B00 DUP2 GT ISZERO JUMPDEST PUSH2 0x795 JUMPI PUSH1 0x40 MLOAD PUSH3 0x461BCD PUSH1 0xE5 SHL DUP2 MSTORE PUSH1 0x4 ADD PUSH2 0x75B SWAP1 PUSH2 0x3D72 JUMP JUMPDEST PUSH1 0x4 DUP1 SLOAD SWAP1 DUP3 SWAP1 SSTORE PUSH1 0x40 MLOAD PUSH32 0x7E3F7F0708A84DE9203036ABAA450DCCC85AD5FF52F78C170F3EDB55CF5E8828 SWAP1 PUSH2 0x7CF SWAP1 DUP4 SWAP1 DUP6 SWAP1 PUSH2 0x404E JUMP JUMPDEST PUSH1 0x40 MLOAD DUP1 SWAP2 SUB SWAP1 LOG1 POP POP JUMP JUMPDEST PUSH1 0x9 SLOAD PUSH1 0x1 PUSH1 0x1 PUSH1 0xA0 SHL SUB AND DUP2 JUMP JUMPDEST PUSH1 0xB PUSH1 0x20 MSTORE PUSH1 0x0 SWAP1 DUP2 MSTORE PUSH1 0x40 SWAP1 KECCAK256 SLOAD DUP2 JUMP JUMPDEST PUSH1 0x0 SLOAD PUSH1 0x1 PUSH1 0x1 PUSH1 0xA0 SHL SUB AND CALLER EQ PUSH2 0x826 JUMPI PUSH1 0x40 MLOAD PUSH3 0x461BCD PUSH1 0xE5 SHL DUP2 MSTORE PUSH1 0x4 ADD PUSH2 0x75B SWAP1 PUSH2 0x3ED2 JUMP JUMPDEST PUSH10 0xA968163F0A57B400000 DUP2 LT ISZERO DUP1 ISZERO PUSH2 0x84A JUMPI POP PUSH10 0x152D02C7E14AF6800000 DUP2 GT ISZERO JUMPDEST PUSH2 0x866 JUMPI PUSH1 0x40 MLOAD PUSH3 0x461BCD PUSH1 0xE5 SHL DUP2 MSTORE PUSH1 0x4 ADD PUSH2 0x75B SWAP1 PUSH2 0x3E12 JUMP JUMPDEST PUSH1 0x5 DUP1 SLOAD SWAP1 DUP3 SWAP1 SSTORE PUSH1 0x40 MLOAD PUSH32 0xCCB45DA8D5717E6C4544694297C4BA5CF151D455C9BB0ED4FC7A38411BC05461 SWAP1 PUSH2 0x7CF SWAP1 DUP4 SWAP1 DUP6 SWAP1 PUSH2 0x404E JUMP JUMPDEST PUSH1 0x0 SLOAD PUSH1 0x1 PUSH1 0x1 PUSH1 0xA0 SHL SUB AND CALLER EQ PUSH2 0x8CA JUMPI PUSH1 0x40 MLOAD PUSH3 0x461BCD PUSH1 0xE5 SHL DUP2 MSTORE PUSH1 0x4 ADD PUSH2 0x75B SWAP1 PUSH2 0x3D52 JUMP JUMPDEST PUSH1 0x1 DUP2 LT ISZERO DUP1 ISZERO PUSH2 0x8DD JUMPI POP PUSH2 0x9D80 DUP2 GT ISZERO JUMPDEST PUSH2 0x8F9 JUMPI PUSH1 0x40 MLOAD PUSH3 0x461BCD PUSH1 0xE5 SHL DUP2 MSTORE PUSH1 0x4 ADD PUSH2 0x75B SWAP1 PUSH2 0x3DA2 JUMP JUMPDEST PUSH1 0x3 DUP1 SLOAD SWAP1 DUP3 SWAP1 SSTORE PUSH1 0x40 MLOAD PUSH32 0xC565B045403DC03C2EEA82B81A0465EDAD9E2E7FC4D97E11421C209DA93D7A93 SWAP1 PUSH2 0x7CF SWAP1 DUP4 SWAP1 DUP6 SWAP1 PUSH2 0x404E JUMP JUMPDEST PUSH1 0x40 MLOAD PUSH2 0x93F SWAP1 PUSH2 0x3AE0 JUMP JUMPDEST PUSH1 0x40 MLOAD DUP1 SWAP2 SUB SWAP1 KECCAK256 DUP2 JUMP JUMPDEST PUSH2 0x1680 DUP2 JUMP JUMPDEST PUSH10 0x54B40B1F852BDA000000 DUP2 JUMP JUMPDEST PUSH10 0x152D02C7E14AF6800000 DUP2 JUMP JUMPDEST PUSH1 0x1 SLOAD PUSH1 0x1 PUSH1 0x1 PUSH1 0xA0 SHL SUB AND DUP2 JUMP JUMPDEST PUSH1 0x60 DUP1 PUSH1 0x60 DUP1 PUSH1 0x0 PUSH1 0xA PUSH1 0x0 DUP8 DUP2 MSTORE PUSH1 0x20 ADD SWAP1 DUP2 MSTORE PUSH1 0x20 ADD PUSH1 0x0 KECCAK256 SWAP1 POP DUP1 PUSH1 0x3 ADD DUP2 PUSH1 0x4 ADD DUP3 PUSH1 0x5 ADD DUP4 PUSH1 0x6 ADD DUP4 DUP1 SLOAD DUP1 PUSH1 0x20 MUL PUSH1 0x20 ADD PUSH1 0x40 MLOAD SWAP1 DUP2 ADD PUSH1 0x40 MSTORE DUP1 SWAP3 SWAP2 SWAP1 DUP2 DUP2 MSTORE PUSH1 0x20 ADD DUP3 DUP1 SLOAD DUP1 ISZERO PUSH2 0x9FD JUMPI PUSH1 0x20 MUL DUP3 ADD SWAP2 SWAP1 PUSH1 0x0 MSTORE PUSH1 0x20 PUSH1 0x0 KECCAK256 SWAP1 JUMPDEST DUP2 SLOAD PUSH1 0x1 PUSH1 0x1 PUSH1 0xA0 SHL SUB AND DUP2 MSTORE PUSH1 0x1 SWAP1 SWAP2 ADD SWAP1 PUSH1 0x20 ADD DUP1 DUP4 GT PUSH2 0x9DF JUMPI JUMPDEST POP POP POP POP POP SWAP4 POP DUP3 DUP1 SLOAD DUP1 PUSH1 0x20 MUL PUSH1 0x20 ADD PUSH1 0x40 MLOAD SWAP1 DUP2 ADD PUSH1 0x40 MSTORE DUP1 SWAP3 SWAP2 SWAP1 DUP2 DUP2 MSTORE PUSH1 0x20 ADD DUP3 DUP1 SLOAD DUP1 ISZERO PUSH2 0xA4F JUMPI PUSH1 0x20 MUL DUP3 ADD SWAP2 SWAP1 PUSH1 0x0 MSTORE PUSH1 0x20 PUSH1 0x0 KECCAK256 SWAP1 JUMPDEST DUP2 SLOAD DUP2 MSTORE PUSH1 0x20 ADD SWAP1 PUSH1 0x1 ADD SWAP1 DUP1 DUP4 GT PUSH2 0xA3B JUMPI JUMPDEST POP POP POP POP POP SWAP3 POP DUP2 DUP1 SLOAD DUP1 PUSH1 0x20 MUL PUSH1 0x20 ADD PUSH1 0x40 MLOAD SWAP1 DUP2 ADD PUSH1 0x40 MSTORE DUP1 SWAP3 SWAP2 SWAP1 DUP2 DUP2 MSTORE PUSH1 0x20 ADD PUSH1 0x0 SWAP1 JUMPDEST DUP3 DUP3 LT ISZERO PUSH2 0xB22 JUMPI PUSH1 0x0 DUP5 DUP2 MSTORE PUSH1 0x20 SWAP1 DUP2 SWAP1 KECCAK256 DUP4 ADD DUP1 SLOAD PUSH1 0x40 DUP1 MLOAD PUSH1 0x1F PUSH1 0x2 PUSH1 0x0 NOT PUSH2 0x100 PUSH1 0x1 DUP8 AND ISZERO MUL ADD SWAP1 SWAP5 AND SWAP4 SWAP1 SWAP4 DIV SWAP3 DUP4 ADD DUP6 SWAP1 DIV DUP6 MUL DUP2 ADD DUP6 ADD SWAP1 SWAP2 MSTORE DUP2 DUP2 MSTORE SWAP3 DUP4 ADD DUP3 DUP3 DUP1 ISZERO PUSH2 0xB0E JUMPI DUP1 PUSH1 0x1F LT PUSH2 0xAE3 JUMPI PUSH2 0x100 DUP1 DUP4 SLOAD DIV MUL DUP4 MSTORE SWAP2 PUSH1 0x20 ADD SWAP2 PUSH2 0xB0E JUMP JUMPDEST DUP3 ADD SWAP2 SWAP1 PUSH1 0x0 MSTORE PUSH1 0x20 PUSH1 0x0 KECCAK256 SWAP1 JUMPDEST DUP2 SLOAD DUP2 MSTORE SWAP1 PUSH1 0x1 ADD SWAP1 PUSH1 0x20 ADD DUP1 DUP4 GT PUSH2 0xAF1 JUMPI DUP3 SWAP1 SUB PUSH1 0x1F AND DUP3 ADD SWAP2 JUMPDEST POP POP POP POP POP DUP2 MSTORE PUSH1 0x20 ADD SWAP1 PUSH1 0x1 ADD SWAP1 PUSH2 0xA77 JUMP JUMPDEST POP POP POP POP SWAP2 POP DUP1 DUP1 SLOAD DUP1 PUSH1 0x20 MUL PUSH1 0x20 ADD PUSH1 0x40 MLOAD SWAP1 DUP2 ADD PUSH1 0x40 MSTORE DUP1 SWAP3 SWAP2 SWAP1 DUP2 DUP2 MSTORE PUSH1 0x20 ADD PUSH1 0x0 SWAP1 JUMPDEST DUP3 DUP3 LT ISZERO PUSH2 0xBF4 JUMPI PUSH1 0x0 DUP5 DUP2 MSTORE PUSH1 0x20 SWAP1 DUP2 SWAP1 KECCAK256 DUP4 ADD DUP1 SLOAD PUSH1 0x40 DUP1 MLOAD PUSH1 0x1F PUSH1 0x2 PUSH1 0x0 NOT PUSH2 0x100 PUSH1 0x1 DUP8 AND ISZERO MUL ADD SWAP1 SWAP5 AND SWAP4 SWAP1 SWAP4 DIV SWAP3 DUP4 ADD DUP6 SWAP1 DIV DUP6 MUL DUP2 ADD DUP6 ADD SWAP1 SWAP2 MSTORE DUP2 DUP2 MSTORE SWAP3 DUP4 ADD DUP3 DUP3 DUP1 ISZERO PUSH2 0xBE0 JUMPI DUP1 PUSH1 0x1F LT PUSH2 0xBB5 JUMPI PUSH2 0x100 DUP1 DUP4 SLOAD DIV MUL DUP4 MSTORE SWAP2 PUSH1 0x20 ADD SWAP2 PUSH2 0xBE0 JUMP JUMPDEST DUP3 ADD SWAP2 SWAP1 PUSH1 0x0 MSTORE PUSH1 0x20 PUSH1 0x0 KECCAK256 SWAP1 JUMPDEST DUP2 SLOAD DUP2 MSTORE SWAP1 PUSH1 0x1 ADD SWAP1 PUSH1 0x20 ADD DUP1 DUP4 GT PUSH2 0xBC3 JUMPI DUP3 SWAP1 SUB PUSH1 0x1F AND DUP3 ADD SWAP2 JUMPDEST POP POP POP POP POP DUP2 MSTORE PUSH1 0x20 ADD SWAP1 PUSH1 0x1 ADD SWAP1 PUSH2 0xB49 JUMP JUMPDEST POP POP POP POP SWAP1 POP SWAP5 POP SWAP5 POP SWAP5 POP SWAP5 POP POP SWAP2 SWAP4 POP SWAP2 SWAP4 JUMP JUMPDEST PUSH1 0x3 SLOAD DUP2 JUMP JUMPDEST PUSH1 0x0 PUSH1 0x40 MLOAD PUSH2 0xC1E SWAP1 PUSH2 0x3AE0 JUMP JUMPDEST PUSH1 0x40 DUP1 MLOAD SWAP2 DUP3 SWAP1 SUB DUP3 KECCAK256 DUP3 DUP3 ADD SWAP1 SWAP2 MSTORE PUSH1 0x17 DUP3 MSTORE PUSH23 0x436F6D706F756E6420476F7665726E6F7220427261766F PUSH1 0x48 SHL PUSH1 0x20 SWAP1 SWAP3 ADD SWAP2 SWAP1 SWAP2 MSTORE PUSH32 0x3D9E905142FF365FB68CE863F26A44F5583CF7EC11BCDE450555F50B7E1B5614 PUSH2 0xC7F PUSH2 0x1E91 JUMP JUMPDEST ADDRESS PUSH1 0x40 MLOAD PUSH1 0x20 ADD PUSH2 0xC93 SWAP5 SWAP4 SWAP3 SWAP2 SWAP1 PUSH2 0x3C33 JUMP JUMPDEST PUSH1 0x40 MLOAD PUSH1 0x20 DUP2 DUP4 SUB SUB DUP2 MSTORE SWAP1 PUSH1 0x40 MSTORE DUP1 MLOAD SWAP1 PUSH1 0x20 ADD KECCAK256 SWAP1 POP PUSH1 0x0 PUSH1 0x40 MLOAD PUSH2 0xCB9 SWAP1 PUSH2 0x3AA4 JUMP JUMPDEST PUSH1 0x40 MLOAD SWAP1 DUP2 SWAP1 SUB DUP2 KECCAK256 PUSH2 0xCD2 SWAP2 DUP10 SWAP1 DUP10 SWAP1 PUSH1 0x20 ADD PUSH2 0x3C68 JUMP JUMPDEST PUSH1 0x40 MLOAD PUSH1 0x20 DUP2 DUP4 SUB SUB DUP2 MSTORE SWAP1 PUSH1 0x40 MSTORE DUP1 MLOAD SWAP1 PUSH1 0x20 ADD KECCAK256 SWAP1 POP PUSH1 0x0 DUP3 DUP3 PUSH1 0x40 MLOAD PUSH1 0x20 ADD PUSH2 0xCFF SWAP3 SWAP2 SWAP1 PUSH2 0x3AAF JUMP JUMPDEST PUSH1 0x40 MLOAD PUSH1 0x20 DUP2 DUP4 SUB SUB DUP2 MSTORE SWAP1 PUSH1 0x40 MSTORE DUP1 MLOAD SWAP1 PUSH1 0x20 ADD KECCAK256 SWAP1 POP PUSH1 0x0 PUSH1 0x1 DUP3 DUP9 DUP9 DUP9 PUSH1 0x40 MLOAD PUSH1 0x0 DUP2 MSTORE PUSH1 0x20 ADD PUSH1 0x40 MSTORE PUSH1 0x40 MLOAD PUSH2 0xD3C SWAP5 SWAP4 SWAP3 SWAP2 SWAP1 PUSH2 0x3C90 JUMP JUMPDEST PUSH1 0x20 PUSH1 0x40 MLOAD PUSH1 0x20 DUP2 SUB SWAP1 DUP1 DUP5 SUB SWAP1 DUP6 GAS STATICCALL ISZERO DUP1 ISZERO PUSH2 0xD5E JUMPI RETURNDATASIZE PUSH1 0x0 DUP1 RETURNDATACOPY RETURNDATASIZE PUSH1 0x0 REVERT JUMPDEST POP POP PUSH1 0x40 MLOAD PUSH1 0x1F NOT ADD MLOAD SWAP2 POP POP PUSH1 0x1 PUSH1 0x1 PUSH1 0xA0 SHL SUB DUP2 AND PUSH2 0xD91 JUMPI PUSH1 0x40 MLOAD PUSH3 0x461BCD PUSH1 0xE5 SHL DUP2 MSTORE PUSH1 0x4 ADD PUSH2 0x75B SWAP1 PUSH2 0x3DD2 JUMP JUMPDEST DUP1 PUSH1 0x1 PUSH1 0x1 PUSH1 0xA0 SHL SUB AND PUSH32 0xB8E138887D0AA13BAB447E82DE9D5C1777041ECD21CA36BA824FF1E6C07DDDA4 DUP11 DUP11 PUSH2 0xDC9 DUP6 DUP15 DUP15 PUSH2 0x1E96 JUMP JUMPDEST PUSH1 0x40 MLOAD PUSH2 0xDD8 SWAP4 SWAP3 SWAP2 SWAP1 PUSH2 0x40A2 JUMP JUMPDEST PUSH1 0x40 MLOAD DUP1 SWAP2 SUB SWAP1 LOG2 POP POP POP POP POP POP POP POP POP JUMP JUMPDEST PUSH1 0x0 DUP2 PUSH1 0x7 SLOAD LT ISZERO DUP1 ISZERO PUSH2 0xE00 JUMPI POP PUSH1 0x6 SLOAD DUP3 GT JUMPDEST PUSH2 0xE1C JUMPI PUSH1 0x40 MLOAD PUSH3 0x461BCD PUSH1 0xE5 SHL DUP2 MSTORE PUSH1 0x4 ADD PUSH2 0x75B SWAP1 PUSH2 0x3EE2 JUMP JUMPDEST PUSH1 0x0 DUP3 DUP2 MSTORE PUSH1 0xA PUSH1 0x20 MSTORE PUSH1 0x40 SWAP1 KECCAK256 PUSH1 0xC DUP2 ADD SLOAD PUSH1 0xFF AND ISZERO PUSH2 0xE41 JUMPI PUSH1 0x2 SWAP2 POP POP PUSH2 0xF6C JUMP JUMPDEST DUP1 PUSH1 0x7 ADD SLOAD NUMBER GT PUSH2 0xE56 JUMPI PUSH1 0x0 SWAP2 POP POP PUSH2 0xF6C JUMP JUMPDEST DUP1 PUSH1 0x8 ADD SLOAD NUMBER GT PUSH2 0xE6B JUMPI PUSH1 0x1 SWAP2 POP POP PUSH2 0xF6C JUMP JUMPDEST DUP1 PUSH1 0xA ADD SLOAD DUP2 PUSH1 0x9 ADD SLOAD GT ISZERO DUP1 PUSH2 0xE8F JUMPI POP PUSH10 0x54B40B1F852BDA000000 DUP2 PUSH1 0x9 ADD SLOAD LT JUMPDEST ISZERO PUSH2 0xE9E JUMPI PUSH1 0x3 SWAP2 POP POP PUSH2 0xF6C JUMP JUMPDEST PUSH1 0x2 DUP2 ADD SLOAD PUSH2 0xEB1 JUMPI PUSH1 0x4 SWAP2 POP POP PUSH2 0xF6C JUMP JUMPDEST PUSH1 0xC DUP2 ADD SLOAD PUSH2 0x100 SWAP1 DIV PUSH1 0xFF AND ISZERO PUSH2 0xECD JUMPI PUSH1 0x7 SWAP2 POP POP PUSH2 0xF6C JUMP JUMPDEST PUSH1 0x2 DUP2 ADD SLOAD PUSH1 0x8 SLOAD PUSH1 0x40 DUP1 MLOAD PUSH4 0x60D143F1 PUSH1 0xE1 SHL DUP2 MSTORE SWAP1 MLOAD PUSH2 0xF56 SWAP4 SWAP3 PUSH1 0x1 PUSH1 0x1 PUSH1 0xA0 SHL SUB AND SWAP2 PUSH4 0xC1A287E2 SWAP2 PUSH1 0x4 DUP1 DUP4 ADD SWAP3 PUSH1 0x20 SWAP3 SWAP2 SWAP1 DUP3 SWAP1 SUB ADD DUP2 DUP7 DUP1 EXTCODESIZE ISZERO DUP1 ISZERO PUSH2 0xF19 JUMPI PUSH1 0x0 DUP1 REVERT JUMPDEST POP GAS STATICCALL ISZERO DUP1 ISZERO PUSH2 0xF2D JUMPI RETURNDATASIZE PUSH1 0x0 DUP1 RETURNDATACOPY RETURNDATASIZE PUSH1 0x0 REVERT JUMPDEST POP POP POP POP PUSH1 0x40 MLOAD RETURNDATASIZE PUSH1 0x1F NOT PUSH1 0x1F DUP3 ADD AND DUP3 ADD DUP1 PUSH1 0x40 MSTORE POP PUSH2 0xF51 SWAP2 SWAP1 DUP2 ADD SWAP1 PUSH2 0x29C6 JUMP JUMPDEST PUSH2 0x2087 JUMP JUMPDEST TIMESTAMP LT PUSH2 0xF66 JUMPI PUSH1 0x6 SWAP2 POP POP PUSH2 0xF6C JUMP JUMPDEST PUSH1 0x5 SWAP2 POP POP JUMPDEST SWAP2 SWAP1 POP JUMP JUMPDEST PUSH1 0x7 PUSH2 0xF7C DUP3 PUSH2 0xDEB JUMP JUMPDEST PUSH1 0x7 DUP2 GT ISZERO PUSH2 0xF87 JUMPI INVALID JUMPDEST EQ ISZERO PUSH2 0xFA5 JUMPI PUSH1 0x40 MLOAD PUSH3 0x461BCD PUSH1 0xE5 SHL DUP2 MSTORE PUSH1 0x4 ADD PUSH2 0x75B SWAP1 PUSH2 0x3EC2 JUMP JUMPDEST PUSH1 0x0 DUP2 DUP2 MSTORE PUSH1 0xA PUSH1 0x20 MSTORE PUSH1 0x40 SWAP1 KECCAK256 PUSH1 0x1 DUP2 ADD SLOAD PUSH1 0x1 PUSH1 0x1 PUSH1 0xA0 SHL SUB AND CALLER EQ DUP1 PUSH2 0x106D JUMPI POP PUSH1 0x5 SLOAD PUSH1 0x9 SLOAD PUSH1 0x1 DUP4 DUP2 ADD SLOAD PUSH1 0x1 PUSH1 0x1 PUSH1 0xA0 SHL SUB SWAP3 DUP4 AND SWAP3 PUSH4 0x782D6FE1 SWAP3 SWAP2 AND SWAP1 PUSH2 0xFF5 SWAP1 NUMBER SWAP1 PUSH2 0x20AC JUMP JUMPDEST PUSH1 0x40 MLOAD DUP4 PUSH4 0xFFFFFFFF AND PUSH1 0xE0 SHL DUP2 MSTORE PUSH1 0x4 ADD PUSH2 0x1012 SWAP3 SWAP2 SWAP1 PUSH2 0x3B2F JUMP JUMPDEST PUSH1 0x20 PUSH1 0x40 MLOAD DUP1 DUP4 SUB DUP2 DUP7 DUP1 EXTCODESIZE ISZERO DUP1 ISZERO PUSH2 0x102A JUMPI PUSH1 0x0 DUP1 REVERT JUMPDEST POP GAS STATICCALL ISZERO DUP1 ISZERO PUSH2 0x103E JUMPI RETURNDATASIZE PUSH1 0x0 DUP1 RETURNDATACOPY RETURNDATASIZE PUSH1 0x0 REVERT JUMPDEST POP POP POP POP PUSH1 0x40 MLOAD RETURNDATASIZE PUSH1 0x1F NOT PUSH1 0x1F DUP3 ADD AND DUP3 ADD DUP1 PUSH1 0x40 MSTORE POP PUSH2 0x1062 SWAP2 SWAP1 DUP2 ADD SWAP1 PUSH2 0x2B4F JUMP JUMPDEST PUSH1 0x1 PUSH1 0x1 PUSH1 0x60 SHL SUB AND LT JUMPDEST PUSH2 0x1089 JUMPI PUSH1 0x40 MLOAD PUSH3 0x461BCD PUSH1 0xE5 SHL DUP2 MSTORE PUSH1 0x4 ADD PUSH2 0x75B SWAP1 PUSH2 0x3E72 JUMP JUMPDEST PUSH1 0xC DUP2 ADD DUP1 SLOAD PUSH1 0xFF NOT AND PUSH1 0x1 OR SWAP1 SSTORE PUSH1 0x0 JUMPDEST PUSH1 0x3 DUP3 ADD SLOAD DUP2 LT ISZERO PUSH2 0x1195 JUMPI PUSH1 0x8 SLOAD PUSH1 0x3 DUP4 ADD DUP1 SLOAD PUSH1 0x1 PUSH1 0x1 PUSH1 0xA0 SHL SUB SWAP1 SWAP3 AND SWAP2 PUSH4 0x591FCDFE SWAP2 SWAP1 DUP5 SWAP1 DUP2 LT PUSH2 0x10CD JUMPI INVALID JUMPDEST PUSH1 0x0 SWAP2 DUP3 MSTORE PUSH1 0x20 SWAP1 SWAP2 KECCAK256 ADD SLOAD PUSH1 0x4 DUP6 ADD DUP1 SLOAD PUSH1 0x1 PUSH1 0x1 PUSH1 0xA0 SHL SUB SWAP1 SWAP3 AND SWAP2 DUP6 SWAP1 DUP2 LT PUSH2 0x10F5 JUMPI INVALID JUMPDEST SWAP1 PUSH1 0x0 MSTORE PUSH1 0x20 PUSH1 0x0 KECCAK256 ADD SLOAD DUP6 PUSH1 0x5 ADD DUP6 DUP2 SLOAD DUP2 LT PUSH2 0x110F JUMPI INVALID JUMPDEST SWAP1 PUSH1 0x0 MSTORE PUSH1 0x20 PUSH1 0x0 KECCAK256 ADD DUP7 PUSH1 0x6 ADD DUP7 DUP2 SLOAD DUP2 LT PUSH2 0x1128 JUMPI INVALID JUMPDEST SWAP1 PUSH1 0x0 MSTORE PUSH1 0x20 PUSH1 0x0 KECCAK256 ADD DUP8 PUSH1 0x2 ADD SLOAD PUSH1 0x40 MLOAD DUP7 PUSH4 0xFFFFFFFF AND PUSH1 0xE0 SHL DUP2 MSTORE PUSH1 0x4 ADD PUSH2 0x1157 SWAP6 SWAP5 SWAP4 SWAP3 SWAP2 SWAP1 PUSH2 0x3B97 JUMP JUMPDEST PUSH1 0x0 PUSH1 0x40 MLOAD DUP1 DUP4 SUB DUP2 PUSH1 0x0 DUP8 DUP1 EXTCODESIZE ISZERO DUP1 ISZERO PUSH2 0x1171 JUMPI PUSH1 0x0 DUP1 REVERT JUMPDEST POP GAS CALL ISZERO DUP1 ISZERO PUSH2 0x1185 JUMPI RETURNDATASIZE PUSH1 0x0 DUP1 RETURNDATACOPY RETURNDATASIZE PUSH1 0x0 REVERT JUMPDEST POP POP PUSH1 0x1 SWAP1 SWAP3 ADD SWAP2 POP PUSH2 0x109B SWAP1 POP JUMP JUMPDEST POP PUSH32 0x789CF55BE980739DAD1D0699B93B58E806B51C9D96619BFA8FE0A28ABAA7B30C DUP3 PUSH1 0x40 MLOAD PUSH2 0x7CF SWAP2 SWAP1 PUSH2 0x3C25 JUMP JUMPDEST CALLER PUSH32 0xB8E138887D0AA13BAB447E82DE9D5C1777041ECD21CA36BA824FF1E6C07DDDA4 DUP4 DUP4 PUSH2 0x11F4 DUP5 DUP4 DUP4 PUSH2 0x1E96 JUMP JUMPDEST PUSH1 0x40 MLOAD PUSH2 0x1203 SWAP4 SWAP3 SWAP2 SWAP1 PUSH2 0x40A2 JUMP JUMPDEST PUSH1 0x40 MLOAD DUP1 SWAP2 SUB SWAP1 LOG2 POP POP JUMP JUMPDEST PUSH1 0x2 SLOAD PUSH1 0x1 PUSH1 0x1 PUSH1 0xA0 SHL SUB AND DUP2 JUMP JUMPDEST PUSH10 0xA968163F0A57B400000 DUP2 JUMP JUMPDEST CALLER PUSH32 0xB8E138887D0AA13BAB447E82DE9D5C1777041ECD21CA36BA824FF1E6C07DDDA4 DUP6 DUP6 PUSH2 0x125B DUP5 DUP4 DUP4 PUSH2 0x1E96 JUMP JUMPDEST DUP7 DUP7 PUSH1 0x40 MLOAD PUSH2 0x126E SWAP6 SWAP5 SWAP4 SWAP3 SWAP2 SWAP1 PUSH2 0x405C JUMP JUMPDEST PUSH1 0x40 MLOAD DUP1 SWAP2 SUB SWAP1 LOG2 POP POP POP POP JUMP JUMPDEST PUSH1 0xA DUP2 JUMP JUMPDEST PUSH3 0x13B00 DUP2 JUMP JUMPDEST PUSH2 0x9D80 DUP2 JUMP JUMPDEST PUSH1 0x5 SLOAD DUP2 JUMP JUMPDEST PUSH1 0x0 SLOAD PUSH1 0x1 PUSH1 0x1 PUSH1 0xA0 SHL SUB AND CALLER EQ PUSH2 0x12BE JUMPI PUSH1 0x40 MLOAD PUSH3 0x461BCD PUSH1 0xE5 SHL DUP2 MSTORE PUSH1 0x4 ADD PUSH2 0x75B SWAP1 PUSH2 0x3D12 JUMP JUMPDEST PUSH1 0x1 DUP1 SLOAD PUSH1 0x1 PUSH1 0x1 PUSH1 0xA0 SHL SUB DUP4 DUP2 AND PUSH1 0x1 PUSH1 0x1 PUSH1 0xA0 SHL SUB NOT DUP4 AND OR SWAP1 SWAP3 SSTORE PUSH1 0x40 MLOAD SWAP2 AND SWAP1 PUSH32 0xCA4F2F25D0898EDD99413412FB94012F9E54EC8142F9B093E7720646A95B16A9 SWAP1 PUSH2 0x7CF SWAP1 DUP4 SWAP1 DUP6 SWAP1 PUSH2 0x3B14 JUMP JUMPDEST PUSH1 0x8 SLOAD PUSH1 0x1 PUSH1 0x1 PUSH1 0xA0 SHL SUB AND ISZERO PUSH2 0x133A JUMPI PUSH1 0x40 MLOAD PUSH3 0x461BCD PUSH1 0xE5 SHL DUP2 MSTORE PUSH1 0x4 ADD PUSH2 0x75B SWAP1 PUSH2 0x3D02 JUMP JUMPDEST PUSH1 0x0 SLOAD PUSH1 0x1 PUSH1 0x1 PUSH1 0xA0 SHL SUB AND CALLER EQ PUSH2 0x1364 JUMPI PUSH1 0x40 MLOAD PUSH3 0x461BCD PUSH1 0xE5 SHL DUP2 MSTORE PUSH1 0x4 ADD PUSH2 0x75B SWAP1 PUSH2 0x3E02 JUMP JUMPDEST PUSH1 0x1 PUSH1 0x1 PUSH1 0xA0 SHL SUB DUP6 AND PUSH2 0x138A JUMPI PUSH1 0x40 MLOAD PUSH3 0x461BCD PUSH1 0xE5 SHL DUP2 MSTORE PUSH1 0x4 ADD PUSH2 0x75B SWAP1 PUSH2 0x3D42 JUMP JUMPDEST PUSH1 0x1 PUSH1 0x1 PUSH1 0xA0 SHL SUB DUP5 AND PUSH2 0x13B0 JUMPI PUSH1 0x40 MLOAD PUSH3 0x461BCD PUSH1 0xE5 SHL DUP2 MSTORE PUSH1 0x4 ADD PUSH2 0x75B SWAP1 PUSH2 0x3E62 JUMP JUMPDEST PUSH2 0x1680 DUP4 LT ISZERO DUP1 ISZERO PUSH2 0x13C5 JUMPI POP PUSH3 0x13B00 DUP4 GT ISZERO JUMPDEST PUSH2 0x13E1 JUMPI PUSH1 0x40 MLOAD PUSH3 0x461BCD PUSH1 0xE5 SHL DUP2 MSTORE PUSH1 0x4 ADD PUSH2 0x75B SWAP1 PUSH2 0x3EF2 JUMP JUMPDEST PUSH1 0x1 DUP3 LT ISZERO DUP1 ISZERO PUSH2 0x13F4 JUMPI POP PUSH2 0x9D80 DUP3 GT ISZERO JUMPDEST PUSH2 0x1410 JUMPI PUSH1 0x40 MLOAD PUSH3 0x461BCD PUSH1 0xE5 SHL DUP2 MSTORE PUSH1 0x4 ADD PUSH2 0x75B SWAP1 PUSH2 0x3DE2 JUMP JUMPDEST PUSH10 0xA968163F0A57B400000 DUP2 LT ISZERO DUP1 ISZERO PUSH2 0x1434 JUMPI POP PUSH10 0x152D02C7E14AF6800000 DUP2 GT ISZERO JUMPDEST PUSH2 0x1450 JUMPI PUSH1 0x40 MLOAD PUSH3 0x461BCD PUSH1 0xE5 SHL DUP2 MSTORE PUSH1 0x4 ADD PUSH2 0x75B SWAP1 PUSH2 0x3DB2 JUMP JUMPDEST PUSH1 0x8 DUP1 SLOAD PUSH1 0x1 PUSH1 0x1 PUSH1 0xA0 SHL SUB SWAP7 DUP8 AND PUSH1 0x1 PUSH1 0x1 PUSH1 0xA0 SHL SUB NOT SWAP2 DUP3 AND OR SWAP1 SWAP2 SSTORE PUSH1 0x9 DUP1 SLOAD SWAP6 SWAP1 SWAP7 AND SWAP5 AND SWAP4 SWAP1 SWAP4 OR SWAP1 SWAP4 SSTORE PUSH1 0x4 SSTORE PUSH1 0x3 SWAP2 SWAP1 SWAP2 SSTORE PUSH1 0x5 SSTORE JUMP JUMPDEST PUSH1 0x8 SLOAD PUSH1 0x1 PUSH1 0x1 PUSH1 0xA0 SHL SUB AND DUP2 JUMP JUMPDEST PUSH1 0x7 SLOAD DUP2 JUMP JUMPDEST PUSH1 0x0 PUSH1 0x6 SLOAD PUSH1 0x0 EQ ISZERO PUSH2 0x14C8 JUMPI PUSH1 0x40 MLOAD PUSH3 0x461BCD PUSH1 0xE5 SHL DUP2 MSTORE PUSH1 0x4 ADD PUSH2 0x75B SWAP1 PUSH2 0x3D62 JUMP JUMPDEST PUSH1 0x5 SLOAD PUSH1 0x9 SLOAD PUSH1 0x1 PUSH1 0x1 PUSH1 0xA0 SHL SUB AND PUSH4 0x782D6FE1 CALLER PUSH2 0x14E8 NUMBER PUSH1 0x1 PUSH2 0x20AC JUMP JUMPDEST PUSH1 0x40 MLOAD DUP4 PUSH4 0xFFFFFFFF AND PUSH1 0xE0 SHL DUP2 MSTORE PUSH1 0x4 ADD PUSH2 0x1505 SWAP3 SWAP2 SWAP1 PUSH2 0x3AF9 JUMP JUMPDEST PUSH1 0x20 PUSH1 0x40 MLOAD DUP1 DUP4 SUB DUP2 DUP7 DUP1 EXTCODESIZE ISZERO DUP1 ISZERO PUSH2 0x151D JUMPI PUSH1 0x0 DUP1 REVERT JUMPDEST POP GAS STATICCALL ISZERO DUP1 ISZERO PUSH2 0x1531 JUMPI RETURNDATASIZE PUSH1 0x0 DUP1 RETURNDATACOPY RETURNDATASIZE PUSH1 0x0 REVERT JUMPDEST POP POP POP POP PUSH1 0x40 MLOAD RETURNDATASIZE PUSH1 0x1F NOT PUSH1 0x1F DUP3 ADD AND DUP3 ADD DUP1 PUSH1 0x40 MSTORE POP PUSH2 0x1555 SWAP2 SWAP1 DUP2 ADD SWAP1 PUSH2 0x2B4F JUMP JUMPDEST PUSH1 0x1 PUSH1 0x1 PUSH1 0x60 SHL SUB AND GT PUSH2 0x157B JUMPI PUSH1 0x40 MLOAD PUSH3 0x461BCD PUSH1 0xE5 SHL DUP2 MSTORE PUSH1 0x4 ADD PUSH2 0x75B SWAP1 PUSH2 0x3EB2 JUMP JUMPDEST DUP5 MLOAD DUP7 MLOAD EQ DUP1 ISZERO PUSH2 0x158D JUMPI POP DUP4 MLOAD DUP7 MLOAD EQ JUMPDEST DUP1 ISZERO PUSH2 0x159A JUMPI POP DUP3 MLOAD DUP7 MLOAD EQ JUMPDEST PUSH2 0x15B6 JUMPI PUSH1 0x40 MLOAD PUSH3 0x461BCD PUSH1 0xE5 SHL DUP2 MSTORE PUSH1 0x4 ADD PUSH2 0x75B SWAP1 PUSH2 0x3DF2 JUMP JUMPDEST DUP6 MLOAD PUSH2 0x15D4 JUMPI PUSH1 0x40 MLOAD PUSH3 0x461BCD PUSH1 0xE5 SHL DUP2 MSTORE PUSH1 0x4 ADD PUSH2 0x75B SWAP1 PUSH2 0x3E42 JUMP JUMPDEST PUSH1 0xA DUP7 MLOAD GT ISZERO PUSH2 0x15F6 JUMPI PUSH1 0x40 MLOAD PUSH3 0x461BCD PUSH1 0xE5 SHL DUP2 MSTORE PUSH1 0x4 ADD PUSH2 0x75B SWAP1 PUSH2 0x3E82 JUMP JUMPDEST CALLER PUSH1 0x0 SWAP1 DUP2 MSTORE PUSH1 0xB PUSH1 0x20 MSTORE PUSH1 0x40 SWAP1 KECCAK256 SLOAD DUP1 ISZERO PUSH2 0x1673 JUMPI PUSH1 0x0 PUSH2 0x1617 DUP3 PUSH2 0xDEB JUMP JUMPDEST SWAP1 POP PUSH1 0x1 DUP2 PUSH1 0x7 DUP2 GT ISZERO PUSH2 0x1627 JUMPI INVALID JUMPDEST EQ ISZERO PUSH2 0x1645 JUMPI PUSH1 0x40 MLOAD PUSH3 0x461BCD PUSH1 0xE5 SHL DUP2 MSTORE PUSH1 0x4 ADD PUSH2 0x75B SWAP1 PUSH2 0x3EA2 JUMP JUMPDEST PUSH1 0x0 DUP2 PUSH1 0x7 DUP2 GT ISZERO PUSH2 0x1653 JUMPI INVALID JUMPDEST EQ ISZERO PUSH2 0x1671 JUMPI PUSH1 0x40 MLOAD PUSH3 0x461BCD PUSH1 0xE5 SHL DUP2 MSTORE PUSH1 0x4 ADD PUSH2 0x75B SWAP1 PUSH2 0x3E92 JUMP JUMPDEST POP JUMPDEST PUSH1 0x0 PUSH2 0x1681 NUMBER PUSH1 0x3 SLOAD PUSH2 0x2087 JUMP JUMPDEST SWAP1 POP PUSH1 0x0 PUSH2 0x1691 DUP3 PUSH1 0x4 SLOAD PUSH2 0x2087 JUMP JUMPDEST PUSH1 0x7 DUP1 SLOAD PUSH1 0x1 ADD SWAP1 SSTORE SWAP1 POP PUSH2 0x16A4 PUSH2 0x2233 JUMP JUMPDEST PUSH1 0x40 MLOAD DUP1 PUSH2 0x1C0 ADD PUSH1 0x40 MSTORE DUP1 PUSH1 0x7 SLOAD DUP2 MSTORE PUSH1 0x20 ADD CALLER PUSH1 0x1 PUSH1 0x1 PUSH1 0xA0 SHL SUB AND DUP2 MSTORE PUSH1 0x20 ADD PUSH1 0x0 DUP2 MSTORE PUSH1 0x20 ADD DUP12 DUP2 MSTORE PUSH1 0x20 ADD DUP11 DUP2 MSTORE PUSH1 0x20 ADD DUP10 DUP2 MSTORE PUSH1 0x20 ADD DUP9 DUP2 MSTORE PUSH1 0x20 ADD DUP5 DUP2 MSTORE PUSH1 0x20 ADD DUP4 DUP2 MSTORE PUSH1 0x20 ADD PUSH1 0x0 DUP2 MSTORE PUSH1 0x20 ADD PUSH1 0x0 DUP2 MSTORE PUSH1 0x20 ADD PUSH1 0x0 DUP2 MSTORE PUSH1 0x20 ADD PUSH1 0x0 ISZERO ISZERO DUP2 MSTORE PUSH1 0x20 ADD PUSH1 0x0 ISZERO ISZERO DUP2 MSTORE POP SWAP1 POP DUP1 PUSH1 0xA PUSH1 0x0 DUP4 PUSH1 0x0 ADD MLOAD DUP2 MSTORE PUSH1 0x20 ADD SWAP1 DUP2 MSTORE PUSH1 0x20 ADD PUSH1 0x0 KECCAK256 PUSH1 0x0 DUP3 ADD MLOAD DUP2 PUSH1 0x0 ADD SSTORE PUSH1 0x20 DUP3 ADD MLOAD DUP2 PUSH1 0x1 ADD PUSH1 0x0 PUSH2 0x100 EXP DUP2 SLOAD DUP2 PUSH1 0x1 PUSH1 0x1 PUSH1 0xA0 SHL SUB MUL NOT AND SWAP1 DUP4 PUSH1 0x1 PUSH1 0x1 PUSH1 0xA0 SHL SUB AND MUL OR SWAP1 SSTORE POP PUSH1 0x40 DUP3 ADD MLOAD DUP2 PUSH1 0x2 ADD SSTORE PUSH1 0x60 DUP3 ADD MLOAD DUP2 PUSH1 0x3 ADD SWAP1 DUP1 MLOAD SWAP1 PUSH1 0x20 ADD SWAP1 PUSH2 0x178E SWAP3 SWAP2 SWAP1 PUSH2 0x22AF JUMP JUMPDEST POP PUSH1 0x80 DUP3 ADD MLOAD DUP1 MLOAD PUSH2 0x17AA SWAP2 PUSH1 0x4 DUP5 ADD SWAP2 PUSH1 0x20 SWAP1 SWAP2 ADD SWAP1 PUSH2 0x2314 JUMP JUMPDEST POP PUSH1 0xA0 DUP3 ADD MLOAD DUP1 MLOAD PUSH2 0x17C6 SWAP2 PUSH1 0x5 DUP5 ADD SWAP2 PUSH1 0x20 SWAP1 SWAP2 ADD SWAP1 PUSH2 0x235B JUMP JUMPDEST POP PUSH1 0xC0 DUP3 ADD MLOAD DUP1 MLOAD PUSH2 0x17E2 SWAP2 PUSH1 0x6 DUP5 ADD SWAP2 PUSH1 0x20 SWAP1 SWAP2 ADD SWAP1 PUSH2 0x23B4 JUMP JUMPDEST POP PUSH1 0xE0 DUP3 ADD MLOAD DUP2 PUSH1 0x7 ADD SSTORE PUSH2 0x100 DUP3 ADD MLOAD DUP2 PUSH1 0x8 ADD SSTORE PUSH2 0x120 DUP3 ADD MLOAD DUP2 PUSH1 0x9 ADD SSTORE PUSH2 0x140 DUP3 ADD MLOAD DUP2 PUSH1 0xA ADD SSTORE PUSH2 0x160 DUP3 ADD MLOAD DUP2 PUSH1 0xB ADD SSTORE PUSH2 0x180 DUP3 ADD MLOAD DUP2 PUSH1 0xC ADD PUSH1 0x0 PUSH2 0x100 EXP DUP2 SLOAD DUP2 PUSH1 0xFF MUL NOT AND SWAP1 DUP4 ISZERO ISZERO MUL OR SWAP1 SSTORE POP PUSH2 0x1A0 DUP3 ADD MLOAD DUP2 PUSH1 0xC ADD PUSH1 0x1 PUSH2 0x100 EXP DUP2 SLOAD DUP2 PUSH1 0xFF MUL NOT AND SWAP1 DUP4 ISZERO ISZERO MUL OR SWAP1 SSTORE POP SWAP1 POP POP DUP1 PUSH1 0x0 ADD MLOAD PUSH1 0xB PUSH1 0x0 DUP4 PUSH1 0x20 ADD MLOAD PUSH1 0x1 PUSH1 0x1 PUSH1 0xA0 SHL SUB AND PUSH1 0x1 PUSH1 0x1 PUSH1 0xA0 SHL SUB AND DUP2 MSTORE PUSH1 0x20 ADD SWAP1 DUP2 MSTORE PUSH1 0x20 ADD PUSH1 0x0 KECCAK256 DUP2 SWAP1 SSTORE POP PUSH32 0x7D84A6263AE0D98D3329BD7B46BB4E8D6F98CD35A7ADB45C274C8B7FD5EBD5E0 DUP2 PUSH1 0x0 ADD MLOAD CALLER DUP13 DUP13 DUP13 DUP13 DUP10 DUP10 DUP15 PUSH1 0x40 MLOAD PUSH2 0x18D3 SWAP10 SWAP9 SWAP8 SWAP7 SWAP6 SWAP5 SWAP4 SWAP3 SWAP2 SWAP1 PUSH2 0x3F20 JUMP JUMPDEST PUSH1 0x40 MLOAD DUP1 SWAP2 SUB SWAP1 LOG1 MLOAD SWAP4 POP POP POP POP JUMPDEST SWAP6 SWAP5 POP POP POP POP POP JUMP JUMPDEST PUSH1 0x4 PUSH2 0x18F6 DUP3 PUSH2 0xDEB JUMP JUMPDEST PUSH1 0x7 DUP2 GT ISZERO PUSH2 0x1901 JUMPI INVALID JUMPDEST EQ PUSH2 0x191E JUMPI PUSH1 0x40 MLOAD PUSH3 0x461BCD PUSH1 0xE5 SHL DUP2 MSTORE PUSH1 0x4 ADD PUSH2 0x75B SWAP1 PUSH2 0x3E22 JUMP JUMPDEST PUSH1 0x0 DUP2 DUP2 MSTORE PUSH1 0xA PUSH1 0x20 SWAP1 DUP2 MSTORE PUSH1 0x40 DUP1 DUP4 KECCAK256 PUSH1 0x8 SLOAD DUP3 MLOAD PUSH4 0xD48571F PUSH1 0xE3 SHL DUP2 MSTORE SWAP3 MLOAD SWAP2 SWAP5 SWAP4 PUSH2 0x1978 SWAP4 TIMESTAMP SWAP4 PUSH1 0x1 PUSH1 0x1 PUSH1 0xA0 SHL SUB SWAP1 SWAP4 AND SWAP3 PUSH4 0x6A42B8F8 SWAP3 PUSH1 0x4 DUP1 DUP5 ADD SWAP4 SWAP2 SWAP3 SWAP2 DUP3 SWAP1 SUB ADD DUP2 DUP7 DUP1 EXTCODESIZE ISZERO DUP1 ISZERO PUSH2 0xF19 JUMPI PUSH1 0x0 DUP1 REVERT JUMPDEST SWAP1 POP PUSH1 0x0 JUMPDEST PUSH1 0x3 DUP4 ADD SLOAD DUP2 LT ISZERO PUSH2 0x1B20 JUMPI PUSH2 0x1B18 DUP4 PUSH1 0x3 ADD DUP3 DUP2 SLOAD DUP2 LT PUSH2 0x199B JUMPI INVALID JUMPDEST PUSH1 0x0 SWAP2 DUP3 MSTORE PUSH1 0x20 SWAP1 SWAP2 KECCAK256 ADD SLOAD PUSH1 0x4 DUP6 ADD DUP1 SLOAD PUSH1 0x1 PUSH1 0x1 PUSH1 0xA0 SHL SUB SWAP1 SWAP3 AND SWAP2 DUP5 SWAP1 DUP2 LT PUSH2 0x19C3 JUMPI INVALID JUMPDEST SWAP1 PUSH1 0x0 MSTORE PUSH1 0x20 PUSH1 0x0 KECCAK256 ADD SLOAD DUP6 PUSH1 0x5 ADD DUP5 DUP2 SLOAD DUP2 LT PUSH2 0x19DD JUMPI INVALID JUMPDEST PUSH1 0x0 SWAP2 DUP3 MSTORE PUSH1 0x20 SWAP2 DUP3 SWAP1 KECCAK256 ADD DUP1 SLOAD PUSH1 0x40 DUP1 MLOAD PUSH1 0x1F PUSH1 0x2 PUSH1 0x0 NOT PUSH2 0x100 PUSH1 0x1 DUP8 AND ISZERO MUL ADD SWAP1 SWAP5 AND SWAP4 SWAP1 SWAP4 DIV SWAP3 DUP4 ADD DUP6 SWAP1 DIV DUP6 MUL DUP2 ADD DUP6 ADD SWAP1 SWAP2 MSTORE DUP2 DUP2 MSTORE SWAP3 DUP4 ADD DUP3 DUP3 DUP1 ISZERO PUSH2 0x1A6B JUMPI DUP1 PUSH1 0x1F LT PUSH2 0x1A40 JUMPI PUSH2 0x100 DUP1 DUP4 SLOAD DIV MUL DUP4 MSTORE SWAP2 PUSH1 0x20 ADD SWAP2 PUSH2 0x1A6B JUMP JUMPDEST DUP3 ADD SWAP2 SWAP1 PUSH1 0x0 MSTORE PUSH1 0x20 PUSH1 0x0 KECCAK256 SWAP1 JUMPDEST DUP2 SLOAD DUP2 MSTORE SWAP1 PUSH1 0x1 ADD SWAP1 PUSH1 0x20 ADD DUP1 DUP4 GT PUSH2 0x1A4E JUMPI DUP3 SWAP1 SUB PUSH1 0x1F AND DUP3 ADD SWAP2 JUMPDEST POP POP POP POP POP DUP7 PUSH1 0x6 ADD DUP6 DUP2 SLOAD DUP2 LT PUSH2 0x1A7F JUMPI INVALID JUMPDEST PUSH1 0x0 SWAP2 DUP3 MSTORE PUSH1 0x20 SWAP2 DUP3 SWAP1 KECCAK256 ADD DUP1 SLOAD PUSH1 0x40 DUP1 MLOAD PUSH1 0x1F PUSH1 0x2 PUSH1 0x0 NOT PUSH2 0x100 PUSH1 0x1 DUP8 AND ISZERO MUL ADD SWAP1 SWAP5 AND SWAP4 SWAP1 SWAP4 DIV SWAP3 DUP4 ADD DUP6 SWAP1 DIV DUP6 MUL DUP2 ADD DUP6 ADD SWAP1 SWAP2 MSTORE DUP2 DUP2 MSTORE SWAP3 DUP4 ADD DUP3 DUP3 DUP1 ISZERO PUSH2 0x1B0D JUMPI DUP1 PUSH1 0x1F LT PUSH2 0x1AE2 JUMPI PUSH2 0x100 DUP1 DUP4 SLOAD DIV MUL DUP4 MSTORE SWAP2 PUSH1 0x20 ADD SWAP2 PUSH2 0x1B0D JUMP JUMPDEST DUP3 ADD SWAP2 SWAP1 PUSH1 0x0 MSTORE PUSH1 0x20 PUSH1 0x0 KECCAK256 SWAP1 JUMPDEST DUP2 SLOAD DUP2 MSTORE SWAP1 PUSH1 0x1 ADD SWAP1 PUSH1 0x20 ADD DUP1 DUP4 GT PUSH2 0x1AF0 JUMPI DUP3 SWAP1 SUB PUSH1 0x1F AND DUP3 ADD SWAP2 JUMPDEST POP POP POP POP POP DUP7 PUSH2 0x20D4 JUMP JUMPDEST PUSH1 0x1 ADD PUSH2 0x197D JUMP JUMPDEST POP PUSH1 0x2 DUP3 ADD DUP2 SWAP1 SSTORE PUSH1 0x40 MLOAD PUSH32 0x9A2E42FD6722813D69113E7D0079D3D940171428DF7373DF9C7F7617CFDA2892 SWAP1 PUSH2 0x1B5A SWAP1 DUP6 SWAP1 DUP5 SWAP1 PUSH2 0x404E JUMP JUMPDEST PUSH1 0x40 MLOAD DUP1 SWAP2 SUB SWAP1 LOG1 POP POP POP JUMP JUMPDEST PUSH1 0x40 MLOAD PUSH2 0x93F SWAP1 PUSH2 0x3AA4 JUMP JUMPDEST PUSH2 0x1B7B PUSH2 0x240D JUMP JUMPDEST POP PUSH1 0x0 DUP3 DUP2 MSTORE PUSH1 0xA PUSH1 0x20 SWAP1 DUP2 MSTORE PUSH1 0x40 DUP1 DUP4 KECCAK256 PUSH1 0x1 PUSH1 0x1 PUSH1 0xA0 SHL SUB DUP6 AND DUP5 MSTORE PUSH1 0xD ADD DUP3 MSTORE SWAP2 DUP3 SWAP1 KECCAK256 DUP3 MLOAD PUSH1 0x60 DUP2 ADD DUP5 MSTORE SWAP1 SLOAD PUSH1 0xFF DUP1 DUP3 AND ISZERO ISZERO DUP4 MSTORE PUSH2 0x100 DUP3 DIV AND SWAP3 DUP3 ADD SWAP3 SWAP1 SWAP3 MSTORE PUSH3 0x10000 SWAP1 SWAP2 DIV PUSH1 0x1 PUSH1 0x1 PUSH1 0x60 SHL SUB AND SWAP2 DUP2 ADD SWAP2 SWAP1 SWAP2 MSTORE JUMPDEST SWAP3 SWAP2 POP POP JUMP JUMPDEST PUSH1 0x1 DUP2 JUMP JUMPDEST PUSH1 0x1 SLOAD PUSH1 0x1 PUSH1 0x1 PUSH1 0xA0 SHL SUB AND CALLER EQ DUP1 ISZERO PUSH2 0x1BFE JUMPI POP CALLER ISZERO ISZERO JUMPDEST PUSH2 0x1C1A JUMPI PUSH1 0x40 MLOAD PUSH3 0x461BCD PUSH1 0xE5 SHL DUP2 MSTORE PUSH1 0x4 ADD PUSH2 0x75B SWAP1 PUSH2 0x3E52 JUMP JUMPDEST PUSH1 0x0 DUP1 SLOAD PUSH1 0x1 DUP1 SLOAD PUSH1 0x1 PUSH1 0x1 PUSH1 0xA0 SHL SUB DUP1 DUP3 AND PUSH1 0x1 PUSH1 0x1 PUSH1 0xA0 SHL SUB NOT DUP1 DUP7 AND DUP3 OR SWAP7 DUP8 SWAP1 SSTORE SWAP1 SWAP3 AND SWAP1 SWAP3 SSTORE PUSH1 0x40 MLOAD SWAP3 DUP3 AND SWAP4 SWAP1 SWAP3 PUSH32 0xF9FFABCA9C8276E99321725BCB43FB076A6C66A54B7F21C4E8146D8519B417DC SWAP3 PUSH2 0x1C7E SWAP3 DUP7 SWAP3 SWAP2 AND SWAP1 PUSH2 0x3B14 JUMP JUMPDEST PUSH1 0x40 MLOAD DUP1 SWAP2 SUB SWAP1 LOG1 PUSH1 0x1 SLOAD PUSH1 0x40 MLOAD PUSH32 0xCA4F2F25D0898EDD99413412FB94012F9E54EC8142F9B093E7720646A95B16A9 SWAP2 PUSH2 0x7CF SWAP2 DUP5 SWAP2 PUSH1 0x1 PUSH1 0x1 PUSH1 0xA0 SHL SUB AND SWAP1 PUSH2 0x3B14 JUMP JUMPDEST PUSH1 0x0 SLOAD PUSH1 0x1 PUSH1 0x1 PUSH1 0xA0 SHL SUB AND DUP2 JUMP JUMPDEST PUSH1 0x6 SLOAD DUP2 JUMP JUMPDEST PUSH1 0x5 PUSH2 0x1CE3 DUP3 PUSH2 0xDEB JUMP JUMPDEST PUSH1 0x7 DUP2 GT ISZERO PUSH2 0x1CEE JUMPI INVALID JUMPDEST EQ PUSH2 0x1D0B JUMPI PUSH1 0x40 MLOAD PUSH3 0x461BCD PUSH1 0xE5 SHL DUP2 MSTORE PUSH1 0x4 ADD PUSH2 0x75B SWAP1 PUSH2 0x3DC2 JUMP JUMPDEST PUSH1 0x0 DUP2 DUP2 MSTORE PUSH1 0xA PUSH1 0x20 MSTORE PUSH1 0x40 DUP2 KECCAK256 PUSH1 0xC DUP2 ADD DUP1 SLOAD PUSH2 0xFF00 NOT AND PUSH2 0x100 OR SWAP1 SSTORE SWAP1 JUMPDEST PUSH1 0x3 DUP3 ADD SLOAD DUP2 LT ISZERO PUSH2 0x1E61 JUMPI PUSH1 0x8 SLOAD PUSH1 0x4 DUP4 ADD DUP1 SLOAD PUSH1 0x1 PUSH1 0x1 PUSH1 0xA0 SHL SUB SWAP1 SWAP3 AND SWAP2 PUSH4 0x825F38F SWAP2 SWAP1 DUP5 SWAP1 DUP2 LT PUSH2 0x1D5E JUMPI INVALID JUMPDEST SWAP1 PUSH1 0x0 MSTORE PUSH1 0x20 PUSH1 0x0 KECCAK256 ADD SLOAD DUP5 PUSH1 0x3 ADD DUP5 DUP2 SLOAD DUP2 LT PUSH2 0x1D78 JUMPI INVALID JUMPDEST PUSH1 0x0 SWAP2 DUP3 MSTORE PUSH1 0x20 SWAP1 SWAP2 KECCAK256 ADD SLOAD PUSH1 0x4 DUP7 ADD DUP1 SLOAD PUSH1 0x1 PUSH1 0x1 PUSH1 0xA0 SHL SUB SWAP1 SWAP3 AND SWAP2 DUP7 SWAP1 DUP2 LT PUSH2 0x1DA0 JUMPI INVALID JUMPDEST SWAP1 PUSH1 0x0 MSTORE PUSH1 0x20 PUSH1 0x0 KECCAK256 ADD SLOAD DUP7 PUSH1 0x5 ADD DUP7 DUP2 SLOAD DUP2 LT PUSH2 0x1DBA JUMPI INVALID JUMPDEST SWAP1 PUSH1 0x0 MSTORE PUSH1 0x20 PUSH1 0x0 KECCAK256 ADD DUP8 PUSH1 0x6 ADD DUP8 DUP2 SLOAD DUP2 LT PUSH2 0x1DD3 JUMPI INVALID JUMPDEST SWAP1 PUSH1 0x0 MSTORE PUSH1 0x20 PUSH1 0x0 KECCAK256 ADD DUP9 PUSH1 0x2 ADD SLOAD PUSH1 0x40 MLOAD DUP8 PUSH4 0xFFFFFFFF AND PUSH1 0xE0 SHL DUP2 MSTORE PUSH1 0x4 ADD PUSH2 0x1E02 SWAP6 SWAP5 SWAP4 SWAP3 SWAP2 SWAP1 PUSH2 0x3B97 JUMP JUMPDEST PUSH1 0x0 PUSH1 0x40 MLOAD DUP1 DUP4 SUB DUP2 DUP6 DUP9 DUP1 EXTCODESIZE ISZERO DUP1 ISZERO PUSH2 0x1E1B JUMPI PUSH1 0x0 DUP1 REVERT JUMPDEST POP GAS CALL ISZERO DUP1 ISZERO PUSH2 0x1E2F JUMPI RETURNDATASIZE PUSH1 0x0 DUP1 RETURNDATACOPY RETURNDATASIZE PUSH1 0x0 REVERT JUMPDEST POP POP POP POP POP PUSH1 0x40 MLOAD RETURNDATASIZE PUSH1 0x0 DUP3 RETURNDATACOPY PUSH1 0x1F RETURNDATASIZE SWAP1 DUP2 ADD PUSH1 0x1F NOT AND DUP3 ADD PUSH1 0x40 MSTORE PUSH2 0x1E58 SWAP2 SWAP1 DUP2 ADD SWAP1 PUSH2 0x29E4 JUMP JUMPDEST POP PUSH1 0x1 ADD PUSH2 0x1D2C JUMP JUMPDEST POP PUSH32 0x712AE1383F79AC853F8D882153778E0260EF8F03B504E2866E0593E04D2B291F DUP3 PUSH1 0x40 MLOAD PUSH2 0x7CF SWAP2 SWAP1 PUSH2 0x3C25 JUMP JUMPDEST CHAINID JUMPDEST SWAP1 JUMP JUMPDEST PUSH1 0x0 PUSH1 0x1 PUSH2 0x1EA3 DUP5 PUSH2 0xDEB JUMP JUMPDEST PUSH1 0x7 DUP2 GT ISZERO PUSH2 0x1EAE JUMPI INVALID JUMPDEST EQ PUSH2 0x1ECB JUMPI PUSH1 0x40 MLOAD PUSH3 0x461BCD PUSH1 0xE5 SHL DUP2 MSTORE PUSH1 0x4 ADD PUSH2 0x75B SWAP1 PUSH2 0x3D82 JUMP JUMPDEST PUSH1 0x2 DUP3 PUSH1 0xFF AND GT ISZERO PUSH2 0x1EEF JUMPI PUSH1 0x40 MLOAD PUSH3 0x461BCD PUSH1 0xE5 SHL DUP2 MSTORE PUSH1 0x4 ADD PUSH2 0x75B SWAP1 PUSH2 0x3CF2 JUMP JUMPDEST PUSH1 0x0 DUP4 DUP2 MSTORE PUSH1 0xA PUSH1 0x20 SWAP1 DUP2 MSTORE PUSH1 0x40 DUP1 DUP4 KECCAK256 PUSH1 0x1 PUSH1 0x1 PUSH1 0xA0 SHL SUB DUP9 AND DUP5 MSTORE PUSH1 0xD DUP2 ADD SWAP1 SWAP3 MSTORE SWAP1 SWAP2 KECCAK256 DUP1 SLOAD PUSH1 0xFF AND ISZERO PUSH2 0x1F38 JUMPI PUSH1 0x40 MLOAD PUSH3 0x461BCD PUSH1 0xE5 SHL DUP2 MSTORE PUSH1 0x4 ADD PUSH2 0x75B SWAP1 PUSH2 0x3D92 JUMP JUMPDEST PUSH1 0x9 SLOAD PUSH1 0x7 DUP4 ADD SLOAD PUSH1 0x40 MLOAD PUSH4 0x782D6FE1 PUSH1 0xE0 SHL DUP2 MSTORE PUSH1 0x0 SWAP3 PUSH1 0x1 PUSH1 0x1 PUSH1 0xA0 SHL SUB AND SWAP2 PUSH4 0x782D6FE1 SWAP2 PUSH2 0x1F6E SWAP2 DUP12 SWAP2 PUSH1 0x4 ADD PUSH2 0x3B2F JUMP JUMPDEST PUSH1 0x20 PUSH1 0x40 MLOAD DUP1 DUP4 SUB DUP2 DUP7 DUP1 EXTCODESIZE ISZERO DUP1 ISZERO PUSH2 0x1F86 JUMPI PUSH1 0x0 DUP1 REVERT JUMPDEST POP GAS STATICCALL ISZERO DUP1 ISZERO PUSH2 0x1F9A JUMPI RETURNDATASIZE PUSH1 0x0 DUP1 RETURNDATACOPY RETURNDATASIZE PUSH1 0x0 REVERT JUMPDEST POP POP POP POP PUSH1 0x40 MLOAD RETURNDATASIZE PUSH1 0x1F NOT PUSH1 0x1F DUP3 ADD AND DUP3 ADD DUP1 PUSH1 0x40 MSTORE POP PUSH2 0x1FBE SWAP2 SWAP1 DUP2 ADD SWAP1 PUSH2 0x2B4F JUMP JUMPDEST SWAP1 POP PUSH1 0xFF DUP6 AND PUSH2 0x1FE9 JUMPI PUSH2 0x1FDF DUP4 PUSH1 0xA ADD SLOAD DUP3 PUSH1 0x1 PUSH1 0x1 PUSH1 0x60 SHL SUB AND PUSH2 0x2087 JUMP JUMPDEST PUSH1 0xA DUP5 ADD SSTORE PUSH2 0x203F JUMP JUMPDEST DUP5 PUSH1 0xFF AND PUSH1 0x1 EQ ISZERO PUSH2 0x2016 JUMPI PUSH2 0x200C DUP4 PUSH1 0x9 ADD SLOAD DUP3 PUSH1 0x1 PUSH1 0x1 PUSH1 0x60 SHL SUB AND PUSH2 0x2087 JUMP JUMPDEST PUSH1 0x9 DUP5 ADD SSTORE PUSH2 0x203F JUMP JUMPDEST DUP5 PUSH1 0xFF AND PUSH1 0x2 EQ ISZERO PUSH2 0x203F JUMPI PUSH2 0x2039 DUP4 PUSH1 0xB ADD SLOAD DUP3 PUSH1 0x1 PUSH1 0x1 PUSH1 0x60 SHL SUB AND PUSH2 0x2087 JUMP JUMPDEST PUSH1 0xB DUP5 ADD SSTORE JUMPDEST DUP2 SLOAD PUSH1 0x1 PUSH1 0xFF NOT SWAP1 SWAP2 AND OR PUSH2 0xFF00 NOT AND PUSH2 0x100 PUSH1 0xFF DUP8 AND MUL OR PUSH14 0xFFFFFFFFFFFFFFFFFFFFFFFF0000 NOT AND PUSH3 0x10000 PUSH1 0x1 PUSH1 0x1 PUSH1 0x60 SHL SUB DUP4 AND MUL OR SWAP1 SWAP2 SSTORE SWAP2 POP POP JUMPDEST SWAP4 SWAP3 POP POP POP JUMP JUMPDEST PUSH1 0x0 DUP3 DUP3 ADD DUP4 DUP2 LT ISZERO PUSH2 0x2080 JUMPI PUSH1 0x40 MLOAD PUSH3 0x461BCD PUSH1 0xE5 SHL DUP2 MSTORE PUSH1 0x4 ADD PUSH2 0x75B SWAP1 PUSH2 0x3E32 JUMP JUMPDEST PUSH1 0x0 DUP3 DUP3 GT ISZERO PUSH2 0x20CE JUMPI PUSH1 0x40 MLOAD PUSH3 0x461BCD PUSH1 0xE5 SHL DUP2 MSTORE PUSH1 0x4 ADD PUSH2 0x75B SWAP1 PUSH2 0x3F02 JUMP JUMPDEST POP SWAP1 SUB SWAP1 JUMP JUMPDEST PUSH1 0x8 SLOAD PUSH1 0x40 MLOAD PUSH1 0x1 PUSH1 0x1 PUSH1 0xA0 SHL SUB SWAP1 SWAP2 AND SWAP1 PUSH4 0xF2B06537 SWAP1 PUSH2 0x2102 SWAP1 DUP9 SWAP1 DUP9 SWAP1 DUP9 SWAP1 DUP9 SWAP1 DUP9 SWAP1 PUSH1 0x20 ADD PUSH2 0x3B3D JUMP JUMPDEST PUSH1 0x40 MLOAD PUSH1 0x20 DUP2 DUP4 SUB SUB DUP2 MSTORE SWAP1 PUSH1 0x40 MSTORE DUP1 MLOAD SWAP1 PUSH1 0x20 ADD KECCAK256 PUSH1 0x40 MLOAD DUP3 PUSH4 0xFFFFFFFF AND PUSH1 0xE0 SHL DUP2 MSTORE PUSH1 0x4 ADD PUSH2 0x2134 SWAP2 SWAP1 PUSH2 0x3C25 JUMP JUMPDEST PUSH1 0x20 PUSH1 0x40 MLOAD DUP1 DUP4 SUB DUP2 DUP7 DUP1 EXTCODESIZE ISZERO DUP1 ISZERO PUSH2 0x214C JUMPI PUSH1 0x0 DUP1 REVERT JUMPDEST POP GAS STATICCALL ISZERO DUP1 ISZERO PUSH2 0x2160 JUMPI RETURNDATASIZE PUSH1 0x0 DUP1 RETURNDATACOPY RETURNDATASIZE PUSH1 0x0 REVERT JUMPDEST POP POP POP POP PUSH1 0x40 MLOAD RETURNDATASIZE PUSH1 0x1F NOT PUSH1 0x1F DUP3 ADD AND DUP3 ADD DUP1 PUSH1 0x40 MSTORE POP PUSH2 0x2184 SWAP2 SWAP1 DUP2 ADD SWAP1 PUSH2 0x29A8 JUMP JUMPDEST ISZERO PUSH2 0x21A1 JUMPI PUSH1 0x40 MLOAD PUSH3 0x461BCD PUSH1 0xE5 SHL DUP2 MSTORE PUSH1 0x4 ADD PUSH2 0x75B SWAP1 PUSH2 0x3D22 JUMP JUMPDEST PUSH1 0x8 SLOAD PUSH1 0x40 MLOAD PUSH4 0x3A66F901 PUSH1 0xE0 SHL DUP2 MSTORE PUSH1 0x1 PUSH1 0x1 PUSH1 0xA0 SHL SUB SWAP1 SWAP2 AND SWAP1 PUSH4 0x3A66F901 SWAP1 PUSH2 0x21D9 SWAP1 DUP9 SWAP1 DUP9 SWAP1 DUP9 SWAP1 DUP9 SWAP1 DUP9 SWAP1 PUSH1 0x4 ADD PUSH2 0x3B3D JUMP JUMPDEST PUSH1 0x20 PUSH1 0x40 MLOAD DUP1 DUP4 SUB DUP2 PUSH1 0x0 DUP8 DUP1 EXTCODESIZE ISZERO DUP1 ISZERO PUSH2 0x21F3 JUMPI PUSH1 0x0 DUP1 REVERT JUMPDEST POP GAS CALL ISZERO DUP1 ISZERO PUSH2 0x2207 JUMPI RETURNDATASIZE PUSH1 0x0 DUP1 RETURNDATACOPY RETURNDATASIZE PUSH1 0x0 REVERT JUMPDEST POP POP POP POP PUSH1 0x40 MLOAD RETURNDATASIZE PUSH1 0x1F NOT PUSH1 0x1F DUP3 ADD AND DUP3 ADD DUP1 PUSH1 0x40 MSTORE POP PUSH2 0x222B SWAP2 SWAP1 DUP2 ADD SWAP1 PUSH2 0x29C6 JUMP JUMPDEST POP POP POP POP POP POP JUMP JUMPDEST PUSH1 0x40 MLOAD DUP1 PUSH2 0x1C0 ADD PUSH1 0x40 MSTORE DUP1 PUSH1 0x0 DUP2 MSTORE PUSH1 0x20 ADD PUSH1 0x0 PUSH1 0x1 PUSH1 0x1 PUSH1 0xA0 SHL SUB AND DUP2 MSTORE PUSH1 0x20 ADD PUSH1 0x0 DUP2 MSTORE PUSH1 0x20 ADD PUSH1 0x60 DUP2 MSTORE PUSH1 0x20 ADD PUSH1 0x60 DUP2 MSTORE PUSH1 0x20 ADD PUSH1 0x60 DUP2 MSTORE PUSH1 0x20 ADD PUSH1 0x60 DUP2 MSTORE PUSH1 0x20 ADD PUSH1 0x0 DUP2 MSTORE PUSH1 0x20 ADD PUSH1 0x0 DUP2 MSTORE PUSH1 0x20 ADD PUSH1 0x0 DUP2 MSTORE PUSH1 0x20 ADD PUSH1 0x0 DUP2 MSTORE PUSH1 0x20 ADD PUSH1 0x0 DUP2 MSTORE PUSH1 0x20 ADD PUSH1 0x0 ISZERO ISZERO DUP2 MSTORE PUSH1 0x20 ADD PUSH1 0x0 ISZERO ISZERO DUP2 MSTORE POP SWAP1 JUMP JUMPDEST DUP3 DUP1 SLOAD DUP3 DUP3 SSTORE SWAP1 PUSH1 0x0 MSTORE PUSH1 0x20 PUSH1 0x0 KECCAK256 SWAP1 DUP2 ADD SWAP3 DUP3 ISZERO PUSH2 0x2304 JUMPI SWAP2 PUSH1 0x20 MUL DUP3 ADD JUMPDEST DUP3 DUP2 GT ISZERO PUSH2 0x2304 JUMPI DUP3 MLOAD DUP3 SLOAD PUSH1 0x1 PUSH1 0x1 PUSH1 0xA0 SHL SUB NOT AND PUSH1 0x1 PUSH1 0x1 PUSH1 0xA0 SHL SUB SWAP1 SWAP2 AND OR DUP3 SSTORE PUSH1 0x20 SWAP1 SWAP3 ADD SWAP2 PUSH1 0x1 SWAP1 SWAP2 ADD SWAP1 PUSH2 0x22CF JUMP JUMPDEST POP PUSH2 0x2310 SWAP3 SWAP2 POP PUSH2 0x242D JUMP JUMPDEST POP SWAP1 JUMP JUMPDEST DUP3 DUP1 SLOAD DUP3 DUP3 SSTORE SWAP1 PUSH1 0x0 MSTORE PUSH1 0x20 PUSH1 0x0 KECCAK256 SWAP1 DUP2 ADD SWAP3 DUP3 ISZERO PUSH2 0x234F JUMPI SWAP2 PUSH1 0x20 MUL DUP3 ADD JUMPDEST DUP3 DUP2 GT ISZERO PUSH2 0x234F JUMPI DUP3 MLOAD DUP3 SSTORE SWAP2 PUSH1 0x20 ADD SWAP2 SWAP1 PUSH1 0x1 ADD SWAP1 PUSH2 0x2334 JUMP JUMPDEST POP PUSH2 0x2310 SWAP3 SWAP2 POP PUSH2 0x2451 JUMP JUMPDEST DUP3 DUP1 SLOAD DUP3 DUP3 SSTORE SWAP1 PUSH1 0x0 MSTORE PUSH1 0x20 PUSH1 0x0 KECCAK256 SWAP1 DUP2 ADD SWAP3 DUP3 ISZERO PUSH2 0x23A8 JUMPI SWAP2 PUSH1 0x20 MUL DUP3 ADD JUMPDEST DUP3 DUP2 GT ISZERO PUSH2 0x23A8 JUMPI DUP3 MLOAD DUP1 MLOAD PUSH2 0x2398 SWAP2 DUP5 SWAP2 PUSH1 0x20 SWAP1 SWAP2 ADD SWAP1 PUSH2 0x246B JUMP JUMPDEST POP SWAP2 PUSH1 0x20 ADD SWAP2 SWAP1 PUSH1 0x1 ADD SWAP1 PUSH2 0x237B JUMP JUMPDEST POP PUSH2 0x2310 SWAP3 SWAP2 POP PUSH2 0x24D8 JUMP JUMPDEST DUP3 DUP1 SLOAD DUP3 DUP3 SSTORE SWAP1 PUSH1 0x0 MSTORE PUSH1 0x20 PUSH1 0x0 KECCAK256 SWAP1 DUP2 ADD SWAP3 DUP3 ISZERO PUSH2 0x2401 JUMPI SWAP2 PUSH1 0x20 MUL DUP3 ADD JUMPDEST DUP3 DUP2 GT ISZERO PUSH2 0x2401 JUMPI DUP3 MLOAD DUP1 MLOAD PUSH2 0x23F1 SWAP2 DUP5 SWAP2 PUSH1 0x20 SWAP1 SWAP2 ADD SWAP1 PUSH2 0x246B JUMP JUMPDEST POP SWAP2 PUSH1 0x20 ADD SWAP2 SWAP1 PUSH1 0x1 ADD SWAP1 PUSH2 0x23D4 JUMP JUMPDEST POP PUSH2 0x2310 SWAP3 SWAP2 POP PUSH2 0x24FB JUMP JUMPDEST PUSH1 0x40 DUP1 MLOAD PUSH1 0x60 DUP2 ADD DUP3 MSTORE PUSH1 0x0 DUP1 DUP3 MSTORE PUSH1 0x20 DUP3 ADD DUP2 SWAP1 MSTORE SWAP2 DUP2 ADD SWAP2 SWAP1 SWAP2 MSTORE SWAP1 JUMP JUMPDEST PUSH2 0x1E93 SWAP2 SWAP1 JUMPDEST DUP1 DUP3 GT ISZERO PUSH2 0x2310 JUMPI DUP1 SLOAD PUSH1 0x1 PUSH1 0x1 PUSH1 0xA0 SHL SUB NOT AND DUP2 SSTORE PUSH1 0x1 ADD PUSH2 0x2433 JUMP JUMPDEST PUSH2 0x1E93 SWAP2 SWAP1 JUMPDEST DUP1 DUP3 GT ISZERO PUSH2 0x2310 JUMPI PUSH1 0x0 DUP2 SSTORE PUSH1 0x1 ADD PUSH2 0x2457 JUMP JUMPDEST DUP3 DUP1 SLOAD PUSH1 0x1 DUP2 PUSH1 0x1 AND ISZERO PUSH2 0x100 MUL SUB AND PUSH1 0x2 SWAP1 DIV SWAP1 PUSH1 0x0 MSTORE PUSH1 0x20 PUSH1 0x0 KECCAK256 SWAP1 PUSH1 0x1F ADD PUSH1 0x20 SWAP1 DIV DUP2 ADD SWAP3 DUP3 PUSH1 0x1F LT PUSH2 0x24AC JUMPI DUP1 MLOAD PUSH1 0xFF NOT AND DUP4 DUP1 ADD OR DUP6 SSTORE PUSH2 0x234F JUMP JUMPDEST DUP3 DUP1 ADD PUSH1 0x1 ADD DUP6 SSTORE DUP3 ISZERO PUSH2 0x234F JUMPI SWAP2 DUP3 ADD DUP3 DUP2 GT ISZERO PUSH2 0x234F JUMPI DUP3 MLOAD DUP3 SSTORE SWAP2 PUSH1 0x20 ADD SWAP2 SWAP1 PUSH1 0x1 ADD SWAP1 PUSH2 0x2334 JUMP JUMPDEST PUSH2 0x1E93 SWAP2 SWAP1 JUMPDEST DUP1 DUP3 GT ISZERO PUSH2 0x2310 JUMPI PUSH1 0x0 PUSH2 0x24F2 DUP3 DUP3 PUSH2 0x251E JUMP JUMPDEST POP PUSH1 0x1 ADD PUSH2 0x24DE JUMP JUMPDEST PUSH2 0x1E93 SWAP2 SWAP1 JUMPDEST DUP1 DUP3 GT ISZERO PUSH2 0x2310 JUMPI PUSH1 0x0 PUSH2 0x2515 DUP3 DUP3 PUSH2 0x251E JUMP JUMPDEST POP PUSH1 0x1 ADD PUSH2 0x2501 JUMP JUMPDEST POP DUP1 SLOAD PUSH1 0x1 DUP2 PUSH1 0x1 AND ISZERO PUSH2 0x100 MUL SUB AND PUSH1 0x2 SWAP1 DIV PUSH1 0x0 DUP3 SSTORE DUP1 PUSH1 0x1F LT PUSH2 0x2544 JUMPI POP PUSH2 0x2562 JUMP JUMPDEST PUSH1 0x1F ADD PUSH1 0x20 SWAP1 DIV SWAP1 PUSH1 0x0 MSTORE PUSH1 0x20 PUSH1 0x0 KECCAK256 SWAP1 DUP2 ADD SWAP1 PUSH2 0x2562 SWAP2 SWAP1 PUSH2 0x2451 JUMP JUMPDEST POP JUMP JUMPDEST DUP1 CALLDATALOAD PUSH2 0x1BDA DUP2 PUSH2 0x4216 JUMP JUMPDEST PUSH1 0x0 DUP3 PUSH1 0x1F DUP4 ADD SLT PUSH2 0x2581 JUMPI PUSH1 0x0 DUP1 REVERT JUMPDEST DUP2 CALLDATALOAD PUSH2 0x2594 PUSH2 0x258F DUP3 PUSH2 0x4102 JUMP JUMPDEST PUSH2 0x40DB JUMP JUMPDEST SWAP2 POP DUP2 DUP2 DUP4 MSTORE PUSH1 0x20 DUP5 ADD SWAP4 POP PUSH1 0x20 DUP2 ADD SWAP1 POP DUP4 DUP6 PUSH1 0x20 DUP5 MUL DUP3 ADD GT ISZERO PUSH2 0x25B9 JUMPI PUSH1 0x0 DUP1 REVERT JUMPDEST PUSH1 0x0 JUMPDEST DUP4 DUP2 LT ISZERO PUSH2 0x25E5 JUMPI DUP2 PUSH2 0x25CF DUP9 DUP3 PUSH2 0x2565 JUMP JUMPDEST DUP5 MSTORE POP PUSH1 0x20 SWAP3 DUP4 ADD SWAP3 SWAP2 SWAP1 SWAP2 ADD SWAP1 PUSH1 0x1 ADD PUSH2 0x25BC JUMP JUMPDEST POP POP POP POP SWAP3 SWAP2 POP POP JUMP JUMPDEST PUSH1 0x0 DUP3 PUSH1 0x1F DUP4 ADD SLT PUSH2 0x2600 JUMPI PUSH1 0x0 DUP1 REVERT JUMPDEST DUP2 CALLDATALOAD PUSH2 0x260E PUSH2 0x258F DUP3 PUSH2 0x4102 JUMP JUMPDEST DUP2 DUP2 MSTORE PUSH1 0x20 SWAP4 DUP5 ADD SWAP4 SWAP1 SWAP3 POP DUP3 ADD DUP4 PUSH1 0x0 JUMPDEST DUP4 DUP2 LT ISZERO PUSH2 0x25E5 JUMPI DUP2 CALLDATALOAD DUP7 ADD PUSH2 0x2636 DUP9 DUP3 PUSH2 0x273A JUMP JUMPDEST DUP5 MSTORE POP PUSH1 0x20 SWAP3 DUP4 ADD SWAP3 SWAP2 SWAP1 SWAP2 ADD SWAP1 PUSH1 0x1 ADD PUSH2 0x2620 JUMP JUMPDEST PUSH1 0x0 DUP3 PUSH1 0x1F DUP4 ADD SLT PUSH2 0x265D JUMPI PUSH1 0x0 DUP1 REVERT JUMPDEST DUP2 CALLDATALOAD PUSH2 0x266B PUSH2 0x258F DUP3 PUSH2 0x4102 JUMP JUMPDEST DUP2 DUP2 MSTORE PUSH1 0x20 SWAP4 DUP5 ADD SWAP4 SWAP1 SWAP3 POP DUP3 ADD DUP4 PUSH1 0x0 JUMPDEST DUP4 DUP2 LT ISZERO PUSH2 0x25E5 JUMPI DUP2 CALLDATALOAD DUP7 ADD PUSH2 0x2693 DUP9 DUP3 PUSH2 0x273A JUMP JUMPDEST DUP5 MSTORE POP PUSH1 0x20 SWAP3 DUP4 ADD SWAP3 SWAP2 SWAP1 SWAP2 ADD SWAP1 PUSH1 0x1 ADD PUSH2 0x267D JUMP JUMPDEST PUSH1 0x0 DUP3 PUSH1 0x1F DUP4 ADD SLT PUSH2 0x26BA JUMPI PUSH1 0x0 DUP1 REVERT JUMPDEST DUP2 CALLDATALOAD PUSH2 0x26C8 PUSH2 0x258F DUP3 PUSH2 0x4102 JUMP JUMPDEST SWAP2 POP DUP2 DUP2 DUP4 MSTORE PUSH1 0x20 DUP5 ADD SWAP4 POP PUSH1 0x20 DUP2 ADD SWAP1 POP DUP4 DUP6 PUSH1 0x20 DUP5 MUL DUP3 ADD GT ISZERO PUSH2 0x26ED JUMPI PUSH1 0x0 DUP1 REVERT JUMPDEST PUSH1 0x0 JUMPDEST DUP4 DUP2 LT ISZERO PUSH2 0x25E5 JUMPI DUP2 PUSH2 0x2703 DUP9 DUP3 PUSH2 0x2724 JUMP JUMPDEST DUP5 MSTORE POP PUSH1 0x20 SWAP3 DUP4 ADD SWAP3 SWAP2 SWAP1 SWAP2 ADD SWAP1 PUSH1 0x1 ADD PUSH2 0x26F0 JUMP JUMPDEST DUP1 MLOAD PUSH2 0x1BDA DUP2 PUSH2 0x422A JUMP JUMPDEST DUP1 CALLDATALOAD PUSH2 0x1BDA DUP2 PUSH2 0x4233 JUMP JUMPDEST DUP1 MLOAD PUSH2 0x1BDA DUP2 PUSH2 0x4233 JUMP JUMPDEST PUSH1 0x0 DUP3 PUSH1 0x1F DUP4 ADD SLT PUSH2 0x274B JUMPI PUSH1 0x0 DUP1 REVERT JUMPDEST DUP2 CALLDATALOAD PUSH2 0x2759 PUSH2 0x258F DUP3 PUSH2 0x4123 JUMP JUMPDEST SWAP2 POP DUP1 DUP3 MSTORE PUSH1 0x20 DUP4 ADD PUSH1 0x20 DUP4 ADD DUP6 DUP4 DUP4 ADD GT ISZERO PUSH2 0x2775 JUMPI PUSH1 0x0 DUP1 REVERT JUMPDEST PUSH2 0x2780 DUP4 DUP3 DUP5 PUSH2 0x41CA JUMP JUMPDEST POP POP POP SWAP3 SWAP2 POP POP JUMP JUMPDEST PUSH1 0x0 DUP3 PUSH1 0x1F DUP4 ADD SLT PUSH2 0x279A JUMPI PUSH1 0x0 DUP1 REVERT JUMPDEST DUP2 MLOAD PUSH2 0x27A8 PUSH2 0x258F DUP3 PUSH2 0x4123 JUMP JUMPDEST SWAP2 POP DUP1 DUP3 MSTORE PUSH1 0x20 DUP4 ADD PUSH1 0x20 DUP4 ADD DUP6 DUP4 DUP4 ADD GT ISZERO PUSH2 0x27C4 JUMPI PUSH1 0x0 DUP1 REVERT JUMPDEST PUSH2 0x2780 DUP4 DUP3 DUP5 PUSH2 0x41D6 JUMP JUMPDEST PUSH1 0x0 DUP1 DUP4 PUSH1 0x1F DUP5 ADD SLT PUSH2 0x27E1 JUMPI PUSH1 0x0 DUP1 REVERT JUMPDEST POP DUP2 CALLDATALOAD PUSH8 0xFFFFFFFFFFFFFFFF DUP2 GT ISZERO PUSH2 0x27F9 JUMPI PUSH1 0x0 DUP1 REVERT JUMPDEST PUSH1 0x20 DUP4 ADD SWAP2 POP DUP4 PUSH1 0x1 DUP3 MUL DUP4 ADD GT ISZERO PUSH2 0x2811 JUMPI PUSH1 0x0 DUP1 REVERT JUMPDEST SWAP3 POP SWAP3 SWAP1 POP JUMP JUMPDEST DUP1 CALLDATALOAD PUSH2 0x1BDA DUP2 PUSH2 0x423C JUMP JUMPDEST DUP1 MLOAD PUSH2 0x1BDA DUP2 PUSH2 0x4245 JUMP JUMPDEST PUSH1 0x0 PUSH1 0x20 DUP3 DUP5 SUB SLT ISZERO PUSH2 0x2840 JUMPI PUSH1 0x0 DUP1 REVERT JUMPDEST PUSH1 0x0 PUSH2 0x284C DUP5 DUP5 PUSH2 0x2565 JUMP JUMPDEST SWAP5 SWAP4 POP POP POP POP JUMP JUMPDEST PUSH1 0x0 DUP1 PUSH1 0x0 DUP1 PUSH1 0x0 PUSH1 0xA0 DUP7 DUP9 SUB SLT ISZERO PUSH2 0x286C JUMPI PUSH1 0x0 DUP1 REVERT JUMPDEST PUSH1 0x0 PUSH2 0x2878 DUP9 DUP9 PUSH2 0x2565 JUMP JUMPDEST SWAP6 POP POP PUSH1 0x20 PUSH2 0x2889 DUP9 DUP3 DUP10 ADD PUSH2 0x2565 JUMP JUMPDEST SWAP5 POP POP PUSH1 0x40 PUSH2 0x289A DUP9 DUP3 DUP10 ADD PUSH2 0x2724 JUMP JUMPDEST SWAP4 POP POP PUSH1 0x60 PUSH2 0x28AB DUP9 DUP3 DUP10 ADD PUSH2 0x2724 JUMP JUMPDEST SWAP3 POP POP PUSH1 0x80 PUSH2 0x28BC DUP9 DUP3 DUP10 ADD PUSH2 0x2724 JUMP JUMPDEST SWAP2 POP POP SWAP3 SWAP6 POP SWAP3 SWAP6 SWAP1 SWAP4 POP JUMP JUMPDEST PUSH1 0x0 DUP1 PUSH1 0x0 DUP1 PUSH1 0x0 PUSH1 0xA0 DUP7 DUP9 SUB SLT ISZERO PUSH2 0x28E1 JUMPI PUSH1 0x0 DUP1 REVERT JUMPDEST DUP6 CALLDATALOAD PUSH8 0xFFFFFFFFFFFFFFFF DUP2 GT ISZERO PUSH2 0x28F8 JUMPI PUSH1 0x0 DUP1 REVERT JUMPDEST PUSH2 0x2904 DUP9 DUP3 DUP10 ADD PUSH2 0x2570 JUMP JUMPDEST SWAP6 POP POP PUSH1 0x20 DUP7 ADD CALLDATALOAD PUSH8 0xFFFFFFFFFFFFFFFF DUP2 GT ISZERO PUSH2 0x2921 JUMPI PUSH1 0x0 DUP1 REVERT JUMPDEST PUSH2 0x292D DUP9 DUP3 DUP10 ADD PUSH2 0x26A9 JUMP JUMPDEST SWAP5 POP POP PUSH1 0x40 DUP7 ADD CALLDATALOAD PUSH8 0xFFFFFFFFFFFFFFFF DUP2 GT ISZERO PUSH2 0x294A JUMPI PUSH1 0x0 DUP1 REVERT JUMPDEST PUSH2 0x2956 DUP9 DUP3 DUP10 ADD PUSH2 0x264C JUMP JUMPDEST SWAP4 POP POP PUSH1 0x60 DUP7 ADD CALLDATALOAD PUSH8 0xFFFFFFFFFFFFFFFF DUP2 GT ISZERO PUSH2 0x2973 JUMPI PUSH1 0x0 DUP1 REVERT JUMPDEST PUSH2 0x297F DUP9 DUP3 DUP10 ADD PUSH2 0x25EF JUMP JUMPDEST SWAP3 POP POP PUSH1 0x80 DUP7 ADD CALLDATALOAD PUSH8 0xFFFFFFFFFFFFFFFF DUP2 GT ISZERO PUSH2 0x299C JUMPI PUSH1 0x0 DUP1 REVERT JUMPDEST PUSH2 0x28BC DUP9 DUP3 DUP10 ADD PUSH2 0x273A JUMP JUMPDEST PUSH1 0x0 PUSH1 0x20 DUP3 DUP5 SUB SLT ISZERO PUSH2 0x29BA JUMPI PUSH1 0x0 DUP1 REVERT JUMPDEST PUSH1 0x0 PUSH2 0x284C DUP5 DUP5 PUSH2 0x2719 JUMP JUMPDEST PUSH1 0x0 PUSH1 0x20 DUP3 DUP5 SUB SLT ISZERO PUSH2 0x29D8 JUMPI PUSH1 0x0 DUP1 REVERT JUMPDEST PUSH1 0x0 PUSH2 0x284C DUP5 DUP5 PUSH2 0x272F JUMP JUMPDEST PUSH1 0x0 PUSH1 0x20 DUP3 DUP5 SUB SLT ISZERO PUSH2 0x29F6 JUMPI PUSH1 0x0 DUP1 REVERT JUMPDEST DUP2 MLOAD PUSH8 0xFFFFFFFFFFFFFFFF DUP2 GT ISZERO PUSH2 0x2A0D JUMPI PUSH1 0x0 DUP1 REVERT JUMPDEST PUSH2 0x284C DUP5 DUP3 DUP6 ADD PUSH2 0x2789 JUMP JUMPDEST PUSH1 0x0 PUSH1 0x20 DUP3 DUP5 SUB SLT ISZERO PUSH2 0x2A2B JUMPI PUSH1 0x0 DUP1 REVERT JUMPDEST PUSH1 0x0 PUSH2 0x284C DUP5 DUP5 PUSH2 0x2724 JUMP JUMPDEST PUSH1 0x0 DUP1 PUSH1 0x40 DUP4 DUP6 SUB SLT ISZERO PUSH2 0x2A4A JUMPI PUSH1 0x0 DUP1 REVERT JUMPDEST PUSH1 0x0 PUSH2 0x2A56 DUP6 DUP6 PUSH2 0x2724 JUMP JUMPDEST SWAP3 POP POP PUSH1 0x20 PUSH2 0x2A67 DUP6 DUP3 DUP7 ADD PUSH2 0x2565 JUMP JUMPDEST SWAP2 POP POP SWAP3 POP SWAP3 SWAP1 POP JUMP JUMPDEST PUSH1 0x0 DUP1 PUSH1 0x40 DUP4 DUP6 SUB SLT ISZERO PUSH2 0x2A84 JUMPI PUSH1 0x0 DUP1 REVERT JUMPDEST PUSH1 0x0 PUSH2 0x2A90 DUP6 DUP6 PUSH2 0x2724 JUMP JUMPDEST SWAP3 POP POP PUSH1 0x20 PUSH2 0x2A67 DUP6 DUP3 DUP7 ADD PUSH2 0x2818 JUMP JUMPDEST PUSH1 0x0 DUP1 PUSH1 0x0 DUP1 PUSH1 0x60 DUP6 DUP8 SUB SLT ISZERO PUSH2 0x2AB7 JUMPI PUSH1 0x0 DUP1 REVERT JUMPDEST PUSH1 0x0 PUSH2 0x2AC3 DUP8 DUP8 PUSH2 0x2724 JUMP JUMPDEST SWAP5 POP POP PUSH1 0x20 PUSH2 0x2AD4 DUP8 DUP3 DUP9 ADD PUSH2 0x2818 JUMP JUMPDEST SWAP4 POP POP PUSH1 0x40 DUP6 ADD CALLDATALOAD PUSH8 0xFFFFFFFFFFFFFFFF DUP2 GT ISZERO PUSH2 0x2AF1 JUMPI PUSH1 0x0 DUP1 REVERT JUMPDEST PUSH2 0x2AFD DUP8 DUP3 DUP9 ADD PUSH2 0x27CF JUMP JUMPDEST SWAP6 SWAP9 SWAP5 SWAP8 POP SWAP6 POP POP POP POP JUMP JUMPDEST PUSH1 0x0 DUP1 PUSH1 0x0 DUP1 PUSH1 0x0 PUSH1 0xA0 DUP7 DUP9 SUB SLT ISZERO PUSH2 0x2B21 JUMPI PUSH1 0x0 DUP1 REVERT JUMPDEST PUSH1 0x0 PUSH2 0x2B2D DUP9 DUP9 PUSH2 0x2724 JUMP JUMPDEST SWAP6 POP POP PUSH1 0x20 PUSH2 0x2B3E DUP9 DUP3 DUP10 ADD PUSH2 0x2818 JUMP JUMPDEST SWAP5 POP POP PUSH1 0x40 PUSH2 0x289A DUP9 DUP3 DUP10 ADD PUSH2 0x2818 JUMP JUMPDEST PUSH1 0x0 PUSH1 0x20 DUP3 DUP5 SUB SLT ISZERO PUSH2 0x2B61 JUMPI PUSH1 0x0 DUP1 REVERT JUMPDEST PUSH1 0x0 PUSH2 0x284C DUP5 DUP5 PUSH2 0x2823 JUMP JUMPDEST PUSH1 0x0 PUSH2 0x2B79 DUP4 DUP4 PUSH2 0x2BA8 JUMP JUMPDEST POP POP PUSH1 0x20 ADD SWAP1 JUMP JUMPDEST PUSH1 0x0 PUSH2 0x2080 DUP4 DUP4 PUSH2 0x2D4A JUMP JUMPDEST PUSH1 0x0 PUSH2 0x2B79 DUP4 DUP4 PUSH2 0x2D30 JUMP JUMPDEST PUSH2 0x2BA2 DUP2 PUSH2 0x41A2 JUMP JUMPDEST DUP3 MSTORE POP POP JUMP JUMPDEST PUSH2 0x2BA2 DUP2 PUSH2 0x416A JUMP JUMPDEST PUSH1 0x0 PUSH2 0x2BBC DUP3 PUSH2 0x415D JUMP JUMPDEST PUSH2 0x2BC6 DUP2 DUP6 PUSH2 0x4161 JUMP JUMPDEST SWAP4 POP PUSH2 0x2BD1 DUP4 PUSH2 0x414B JUMP JUMPDEST DUP1 PUSH1 0x0 JUMPDEST DUP4 DUP2 LT ISZERO PUSH2 0x2BFF JUMPI DUP2 MLOAD PUSH2 0x2BE9 DUP9 DUP3 PUSH2 0x2B6D JUMP JUMPDEST SWAP8 POP PUSH2 0x2BF4 DUP4 PUSH2 0x414B JUMP JUMPDEST SWAP3 POP POP PUSH1 0x1 ADD PUSH2 0x2BD5 JUMP JUMPDEST POP SWAP5 SWAP6 SWAP5 POP POP POP POP POP JUMP JUMPDEST PUSH1 0x0 PUSH2 0x2C15 DUP3 PUSH2 0x415D JUMP JUMPDEST PUSH2 0x2C1F DUP2 DUP6 PUSH2 0x4161 JUMP JUMPDEST SWAP4 POP DUP4 PUSH1 0x20 DUP3 MUL DUP6 ADD PUSH2 0x2C31 DUP6 PUSH2 0x414B JUMP JUMPDEST DUP1 PUSH1 0x0 JUMPDEST DUP6 DUP2 LT ISZERO PUSH2 0x2C6B JUMPI DUP5 DUP5 SUB DUP10 MSTORE DUP2 MLOAD PUSH2 0x2C4E DUP6 DUP3 PUSH2 0x2B81 JUMP JUMPDEST SWAP5 POP PUSH2 0x2C59 DUP4 PUSH2 0x414B JUMP JUMPDEST PUSH1 0x20 SWAP11 SWAP1 SWAP11 ADD SWAP10 SWAP3 POP POP PUSH1 0x1 ADD PUSH2 0x2C35 JUMP JUMPDEST POP SWAP2 SWAP8 SWAP7 POP POP POP POP POP POP POP JUMP JUMPDEST PUSH1 0x0 PUSH2 0x2C83 DUP3 PUSH2 0x415D JUMP JUMPDEST PUSH2 0x2C8D DUP2 DUP6 PUSH2 0x4161 JUMP JUMPDEST SWAP4 POP DUP4 PUSH1 0x20 DUP3 MUL DUP6 ADD PUSH2 0x2C9F DUP6 PUSH2 0x414B JUMP JUMPDEST DUP1 PUSH1 0x0 JUMPDEST DUP6 DUP2 LT ISZERO PUSH2 0x2C6B JUMPI DUP5 DUP5 SUB DUP10 MSTORE DUP2 MLOAD PUSH2 0x2CBC DUP6 DUP3 PUSH2 0x2B81 JUMP JUMPDEST SWAP5 POP PUSH2 0x2CC7 DUP4 PUSH2 0x414B JUMP JUMPDEST PUSH1 0x20 SWAP11 SWAP1 SWAP11 ADD SWAP10 SWAP3 POP POP PUSH1 0x1 ADD PUSH2 0x2CA3 JUMP JUMPDEST PUSH1 0x0 PUSH2 0x2CE4 DUP3 PUSH2 0x415D JUMP JUMPDEST PUSH2 0x2CEE DUP2 DUP6 PUSH2 0x4161 JUMP JUMPDEST SWAP4 POP PUSH2 0x2CF9 DUP4 PUSH2 0x414B JUMP JUMPDEST DUP1 PUSH1 0x0 JUMPDEST DUP4 DUP2 LT ISZERO PUSH2 0x2BFF JUMPI DUP2 MLOAD PUSH2 0x2D11 DUP9 DUP3 PUSH2 0x2B8D JUMP JUMPDEST SWAP8 POP PUSH2 0x2D1C DUP4 PUSH2 0x414B JUMP JUMPDEST SWAP3 POP POP PUSH1 0x1 ADD PUSH2 0x2CFD JUMP JUMPDEST PUSH2 0x2BA2 DUP2 PUSH2 0x4175 JUMP JUMPDEST PUSH2 0x2BA2 DUP2 PUSH2 0x1E93 JUMP JUMPDEST PUSH2 0x2BA2 PUSH2 0x2D45 DUP3 PUSH2 0x1E93 JUMP JUMPDEST PUSH2 0x1E93 JUMP JUMPDEST PUSH1 0x0 PUSH2 0x2D55 DUP3 PUSH2 0x415D JUMP JUMPDEST PUSH2 0x2D5F DUP2 DUP6 PUSH2 0x4161 JUMP JUMPDEST SWAP4 POP PUSH2 0x2D6F DUP2 DUP6 PUSH1 0x20 DUP7 ADD PUSH2 0x41D6 JUMP JUMPDEST PUSH2 0x2D78 DUP2 PUSH2 0x4202 JUMP JUMPDEST SWAP1 SWAP4 ADD SWAP4 SWAP3 POP POP POP JUMP JUMPDEST PUSH1 0x0 DUP2 SLOAD PUSH1 0x1 DUP2 AND PUSH1 0x0 DUP2 EQ PUSH2 0x2D9F JUMPI PUSH1 0x1 DUP2 EQ PUSH2 0x2DC5 JUMPI PUSH2 0x2E04 JUMP JUMPDEST PUSH1 0x7F PUSH1 0x2 DUP4 DIV AND PUSH2 0x2DB0 DUP2 DUP8 PUSH2 0x4161 JUMP JUMPDEST PUSH1 0xFF NOT DUP5 AND DUP2 MSTORE SWAP6 POP POP PUSH1 0x20 DUP6 ADD SWAP3 POP PUSH2 0x2E04 JUMP JUMPDEST PUSH1 0x2 DUP3 DIV PUSH2 0x2DD3 DUP2 DUP8 PUSH2 0x4161 JUMP JUMPDEST SWAP6 POP PUSH2 0x2DDE DUP6 PUSH2 0x4151 JUMP JUMPDEST PUSH1 0x0 JUMPDEST DUP3 DUP2 LT ISZERO PUSH2 0x2DFD JUMPI DUP2 SLOAD DUP9 DUP3 ADD MSTORE PUSH1 0x1 SWAP1 SWAP2 ADD SWAP1 PUSH1 0x20 ADD PUSH2 0x2DE1 JUMP JUMPDEST DUP8 ADD SWAP5 POP POP POP JUMPDEST POP POP SWAP3 SWAP2 POP POP JUMP JUMPDEST PUSH2 0x2BA2 DUP2 PUSH2 0x41A9 JUMP JUMPDEST PUSH2 0x2BA2 DUP2 PUSH2 0x41B4 JUMP JUMPDEST PUSH1 0x0 PUSH2 0x2E2A DUP4 DUP6 PUSH2 0x4161 JUMP JUMPDEST SWAP4 POP PUSH2 0x2E37 DUP4 DUP6 DUP5 PUSH2 0x41CA JUMP JUMPDEST PUSH2 0x2D78 DUP4 PUSH2 0x4202 JUMP JUMPDEST PUSH1 0x0 PUSH2 0x2E4D PUSH1 0x32 DUP4 PUSH2 0x4161 JUMP JUMPDEST PUSH32 0x476F7665726E6F72427261766F3A3A63617374566F7465496E7465726E616C3A DUP2 MSTORE PUSH18 0x20696E76616C696420766F74652074797065 PUSH1 0x70 SHL PUSH1 0x20 DUP3 ADD MSTORE PUSH1 0x40 ADD SWAP3 SWAP2 POP POP JUMP JUMPDEST PUSH1 0x0 PUSH2 0x2EA1 PUSH1 0x28 DUP4 PUSH2 0xF6C JUMP JUMPDEST PUSH32 0x42616C6C6F742875696E743235362070726F706F73616C49642C75696E743820 DUP2 MSTORE PUSH8 0x737570706F727429 PUSH1 0xC0 SHL PUSH1 0x20 DUP3 ADD MSTORE PUSH1 0x28 ADD SWAP3 SWAP2 POP POP JUMP JUMPDEST PUSH1 0x0 PUSH2 0x2EEB PUSH1 0x33 DUP4 PUSH2 0x4161 JUMP JUMPDEST PUSH32 0x476F7665726E6F72427261766F3A3A696E697469616C697A653A2063616E206F DUP2 MSTORE PUSH19 0x6E6C7920696E697469616C697A65206F6E6365 PUSH1 0x68 SHL PUSH1 0x20 DUP3 ADD MSTORE PUSH1 0x40 ADD SWAP3 SWAP2 POP POP JUMP JUMPDEST PUSH1 0x0 PUSH2 0x2F40 PUSH1 0x2A DUP4 PUSH2 0x4161 JUMP JUMPDEST PUSH32 0x476F7665726E6F72427261766F3A5F73657450656E64696E6741646D696E3A20 DUP2 MSTORE PUSH10 0x61646D696E206F6E6C79 PUSH1 0xB0 SHL PUSH1 0x20 DUP3 ADD MSTORE PUSH1 0x40 ADD SWAP3 SWAP2 POP POP JUMP JUMPDEST PUSH1 0x0 PUSH2 0x2F8C PUSH1 0x55 DUP4 PUSH2 0x4161 JUMP JUMPDEST PUSH32 0x476F7665726E6F72427261766F3A3A71756575654F72526576657274496E7465 DUP2 MSTORE PUSH32 0x726E616C3A206964656E746963616C2070726F706F73616C20616374696F6E20 PUSH1 0x20 DUP3 ADD MSTORE PUSH21 0x616C72656164792071756575656420617420657461 PUSH1 0x58 SHL PUSH1 0x40 DUP3 ADD MSTORE PUSH1 0x60 ADD SWAP3 SWAP2 POP POP JUMP JUMPDEST PUSH1 0x0 PUSH2 0x3009 PUSH1 0x2B DUP4 PUSH2 0x4161 JUMP JUMPDEST PUSH32 0x476F7665726E6F72427261766F3A3A5F736574566F74696E67506572696F643A DUP2 MSTORE PUSH11 0x2061646D696E206F6E6C79 PUSH1 0xA8 SHL PUSH1 0x20 DUP3 ADD MSTORE PUSH1 0x40 ADD SWAP3 SWAP2 POP POP JUMP JUMPDEST PUSH1 0x0 PUSH2 0x3056 PUSH1 0x33 DUP4 PUSH2 0x4161 JUMP JUMPDEST PUSH1 0x0 DUP1 MLOAD PUSH1 0x20 PUSH2 0x424F DUP4 CODECOPY DUP2 MLOAD SWAP2 MSTORE DUP2 MSTORE PUSH19 0x69642074696D656C6F636B2061646472657373 PUSH1 0x68 SHL PUSH1 0x20 DUP3 ADD MSTORE PUSH1 0x40 ADD SWAP3 SWAP2 POP POP JUMP JUMPDEST PUSH1 0x0 PUSH2 0x3099 PUSH1 0x2A DUP4 PUSH2 0x4161 JUMP JUMPDEST PUSH32 0x476F7665726E6F72427261766F3A3A5F736574566F74696E6744656C61793A20 DUP2 MSTORE PUSH10 0x61646D696E206F6E6C79 PUSH1 0xB0 SHL PUSH1 0x20 DUP3 ADD MSTORE PUSH1 0x40 ADD SWAP3 SWAP2 POP POP JUMP JUMPDEST PUSH1 0x0 PUSH2 0x30E5 PUSH1 0x31 DUP4 PUSH2 0x4161 JUMP JUMPDEST PUSH32 0x476F7665726E6F72427261766F3A3A70726F706F73653A20476F7665726E6F72 DUP2 MSTORE PUSH17 0x20427261766F206E6F7420616374697665 PUSH1 0x78 SHL PUSH1 0x20 DUP3 ADD MSTORE PUSH1 0x40 ADD SWAP3 SWAP2 POP POP JUMP JUMPDEST PUSH1 0x0 PUSH2 0x3138 PUSH1 0x2 DUP4 PUSH2 0xF6C JUMP JUMPDEST PUSH2 0x1901 PUSH1 0xF0 SHL DUP2 MSTORE PUSH1 0x2 ADD SWAP3 SWAP2 POP POP JUMP JUMPDEST PUSH1 0x0 PUSH2 0x3156 PUSH1 0x36 DUP4 PUSH2 0x4161 JUMP JUMPDEST PUSH32 0x476F7665726E6F72427261766F3A3A5F736574566F74696E67506572696F643A DUP2 MSTORE PUSH22 0x81A5B9D985B1A59081D9BDD1A5B99C81C195C9A5BD9 PUSH1 0x52 SHL PUSH1 0x20 DUP3 ADD MSTORE PUSH1 0x40 ADD SWAP3 SWAP2 POP POP JUMP JUMPDEST PUSH1 0x0 PUSH2 0x31AE PUSH1 0x31 DUP4 PUSH2 0x4161 JUMP JUMPDEST PUSH32 0x476F7665726E6F72427261766F3A3A63617374566F7465496E7465726E616C3A DUP2 MSTORE PUSH17 0x81D9BDD1A5B99C81A5CC818DB1BDCD959 PUSH1 0x7A SHL PUSH1 0x20 DUP3 ADD MSTORE PUSH1 0x40 ADD SWAP3 SWAP2 POP POP JUMP JUMPDEST PUSH1 0x0 PUSH2 0x3201 PUSH1 0x34 DUP4 PUSH2 0x4161 JUMP JUMPDEST PUSH32 0x476F7665726E6F72427261766F3A3A63617374566F7465496E7465726E616C3A DUP2 MSTORE PUSH20 0x81D9BDD195C88185B1C9958591E481D9BDD1959 PUSH1 0x62 SHL PUSH1 0x20 DUP3 ADD MSTORE PUSH1 0x40 ADD SWAP3 SWAP2 POP POP JUMP JUMPDEST PUSH1 0x0 PUSH2 0x3257 PUSH1 0x34 DUP4 PUSH2 0x4161 JUMP JUMPDEST PUSH32 0x476F7665726E6F72427261766F3A3A5F736574566F74696E6744656C61793A20 DUP2 MSTORE PUSH20 0x696E76616C696420766F74696E672064656C6179 PUSH1 0x60 SHL PUSH1 0x20 DUP3 ADD MSTORE PUSH1 0x40 ADD SWAP3 SWAP2 POP POP JUMP JUMPDEST PUSH1 0x0 PUSH2 0x32AD PUSH1 0x35 DUP4 PUSH2 0x4161 JUMP JUMPDEST PUSH1 0x0 DUP1 MLOAD PUSH1 0x20 PUSH2 0x424F DUP4 CODECOPY DUP2 MLOAD SWAP2 MSTORE DUP2 MSTORE PUSH21 0x1A59081C1C9BDC1BDCD85B081D1A1C995CDA1BDB19 PUSH1 0x5A SHL PUSH1 0x20 DUP3 ADD MSTORE PUSH1 0x40 ADD SWAP3 SWAP2 POP POP JUMP JUMPDEST PUSH1 0x0 PUSH2 0x32F2 PUSH1 0x45 DUP4 PUSH2 0x4161 JUMP JUMPDEST PUSH32 0x476F7665726E6F72427261766F3A3A657865637574653A2070726F706F73616C DUP2 MSTORE PUSH32 0x2063616E206F6E6C792062652065786563757465642069662069742069732071 PUSH1 0x20 DUP3 ADD MSTORE PUSH5 0x1D595D5959 PUSH1 0xDA SHL PUSH1 0x40 DUP3 ADD MSTORE PUSH1 0x60 ADD SWAP3 SWAP2 POP POP JUMP JUMPDEST PUSH1 0x0 PUSH2 0x335F PUSH1 0x2F DUP4 PUSH2 0x4161 JUMP JUMPDEST PUSH32 0x476F7665726E6F72427261766F3A3A63617374566F746542795369673A20696E DUP2 MSTORE PUSH15 0x76616C6964207369676E6174757265 PUSH1 0x88 SHL PUSH1 0x20 DUP3 ADD MSTORE PUSH1 0x40 ADD SWAP3 SWAP2 POP POP JUMP JUMPDEST PUSH1 0x0 PUSH2 0x33B0 PUSH1 0x2F DUP4 PUSH2 0x4161 JUMP JUMPDEST PUSH1 0x0 DUP1 MLOAD PUSH1 0x20 PUSH2 0x424F DUP4 CODECOPY DUP2 MLOAD SWAP2 MSTORE DUP2 MSTORE PUSH15 0x696420766F74696E672064656C6179 PUSH1 0x88 SHL PUSH1 0x20 DUP3 ADD MSTORE PUSH1 0x40 ADD SWAP3 SWAP2 POP POP JUMP JUMPDEST PUSH1 0x0 PUSH2 0x33EF PUSH1 0x44 DUP4 PUSH2 0x4161 JUMP JUMPDEST PUSH32 0x476F7665726E6F72427261766F3A3A70726F706F73653A2070726F706F73616C DUP2 MSTORE PUSH32 0x2066756E6374696F6E20696E666F726D6174696F6E206172697479206D69736D PUSH1 0x20 DUP3 ADD MSTORE PUSH4 0xC2E8C6D PUSH1 0xE3 SHL PUSH1 0x40 DUP3 ADD MSTORE PUSH1 0x60 ADD SWAP3 SWAP2 POP POP JUMP JUMPDEST PUSH1 0x0 PUSH2 0x345B PUSH1 0x25 DUP4 PUSH2 0x4161 JUMP JUMPDEST PUSH32 0x476F7665726E6F72427261766F3A3A696E697469616C697A653A2061646D696E DUP2 MSTORE PUSH5 0x206F6E6C79 PUSH1 0xD8 SHL PUSH1 0x20 DUP3 ADD MSTORE PUSH1 0x40 ADD SWAP3 SWAP2 POP POP JUMP JUMPDEST PUSH1 0x0 PUSH2 0x34A2 PUSH1 0x40 DUP4 PUSH2 0x4161 JUMP JUMPDEST PUSH32 0x476F7665726E6F72427261766F3A3A5F73657450726F706F73616C5468726573 DUP2 MSTORE PUSH32 0x686F6C643A20696E76616C69642070726F706F73616C207468726573686F6C64 PUSH1 0x20 DUP3 ADD MSTORE PUSH1 0x40 ADD SWAP3 SWAP2 POP POP JUMP JUMPDEST PUSH1 0x0 PUSH2 0x3501 PUSH1 0x44 DUP4 PUSH2 0x4161 JUMP JUMPDEST PUSH32 0x476F7665726E6F72427261766F3A3A71756575653A2070726F706F73616C2063 DUP2 MSTORE PUSH32 0x616E206F6E6C7920626520717565756564206966206974206973207375636365 PUSH1 0x20 DUP3 ADD MSTORE PUSH4 0x19591959 PUSH1 0xE2 SHL PUSH1 0x40 DUP3 ADD MSTORE PUSH1 0x60 ADD SWAP3 SWAP2 POP POP JUMP JUMPDEST PUSH1 0x0 PUSH2 0x356D PUSH1 0x11 DUP4 PUSH2 0x4161 JUMP JUMPDEST PUSH17 0x6164646974696F6E206F766572666C6F77 PUSH1 0x78 SHL DUP2 MSTORE PUSH1 0x20 ADD SWAP3 SWAP2 POP POP JUMP JUMPDEST PUSH1 0x0 PUSH2 0x359A PUSH1 0x43 DUP4 PUSH2 0xF6C JUMP JUMPDEST PUSH32 0x454950373132446F6D61696E28737472696E67206E616D652C75696E74323536 DUP2 MSTORE PUSH32 0x20636861696E49642C6164647265737320766572696679696E67436F6E747261 PUSH1 0x20 DUP3 ADD MSTORE PUSH3 0x637429 PUSH1 0xE8 SHL PUSH1 0x40 DUP3 ADD MSTORE PUSH1 0x43 ADD SWAP3 SWAP2 POP POP JUMP JUMPDEST PUSH1 0x0 PUSH2 0x3605 PUSH1 0x2C DUP4 PUSH2 0x4161 JUMP JUMPDEST PUSH32 0x476F7665726E6F72427261766F3A3A70726F706F73653A206D7573742070726F DUP2 MSTORE PUSH12 0x7669646520616374696F6E73 PUSH1 0xA0 SHL PUSH1 0x20 DUP3 ADD MSTORE PUSH1 0x40 ADD SWAP3 SWAP2 POP POP JUMP JUMPDEST PUSH1 0x0 PUSH2 0x3653 PUSH1 0x2E DUP4 PUSH2 0x4161 JUMP JUMPDEST PUSH32 0x476F7665726E6F72427261766F3A5F61636365707441646D696E3A2070656E64 DUP2 MSTORE PUSH14 0x696E672061646D696E206F6E6C79 PUSH1 0x90 SHL PUSH1 0x20 DUP3 ADD MSTORE PUSH1 0x40 ADD SWAP3 SWAP2 POP POP JUMP JUMPDEST PUSH1 0x0 PUSH2 0x36A3 PUSH1 0x2F DUP4 PUSH2 0x4161 JUMP JUMPDEST PUSH1 0x0 DUP1 MLOAD PUSH1 0x20 PUSH2 0x424F DUP4 CODECOPY DUP2 MLOAD SWAP2 MSTORE DUP2 MSTORE PUSH15 0x696420636F6D702061646472657373 PUSH1 0x88 SHL PUSH1 0x20 DUP3 ADD MSTORE PUSH1 0x40 ADD SWAP3 SWAP2 POP POP JUMP JUMPDEST PUSH1 0x0 PUSH2 0x36E2 PUSH1 0x2F DUP4 PUSH2 0x4161 JUMP JUMPDEST PUSH32 0x476F7665726E6F72427261766F3A3A63616E63656C3A2070726F706F73657220 DUP2 MSTORE PUSH15 0x18589BDD99481D1A1C995CDA1BDB19 PUSH1 0x8A SHL PUSH1 0x20 DUP3 ADD MSTORE PUSH1 0x40 ADD SWAP3 SWAP2 POP POP JUMP JUMPDEST PUSH1 0x0 PUSH2 0x3733 PUSH1 0x28 DUP4 PUSH2 0x4161 JUMP JUMPDEST PUSH32 0x476F7665726E6F72427261766F3A3A70726F706F73653A20746F6F206D616E79 DUP2 MSTORE PUSH8 0x20616374696F6E73 PUSH1 0xC0 SHL PUSH1 0x20 DUP3 ADD MSTORE PUSH1 0x40 ADD SWAP3 SWAP2 POP POP JUMP JUMPDEST PUSH1 0x0 PUSH2 0x377D PUSH1 0x59 DUP4 PUSH2 0x4161 JUMP JUMPDEST PUSH32 0x476F7665726E6F72427261766F3A3A70726F706F73653A206F6E65206C697665 DUP2 MSTORE PUSH32 0x2070726F706F73616C207065722070726F706F7365722C20666F756E6420616E PUSH1 0x20 DUP3 ADD MSTORE PUSH32 0x20616C72656164792070656E64696E672070726F706F73616C00000000000000 PUSH1 0x40 DUP3 ADD MSTORE PUSH1 0x60 ADD SWAP3 SWAP2 POP POP JUMP JUMPDEST PUSH1 0x0 PUSH2 0x3802 PUSH1 0x58 DUP4 PUSH2 0x4161 JUMP JUMPDEST PUSH32 0x476F7665726E6F72427261766F3A3A70726F706F73653A206F6E65206C697665 DUP2 MSTORE PUSH32 0x2070726F706F73616C207065722070726F706F7365722C20666F756E6420616E PUSH1 0x20 DUP3 ADD MSTORE PUSH32 0x20616C7265616479206163746976652070726F706F73616C0000000000000000 PUSH1 0x40 DUP3 ADD MSTORE PUSH1 0x60 ADD SWAP3 SWAP2 POP POP JUMP JUMPDEST PUSH1 0x0 PUSH2 0x1BDA PUSH1 0x0 DUP4 PUSH2 0x4161 JUMP JUMPDEST PUSH1 0x0 PUSH2 0x3894 PUSH1 0x3F DUP4 PUSH2 0x4161 JUMP JUMPDEST PUSH32 0x476F7665726E6F72427261766F3A3A70726F706F73653A2070726F706F736572 DUP2 MSTORE PUSH32 0x20766F7465732062656C6F772070726F706F73616C207468726573686F6C6400 PUSH1 0x20 DUP3 ADD MSTORE PUSH1 0x40 ADD SWAP3 SWAP2 POP POP JUMP JUMPDEST PUSH1 0x0 PUSH2 0x38F3 PUSH1 0x36 DUP4 PUSH2 0x4161 JUMP JUMPDEST PUSH32 0x476F7665726E6F72427261766F3A3A63616E63656C3A2063616E6E6F74206361 DUP2 MSTORE PUSH22 0x1B98D95B08195E1958DD5D1959081C1C9BDC1BDCD85B PUSH1 0x52 SHL PUSH1 0x20 DUP3 ADD MSTORE PUSH1 0x40 ADD SWAP3 SWAP2 POP POP JUMP JUMPDEST PUSH1 0x0 PUSH2 0x394B PUSH1 0x30 DUP4 PUSH2 0x4161 JUMP JUMPDEST PUSH32 0x476F7665726E6F72427261766F3A3A5F73657450726F706F73616C5468726573 DUP2 MSTORE PUSH16 0x686F6C643A2061646D696E206F6E6C79 PUSH1 0x80 SHL PUSH1 0x20 DUP3 ADD MSTORE PUSH1 0x40 ADD SWAP3 SWAP2 POP POP JUMP JUMPDEST PUSH1 0x0 PUSH2 0x399D PUSH1 0x29 DUP4 PUSH2 0x4161 JUMP JUMPDEST PUSH32 0x476F7665726E6F72427261766F3A3A73746174653A20696E76616C6964207072 DUP2 MSTORE PUSH9 0x1BDC1BDCD85B081A59 PUSH1 0xBA SHL PUSH1 0x20 DUP3 ADD MSTORE PUSH1 0x40 ADD SWAP3 SWAP2 POP POP JUMP JUMPDEST PUSH1 0x0 PUSH2 0x39E8 PUSH1 0x30 DUP4 PUSH2 0x4161 JUMP JUMPDEST PUSH1 0x0 DUP1 MLOAD PUSH1 0x20 PUSH2 0x424F DUP4 CODECOPY DUP2 MLOAD SWAP2 MSTORE DUP2 MSTORE PUSH16 0x1A59081D9BDD1A5B99C81C195C9A5BD9 PUSH1 0x82 SHL PUSH1 0x20 DUP3 ADD MSTORE PUSH1 0x40 ADD SWAP3 SWAP2 POP POP JUMP JUMPDEST PUSH1 0x0 PUSH2 0x3A28 PUSH1 0x15 DUP4 PUSH2 0x4161 JUMP JUMPDEST PUSH21 0x7375627472616374696F6E20756E646572666C6F77 PUSH1 0x58 SHL DUP2 MSTORE PUSH1 0x20 ADD SWAP3 SWAP2 POP POP JUMP JUMPDEST DUP1 MLOAD PUSH1 0x60 DUP4 ADD SWAP1 PUSH2 0x3A5D DUP5 DUP3 PUSH2 0x2D27 JUMP JUMPDEST POP PUSH1 0x20 DUP3 ADD MLOAD PUSH2 0x3A70 PUSH1 0x20 DUP6 ADD DUP3 PUSH2 0x3A89 JUMP JUMPDEST POP PUSH1 0x40 DUP3 ADD MLOAD PUSH2 0x3A83 PUSH1 0x40 DUP6 ADD DUP3 PUSH2 0x3A9B JUMP JUMPDEST POP POP POP POP JUMP JUMPDEST PUSH2 0x2BA2 DUP2 PUSH2 0x4190 JUMP JUMPDEST PUSH2 0x2BA2 DUP2 PUSH2 0x41BF JUMP JUMPDEST PUSH2 0x2BA2 DUP2 PUSH2 0x4196 JUMP JUMPDEST PUSH1 0x0 PUSH2 0x1BDA DUP3 PUSH2 0x2E94 JUMP JUMPDEST PUSH1 0x0 PUSH2 0x3ABA DUP3 PUSH2 0x312B JUMP JUMPDEST SWAP2 POP PUSH2 0x3AC6 DUP3 DUP6 PUSH2 0x2D39 JUMP JUMPDEST PUSH1 0x20 DUP3 ADD SWAP2 POP PUSH2 0x3AD6 DUP3 DUP5 PUSH2 0x2D39 JUMP JUMPDEST POP PUSH1 0x20 ADD SWAP3 SWAP2 POP POP JUMP JUMPDEST PUSH1 0x0 PUSH2 0x1BDA DUP3 PUSH2 0x358D JUMP JUMPDEST PUSH1 0x20 DUP2 ADD PUSH2 0x1BDA DUP3 DUP5 PUSH2 0x2BA8 JUMP JUMPDEST PUSH1 0x40 DUP2 ADD PUSH2 0x3B07 DUP3 DUP6 PUSH2 0x2B99 JUMP JUMPDEST PUSH2 0x2080 PUSH1 0x20 DUP4 ADD DUP5 PUSH2 0x2D30 JUMP JUMPDEST PUSH1 0x40 DUP2 ADD PUSH2 0x3B22 DUP3 DUP6 PUSH2 0x2BA8 JUMP JUMPDEST PUSH2 0x2080 PUSH1 0x20 DUP4 ADD DUP5 PUSH2 0x2BA8 JUMP JUMPDEST PUSH1 0x40 DUP2 ADD PUSH2 0x3B07 DUP3 DUP6 PUSH2 0x2BA8 JUMP JUMPDEST PUSH1 0xA0 DUP2 ADD PUSH2 0x3B4B DUP3 DUP9 PUSH2 0x2BA8 JUMP JUMPDEST PUSH2 0x3B58 PUSH1 0x20 DUP4 ADD DUP8 PUSH2 0x2D30 JUMP JUMPDEST DUP2 DUP2 SUB PUSH1 0x40 DUP4 ADD MSTORE PUSH2 0x3B6A DUP2 DUP7 PUSH2 0x2D4A JUMP JUMPDEST SWAP1 POP DUP2 DUP2 SUB PUSH1 0x60 DUP4 ADD MSTORE PUSH2 0x3B7E DUP2 DUP6 PUSH2 0x2D4A JUMP JUMPDEST SWAP1 POP PUSH2 0x3B8D PUSH1 0x80 DUP4 ADD DUP5 PUSH2 0x2D30 JUMP JUMPDEST SWAP7 SWAP6 POP POP POP POP POP POP JUMP JUMPDEST PUSH1 0xA0 DUP2 ADD PUSH2 0x3BA5 DUP3 DUP9 PUSH2 0x2BA8 JUMP JUMPDEST PUSH2 0x3BB2 PUSH1 0x20 DUP4 ADD DUP8 PUSH2 0x2D30 JUMP JUMPDEST DUP2 DUP2 SUB PUSH1 0x40 DUP4 ADD MSTORE PUSH2 0x3BC4 DUP2 DUP7 PUSH2 0x2D82 JUMP JUMPDEST SWAP1 POP DUP2 DUP2 SUB PUSH1 0x60 DUP4 ADD MSTORE PUSH2 0x3B7E DUP2 DUP6 PUSH2 0x2D82 JUMP JUMPDEST PUSH1 0x80 DUP1 DUP3 MSTORE DUP2 ADD PUSH2 0x3BE9 DUP2 DUP8 PUSH2 0x2BB1 JUMP JUMPDEST SWAP1 POP DUP2 DUP2 SUB PUSH1 0x20 DUP4 ADD MSTORE PUSH2 0x3BFD DUP2 DUP7 PUSH2 0x2CD9 JUMP JUMPDEST SWAP1 POP DUP2 DUP2 SUB PUSH1 0x40 DUP4 ADD MSTORE PUSH2 0x3C11 DUP2 DUP6 PUSH2 0x2C78 JUMP JUMPDEST SWAP1 POP DUP2 DUP2 SUB PUSH1 0x60 DUP4 ADD MSTORE PUSH2 0x3B8D DUP2 DUP5 PUSH2 0x2C0A JUMP JUMPDEST PUSH1 0x20 DUP2 ADD PUSH2 0x1BDA DUP3 DUP5 PUSH2 0x2D30 JUMP JUMPDEST PUSH1 0x80 DUP2 ADD PUSH2 0x3C41 DUP3 DUP8 PUSH2 0x2D30 JUMP JUMPDEST PUSH2 0x3C4E PUSH1 0x20 DUP4 ADD DUP7 PUSH2 0x2D30 JUMP JUMPDEST PUSH2 0x3C5B PUSH1 0x40 DUP4 ADD DUP6 PUSH2 0x2D30 JUMP JUMPDEST PUSH2 0x18E2 PUSH1 0x60 DUP4 ADD DUP5 PUSH2 0x2BA8 JUMP JUMPDEST PUSH1 0x60 DUP2 ADD PUSH2 0x3C76 DUP3 DUP7 PUSH2 0x2D30 JUMP JUMPDEST PUSH2 0x3C83 PUSH1 0x20 DUP4 ADD DUP6 PUSH2 0x2D30 JUMP JUMPDEST PUSH2 0x284C PUSH1 0x40 DUP4 ADD DUP5 PUSH2 0x3A89 JUMP JUMPDEST PUSH1 0x80 DUP2 ADD PUSH2 0x3C9E DUP3 DUP8 PUSH2 0x2D30 JUMP JUMPDEST PUSH2 0x3CAB PUSH1 0x20 DUP4 ADD DUP7 PUSH2 0x3A89 JUMP JUMPDEST PUSH2 0x3CB8 PUSH1 0x40 DUP4 ADD DUP6 PUSH2 0x2D30 JUMP JUMPDEST PUSH2 0x18E2 PUSH1 0x60 DUP4 ADD DUP5 PUSH2 0x2D30 JUMP JUMPDEST PUSH1 0x20 DUP2 ADD PUSH2 0x1BDA DUP3 DUP5 PUSH2 0x2E0C JUMP JUMPDEST PUSH1 0x20 DUP2 ADD PUSH2 0x1BDA DUP3 DUP5 PUSH2 0x2E15 JUMP JUMPDEST PUSH1 0x20 DUP1 DUP3 MSTORE DUP2 ADD PUSH2 0x2080 DUP2 DUP5 PUSH2 0x2D4A JUMP JUMPDEST PUSH1 0x20 DUP1 DUP3 MSTORE DUP2 ADD PUSH2 0x1BDA DUP2 PUSH2 0x2E40 JUMP JUMPDEST PUSH1 0x20 DUP1 DUP3 MSTORE DUP2 ADD PUSH2 0x1BDA DUP2 PUSH2 0x2EDE JUMP JUMPDEST PUSH1 0x20 DUP1 DUP3 MSTORE DUP2 ADD PUSH2 0x1BDA DUP2 PUSH2 0x2F33 JUMP JUMPDEST PUSH1 0x20 DUP1 DUP3 MSTORE DUP2 ADD PUSH2 0x1BDA DUP2 PUSH2 0x2F7F JUMP JUMPDEST PUSH1 0x20 DUP1 DUP3 MSTORE DUP2 ADD PUSH2 0x1BDA DUP2 PUSH2 0x2FFC JUMP JUMPDEST PUSH1 0x20 DUP1 DUP3 MSTORE DUP2 ADD PUSH2 0x1BDA DUP2 PUSH2 0x3049 JUMP JUMPDEST PUSH1 0x20 DUP1 DUP3 MSTORE DUP2 ADD PUSH2 0x1BDA DUP2 PUSH2 0x308C JUMP JUMPDEST PUSH1 0x20 DUP1 DUP3 MSTORE DUP2 ADD PUSH2 0x1BDA DUP2 PUSH2 0x30D8 JUMP JUMPDEST PUSH1 0x20 DUP1 DUP3 MSTORE DUP2 ADD PUSH2 0x1BDA DUP2 PUSH2 0x3149 JUMP JUMPDEST PUSH1 0x20 DUP1 DUP3 MSTORE DUP2 ADD PUSH2 0x1BDA DUP2 PUSH2 0x31A1 JUMP JUMPDEST PUSH1 0x20 DUP1 DUP3 MSTORE DUP2 ADD PUSH2 0x1BDA DUP2 PUSH2 0x31F4 JUMP JUMPDEST PUSH1 0x20 DUP1 DUP3 MSTORE DUP2 ADD PUSH2 0x1BDA DUP2 PUSH2 0x324A JUMP JUMPDEST PUSH1 0x20 DUP1 DUP3 MSTORE DUP2 ADD PUSH2 0x1BDA DUP2 PUSH2 0x32A0 JUMP JUMPDEST PUSH1 0x20 DUP1 DUP3 MSTORE DUP2 ADD PUSH2 0x1BDA DUP2 PUSH2 0x32E5 JUMP JUMPDEST PUSH1 0x20 DUP1 DUP3 MSTORE DUP2 ADD PUSH2 0x1BDA DUP2 PUSH2 0x3352 JUMP JUMPDEST PUSH1 0x20 DUP1 DUP3 MSTORE DUP2 ADD PUSH2 0x1BDA DUP2 PUSH2 0x33A3 JUMP JUMPDEST PUSH1 0x20 DUP1 DUP3 MSTORE DUP2 ADD PUSH2 0x1BDA DUP2 PUSH2 0x33E2 JUMP JUMPDEST PUSH1 0x20 DUP1 DUP3 MSTORE DUP2 ADD PUSH2 0x1BDA DUP2 PUSH2 0x344E JUMP JUMPDEST PUSH1 0x20 DUP1 DUP3 MSTORE DUP2 ADD PUSH2 0x1BDA DUP2 PUSH2 0x3495 JUMP JUMPDEST PUSH1 0x20 DUP1 DUP3 MSTORE DUP2 ADD PUSH2 0x1BDA DUP2 PUSH2 0x34F4 JUMP JUMPDEST PUSH1 0x20 DUP1 DUP3 MSTORE DUP2 ADD PUSH2 0x1BDA DUP2 PUSH2 0x3560 JUMP JUMPDEST PUSH1 0x20 DUP1 DUP3 MSTORE DUP2 ADD PUSH2 0x1BDA DUP2 PUSH2 0x35F8 JUMP JUMPDEST PUSH1 0x20 DUP1 DUP3 MSTORE DUP2 ADD PUSH2 0x1BDA DUP2 PUSH2 0x3646 JUMP JUMPDEST PUSH1 0x20 DUP1 DUP3 MSTORE DUP2 ADD PUSH2 0x1BDA DUP2 PUSH2 0x3696 JUMP JUMPDEST PUSH1 0x20 DUP1 DUP3 MSTORE DUP2 ADD PUSH2 0x1BDA DUP2 PUSH2 0x36D5 JUMP JUMPDEST PUSH1 0x20 DUP1 DUP3 MSTORE DUP2 ADD PUSH2 0x1BDA DUP2 PUSH2 0x3726 JUMP JUMPDEST PUSH1 0x20 DUP1 DUP3 MSTORE DUP2 ADD PUSH2 0x1BDA DUP2 PUSH2 0x3770 JUMP JUMPDEST PUSH1 0x20 DUP1 DUP3 MSTORE DUP2 ADD PUSH2 0x1BDA DUP2 PUSH2 0x37F5 JUMP JUMPDEST PUSH1 0x20 DUP1 DUP3 MSTORE DUP2 ADD PUSH2 0x1BDA DUP2 PUSH2 0x3887 JUMP JUMPDEST PUSH1 0x20 DUP1 DUP3 MSTORE DUP2 ADD PUSH2 0x1BDA DUP2 PUSH2 0x38E6 JUMP JUMPDEST PUSH1 0x20 DUP1 DUP3 MSTORE DUP2 ADD PUSH2 0x1BDA DUP2 PUSH2 0x393E JUMP JUMPDEST PUSH1 0x20 DUP1 DUP3 MSTORE DUP2 ADD PUSH2 0x1BDA DUP2 PUSH2 0x3990 JUMP JUMPDEST PUSH1 0x20 DUP1 DUP3 MSTORE DUP2 ADD PUSH2 0x1BDA DUP2 PUSH2 0x39DB JUMP JUMPDEST PUSH1 0x20 DUP1 DUP3 MSTORE DUP2 ADD PUSH2 0x1BDA DUP2 PUSH2 0x3A1B JUMP JUMPDEST PUSH1 0x60 DUP2 ADD PUSH2 0x1BDA DUP3 DUP5 PUSH2 0x3A4C JUMP JUMPDEST PUSH2 0x120 DUP2 ADD PUSH2 0x3F2F DUP3 DUP13 PUSH2 0x2D30 JUMP JUMPDEST PUSH2 0x3F3C PUSH1 0x20 DUP4 ADD DUP12 PUSH2 0x2B99 JUMP JUMPDEST DUP2 DUP2 SUB PUSH1 0x40 DUP4 ADD MSTORE PUSH2 0x3F4E DUP2 DUP11 PUSH2 0x2BB1 JUMP JUMPDEST SWAP1 POP DUP2 DUP2 SUB PUSH1 0x60 DUP4 ADD MSTORE PUSH2 0x3F62 DUP2 DUP10 PUSH2 0x2CD9 JUMP JUMPDEST SWAP1 POP DUP2 DUP2 SUB PUSH1 0x80 DUP4 ADD MSTORE PUSH2 0x3F76 DUP2 DUP9 PUSH2 0x2C78 JUMP JUMPDEST SWAP1 POP DUP2 DUP2 SUB PUSH1 0xA0 DUP4 ADD MSTORE PUSH2 0x3F8A DUP2 DUP8 PUSH2 0x2C0A JUMP JUMPDEST SWAP1 POP PUSH2 0x3F99 PUSH1 0xC0 DUP4 ADD DUP7 PUSH2 0x2D30 JUMP JUMPDEST PUSH2 0x3FA6 PUSH1 0xE0 DUP4 ADD DUP6 PUSH2 0x2D30 JUMP JUMPDEST DUP2 DUP2 SUB PUSH2 0x100 DUP4 ADD MSTORE PUSH2 0x3FB9 DUP2 DUP5 PUSH2 0x2D4A JUMP JUMPDEST SWAP12 SWAP11 POP POP POP POP POP POP POP POP POP POP POP JUMP JUMPDEST PUSH2 0x140 DUP2 ADD PUSH2 0x3FD7 DUP3 DUP14 PUSH2 0x2D30 JUMP JUMPDEST PUSH2 0x3FE4 PUSH1 0x20 DUP4 ADD DUP13 PUSH2 0x2BA8 JUMP JUMPDEST PUSH2 0x3FF1 PUSH1 0x40 DUP4 ADD DUP12 PUSH2 0x2D30 JUMP JUMPDEST PUSH2 0x3FFE PUSH1 0x60 DUP4 ADD DUP11 PUSH2 0x2D30 JUMP JUMPDEST PUSH2 0x400B PUSH1 0x80 DUP4 ADD DUP10 PUSH2 0x2D30 JUMP JUMPDEST PUSH2 0x4018 PUSH1 0xA0 DUP4 ADD DUP9 PUSH2 0x2D30 JUMP JUMPDEST PUSH2 0x4025 PUSH1 0xC0 DUP4 ADD DUP8 PUSH2 0x2D30 JUMP JUMPDEST PUSH2 0x4032 PUSH1 0xE0 DUP4 ADD DUP7 PUSH2 0x2D30 JUMP JUMPDEST PUSH2 0x4040 PUSH2 0x100 DUP4 ADD DUP6 PUSH2 0x2D27 JUMP JUMPDEST PUSH2 0x3FB9 PUSH2 0x120 DUP4 ADD DUP5 PUSH2 0x2D27 JUMP JUMPDEST PUSH1 0x40 DUP2 ADD PUSH2 0x3B07 DUP3 DUP6 PUSH2 0x2D30 JUMP JUMPDEST PUSH1 0x80 DUP2 ADD PUSH2 0x406A DUP3 DUP9 PUSH2 0x2D30 JUMP JUMPDEST PUSH2 0x4077 PUSH1 0x20 DUP4 ADD DUP8 PUSH2 0x3A89 JUMP JUMPDEST PUSH2 0x4084 PUSH1 0x40 DUP4 ADD DUP7 PUSH2 0x3A92 JUMP JUMPDEST DUP2 DUP2 SUB PUSH1 0x60 DUP4 ADD MSTORE PUSH2 0x4097 DUP2 DUP5 DUP7 PUSH2 0x2E1E JUMP JUMPDEST SWAP8 SWAP7 POP POP POP POP POP POP POP JUMP JUMPDEST PUSH1 0x80 DUP2 ADD PUSH2 0x40B0 DUP3 DUP7 PUSH2 0x2D30 JUMP JUMPDEST PUSH2 0x40BD PUSH1 0x20 DUP4 ADD DUP6 PUSH2 0x3A89 JUMP JUMPDEST PUSH2 0x40CA PUSH1 0x40 DUP4 ADD DUP5 PUSH2 0x3A92 JUMP JUMPDEST DUP2 DUP2 SUB PUSH1 0x60 DUP4 ADD MSTORE PUSH2 0x18E2 DUP2 PUSH2 0x387A JUMP JUMPDEST PUSH1 0x40 MLOAD DUP2 DUP2 ADD PUSH8 0xFFFFFFFFFFFFFFFF DUP2 GT DUP3 DUP3 LT OR ISZERO PUSH2 0x40FA JUMPI PUSH1 0x0 DUP1 REVERT JUMPDEST PUSH1 0x40 MSTORE SWAP2 SWAP1 POP JUMP JUMPDEST PUSH1 0x0 PUSH8 0xFFFFFFFFFFFFFFFF DUP3 GT ISZERO PUSH2 0x4119 JUMPI PUSH1 0x0 DUP1 REVERT JUMPDEST POP PUSH1 0x20 SWAP1 DUP2 MUL ADD SWAP1 JUMP JUMPDEST PUSH1 0x0 PUSH8 0xFFFFFFFFFFFFFFFF DUP3 GT ISZERO PUSH2 0x413A JUMPI PUSH1 0x0 DUP1 REVERT JUMPDEST POP PUSH1 0x20 PUSH1 0x1F SWAP2 SWAP1 SWAP2 ADD PUSH1 0x1F NOT AND ADD SWAP1 JUMP JUMPDEST PUSH1 0x20 ADD SWAP1 JUMP JUMPDEST PUSH1 0x0 SWAP1 DUP2 MSTORE PUSH1 0x20 SWAP1 KECCAK256 SWAP1 JUMP JUMPDEST MLOAD SWAP1 JUMP JUMPDEST SWAP1 DUP2 MSTORE PUSH1 0x20 ADD SWAP1 JUMP JUMPDEST PUSH1 0x0 PUSH2 0x1BDA DUP3 PUSH2 0x4184 JUMP JUMPDEST ISZERO ISZERO SWAP1 JUMP JUMPDEST DUP1 PUSH2 0xF6C DUP2 PUSH2 0x420C JUMP JUMPDEST PUSH1 0x1 PUSH1 0x1 PUSH1 0xA0 SHL SUB AND SWAP1 JUMP JUMPDEST PUSH1 0xFF AND SWAP1 JUMP JUMPDEST PUSH1 0x1 PUSH1 0x1 PUSH1 0x60 SHL SUB AND SWAP1 JUMP JUMPDEST PUSH1 0x0 PUSH2 0x1BDA DUP3 JUMPDEST PUSH1 0x0 PUSH2 0x1BDA DUP3 PUSH2 0x416A JUMP JUMPDEST PUSH1 0x0 PUSH2 0x1BDA DUP3 PUSH2 0x417A JUMP JUMPDEST PUSH1 0x0 PUSH2 0x1BDA DUP3 PUSH2 0x4196 JUMP JUMPDEST DUP3 DUP2 DUP4 CALLDATACOPY POP PUSH1 0x0 SWAP2 ADD MSTORE JUMP JUMPDEST PUSH1 0x0 JUMPDEST DUP4 DUP2 LT ISZERO PUSH2 0x41F1 JUMPI DUP2 DUP2 ADD MLOAD DUP4 DUP3 ADD MSTORE PUSH1 0x20 ADD PUSH2 0x41D9 JUMP JUMPDEST DUP4 DUP2 GT ISZERO PUSH2 0x3A83 JUMPI POP POP PUSH1 0x0 SWAP2 ADD MSTORE JUMP JUMPDEST PUSH1 0x1F ADD PUSH1 0x1F NOT AND SWAP1 JUMP JUMPDEST PUSH1 0x8 DUP2 LT PUSH2 0x2562 JUMPI INVALID JUMPDEST PUSH2 0x421F DUP2 PUSH2 0x416A JUMP JUMPDEST DUP2 EQ PUSH2 0x2562 JUMPI PUSH1 0x0 DUP1 REVERT JUMPDEST PUSH2 0x421F DUP2 PUSH2 0x4175 JUMP JUMPDEST PUSH2 0x421F DUP2 PUSH2 0x1E93 JUMP JUMPDEST PUSH2 0x421F DUP2 PUSH2 0x4190 JUMP JUMPDEST PUSH2 0x421F DUP2 PUSH2 0x4196 JUMP INVALID SELFBALANCE PUSH16 0x7665726E6F72427261766F3A3A696E69 PUSH21 0x69616C697A653A20696E76616CA365627A7A723158 KECCAK256 PUSH1 0x98 DUP7 DUP7 GASLIMIT PUSH11 0x6ED3991F7E5BE7F8A1FD8F 0xCD 0xF6 0xCD 0x48 0xD OR MSIZE PUSH23 0x2C1D9BF558868D6C6578706572696D656E74616CF56473 PUSH16 0x6C634300051000400000000000000000 "
        },
        "methodIdentifiers": {
          "BALLOT_TYPEHASH()": "deaaa7cc",
          "DOMAIN_TYPEHASH()": "20606b70",
          "MAX_PROPOSAL_THRESHOLD()": "25fd935a",
          "MAX_VOTING_DELAY()": "b1126263",
          "MAX_VOTING_PERIOD()": "a64e024a",
          "MIN_PROPOSAL_THRESHOLD()": "791f5d23",
          "MIN_VOTING_DELAY()": "e48083fe",
          "MIN_VOTING_PERIOD()": "215809ca",
          "_acceptAdmin()": "e9c714f2",
          "_setPendingAdmin(address)": "b71d1a0c",
          "_setProposalThreshold(uint256)": "17ba1b8b",
          "_setVotingDelay(uint256)": "1dfb1b5a",
          "_setVotingPeriod(uint256)": "0ea2d98c",
          "admin()": "f851a440",
          "cancel(uint256)": "40e58ee5",
          "castVote(uint256,uint8)": "56781388",
          "castVoteBySig(uint256,uint8,uint8,bytes32,bytes32)": "3bccf4fd",
          "castVoteWithReason(uint256,uint8,string)": "7b3c71d3",
          "comp()": "109d0af8",
          "execute(uint256)": "fe0d94c1",
          "getActions(uint256)": "328dd982",
          "getReceipt(uint256,address)": "e23a9a52",
          "implementation()": "5c60da1b",
          "initialProposalId()": "fc4eee42",
          "initialize(address,address,uint256,uint256,uint256)": "d13f90b4",
          "latestProposalIds(address)": "17977c61",
          "name()": "06fdde03",
          "pendingAdmin()": "26782247",
          "proposalCount()": "da35c664",
          "proposalMaxOperations()": "7bdbe4d0",
          "proposalThreshold()": "b58131b0",
          "proposals(uint256)": "013cf08b",
          "propose(address[],uint256[],string[],bytes[],string)": "da95691a",
          "queue(uint256)": "ddf0b009",
          "quorumVotes()": "24bc1a64",
          "state(uint256)": "3e4f49e6",
          "timelock()": "d33219b4",
          "votingDelay()": "3932abb1",
          "votingPeriod()": "02a251a3"
        }
      }
    }
  }
}