{
  "contracts/Marlin/GovernorAlpha.sol": {
    "GovernorAlpha": {
      "abi": [
        {
          "inputs": [
            {
              "internalType": "address",
              "name": "timelock_",
              "type": "address"
            },
            {
              "internalType": "address",
              "name": "MPond_",
              "type": "address"
            },
            {
              "internalType": "address",
              "name": "guardian_",
              "type": "address"
            }
          ],
          "stateMutability": "nonpayable",
          "type": "constructor"
        },
        {
          "anonymous": false,
          "inputs": [
            {
              "indexed": false,
              "internalType": "uint256",
              "name": "id",
              "type": "uint256"
            }
          ],
          "name": "ProposalCanceled",
          "type": "event"
        },
        {
          "anonymous": false,
          "inputs": [
            {
              "indexed": false,
              "internalType": "uint256",
              "name": "id",
              "type": "uint256"
            },
            {
              "indexed": false,
              "internalType": "address",
              "name": "proposer",
              "type": "address"
            },
            {
              "indexed": false,
              "internalType": "address[]",
              "name": "targets",
              "type": "address[]"
            },
            {
              "indexed": false,
              "internalType": "uint256[]",
              "name": "values",
              "type": "uint256[]"
            },
            {
              "indexed": false,
              "internalType": "string[]",
              "name": "signatures",
              "type": "string[]"
            },
            {
              "indexed": false,
              "internalType": "bytes[]",
              "name": "calldatas",
              "type": "bytes[]"
            },
            {
              "indexed": false,
              "internalType": "uint256",
              "name": "startBlock",
              "type": "uint256"
            },
            {
              "indexed": false,
              "internalType": "uint256",
              "name": "endBlock",
              "type": "uint256"
            },
            {
              "indexed": false,
              "internalType": "string",
              "name": "description",
              "type": "string"
            }
          ],
          "name": "ProposalCreated",
          "type": "event"
        },
        {
          "anonymous": false,
          "inputs": [
            {
              "indexed": false,
              "internalType": "uint256",
              "name": "id",
              "type": "uint256"
            }
          ],
          "name": "ProposalExecuted",
          "type": "event"
        },
        {
          "anonymous": false,
          "inputs": [
            {
              "indexed": false,
              "internalType": "uint256",
              "name": "id",
              "type": "uint256"
            },
            {
              "indexed": false,
              "internalType": "uint256",
              "name": "eta",
              "type": "uint256"
            }
          ],
          "name": "ProposalQueued",
          "type": "event"
        },
        {
          "anonymous": false,
          "inputs": [
            {
              "indexed": false,
              "internalType": "address",
              "name": "voter",
              "type": "address"
            },
            {
              "indexed": false,
              "internalType": "uint256",
              "name": "proposalId",
              "type": "uint256"
            },
            {
              "indexed": false,
              "internalType": "bool",
              "name": "support",
              "type": "bool"
            },
            {
              "indexed": false,
              "internalType": "uint256",
              "name": "votes",
              "type": "uint256"
            }
          ],
          "name": "VoteCast",
          "type": "event"
        },
        {
          "inputs": [],
          "name": "BALLOT_TYPEHASH",
          "outputs": [
            {
              "internalType": "bytes32",
              "name": "",
              "type": "bytes32"
            }
          ],
          "stateMutability": "view",
          "type": "function"
        },
        {
          "inputs": [],
          "name": "DOMAIN_TYPEHASH",
          "outputs": [
            {
              "internalType": "bytes32",
              "name": "",
              "type": "bytes32"
            }
          ],
          "stateMutability": "view",
          "type": "function"
        },
        {
          "inputs": [],
          "name": "MPond",
          "outputs": [
            {
              "internalType": "contract MPondInterface",
              "name": "",
              "type": "address"
            }
          ],
          "stateMutability": "view",
          "type": "function"
        },
        {
          "inputs": [],
          "name": "__abdicate",
          "outputs": [],
          "stateMutability": "nonpayable",
          "type": "function"
        },
        {
          "inputs": [],
          "name": "__acceptAdmin",
          "outputs": [],
          "stateMutability": "nonpayable",
          "type": "function"
        },
        {
          "inputs": [
            {
              "internalType": "address",
              "name": "newPendingAdmin",
              "type": "address"
            },
            {
              "internalType": "uint256",
              "name": "eta",
              "type": "uint256"
            }
          ],
          "name": "__executeSetTimelockPendingAdmin",
          "outputs": [],
          "stateMutability": "nonpayable",
          "type": "function"
        },
        {
          "inputs": [
            {
              "internalType": "address",
              "name": "newPendingAdmin",
              "type": "address"
            },
            {
              "internalType": "uint256",
              "name": "eta",
              "type": "uint256"
            }
          ],
          "name": "__queueSetTimelockPendingAdmin",
          "outputs": [],
          "stateMutability": "nonpayable",
          "type": "function"
        },
        {
          "inputs": [
            {
              "internalType": "uint256",
              "name": "proposalId",
              "type": "uint256"
            }
          ],
          "name": "cancel",
          "outputs": [],
          "stateMutability": "nonpayable",
          "type": "function"
        },
        {
          "inputs": [
            {
              "internalType": "uint256",
              "name": "proposalId",
              "type": "uint256"
            },
            {
              "internalType": "bool",
              "name": "support",
              "type": "bool"
            }
          ],
          "name": "castVote",
          "outputs": [],
          "stateMutability": "nonpayable",
          "type": "function"
        },
        {
          "inputs": [
            {
              "internalType": "uint256",
              "name": "proposalId",
              "type": "uint256"
            },
            {
              "internalType": "bool",
              "name": "support",
              "type": "bool"
            },
            {
              "internalType": "uint8",
              "name": "v",
              "type": "uint8"
            },
            {
              "internalType": "bytes32",
              "name": "r",
              "type": "bytes32"
            },
            {
              "internalType": "bytes32",
              "name": "s",
              "type": "bytes32"
            }
          ],
          "name": "castVoteBySig",
          "outputs": [],
          "stateMutability": "nonpayable",
          "type": "function"
        },
        {
          "inputs": [
            {
              "internalType": "uint256",
              "name": "proposalId",
              "type": "uint256"
            }
          ],
          "name": "execute",
          "outputs": [],
          "stateMutability": "payable",
          "type": "function"
        },
        {
          "inputs": [
            {
              "internalType": "uint256",
              "name": "proposalId",
              "type": "uint256"
            }
          ],
          "name": "getActions",
          "outputs": [
            {
              "internalType": "address[]",
              "name": "targets",
              "type": "address[]"
            },
            {
              "internalType": "uint256[]",
              "name": "values",
              "type": "uint256[]"
            },
            {
              "internalType": "string[]",
              "name": "signatures",
              "type": "string[]"
            },
            {
              "internalType": "bytes[]",
              "name": "calldatas",
              "type": "bytes[]"
            }
          ],
          "stateMutability": "view",
          "type": "function"
        },
        {
          "inputs": [
            {
              "internalType": "uint256",
              "name": "proposalId",
              "type": "uint256"
            },
            {
              "internalType": "address",
              "name": "voter",
              "type": "address"
            }
          ],
          "name": "getReceipt",
          "outputs": [
            {
              "components": [
                {
                  "internalType": "bool",
                  "name": "hasVoted",
                  "type": "bool"
                },
                {
                  "internalType": "bool",
                  "name": "support",
                  "type": "bool"
                },
                {
                  "internalType": "uint96",
                  "name": "votes",
                  "type": "uint96"
                }
              ],
              "internalType": "struct GovernorAlpha.Receipt",
              "name": "",
              "type": "tuple"
            }
          ],
          "stateMutability": "view",
          "type": "function"
        },
        {
          "inputs": [],
          "name": "guardian",
          "outputs": [
            {
              "internalType": "address",
              "name": "",
              "type": "address"
            }
          ],
          "stateMutability": "view",
          "type": "function"
        },
        {
          "inputs": [
            {
              "internalType": "address",
              "name": "",
              "type": "address"
            }
          ],
          "name": "latestProposalIds",
          "outputs": [
            {
              "internalType": "uint256",
              "name": "",
              "type": "uint256"
            }
          ],
          "stateMutability": "view",
          "type": "function"
        },
        {
          "inputs": [],
          "name": "name",
          "outputs": [
            {
              "internalType": "string",
              "name": "",
              "type": "string"
            }
          ],
          "stateMutability": "view",
          "type": "function"
        },
        {
          "inputs": [],
          "name": "proposalCount",
          "outputs": [
            {
              "internalType": "uint256",
              "name": "",
              "type": "uint256"
            }
          ],
          "stateMutability": "view",
          "type": "function"
        },
        {
          "inputs": [],
          "name": "proposalMaxOperations",
          "outputs": [
            {
              "internalType": "uint256",
              "name": "",
              "type": "uint256"
            }
          ],
          "stateMutability": "pure",
          "type": "function"
        },
        {
          "inputs": [],
          "name": "proposalThreshold",
          "outputs": [
            {
              "internalType": "uint256",
              "name": "",
              "type": "uint256"
            }
          ],
          "stateMutability": "pure",
          "type": "function"
        },
        {
          "inputs": [
            {
              "internalType": "uint256",
              "name": "",
              "type": "uint256"
            }
          ],
          "name": "proposals",
          "outputs": [
            {
              "internalType": "uint256",
              "name": "id",
              "type": "uint256"
            },
            {
              "internalType": "address",
              "name": "proposer",
              "type": "address"
            },
            {
              "internalType": "uint256",
              "name": "eta",
              "type": "uint256"
            },
            {
              "internalType": "uint256",
              "name": "startBlock",
              "type": "uint256"
            },
            {
              "internalType": "uint256",
              "name": "endBlock",
              "type": "uint256"
            },
            {
              "internalType": "uint256",
              "name": "forVotes",
              "type": "uint256"
            },
            {
              "internalType": "uint256",
              "name": "againstVotes",
              "type": "uint256"
            },
            {
              "internalType": "bool",
              "name": "canceled",
              "type": "bool"
            },
            {
              "internalType": "bool",
              "name": "executed",
              "type": "bool"
            }
          ],
          "stateMutability": "view",
          "type": "function"
        },
        {
          "inputs": [
            {
              "internalType": "address[]",
              "name": "targets",
              "type": "address[]"
            },
            {
              "internalType": "uint256[]",
              "name": "values",
              "type": "uint256[]"
            },
            {
              "internalType": "string[]",
              "name": "signatures",
              "type": "string[]"
            },
            {
              "internalType": "bytes[]",
              "name": "calldatas",
              "type": "bytes[]"
            },
            {
              "internalType": "string",
              "name": "description",
              "type": "string"
            }
          ],
          "name": "propose",
          "outputs": [
            {
              "internalType": "uint256",
              "name": "",
              "type": "uint256"
            }
          ],
          "stateMutability": "nonpayable",
          "type": "function"
        },
        {
          "inputs": [
            {
              "internalType": "uint256",
              "name": "proposalId",
              "type": "uint256"
            }
          ],
          "name": "queue",
          "outputs": [],
          "stateMutability": "nonpayable",
          "type": "function"
        },
        {
          "inputs": [],
          "name": "quorumVotes",
          "outputs": [
            {
              "internalType": "uint256",
              "name": "",
              "type": "uint256"
            }
          ],
          "stateMutability": "pure",
          "type": "function"
        },
        {
          "inputs": [
            {
              "internalType": "uint256",
              "name": "proposalId",
              "type": "uint256"
            }
          ],
          "name": "state",
          "outputs": [
            {
              "internalType": "enum GovernorAlpha.ProposalState",
              "name": "",
              "type": "uint8"
            }
          ],
          "stateMutability": "view",
          "type": "function"
        },
        {
          "inputs": [],
          "name": "timelock",
          "outputs": [
            {
              "internalType": "contract TimelockInterface",
              "name": "",
              "type": "address"
            }
          ],
          "stateMutability": "view",
          "type": "function"
        },
        {
          "inputs": [],
          "name": "votingDelay",
          "outputs": [
            {
              "internalType": "uint256",
              "name": "",
              "type": "uint256"
            }
          ],
          "stateMutability": "pure",
          "type": "function"
        },
        {
          "inputs": [],
          "name": "votingPeriod",
          "outputs": [
            {
              "internalType": "uint256",
              "name": "",
              "type": "uint256"
            }
          ],
          "stateMutability": "pure",
          "type": "function"
        }
      ],
      "evm": {
        "bytecode": {
          "linkReferences": {},
          "object": "60806040523480156200001157600080fd5b50604051620032c9380380620032c9833981016040819052620000349162000077565b600080546001600160a01b039485166001600160a01b031991821617909155600180549385169382169390931790925560028054919093169116179055620000e3565b6000806000606084860312156200008c578283fd5b83516200009981620000ca565b6020850151909350620000ac81620000ca565b6040850151909250620000bf81620000ca565b809150509250925092565b6001600160a01b0381168114620000e057600080fd5b50565b6131d680620000f36000396000f3fe60806040526004361061019c5760003560e01c80634634c61f116100ec578063d33219b41161008a578063ddf0b00911610064578063ddf0b00914610456578063deaaa7cc14610476578063e23a9a521461048b578063fe0d94c1146104b85761019c565b8063d33219b41461040c578063da35c66414610421578063da95691a146104365761019c565b806391500671116100c657806391500671146103ad578063ad0d7f7d146103cd578063b58131b0146103e2578063b9a61961146103f75761019c565b80634634c61f14610363578063760fbc13146103835780637bdbe4d0146103985761019c565b806321f43e42116101595780633932abb1116101335780633932abb1146102df5780633e4f49e6146102f457806340e58ee514610321578063452a9320146103415761019c565b806321f43e421461027a57806324bc1a641461029a578063328dd982146102af5761019c565b8063013cf08b146101a157806302a251a3146101df57806306fdde031461020157806315373e3d1461022357806317977c611461024557806320606b7014610265575b600080fd5b3480156101ad57600080fd5b506101c16101bc3660046123bf565b6104cb565b6040516101d699989796959493929190613095565b60405180910390f35b3480156101eb57600080fd5b506101f4610524565b6040516101d691906127e2565b34801561020d57600080fd5b5061021661052a565b6040516101d69190612859565b34801561022f57600080fd5b5061024361023e366004612403565b61055b565b005b34801561025157600080fd5b506101f4610260366004612207565b61056a565b34801561027157600080fd5b506101f461057c565b34801561028657600080fd5b50610243610295366004612222565b6105a0565b3480156102a657600080fd5b506101f4610687565b3480156102bb57600080fd5b506102cf6102ca3660046123bf565b610695565b6040516101d6949392919061278a565b3480156102eb57600080fd5b506101f4610924565b34801561030057600080fd5b5061031461030f3660046123bf565b610929565b6040516101d69190612845565b34801561032d57600080fd5b5061024361033c3660046123bf565b610ab3565b34801561034d57600080fd5b50610356610d1c565b6040516101d6919061263b565b34801561036f57600080fd5b5061024361037e366004612432565b610d2b565b34801561038f57600080fd5b50610243610edc565b3480156103a457600080fd5b506101f4610f18565b3480156103b957600080fd5b506102436103c8366004612222565b610f1d565b3480156103d957600080fd5b50610356610ff2565b3480156103ee57600080fd5b506101f4611001565b34801561040357600080fd5b5061024361100d565b34801561041857600080fd5b50610356611092565b34801561042d57600080fd5b506101f46110a1565b34801561044257600080fd5b506101f461045136600461224c565b6110a7565b34801561046257600080fd5b506102436104713660046123bf565b6114c7565b34801561048257600080fd5b506101f4611731565b34801561049757600080fd5b506104ab6104a63660046123d7565b611755565b6040516101d69190612fcf565b6102436104c63660046123bf565b6117c4565b6004602052600090815260409020805460018201546002830154600784015460088501546009860154600a870154600b9097015495966001600160a01b0390951695939492939192909160ff8082169161010090041689565b61433090565b604051806040016040528060158152602001744d61726c696e20476f7665726e6f7220416c70686160581b81525081565b610566338383611989565b5050565b60056020526000908152604090205481565b7f8cad95687ba82c2ce50e74f7b754645e5117c3a5bec8151c0726d5857980a86681565b6002546001600160a01b031633146105d35760405162461bcd60e51b81526004016105ca9061299e565b60405180910390fd5b600080546040516001600160a01b0390911691630825f38f918391906105fd90879060200161263b565b604051602081830303815290604052856040518563ffffffff1660e01b815260040161062c9493929190612668565b600060405180830381600087803b15801561064657600080fd5b505af115801561065a573d6000803e3d6000fd5b505050506040513d6000823e601f3d908101601f19168201604052610682919081019061234c565b505050565b6901b1ae4d6e2ef500000090565b6060806060806000600460008781526020019081526020016000209050806003018160040182600501836006018380548060200260200160405190810160405280929190818152602001828054801561071757602002820191906000526020600020905b81546001600160a01b031681526001909101906020018083116106f9575b505050505093508280548060200260200160405190810160405280929190818152602001828054801561076957602002820191906000526020600020905b815481526020019060010190808311610755575b5050505050925081805480602002602001604051908101604052809291908181526020016000905b8282101561083c5760008481526020908190208301805460408051601f60026000196101006001871615020190941693909304928301859004850281018501909152818152928301828280156108285780601f106107fd57610100808354040283529160200191610828565b820191906000526020600020905b81548152906001019060200180831161080b57829003601f168201915b505050505081526020019060010190610791565b50505050915080805480602002602001604051908101604052809291908181526020016000905b8282101561090e5760008481526020908190208301805460408051601f60026000196101006001871615020190941693909304928301859004850281018501909152818152928301828280156108fa5780601f106108cf576101008083540402835291602001916108fa565b820191906000526020600020905b8154815290600101906020018083116108dd57829003601f168201915b505050505081526020019060010190610863565b5050505090509450945094509450509193509193565b600190565b6000816003541015801561093d5750600082115b6109595760405162461bcd60e51b81526004016105ca90612a10565b6000828152600460205260409020600b81015460ff161561097e576002915050610aae565b80600701544311610993576000915050610aae565b806008015443116109a8576001915050610aae565b80600a015481600901541115806109c957506109c2610687565b8160090154105b156109d8576003915050610aae565b60028101546109eb576004915050610aae565b600b810154610100900460ff1615610a07576007915050610aae565b610a98816002015460008054906101000a90046001600160a01b03166001600160a01b031663c1a287e26040518163ffffffff1660e01b815260040160206040518083038186803b158015610a5b57600080fd5b505afa158015610a6f573d6000803e3d6000fd5b505050506040513d601f19601f82011682018060405250810190610a939190612334565b611b52565b4210610aa8576006915050610aae565b60059150505b919050565b6000610abe82610929565b90506007816007811115610ace57fe5b1415610aec5760405162461bcd60e51b81526004016105ca90612eaa565b60008281526004602052604090206002546001600160a01b0316331480610bb75750610b16611001565b60018054838201546001600160a01b039182169263782d6fe19290911690610b3f904390611b7e565b6040518363ffffffff1660e01b8152600401610b5c92919061264f565b60206040518083038186803b158015610b7457600080fd5b505afa158015610b88573d6000803e3d6000fd5b505050506040513d601f19601f82011682018060405250810190610bac9190612488565b6001600160601b0316105b610bd35760405162461bcd60e51b81526004016105ca90612c76565b600b8101805460ff1916600117905560005b6003820154811015610cdf576000546003830180546001600160a01b039092169163591fcdfe919084908110610c1757fe5b6000918252602090912001546004850180546001600160a01b039092169185908110610c3f57fe5b9060005260206000200154856005018581548110610c5957fe5b90600052602060002001866006018681548110610c7257fe5b9060005260206000200187600201546040518663ffffffff1660e01b8152600401610ca1959493929190612751565b600060405180830381600087803b158015610cbb57600080fd5b505af1158015610ccf573d6000803e3d6000fd5b505060019092019150610be59050565b507f789cf55be980739dad1d0699b93b58e806b51c9d96619bfa8fe0a28abaa7b30c83604051610d0f91906127e2565b60405180910390a1505050565b6002546001600160a01b031681565b6040805180820190915260158152744d61726c696e20476f7665726e6f7220416c70686160581b60209091015260007f8cad95687ba82c2ce50e74f7b754645e5117c3a5bec8151c0726d5857980a8667f37bc407a8c335d268e200f7c1e5054743f95a56373a8a102b4142e8aa2546b48610da4611ba6565b30604051602001610db894939291906127eb565b60405160208183030381529060405280519060200120905060007f8e25870c07e0b0b3884c78da52790939a455c275406c44ae8b434b692fb916ee8787604051602001610e079392919061280f565b60405160208183030381529060405280519060200120905060008282604051602001610e34929190612620565b604051602081830303815290604052805190602001209050600060018288888860405160008152602001604052604051610e719493929190612827565b6020604051602081039080840390855afa158015610e93573d6000803e3d6000fd5b5050604051601f1901519150506001600160a01b038116610ec65760405162461bcd60e51b81526004016105ca90612dd8565b610ed1818a8a611989565b505050505050505050565b6002546001600160a01b03163314610f065760405162461bcd60e51b81526004016105ca90612f79565b600280546001600160a01b0319169055565b600a90565b6002546001600160a01b03163314610f475760405162461bcd60e51b81526004016105ca90612b29565b600080546040516001600160a01b0390911691633a66f90191839190610f7190879060200161263b565b604051602081830303815290604052856040518563ffffffff1660e01b8152600401610fa09493929190612668565b602060405180830381600087803b158015610fba57600080fd5b505af1158015610fce573d6000803e3d6000fd5b505050506040513d601f19601f820116820180604052508101906106829190612334565b6001546001600160a01b031681565b670de0b6b3a764000090565b6002546001600160a01b031633146110375760405162461bcd60e51b81526004016105ca9061286c565b6000805460408051630e18b68160e01b815290516001600160a01b0390921692630e18b6819260048084019382900301818387803b15801561107857600080fd5b505af115801561108c573d6000803e3d6000fd5b50505050565b6000546001600160a01b031681565b60035481565b60006110b1611001565b600180546001600160a01b03169063782d6fe19033906110d2904390611b7e565b6040518363ffffffff1660e01b81526004016110ef92919061264f565b60206040518083038186803b15801561110757600080fd5b505afa15801561111b573d6000803e3d6000fd5b505050506040513d601f19601f8201168201806040525081019061113f9190612488565b6001600160601b0316116111655760405162461bcd60e51b81526004016105ca90612d7b565b84518651148015611177575083518651145b8015611184575082518651145b6111a05760405162461bcd60e51b81526004016105ca90612c0c565b85516111be5760405162461bcd60e51b81526004016105ca90612d2f565b6111c6610f18565b865111156111e65760405162461bcd60e51b81526004016105ca90612b99565b33600090815260056020526040902054801561126357600061120782610929565b9050600181600781111561121757fe5b14156112355760405162461bcd60e51b81526004016105ca90612e27565b600081600781111561124357fe5b14156112615760405162461bcd60e51b81526004016105ca90612aa6565b505b600061127143610a93610924565b9050600061128182610a93610524565b6003805460010190559050611294611d09565b604051806101a001604052806003548152602001336001600160a01b03168152602001600081526020018b81526020018a815260200189815260200188815260200184815260200183815260200160008152602001600081526020016000151581526020016000151581525090508060046000836000015181526020019081526020016000206000820151816000015560208201518160010160006101000a8154816001600160a01b0302191690836001600160a01b03160217905550604082015181600201556060820151816003019080519060200190611377929190611d7e565b5060808201518051611393916004840191602090910190611de3565b5060a082015180516113af916005840191602090910190611e2a565b5060c082015180516113cb916006840191602090910190611e83565b5060e082015181600701556101008201518160080155610120820151816009015561014082015181600a015561016082015181600b0160006101000a81548160ff02191690831515021790555061018082015181600b0160016101000a81548160ff02191690831515021790555090505080600001516005600083602001516001600160a01b03166001600160a01b03168152602001908152602001600020819055507f7d84a6263ae0d98d3329bd7b46bb4e8d6f98cd35a7adb45c274c8b7fd5ebd5e08160000151338c8c8c8c89898e6040516114b199989796959493929190612ffd565b60405180910390a1519998505050505050505050565b60046114d282610929565b60078111156114dd57fe5b146114fa5760405162461bcd60e51b81526004016105ca906128c9565b600081815260046020818152604080842084548251630d48571f60e31b8152925191959461154f9442946001600160a01b0390931693636a42b8f8938084019390829003018186803b158015610a5b57600080fd5b905060005b60038301548110156116f7576116ef83600301828154811061157257fe5b6000918252602090912001546004850180546001600160a01b03909216918490811061159a57fe5b90600052602060002001548560050184815481106115b457fe5b600091825260209182902001805460408051601f60026000196101006001871615020190941693909304928301859004850281018501909152818152928301828280156116425780601f1061161757610100808354040283529160200191611642565b820191906000526020600020905b81548152906001019060200180831161162557829003601f168201915b505050505086600601858154811061165657fe5b600091825260209182902001805460408051601f60026000196101006001871615020190941693909304928301859004850281018501909152818152928301828280156116e45780601f106116b9576101008083540402835291602001916116e4565b820191906000526020600020905b8154815290600101906020018083116116c757829003601f168201915b505050505086611baa565b600101611554565b50600282018190556040517f9a2e42fd6722813d69113e7d0079d3d940171428df7373df9c7f7617cfda289290610d0f90859084906130e1565b7f8e25870c07e0b0b3884c78da52790939a455c275406c44ae8b434b692fb916ee81565b61175d611edc565b5060008281526004602090815260408083206001600160a01b0385168452600c018252918290208251606081018452905460ff80821615158352610100820416151592820192909252620100009091046001600160601b0316918101919091525b92915050565b60056117cf82610929565b60078111156117da57fe5b146117f75760405162461bcd60e51b81526004016105ca90612933565b6000818152600460205260408120600b8101805461ff001916610100179055905b600382015481101561194d576000546004830180546001600160a01b0390921691630825f38f91908490811061184a57fe5b906000526020600020015484600301848154811061186457fe5b6000918252602090912001546004860180546001600160a01b03909216918690811061188c57fe5b90600052602060002001548660050186815481106118a657fe5b906000526020600020018760060187815481106118bf57fe5b9060005260206000200188600201546040518763ffffffff1660e01b81526004016118ee959493929190612751565b6000604051808303818588803b15801561190757600080fd5b505af115801561191b573d6000803e3d6000fd5b50505050506040513d6000823e601f3d908101601f19168201604052611944919081019061234c565b50600101611818565b507f712ae1383f79ac853f8d882153778e0260ef8f03b504e2866e0593e04d2b291f8260405161197d91906127e2565b60405180910390a15050565b600161199483610929565b600781111561199f57fe5b146119bc5760405162461bcd60e51b81526004016105ca90612f00565b60008281526004602090815260408083206001600160a01b0387168452600c8101909252909120805460ff1615611a055760405162461bcd60e51b81526004016105ca90612a59565b600154600783015460405163782d6fe160e01b81526000926001600160a01b03169163782d6fe191611a3b918a9160040161264f565b60206040518083038186803b158015611a5357600080fd5b505afa158015611a67573d6000803e3d6000fd5b505050506040513d601f19601f82011682018060405250810190611a8b9190612488565b90508315611ab457611aaa8360090154826001600160601b0316611b52565b6009840155611ad1565b611acb83600a0154826001600160601b0316611b52565b600a8401555b8154600160ff199091161761ff00191661010085151502176dffffffffffffffffffffffff00001916620100006001600160601b038316021782556040517f877856338e13f63d0c36822ff0ef736b80934cd90574a3a5bc9262c39d217c4690611b429088908890889086906126d4565b60405180910390a1505050505050565b600082820183811015611b775760405162461bcd60e51b81526004016105ca90612be1565b9392505050565b600082821115611ba05760405162461bcd60e51b81526004016105ca90612f4a565b50900390565b4690565b6000546040516001600160a01b039091169063f2b0653790611bd89088908890889088908890602001612705565b604051602081830303815290604052805190602001206040518263ffffffff1660e01b8152600401611c0a91906127e2565b60206040518083038186803b158015611c2257600080fd5b505afa158015611c36573d6000803e3d6000fd5b505050506040513d601f19601f82011682018060405250810190611c5a9190612318565b15611c775760405162461bcd60e51b81526004016105ca90612cc5565b600054604051633a66f90160e01b81526001600160a01b0390911690633a66f90190611caf9088908890889088908890600401612705565b602060405180830381600087803b158015611cc957600080fd5b505af1158015611cdd573d6000803e3d6000fd5b505050506040513d601f19601f82011682018060405250810190611d019190612334565b505050505050565b604051806101a001604052806000815260200160006001600160a01b031681526020016000815260200160608152602001606081526020016060815260200160608152602001600081526020016000815260200160008152602001600081526020016000151581526020016000151581525090565b828054828255906000526020600020908101928215611dd3579160200282015b82811115611dd357825182546001600160a01b0319166001600160a01b03909116178255602090920191600190910190611d9e565b50611ddf929150611efc565b5090565b828054828255906000526020600020908101928215611e1e579160200282015b82811115611e1e578251825591602001919060010190611e03565b50611ddf929150611f1b565b828054828255906000526020600020908101928215611e77579160200282015b82811115611e775782518051611e67918491602090910190611f30565b5091602001919060010190611e4a565b50611ddf929150611f9d565b828054828255906000526020600020908101928215611ed0579160200282015b82811115611ed05782518051611ec0918491602090910190611f30565b5091602001919060010190611ea3565b50611ddf929150611fba565b604080516060810182526000808252602082018190529181019190915290565b5b80821115611ddf5780546001600160a01b0319168155600101611efd565b5b80821115611ddf5760008155600101611f1c565b828054600181600116156101000203166002900490600052602060002090601f016020900481019282601f10611f7157805160ff1916838001178555611e1e565b82800160010185558215611e1e5791820182811115611e1e578251825591602001919060010190611e03565b80821115611ddf576000611fb18282611fd7565b50600101611f9d565b80821115611ddf576000611fce8282611fd7565b50600101611fba565b50805460018160011615610100020316600290046000825580601f10611ffd575061201b565b601f01602090049060005260206000209081019061201b9190611f1b565b50565b80356001600160a01b03811681146117be57600080fd5b600082601f830112612045578081fd5b813561205861205382613116565b6130ef565b81815291506020808301908481018184028601820187101561207957600080fd5b60005b848110156120a05761208e888361201e565b8452928201929082019060010161207c565b505050505092915050565b600082601f8301126120bb578081fd5b81356120c961205382613116565b818152915060208083019084810160005b848110156120a0576120f1888484358a01016121b9565b845292820192908201906001016120da565b600082601f830112612113578081fd5b813561212161205382613116565b818152915060208083019084810160005b848110156120a057612149888484358a01016121b9565b84529282019290820190600101612132565b600082601f83011261216b578081fd5b813561217961205382613116565b81815291506020808301908481018184028601820187101561219a57600080fd5b60005b848110156120a05781358452928201929082019060010161219d565b600082601f8301126121c9578081fd5b81356121d761205382613136565b91508082528360208285010111156121ee57600080fd5b8060208401602084013760009082016020015292915050565b600060208284031215612218578081fd5b611b77838361201e565b60008060408385031215612234578081fd5b61223e848461201e565b946020939093013593505050565b600080600080600060a08688031215612263578081fd5b853567ffffffffffffffff8082111561227a578283fd5b61228689838a01612035565b9650602088013591508082111561229b578283fd5b6122a789838a0161215b565b955060408801359150808211156122bc578283fd5b6122c889838a01612103565b945060608801359150808211156122dd578283fd5b6122e989838a016120ab565b935060808801359150808211156122fe578283fd5b5061230b888289016121b9565b9150509295509295909350565b600060208284031215612329578081fd5b8151611b7781613192565b600060208284031215612345578081fd5b5051919050565b60006020828403121561235d578081fd5b815167ffffffffffffffff811115612373578182fd5b8201601f81018413612383578182fd5b805161239161205382613136565b8181528560208385010111156123a5578384fd5b6123b6826020830160208601613166565b95945050505050565b6000602082840312156123d0578081fd5b5035919050565b600080604083850312156123e9578182fd5b823591506123fa846020850161201e565b90509250929050565b60008060408385031215612415578182fd5b82359150602083013561242781613192565b809150509250929050565b600080600080600060a08688031215612449578283fd5b85359450602086013561245b81613192565b9350604086013560ff81168114612470578384fd5b94979396509394606081013594506080013592915050565b600060208284031215612499578081fd5b81516001600160601b0381168114611b77578182fd5b6000815180845260208085019450808401835b838110156124e75781516001600160a01b0316875295820195908201906001016124c2565b509495945050505050565b6000815180845260208085019450848183028601828601855b85811015612535578383038952612523838351612571565b9885019892509084019060010161250b565b5090979650505050505050565b6000815180845260208085019450808401835b838110156124e757815187529582019590820190600101612555565b60008151808452612589816020860160208601613166565b601f01601f19169290920160200192915050565b600081546001808216600081146125bb57600181146125d957612617565b60028304607f16865260ff1983166020870152604086019350612617565b600283048087526125e98661315a565b60005b8281101561260d5781546020828b01015284820191506020810190506125ec565b8801602001955050505b50505092915050565b61190160f01b81526002810192909252602282015260420190565b6001600160a01b0391909116815260200190565b6001600160a01b03929092168252602082015260400190565b600060018060a01b038616825284602083015260a06040830152601860a08301527f73657450656e64696e6741646d696e286164647265737329000000000000000060c083015260e060608301526126c360e0830185612571565b905082608083015295945050505050565b6001600160a01b039490941684526020840192909252151560408301526001600160601b0316606082015260800190565b600060018060a01b038716825285602083015260a0604083015261272c60a0830186612571565b828103606084015261273e8186612571565b9150508260808301529695505050505050565b600060018060a01b038716825285602083015260a0604083015261277860a083018661259d565b828103606084015261273e818661259d565b60006080825261279d60808301876124af565b82810360208401526127af8187612542565b905082810360408401526127c381866124f2565b905082810360608401526127d781856124f2565b979650505050505050565b90815260200190565b938452602084019290925260408301526001600160a01b0316606082015260800190565b92835260208301919091521515604082015260600190565b93845260ff9290921660208401526040830152606082015260800190565b602081016008831061285357fe5b91905290565b600060208252611b776020830184612571565b60208082526039908201527f476f7665726e6f72416c7068613a3a5f5f61636365707441646d696e3a20736560408201527f6e646572206d75737420626520676f7620677561726469616e00000000000000606082015260800190565b60208082526044908201527f476f7665726e6f72416c7068613a3a71756575653a2070726f706f73616c206360408201527f616e206f6e6c79206265207175657565642069662069742069732073756363656060820152631959195960e21b608082015260a00190565b60208082526045908201527f476f7665726e6f72416c7068613a3a657865637574653a2070726f706f73616c60408201527f2063616e206f6e6c7920626520657865637574656420696620697420697320716060820152641d595d595960da1b608082015260a00190565b6020808252604c908201527f476f7665726e6f72416c7068613a3a5f5f6578656375746553657454696d656c60408201527f6f636b50656e64696e6741646d696e3a2073656e646572206d7573742062652060608201526b33b7bb1033bab0b93234b0b760a11b608082015260a00190565b60208082526029908201527f476f7665726e6f72416c7068613a3a73746174653a20696e76616c69642070726040820152681bdc1bdcd85b081a5960ba1b606082015260800190565b6020808252602d908201527f476f7665726e6f72416c7068613a3a5f63617374566f74653a20766f7465722060408201526c185b1c9958591e481d9bdd1959609a1b606082015260800190565b60208082526059908201527f476f7665726e6f72416c7068613a3a70726f706f73653a206f6e65206c69766560408201527f2070726f706f73616c207065722070726f706f7365722c20666f756e6420616e60608201527f20616c72656164792070656e64696e672070726f706f73616c00000000000000608082015260a00190565b6020808252604a908201527f476f7665726e6f72416c7068613a3a5f5f717565756553657454696d656c6f6360408201527f6b50656e64696e6741646d696e3a2073656e646572206d75737420626520676f6060820152693b1033bab0b93234b0b760b11b608082015260a00190565b60208082526028908201527f476f7665726e6f72416c7068613a3a70726f706f73653a20746f6f206d616e7960408201526720616374696f6e7360c01b606082015260800190565b6020808252601190820152706164646974696f6e206f766572666c6f7760781b604082015260600190565b60208082526044908201527f476f7665726e6f72416c7068613a3a70726f706f73653a2070726f706f73616c60408201527f2066756e6374696f6e20696e666f726d6174696f6e206172697479206d69736d6060820152630c2e8c6d60e31b608082015260a00190565b6020808252602f908201527f476f7665726e6f72416c7068613a3a63616e63656c3a2070726f706f7365722060408201526e18589bdd99481d1a1c995cda1bdb19608a1b606082015260800190565b60208082526044908201527f476f7665726e6f72416c7068613a3a5f71756575654f725265766572743a207060408201527f726f706f73616c20616374696f6e20616c7265616479207175657565642061746060820152632065746160e01b608082015260a00190565b6020808252602c908201527f476f7665726e6f72416c7068613a3a70726f706f73653a206d7573742070726f60408201526b7669646520616374696f6e7360a01b606082015260800190565b6020808252603f908201527f476f7665726e6f72416c7068613a3a70726f706f73653a2070726f706f73657260408201527f20766f7465732062656c6f772070726f706f73616c207468726573686f6c6400606082015260800190565b6020808252602f908201527f476f7665726e6f72416c7068613a3a63617374566f746542795369673a20696e60408201526e76616c6964207369676e617475726560881b606082015260800190565b60208082526058908201527f476f7665726e6f72416c7068613a3a70726f706f73653a206f6e65206c69766560408201527f2070726f706f73616c207065722070726f706f7365722c20666f756e6420616e60608201527f20616c7265616479206163746976652070726f706f73616c0000000000000000608082015260a00190565b60208082526036908201527f476f7665726e6f72416c7068613a3a63616e63656c3a2063616e6e6f742063616040820152751b98d95b08195e1958dd5d1959081c1c9bdc1bdcd85b60521b606082015260800190565b6020808252602a908201527f476f7665726e6f72416c7068613a3a5f63617374566f74653a20766f74696e67604082015269081a5cc818db1bdcd95960b21b606082015260800190565b6020808252601590820152747375627472616374696f6e20756e646572666c6f7760581b604082015260600190565b60208082526036908201527f476f7665726e6f72416c7068613a3a5f5f61626469636174653a2073656e6465604082015275391036bab9ba1031329033b7bb1033bab0b93234b0b760511b606082015260800190565b8151151581526020808301511515908201526040918201516001600160601b03169181019190915260600190565b8981526001600160a01b0389166020820152610120604082018190526000906130288382018b6124af565b9050828103606084015261303c818a612542565b9050828103608084015261305081896124f2565b905082810360a084015261306481886124f2565b90508560c08401528460e08401528281036101008401526130858185612571565b9c9b505050505050505050505050565b9889526001600160a01b0397909716602089015260408801959095526060870193909352608086019190915260a085015260c0840152151560e083015215156101008201526101200190565b918252602082015260400190565b60405181810167ffffffffffffffff8111828210171561310e57600080fd5b604052919050565b600067ffffffffffffffff82111561312c578081fd5b5060209081020190565b600067ffffffffffffffff82111561314c578081fd5b50601f01601f191660200190565b60009081526020902090565b60005b83811015613181578181015183820152602001613169565b8381111561108c5750506000910152565b801515811461201b57600080fdfea2646970667358221220a8e7b02870ea98dc50a0ee1696c643d9d1929cd2bc1758eb8877e3bb65f78ec364736f6c634300060c0033",
          "opcodes": "PUSH1 0x80 PUSH1 0x40 MSTORE CALLVALUE DUP1 ISZERO PUSH3 0x11 JUMPI PUSH1 0x0 DUP1 REVERT JUMPDEST POP PUSH1 0x40 MLOAD PUSH3 0x32C9 CODESIZE SUB DUP1 PUSH3 0x32C9 DUP4 CODECOPY DUP2 ADD PUSH1 0x40 DUP2 SWAP1 MSTORE PUSH3 0x34 SWAP2 PUSH3 0x77 JUMP JUMPDEST PUSH1 0x0 DUP1 SLOAD PUSH1 0x1 PUSH1 0x1 PUSH1 0xA0 SHL SUB SWAP5 DUP6 AND PUSH1 0x1 PUSH1 0x1 PUSH1 0xA0 SHL SUB NOT SWAP2 DUP3 AND OR SWAP1 SWAP2 SSTORE PUSH1 0x1 DUP1 SLOAD SWAP4 DUP6 AND SWAP4 DUP3 AND SWAP4 SWAP1 SWAP4 OR SWAP1 SWAP3 SSTORE PUSH1 0x2 DUP1 SLOAD SWAP2 SWAP1 SWAP4 AND SWAP2 AND OR SWAP1 SSTORE PUSH3 0xE3 JUMP JUMPDEST PUSH1 0x0 DUP1 PUSH1 0x0 PUSH1 0x60 DUP5 DUP7 SUB SLT ISZERO PUSH3 0x8C JUMPI DUP3 DUP4 REVERT JUMPDEST DUP4 MLOAD PUSH3 0x99 DUP2 PUSH3 0xCA JUMP JUMPDEST PUSH1 0x20 DUP6 ADD MLOAD SWAP1 SWAP4 POP PUSH3 0xAC DUP2 PUSH3 0xCA JUMP JUMPDEST PUSH1 0x40 DUP6 ADD MLOAD SWAP1 SWAP3 POP PUSH3 0xBF DUP2 PUSH3 0xCA JUMP JUMPDEST DUP1 SWAP2 POP POP SWAP3 POP SWAP3 POP SWAP3 JUMP JUMPDEST PUSH1 0x1 PUSH1 0x1 PUSH1 0xA0 SHL SUB DUP2 AND DUP2 EQ PUSH3 0xE0 JUMPI PUSH1 0x0 DUP1 REVERT JUMPDEST POP JUMP JUMPDEST PUSH2 0x31D6 DUP1 PUSH3 0xF3 PUSH1 0x0 CODECOPY PUSH1 0x0 RETURN INVALID PUSH1 0x80 PUSH1 0x40 MSTORE PUSH1 0x4 CALLDATASIZE LT PUSH2 0x19C JUMPI PUSH1 0x0 CALLDATALOAD PUSH1 0xE0 SHR DUP1 PUSH4 0x4634C61F GT PUSH2 0xEC JUMPI DUP1 PUSH4 0xD33219B4 GT PUSH2 0x8A JUMPI DUP1 PUSH4 0xDDF0B009 GT PUSH2 0x64 JUMPI DUP1 PUSH4 0xDDF0B009 EQ PUSH2 0x456 JUMPI DUP1 PUSH4 0xDEAAA7CC EQ PUSH2 0x476 JUMPI DUP1 PUSH4 0xE23A9A52 EQ PUSH2 0x48B JUMPI DUP1 PUSH4 0xFE0D94C1 EQ PUSH2 0x4B8 JUMPI PUSH2 0x19C JUMP JUMPDEST DUP1 PUSH4 0xD33219B4 EQ PUSH2 0x40C JUMPI DUP1 PUSH4 0xDA35C664 EQ PUSH2 0x421 JUMPI DUP1 PUSH4 0xDA95691A EQ PUSH2 0x436 JUMPI PUSH2 0x19C JUMP JUMPDEST DUP1 PUSH4 0x91500671 GT PUSH2 0xC6 JUMPI DUP1 PUSH4 0x91500671 EQ PUSH2 0x3AD JUMPI DUP1 PUSH4 0xAD0D7F7D EQ PUSH2 0x3CD JUMPI DUP1 PUSH4 0xB58131B0 EQ PUSH2 0x3E2 JUMPI DUP1 PUSH4 0xB9A61961 EQ PUSH2 0x3F7 JUMPI PUSH2 0x19C JUMP JUMPDEST DUP1 PUSH4 0x4634C61F EQ PUSH2 0x363 JUMPI DUP1 PUSH4 0x760FBC13 EQ PUSH2 0x383 JUMPI DUP1 PUSH4 0x7BDBE4D0 EQ PUSH2 0x398 JUMPI PUSH2 0x19C JUMP JUMPDEST DUP1 PUSH4 0x21F43E42 GT PUSH2 0x159 JUMPI DUP1 PUSH4 0x3932ABB1 GT PUSH2 0x133 JUMPI DUP1 PUSH4 0x3932ABB1 EQ PUSH2 0x2DF JUMPI DUP1 PUSH4 0x3E4F49E6 EQ PUSH2 0x2F4 JUMPI DUP1 PUSH4 0x40E58EE5 EQ PUSH2 0x321 JUMPI DUP1 PUSH4 0x452A9320 EQ PUSH2 0x341 JUMPI PUSH2 0x19C JUMP JUMPDEST DUP1 PUSH4 0x21F43E42 EQ PUSH2 0x27A JUMPI DUP1 PUSH4 0x24BC1A64 EQ PUSH2 0x29A JUMPI DUP1 PUSH4 0x328DD982 EQ PUSH2 0x2AF JUMPI PUSH2 0x19C JUMP JUMPDEST DUP1 PUSH4 0x13CF08B EQ PUSH2 0x1A1 JUMPI DUP1 PUSH4 0x2A251A3 EQ PUSH2 0x1DF JUMPI DUP1 PUSH4 0x6FDDE03 EQ PUSH2 0x201 JUMPI DUP1 PUSH4 0x15373E3D EQ PUSH2 0x223 JUMPI DUP1 PUSH4 0x17977C61 EQ PUSH2 0x245 JUMPI DUP1 PUSH4 0x20606B70 EQ PUSH2 0x265 JUMPI JUMPDEST PUSH1 0x0 DUP1 REVERT JUMPDEST CALLVALUE DUP1 ISZERO PUSH2 0x1AD JUMPI PUSH1 0x0 DUP1 REVERT JUMPDEST POP PUSH2 0x1C1 PUSH2 0x1BC CALLDATASIZE PUSH1 0x4 PUSH2 0x23BF JUMP JUMPDEST PUSH2 0x4CB JUMP JUMPDEST PUSH1 0x40 MLOAD PUSH2 0x1D6 SWAP10 SWAP9 SWAP8 SWAP7 SWAP6 SWAP5 SWAP4 SWAP3 SWAP2 SWAP1 PUSH2 0x3095 JUMP JUMPDEST PUSH1 0x40 MLOAD DUP1 SWAP2 SUB SWAP1 RETURN JUMPDEST CALLVALUE DUP1 ISZERO PUSH2 0x1EB JUMPI PUSH1 0x0 DUP1 REVERT JUMPDEST POP PUSH2 0x1F4 PUSH2 0x524 JUMP JUMPDEST PUSH1 0x40 MLOAD PUSH2 0x1D6 SWAP2 SWAP1 PUSH2 0x27E2 JUMP JUMPDEST CALLVALUE DUP1 ISZERO PUSH2 0x20D JUMPI PUSH1 0x0 DUP1 REVERT JUMPDEST POP PUSH2 0x216 PUSH2 0x52A JUMP JUMPDEST PUSH1 0x40 MLOAD PUSH2 0x1D6 SWAP2 SWAP1 PUSH2 0x2859 JUMP JUMPDEST CALLVALUE DUP1 ISZERO PUSH2 0x22F JUMPI PUSH1 0x0 DUP1 REVERT JUMPDEST POP PUSH2 0x243 PUSH2 0x23E CALLDATASIZE PUSH1 0x4 PUSH2 0x2403 JUMP JUMPDEST PUSH2 0x55B JUMP JUMPDEST STOP JUMPDEST CALLVALUE DUP1 ISZERO PUSH2 0x251 JUMPI PUSH1 0x0 DUP1 REVERT JUMPDEST POP PUSH2 0x1F4 PUSH2 0x260 CALLDATASIZE PUSH1 0x4 PUSH2 0x2207 JUMP JUMPDEST PUSH2 0x56A JUMP JUMPDEST CALLVALUE DUP1 ISZERO PUSH2 0x271 JUMPI PUSH1 0x0 DUP1 REVERT JUMPDEST POP PUSH2 0x1F4 PUSH2 0x57C JUMP JUMPDEST CALLVALUE DUP1 ISZERO PUSH2 0x286 JUMPI PUSH1 0x0 DUP1 REVERT JUMPDEST POP PUSH2 0x243 PUSH2 0x295 CALLDATASIZE PUSH1 0x4 PUSH2 0x2222 JUMP JUMPDEST PUSH2 0x5A0 JUMP JUMPDEST CALLVALUE DUP1 ISZERO PUSH2 0x2A6 JUMPI PUSH1 0x0 DUP1 REVERT JUMPDEST POP PUSH2 0x1F4 PUSH2 0x687 JUMP JUMPDEST CALLVALUE DUP1 ISZERO PUSH2 0x2BB JUMPI PUSH1 0x0 DUP1 REVERT JUMPDEST POP PUSH2 0x2CF PUSH2 0x2CA CALLDATASIZE PUSH1 0x4 PUSH2 0x23BF JUMP JUMPDEST PUSH2 0x695 JUMP JUMPDEST PUSH1 0x40 MLOAD PUSH2 0x1D6 SWAP5 SWAP4 SWAP3 SWAP2 SWAP1 PUSH2 0x278A JUMP JUMPDEST CALLVALUE DUP1 ISZERO PUSH2 0x2EB JUMPI PUSH1 0x0 DUP1 REVERT JUMPDEST POP PUSH2 0x1F4 PUSH2 0x924 JUMP JUMPDEST CALLVALUE DUP1 ISZERO PUSH2 0x300 JUMPI PUSH1 0x0 DUP1 REVERT JUMPDEST POP PUSH2 0x314 PUSH2 0x30F CALLDATASIZE PUSH1 0x4 PUSH2 0x23BF JUMP JUMPDEST PUSH2 0x929 JUMP JUMPDEST PUSH1 0x40 MLOAD PUSH2 0x1D6 SWAP2 SWAP1 PUSH2 0x2845 JUMP JUMPDEST CALLVALUE DUP1 ISZERO PUSH2 0x32D JUMPI PUSH1 0x0 DUP1 REVERT JUMPDEST POP PUSH2 0x243 PUSH2 0x33C CALLDATASIZE PUSH1 0x4 PUSH2 0x23BF JUMP JUMPDEST PUSH2 0xAB3 JUMP JUMPDEST CALLVALUE DUP1 ISZERO PUSH2 0x34D JUMPI PUSH1 0x0 DUP1 REVERT JUMPDEST POP PUSH2 0x356 PUSH2 0xD1C JUMP JUMPDEST PUSH1 0x40 MLOAD PUSH2 0x1D6 SWAP2 SWAP1 PUSH2 0x263B JUMP JUMPDEST CALLVALUE DUP1 ISZERO PUSH2 0x36F JUMPI PUSH1 0x0 DUP1 REVERT JUMPDEST POP PUSH2 0x243 PUSH2 0x37E CALLDATASIZE PUSH1 0x4 PUSH2 0x2432 JUMP JUMPDEST PUSH2 0xD2B JUMP JUMPDEST CALLVALUE DUP1 ISZERO PUSH2 0x38F JUMPI PUSH1 0x0 DUP1 REVERT JUMPDEST POP PUSH2 0x243 PUSH2 0xEDC JUMP JUMPDEST CALLVALUE DUP1 ISZERO PUSH2 0x3A4 JUMPI PUSH1 0x0 DUP1 REVERT JUMPDEST POP PUSH2 0x1F4 PUSH2 0xF18 JUMP JUMPDEST CALLVALUE DUP1 ISZERO PUSH2 0x3B9 JUMPI PUSH1 0x0 DUP1 REVERT JUMPDEST POP PUSH2 0x243 PUSH2 0x3C8 CALLDATASIZE PUSH1 0x4 PUSH2 0x2222 JUMP JUMPDEST PUSH2 0xF1D JUMP JUMPDEST CALLVALUE DUP1 ISZERO PUSH2 0x3D9 JUMPI PUSH1 0x0 DUP1 REVERT JUMPDEST POP PUSH2 0x356 PUSH2 0xFF2 JUMP JUMPDEST CALLVALUE DUP1 ISZERO PUSH2 0x3EE JUMPI PUSH1 0x0 DUP1 REVERT JUMPDEST POP PUSH2 0x1F4 PUSH2 0x1001 JUMP JUMPDEST CALLVALUE DUP1 ISZERO PUSH2 0x403 JUMPI PUSH1 0x0 DUP1 REVERT JUMPDEST POP PUSH2 0x243 PUSH2 0x100D JUMP JUMPDEST CALLVALUE DUP1 ISZERO PUSH2 0x418 JUMPI PUSH1 0x0 DUP1 REVERT JUMPDEST POP PUSH2 0x356 PUSH2 0x1092 JUMP JUMPDEST CALLVALUE DUP1 ISZERO PUSH2 0x42D JUMPI PUSH1 0x0 DUP1 REVERT JUMPDEST POP PUSH2 0x1F4 PUSH2 0x10A1 JUMP JUMPDEST CALLVALUE DUP1 ISZERO PUSH2 0x442 JUMPI PUSH1 0x0 DUP1 REVERT JUMPDEST POP PUSH2 0x1F4 PUSH2 0x451 CALLDATASIZE PUSH1 0x4 PUSH2 0x224C JUMP JUMPDEST PUSH2 0x10A7 JUMP JUMPDEST CALLVALUE DUP1 ISZERO PUSH2 0x462 JUMPI PUSH1 0x0 DUP1 REVERT JUMPDEST POP PUSH2 0x243 PUSH2 0x471 CALLDATASIZE PUSH1 0x4 PUSH2 0x23BF JUMP JUMPDEST PUSH2 0x14C7 JUMP JUMPDEST CALLVALUE DUP1 ISZERO PUSH2 0x482 JUMPI PUSH1 0x0 DUP1 REVERT JUMPDEST POP PUSH2 0x1F4 PUSH2 0x1731 JUMP JUMPDEST CALLVALUE DUP1 ISZERO PUSH2 0x497 JUMPI PUSH1 0x0 DUP1 REVERT JUMPDEST POP PUSH2 0x4AB PUSH2 0x4A6 CALLDATASIZE PUSH1 0x4 PUSH2 0x23D7 JUMP JUMPDEST PUSH2 0x1755 JUMP JUMPDEST PUSH1 0x40 MLOAD PUSH2 0x1D6 SWAP2 SWAP1 PUSH2 0x2FCF JUMP JUMPDEST PUSH2 0x243 PUSH2 0x4C6 CALLDATASIZE PUSH1 0x4 PUSH2 0x23BF JUMP JUMPDEST PUSH2 0x17C4 JUMP JUMPDEST PUSH1 0x4 PUSH1 0x20 MSTORE PUSH1 0x0 SWAP1 DUP2 MSTORE PUSH1 0x40 SWAP1 KECCAK256 DUP1 SLOAD PUSH1 0x1 DUP3 ADD SLOAD PUSH1 0x2 DUP4 ADD SLOAD PUSH1 0x7 DUP5 ADD SLOAD PUSH1 0x8 DUP6 ADD SLOAD PUSH1 0x9 DUP7 ADD SLOAD PUSH1 0xA DUP8 ADD SLOAD PUSH1 0xB SWAP1 SWAP8 ADD SLOAD SWAP6 SWAP7 PUSH1 0x1 PUSH1 0x1 PUSH1 0xA0 SHL SUB SWAP1 SWAP6 AND SWAP6 SWAP4 SWAP5 SWAP3 SWAP4 SWAP2 SWAP3 SWAP1 SWAP2 PUSH1 0xFF DUP1 DUP3 AND SWAP2 PUSH2 0x100 SWAP1 DIV AND DUP10 JUMP JUMPDEST PUSH2 0x4330 SWAP1 JUMP JUMPDEST PUSH1 0x40 MLOAD DUP1 PUSH1 0x40 ADD PUSH1 0x40 MSTORE DUP1 PUSH1 0x15 DUP2 MSTORE PUSH1 0x20 ADD PUSH21 0x4D61726C696E20476F7665726E6F7220416C706861 PUSH1 0x58 SHL DUP2 MSTORE POP DUP2 JUMP JUMPDEST PUSH2 0x566 CALLER DUP4 DUP4 PUSH2 0x1989 JUMP JUMPDEST POP POP JUMP JUMPDEST PUSH1 0x5 PUSH1 0x20 MSTORE PUSH1 0x0 SWAP1 DUP2 MSTORE PUSH1 0x40 SWAP1 KECCAK256 SLOAD DUP2 JUMP JUMPDEST PUSH32 0x8CAD95687BA82C2CE50E74F7B754645E5117C3A5BEC8151C0726D5857980A866 DUP2 JUMP JUMPDEST PUSH1 0x2 SLOAD PUSH1 0x1 PUSH1 0x1 PUSH1 0xA0 SHL SUB AND CALLER EQ PUSH2 0x5D3 JUMPI PUSH1 0x40 MLOAD PUSH3 0x461BCD PUSH1 0xE5 SHL DUP2 MSTORE PUSH1 0x4 ADD PUSH2 0x5CA SWAP1 PUSH2 0x299E JUMP JUMPDEST PUSH1 0x40 MLOAD DUP1 SWAP2 SUB SWAP1 REVERT JUMPDEST PUSH1 0x0 DUP1 SLOAD PUSH1 0x40 MLOAD PUSH1 0x1 PUSH1 0x1 PUSH1 0xA0 SHL SUB SWAP1 SWAP2 AND SWAP2 PUSH4 0x825F38F SWAP2 DUP4 SWAP2 SWAP1 PUSH2 0x5FD SWAP1 DUP8 SWAP1 PUSH1 0x20 ADD PUSH2 0x263B JUMP JUMPDEST PUSH1 0x40 MLOAD PUSH1 0x20 DUP2 DUP4 SUB SUB DUP2 MSTORE SWAP1 PUSH1 0x40 MSTORE DUP6 PUSH1 0x40 MLOAD DUP6 PUSH4 0xFFFFFFFF AND PUSH1 0xE0 SHL DUP2 MSTORE PUSH1 0x4 ADD PUSH2 0x62C SWAP5 SWAP4 SWAP3 SWAP2 SWAP1 PUSH2 0x2668 JUMP JUMPDEST PUSH1 0x0 PUSH1 0x40 MLOAD DUP1 DUP4 SUB DUP2 PUSH1 0x0 DUP8 DUP1 EXTCODESIZE ISZERO DUP1 ISZERO PUSH2 0x646 JUMPI PUSH1 0x0 DUP1 REVERT JUMPDEST POP GAS CALL ISZERO DUP1 ISZERO PUSH2 0x65A JUMPI RETURNDATASIZE PUSH1 0x0 DUP1 RETURNDATACOPY RETURNDATASIZE PUSH1 0x0 REVERT JUMPDEST POP POP POP POP PUSH1 0x40 MLOAD RETURNDATASIZE PUSH1 0x0 DUP3 RETURNDATACOPY PUSH1 0x1F RETURNDATASIZE SWAP1 DUP2 ADD PUSH1 0x1F NOT AND DUP3 ADD PUSH1 0x40 MSTORE PUSH2 0x682 SWAP2 SWAP1 DUP2 ADD SWAP1 PUSH2 0x234C JUMP JUMPDEST POP POP POP JUMP JUMPDEST PUSH10 0x1B1AE4D6E2EF5000000 SWAP1 JUMP JUMPDEST PUSH1 0x60 DUP1 PUSH1 0x60 DUP1 PUSH1 0x0 PUSH1 0x4 PUSH1 0x0 DUP8 DUP2 MSTORE PUSH1 0x20 ADD SWAP1 DUP2 MSTORE PUSH1 0x20 ADD PUSH1 0x0 KECCAK256 SWAP1 POP DUP1 PUSH1 0x3 ADD DUP2 PUSH1 0x4 ADD DUP3 PUSH1 0x5 ADD DUP4 PUSH1 0x6 ADD DUP4 DUP1 SLOAD DUP1 PUSH1 0x20 MUL PUSH1 0x20 ADD PUSH1 0x40 MLOAD SWAP1 DUP2 ADD PUSH1 0x40 MSTORE DUP1 SWAP3 SWAP2 SWAP1 DUP2 DUP2 MSTORE PUSH1 0x20 ADD DUP3 DUP1 SLOAD DUP1 ISZERO PUSH2 0x717 JUMPI PUSH1 0x20 MUL DUP3 ADD SWAP2 SWAP1 PUSH1 0x0 MSTORE PUSH1 0x20 PUSH1 0x0 KECCAK256 SWAP1 JUMPDEST DUP2 SLOAD PUSH1 0x1 PUSH1 0x1 PUSH1 0xA0 SHL SUB AND DUP2 MSTORE PUSH1 0x1 SWAP1 SWAP2 ADD SWAP1 PUSH1 0x20 ADD DUP1 DUP4 GT PUSH2 0x6F9 JUMPI JUMPDEST POP POP POP POP POP SWAP4 POP DUP3 DUP1 SLOAD DUP1 PUSH1 0x20 MUL PUSH1 0x20 ADD PUSH1 0x40 MLOAD SWAP1 DUP2 ADD PUSH1 0x40 MSTORE DUP1 SWAP3 SWAP2 SWAP1 DUP2 DUP2 MSTORE PUSH1 0x20 ADD DUP3 DUP1 SLOAD DUP1 ISZERO PUSH2 0x769 JUMPI PUSH1 0x20 MUL DUP3 ADD SWAP2 SWAP1 PUSH1 0x0 MSTORE PUSH1 0x20 PUSH1 0x0 KECCAK256 SWAP1 JUMPDEST DUP2 SLOAD DUP2 MSTORE PUSH1 0x20 ADD SWAP1 PUSH1 0x1 ADD SWAP1 DUP1 DUP4 GT PUSH2 0x755 JUMPI JUMPDEST POP POP POP POP POP SWAP3 POP DUP2 DUP1 SLOAD DUP1 PUSH1 0x20 MUL PUSH1 0x20 ADD PUSH1 0x40 MLOAD SWAP1 DUP2 ADD PUSH1 0x40 MSTORE DUP1 SWAP3 SWAP2 SWAP1 DUP2 DUP2 MSTORE PUSH1 0x20 ADD PUSH1 0x0 SWAP1 JUMPDEST DUP3 DUP3 LT ISZERO PUSH2 0x83C JUMPI PUSH1 0x0 DUP5 DUP2 MSTORE PUSH1 0x20 SWAP1 DUP2 SWAP1 KECCAK256 DUP4 ADD DUP1 SLOAD PUSH1 0x40 DUP1 MLOAD PUSH1 0x1F PUSH1 0x2 PUSH1 0x0 NOT PUSH2 0x100 PUSH1 0x1 DUP8 AND ISZERO MUL ADD SWAP1 SWAP5 AND SWAP4 SWAP1 SWAP4 DIV SWAP3 DUP4 ADD DUP6 SWAP1 DIV DUP6 MUL DUP2 ADD DUP6 ADD SWAP1 SWAP2 MSTORE DUP2 DUP2 MSTORE SWAP3 DUP4 ADD DUP3 DUP3 DUP1 ISZERO PUSH2 0x828 JUMPI DUP1 PUSH1 0x1F LT PUSH2 0x7FD JUMPI PUSH2 0x100 DUP1 DUP4 SLOAD DIV MUL DUP4 MSTORE SWAP2 PUSH1 0x20 ADD SWAP2 PUSH2 0x828 JUMP JUMPDEST DUP3 ADD SWAP2 SWAP1 PUSH1 0x0 MSTORE PUSH1 0x20 PUSH1 0x0 KECCAK256 SWAP1 JUMPDEST DUP2 SLOAD DUP2 MSTORE SWAP1 PUSH1 0x1 ADD SWAP1 PUSH1 0x20 ADD DUP1 DUP4 GT PUSH2 0x80B JUMPI DUP3 SWAP1 SUB PUSH1 0x1F AND DUP3 ADD SWAP2 JUMPDEST POP POP POP POP POP DUP2 MSTORE PUSH1 0x20 ADD SWAP1 PUSH1 0x1 ADD SWAP1 PUSH2 0x791 JUMP JUMPDEST POP POP POP POP SWAP2 POP DUP1 DUP1 SLOAD DUP1 PUSH1 0x20 MUL PUSH1 0x20 ADD PUSH1 0x40 MLOAD SWAP1 DUP2 ADD PUSH1 0x40 MSTORE DUP1 SWAP3 SWAP2 SWAP1 DUP2 DUP2 MSTORE PUSH1 0x20 ADD PUSH1 0x0 SWAP1 JUMPDEST DUP3 DUP3 LT ISZERO PUSH2 0x90E JUMPI PUSH1 0x0 DUP5 DUP2 MSTORE PUSH1 0x20 SWAP1 DUP2 SWAP1 KECCAK256 DUP4 ADD DUP1 SLOAD PUSH1 0x40 DUP1 MLOAD PUSH1 0x1F PUSH1 0x2 PUSH1 0x0 NOT PUSH2 0x100 PUSH1 0x1 DUP8 AND ISZERO MUL ADD SWAP1 SWAP5 AND SWAP4 SWAP1 SWAP4 DIV SWAP3 DUP4 ADD DUP6 SWAP1 DIV DUP6 MUL DUP2 ADD DUP6 ADD SWAP1 SWAP2 MSTORE DUP2 DUP2 MSTORE SWAP3 DUP4 ADD DUP3 DUP3 DUP1 ISZERO PUSH2 0x8FA JUMPI DUP1 PUSH1 0x1F LT PUSH2 0x8CF JUMPI PUSH2 0x100 DUP1 DUP4 SLOAD DIV MUL DUP4 MSTORE SWAP2 PUSH1 0x20 ADD SWAP2 PUSH2 0x8FA JUMP JUMPDEST DUP3 ADD SWAP2 SWAP1 PUSH1 0x0 MSTORE PUSH1 0x20 PUSH1 0x0 KECCAK256 SWAP1 JUMPDEST DUP2 SLOAD DUP2 MSTORE SWAP1 PUSH1 0x1 ADD SWAP1 PUSH1 0x20 ADD DUP1 DUP4 GT PUSH2 0x8DD JUMPI DUP3 SWAP1 SUB PUSH1 0x1F AND DUP3 ADD SWAP2 JUMPDEST POP POP POP POP POP DUP2 MSTORE PUSH1 0x20 ADD SWAP1 PUSH1 0x1 ADD SWAP1 PUSH2 0x863 JUMP JUMPDEST POP POP POP POP SWAP1 POP SWAP5 POP SWAP5 POP SWAP5 POP SWAP5 POP POP SWAP2 SWAP4 POP SWAP2 SWAP4 JUMP JUMPDEST PUSH1 0x1 SWAP1 JUMP JUMPDEST PUSH1 0x0 DUP2 PUSH1 0x3 SLOAD LT ISZERO DUP1 ISZERO PUSH2 0x93D JUMPI POP PUSH1 0x0 DUP3 GT JUMPDEST PUSH2 0x959 JUMPI PUSH1 0x40 MLOAD PUSH3 0x461BCD PUSH1 0xE5 SHL DUP2 MSTORE PUSH1 0x4 ADD PUSH2 0x5CA SWAP1 PUSH2 0x2A10 JUMP JUMPDEST PUSH1 0x0 DUP3 DUP2 MSTORE PUSH1 0x4 PUSH1 0x20 MSTORE PUSH1 0x40 SWAP1 KECCAK256 PUSH1 0xB DUP2 ADD SLOAD PUSH1 0xFF AND ISZERO PUSH2 0x97E JUMPI PUSH1 0x2 SWAP2 POP POP PUSH2 0xAAE JUMP JUMPDEST DUP1 PUSH1 0x7 ADD SLOAD NUMBER GT PUSH2 0x993 JUMPI PUSH1 0x0 SWAP2 POP POP PUSH2 0xAAE JUMP JUMPDEST DUP1 PUSH1 0x8 ADD SLOAD NUMBER GT PUSH2 0x9A8 JUMPI PUSH1 0x1 SWAP2 POP POP PUSH2 0xAAE JUMP JUMPDEST DUP1 PUSH1 0xA ADD SLOAD DUP2 PUSH1 0x9 ADD SLOAD GT ISZERO DUP1 PUSH2 0x9C9 JUMPI POP PUSH2 0x9C2 PUSH2 0x687 JUMP JUMPDEST DUP2 PUSH1 0x9 ADD SLOAD LT JUMPDEST ISZERO PUSH2 0x9D8 JUMPI PUSH1 0x3 SWAP2 POP POP PUSH2 0xAAE JUMP JUMPDEST PUSH1 0x2 DUP2 ADD SLOAD PUSH2 0x9EB JUMPI PUSH1 0x4 SWAP2 POP POP PUSH2 0xAAE JUMP JUMPDEST PUSH1 0xB DUP2 ADD SLOAD PUSH2 0x100 SWAP1 DIV PUSH1 0xFF AND ISZERO PUSH2 0xA07 JUMPI PUSH1 0x7 SWAP2 POP POP PUSH2 0xAAE JUMP JUMPDEST PUSH2 0xA98 DUP2 PUSH1 0x2 ADD SLOAD PUSH1 0x0 DUP1 SLOAD SWAP1 PUSH2 0x100 EXP SWAP1 DIV PUSH1 0x1 PUSH1 0x1 PUSH1 0xA0 SHL SUB AND PUSH1 0x1 PUSH1 0x1 PUSH1 0xA0 SHL SUB AND PUSH4 0xC1A287E2 PUSH1 0x40 MLOAD DUP2 PUSH4 0xFFFFFFFF AND PUSH1 0xE0 SHL DUP2 MSTORE PUSH1 0x4 ADD PUSH1 0x20 PUSH1 0x40 MLOAD DUP1 DUP4 SUB DUP2 DUP7 DUP1 EXTCODESIZE ISZERO DUP1 ISZERO PUSH2 0xA5B JUMPI PUSH1 0x0 DUP1 REVERT JUMPDEST POP GAS STATICCALL ISZERO DUP1 ISZERO PUSH2 0xA6F JUMPI RETURNDATASIZE PUSH1 0x0 DUP1 RETURNDATACOPY RETURNDATASIZE PUSH1 0x0 REVERT JUMPDEST POP POP POP POP PUSH1 0x40 MLOAD RETURNDATASIZE PUSH1 0x1F NOT PUSH1 0x1F DUP3 ADD AND DUP3 ADD DUP1 PUSH1 0x40 MSTORE POP DUP2 ADD SWAP1 PUSH2 0xA93 SWAP2 SWAP1 PUSH2 0x2334 JUMP JUMPDEST PUSH2 0x1B52 JUMP JUMPDEST TIMESTAMP LT PUSH2 0xAA8 JUMPI PUSH1 0x6 SWAP2 POP POP PUSH2 0xAAE JUMP JUMPDEST PUSH1 0x5 SWAP2 POP POP JUMPDEST SWAP2 SWAP1 POP JUMP JUMPDEST PUSH1 0x0 PUSH2 0xABE DUP3 PUSH2 0x929 JUMP JUMPDEST SWAP1 POP PUSH1 0x7 DUP2 PUSH1 0x7 DUP2 GT ISZERO PUSH2 0xACE JUMPI INVALID JUMPDEST EQ ISZERO PUSH2 0xAEC JUMPI PUSH1 0x40 MLOAD PUSH3 0x461BCD PUSH1 0xE5 SHL DUP2 MSTORE PUSH1 0x4 ADD PUSH2 0x5CA SWAP1 PUSH2 0x2EAA JUMP JUMPDEST PUSH1 0x0 DUP3 DUP2 MSTORE PUSH1 0x4 PUSH1 0x20 MSTORE PUSH1 0x40 SWAP1 KECCAK256 PUSH1 0x2 SLOAD PUSH1 0x1 PUSH1 0x1 PUSH1 0xA0 SHL SUB AND CALLER EQ DUP1 PUSH2 0xBB7 JUMPI POP PUSH2 0xB16 PUSH2 0x1001 JUMP JUMPDEST PUSH1 0x1 DUP1 SLOAD DUP4 DUP3 ADD SLOAD PUSH1 0x1 PUSH1 0x1 PUSH1 0xA0 SHL SUB SWAP2 DUP3 AND SWAP3 PUSH4 0x782D6FE1 SWAP3 SWAP1 SWAP2 AND SWAP1 PUSH2 0xB3F SWAP1 NUMBER SWAP1 PUSH2 0x1B7E JUMP JUMPDEST PUSH1 0x40 MLOAD DUP4 PUSH4 0xFFFFFFFF AND PUSH1 0xE0 SHL DUP2 MSTORE PUSH1 0x4 ADD PUSH2 0xB5C SWAP3 SWAP2 SWAP1 PUSH2 0x264F JUMP JUMPDEST PUSH1 0x20 PUSH1 0x40 MLOAD DUP1 DUP4 SUB DUP2 DUP7 DUP1 EXTCODESIZE ISZERO DUP1 ISZERO PUSH2 0xB74 JUMPI PUSH1 0x0 DUP1 REVERT JUMPDEST POP GAS STATICCALL ISZERO DUP1 ISZERO PUSH2 0xB88 JUMPI RETURNDATASIZE PUSH1 0x0 DUP1 RETURNDATACOPY RETURNDATASIZE PUSH1 0x0 REVERT JUMPDEST POP POP POP POP PUSH1 0x40 MLOAD RETURNDATASIZE PUSH1 0x1F NOT PUSH1 0x1F DUP3 ADD AND DUP3 ADD DUP1 PUSH1 0x40 MSTORE POP DUP2 ADD SWAP1 PUSH2 0xBAC SWAP2 SWAP1 PUSH2 0x2488 JUMP JUMPDEST PUSH1 0x1 PUSH1 0x1 PUSH1 0x60 SHL SUB AND LT JUMPDEST PUSH2 0xBD3 JUMPI PUSH1 0x40 MLOAD PUSH3 0x461BCD PUSH1 0xE5 SHL DUP2 MSTORE PUSH1 0x4 ADD PUSH2 0x5CA SWAP1 PUSH2 0x2C76 JUMP JUMPDEST PUSH1 0xB DUP2 ADD DUP1 SLOAD PUSH1 0xFF NOT AND PUSH1 0x1 OR SWAP1 SSTORE PUSH1 0x0 JUMPDEST PUSH1 0x3 DUP3 ADD SLOAD DUP2 LT ISZERO PUSH2 0xCDF JUMPI PUSH1 0x0 SLOAD PUSH1 0x3 DUP4 ADD DUP1 SLOAD PUSH1 0x1 PUSH1 0x1 PUSH1 0xA0 SHL SUB SWAP1 SWAP3 AND SWAP2 PUSH4 0x591FCDFE SWAP2 SWAP1 DUP5 SWAP1 DUP2 LT PUSH2 0xC17 JUMPI INVALID JUMPDEST PUSH1 0x0 SWAP2 DUP3 MSTORE PUSH1 0x20 SWAP1 SWAP2 KECCAK256 ADD SLOAD PUSH1 0x4 DUP6 ADD DUP1 SLOAD PUSH1 0x1 PUSH1 0x1 PUSH1 0xA0 SHL SUB SWAP1 SWAP3 AND SWAP2 DUP6 SWAP1 DUP2 LT PUSH2 0xC3F JUMPI INVALID JUMPDEST SWAP1 PUSH1 0x0 MSTORE PUSH1 0x20 PUSH1 0x0 KECCAK256 ADD SLOAD DUP6 PUSH1 0x5 ADD DUP6 DUP2 SLOAD DUP2 LT PUSH2 0xC59 JUMPI INVALID JUMPDEST SWAP1 PUSH1 0x0 MSTORE PUSH1 0x20 PUSH1 0x0 KECCAK256 ADD DUP7 PUSH1 0x6 ADD DUP7 DUP2 SLOAD DUP2 LT PUSH2 0xC72 JUMPI INVALID JUMPDEST SWAP1 PUSH1 0x0 MSTORE PUSH1 0x20 PUSH1 0x0 KECCAK256 ADD DUP8 PUSH1 0x2 ADD SLOAD PUSH1 0x40 MLOAD DUP7 PUSH4 0xFFFFFFFF AND PUSH1 0xE0 SHL DUP2 MSTORE PUSH1 0x4 ADD PUSH2 0xCA1 SWAP6 SWAP5 SWAP4 SWAP3 SWAP2 SWAP1 PUSH2 0x2751 JUMP JUMPDEST PUSH1 0x0 PUSH1 0x40 MLOAD DUP1 DUP4 SUB DUP2 PUSH1 0x0 DUP8 DUP1 EXTCODESIZE ISZERO DUP1 ISZERO PUSH2 0xCBB JUMPI PUSH1 0x0 DUP1 REVERT JUMPDEST POP GAS CALL ISZERO DUP1 ISZERO PUSH2 0xCCF JUMPI RETURNDATASIZE PUSH1 0x0 DUP1 RETURNDATACOPY RETURNDATASIZE PUSH1 0x0 REVERT JUMPDEST POP POP PUSH1 0x1 SWAP1 SWAP3 ADD SWAP2 POP PUSH2 0xBE5 SWAP1 POP JUMP JUMPDEST POP PUSH32 0x789CF55BE980739DAD1D0699B93B58E806B51C9D96619BFA8FE0A28ABAA7B30C DUP4 PUSH1 0x40 MLOAD PUSH2 0xD0F SWAP2 SWAP1 PUSH2 0x27E2 JUMP JUMPDEST PUSH1 0x40 MLOAD DUP1 SWAP2 SUB SWAP1 LOG1 POP POP POP JUMP JUMPDEST PUSH1 0x2 SLOAD PUSH1 0x1 PUSH1 0x1 PUSH1 0xA0 SHL SUB AND DUP2 JUMP JUMPDEST PUSH1 0x40 DUP1 MLOAD DUP1 DUP3 ADD SWAP1 SWAP2 MSTORE PUSH1 0x15 DUP2 MSTORE PUSH21 0x4D61726C696E20476F7665726E6F7220416C706861 PUSH1 0x58 SHL PUSH1 0x20 SWAP1 SWAP2 ADD MSTORE PUSH1 0x0 PUSH32 0x8CAD95687BA82C2CE50E74F7B754645E5117C3A5BEC8151C0726D5857980A866 PUSH32 0x37BC407A8C335D268E200F7C1E5054743F95A56373A8A102B4142E8AA2546B48 PUSH2 0xDA4 PUSH2 0x1BA6 JUMP JUMPDEST ADDRESS PUSH1 0x40 MLOAD PUSH1 0x20 ADD PUSH2 0xDB8 SWAP5 SWAP4 SWAP3 SWAP2 SWAP1 PUSH2 0x27EB JUMP JUMPDEST PUSH1 0x40 MLOAD PUSH1 0x20 DUP2 DUP4 SUB SUB DUP2 MSTORE SWAP1 PUSH1 0x40 MSTORE DUP1 MLOAD SWAP1 PUSH1 0x20 ADD KECCAK256 SWAP1 POP PUSH1 0x0 PUSH32 0x8E25870C07E0B0B3884C78DA52790939A455C275406C44AE8B434B692FB916EE DUP8 DUP8 PUSH1 0x40 MLOAD PUSH1 0x20 ADD PUSH2 0xE07 SWAP4 SWAP3 SWAP2 SWAP1 PUSH2 0x280F JUMP JUMPDEST PUSH1 0x40 MLOAD PUSH1 0x20 DUP2 DUP4 SUB SUB DUP2 MSTORE SWAP1 PUSH1 0x40 MSTORE DUP1 MLOAD SWAP1 PUSH1 0x20 ADD KECCAK256 SWAP1 POP PUSH1 0x0 DUP3 DUP3 PUSH1 0x40 MLOAD PUSH1 0x20 ADD PUSH2 0xE34 SWAP3 SWAP2 SWAP1 PUSH2 0x2620 JUMP JUMPDEST PUSH1 0x40 MLOAD PUSH1 0x20 DUP2 DUP4 SUB SUB DUP2 MSTORE SWAP1 PUSH1 0x40 MSTORE DUP1 MLOAD SWAP1 PUSH1 0x20 ADD KECCAK256 SWAP1 POP PUSH1 0x0 PUSH1 0x1 DUP3 DUP9 DUP9 DUP9 PUSH1 0x40 MLOAD PUSH1 0x0 DUP2 MSTORE PUSH1 0x20 ADD PUSH1 0x40 MSTORE PUSH1 0x40 MLOAD PUSH2 0xE71 SWAP5 SWAP4 SWAP3 SWAP2 SWAP1 PUSH2 0x2827 JUMP JUMPDEST PUSH1 0x20 PUSH1 0x40 MLOAD PUSH1 0x20 DUP2 SUB SWAP1 DUP1 DUP5 SUB SWAP1 DUP6 GAS STATICCALL ISZERO DUP1 ISZERO PUSH2 0xE93 JUMPI RETURNDATASIZE PUSH1 0x0 DUP1 RETURNDATACOPY RETURNDATASIZE PUSH1 0x0 REVERT JUMPDEST POP POP PUSH1 0x40 MLOAD PUSH1 0x1F NOT ADD MLOAD SWAP2 POP POP PUSH1 0x1 PUSH1 0x1 PUSH1 0xA0 SHL SUB DUP2 AND PUSH2 0xEC6 JUMPI PUSH1 0x40 MLOAD PUSH3 0x461BCD PUSH1 0xE5 SHL DUP2 MSTORE PUSH1 0x4 ADD PUSH2 0x5CA SWAP1 PUSH2 0x2DD8 JUMP JUMPDEST PUSH2 0xED1 DUP2 DUP11 DUP11 PUSH2 0x1989 JUMP JUMPDEST POP POP POP POP POP POP POP POP POP JUMP JUMPDEST PUSH1 0x2 SLOAD PUSH1 0x1 PUSH1 0x1 PUSH1 0xA0 SHL SUB AND CALLER EQ PUSH2 0xF06 JUMPI PUSH1 0x40 MLOAD PUSH3 0x461BCD PUSH1 0xE5 SHL DUP2 MSTORE PUSH1 0x4 ADD PUSH2 0x5CA SWAP1 PUSH2 0x2F79 JUMP JUMPDEST PUSH1 0x2 DUP1 SLOAD PUSH1 0x1 PUSH1 0x1 PUSH1 0xA0 SHL SUB NOT AND SWAP1 SSTORE JUMP JUMPDEST PUSH1 0xA SWAP1 JUMP JUMPDEST PUSH1 0x2 SLOAD PUSH1 0x1 PUSH1 0x1 PUSH1 0xA0 SHL SUB AND CALLER EQ PUSH2 0xF47 JUMPI PUSH1 0x40 MLOAD PUSH3 0x461BCD PUSH1 0xE5 SHL DUP2 MSTORE PUSH1 0x4 ADD PUSH2 0x5CA SWAP1 PUSH2 0x2B29 JUMP JUMPDEST PUSH1 0x0 DUP1 SLOAD PUSH1 0x40 MLOAD PUSH1 0x1 PUSH1 0x1 PUSH1 0xA0 SHL SUB SWAP1 SWAP2 AND SWAP2 PUSH4 0x3A66F901 SWAP2 DUP4 SWAP2 SWAP1 PUSH2 0xF71 SWAP1 DUP8 SWAP1 PUSH1 0x20 ADD PUSH2 0x263B JUMP JUMPDEST PUSH1 0x40 MLOAD PUSH1 0x20 DUP2 DUP4 SUB SUB DUP2 MSTORE SWAP1 PUSH1 0x40 MSTORE DUP6 PUSH1 0x40 MLOAD DUP6 PUSH4 0xFFFFFFFF AND PUSH1 0xE0 SHL DUP2 MSTORE PUSH1 0x4 ADD PUSH2 0xFA0 SWAP5 SWAP4 SWAP3 SWAP2 SWAP1 PUSH2 0x2668 JUMP JUMPDEST PUSH1 0x20 PUSH1 0x40 MLOAD DUP1 DUP4 SUB DUP2 PUSH1 0x0 DUP8 DUP1 EXTCODESIZE ISZERO DUP1 ISZERO PUSH2 0xFBA JUMPI PUSH1 0x0 DUP1 REVERT JUMPDEST POP GAS CALL ISZERO DUP1 ISZERO PUSH2 0xFCE JUMPI RETURNDATASIZE PUSH1 0x0 DUP1 RETURNDATACOPY RETURNDATASIZE PUSH1 0x0 REVERT JUMPDEST POP POP POP POP PUSH1 0x40 MLOAD RETURNDATASIZE PUSH1 0x1F NOT PUSH1 0x1F DUP3 ADD AND DUP3 ADD DUP1 PUSH1 0x40 MSTORE POP DUP2 ADD SWAP1 PUSH2 0x682 SWAP2 SWAP1 PUSH2 0x2334 JUMP JUMPDEST PUSH1 0x1 SLOAD PUSH1 0x1 PUSH1 0x1 PUSH1 0xA0 SHL SUB AND DUP2 JUMP JUMPDEST PUSH8 0xDE0B6B3A7640000 SWAP1 JUMP JUMPDEST PUSH1 0x2 SLOAD PUSH1 0x1 PUSH1 0x1 PUSH1 0xA0 SHL SUB AND CALLER EQ PUSH2 0x1037 JUMPI PUSH1 0x40 MLOAD PUSH3 0x461BCD PUSH1 0xE5 SHL DUP2 MSTORE PUSH1 0x4 ADD PUSH2 0x5CA SWAP1 PUSH2 0x286C JUMP JUMPDEST PUSH1 0x0 DUP1 SLOAD PUSH1 0x40 DUP1 MLOAD PUSH4 0xE18B681 PUSH1 0xE0 SHL DUP2 MSTORE SWAP1 MLOAD PUSH1 0x1 PUSH1 0x1 PUSH1 0xA0 SHL SUB SWAP1 SWAP3 AND SWAP3 PUSH4 0xE18B681 SWAP3 PUSH1 0x4 DUP1 DUP5 ADD SWAP4 DUP3 SWAP1 SUB ADD DUP2 DUP4 DUP8 DUP1 EXTCODESIZE ISZERO DUP1 ISZERO PUSH2 0x1078 JUMPI PUSH1 0x0 DUP1 REVERT JUMPDEST POP GAS CALL ISZERO DUP1 ISZERO PUSH2 0x108C JUMPI RETURNDATASIZE PUSH1 0x0 DUP1 RETURNDATACOPY RETURNDATASIZE PUSH1 0x0 REVERT JUMPDEST POP POP POP POP JUMP JUMPDEST PUSH1 0x0 SLOAD PUSH1 0x1 PUSH1 0x1 PUSH1 0xA0 SHL SUB AND DUP2 JUMP JUMPDEST PUSH1 0x3 SLOAD DUP2 JUMP JUMPDEST PUSH1 0x0 PUSH2 0x10B1 PUSH2 0x1001 JUMP JUMPDEST PUSH1 0x1 DUP1 SLOAD PUSH1 0x1 PUSH1 0x1 PUSH1 0xA0 SHL SUB AND SWAP1 PUSH4 0x782D6FE1 SWAP1 CALLER SWAP1 PUSH2 0x10D2 SWAP1 NUMBER SWAP1 PUSH2 0x1B7E JUMP JUMPDEST PUSH1 0x40 MLOAD DUP4 PUSH4 0xFFFFFFFF AND PUSH1 0xE0 SHL DUP2 MSTORE PUSH1 0x4 ADD PUSH2 0x10EF SWAP3 SWAP2 SWAP1 PUSH2 0x264F JUMP JUMPDEST PUSH1 0x20 PUSH1 0x40 MLOAD DUP1 DUP4 SUB DUP2 DUP7 DUP1 EXTCODESIZE ISZERO DUP1 ISZERO PUSH2 0x1107 JUMPI PUSH1 0x0 DUP1 REVERT JUMPDEST POP GAS STATICCALL ISZERO DUP1 ISZERO PUSH2 0x111B JUMPI RETURNDATASIZE PUSH1 0x0 DUP1 RETURNDATACOPY RETURNDATASIZE PUSH1 0x0 REVERT JUMPDEST POP POP POP POP PUSH1 0x40 MLOAD RETURNDATASIZE PUSH1 0x1F NOT PUSH1 0x1F DUP3 ADD AND DUP3 ADD DUP1 PUSH1 0x40 MSTORE POP DUP2 ADD SWAP1 PUSH2 0x113F SWAP2 SWAP1 PUSH2 0x2488 JUMP JUMPDEST PUSH1 0x1 PUSH1 0x1 PUSH1 0x60 SHL SUB AND GT PUSH2 0x1165 JUMPI PUSH1 0x40 MLOAD PUSH3 0x461BCD PUSH1 0xE5 SHL DUP2 MSTORE PUSH1 0x4 ADD PUSH2 0x5CA SWAP1 PUSH2 0x2D7B JUMP JUMPDEST DUP5 MLOAD DUP7 MLOAD EQ DUP1 ISZERO PUSH2 0x1177 JUMPI POP DUP4 MLOAD DUP7 MLOAD EQ JUMPDEST DUP1 ISZERO PUSH2 0x1184 JUMPI POP DUP3 MLOAD DUP7 MLOAD EQ JUMPDEST PUSH2 0x11A0 JUMPI PUSH1 0x40 MLOAD PUSH3 0x461BCD PUSH1 0xE5 SHL DUP2 MSTORE PUSH1 0x4 ADD PUSH2 0x5CA SWAP1 PUSH2 0x2C0C JUMP JUMPDEST DUP6 MLOAD PUSH2 0x11BE JUMPI PUSH1 0x40 MLOAD PUSH3 0x461BCD PUSH1 0xE5 SHL DUP2 MSTORE PUSH1 0x4 ADD PUSH2 0x5CA SWAP1 PUSH2 0x2D2F JUMP JUMPDEST PUSH2 0x11C6 PUSH2 0xF18 JUMP JUMPDEST DUP7 MLOAD GT ISZERO PUSH2 0x11E6 JUMPI PUSH1 0x40 MLOAD PUSH3 0x461BCD PUSH1 0xE5 SHL DUP2 MSTORE PUSH1 0x4 ADD PUSH2 0x5CA SWAP1 PUSH2 0x2B99 JUMP JUMPDEST CALLER PUSH1 0x0 SWAP1 DUP2 MSTORE PUSH1 0x5 PUSH1 0x20 MSTORE PUSH1 0x40 SWAP1 KECCAK256 SLOAD DUP1 ISZERO PUSH2 0x1263 JUMPI PUSH1 0x0 PUSH2 0x1207 DUP3 PUSH2 0x929 JUMP JUMPDEST SWAP1 POP PUSH1 0x1 DUP2 PUSH1 0x7 DUP2 GT ISZERO PUSH2 0x1217 JUMPI INVALID JUMPDEST EQ ISZERO PUSH2 0x1235 JUMPI PUSH1 0x40 MLOAD PUSH3 0x461BCD PUSH1 0xE5 SHL DUP2 MSTORE PUSH1 0x4 ADD PUSH2 0x5CA SWAP1 PUSH2 0x2E27 JUMP JUMPDEST PUSH1 0x0 DUP2 PUSH1 0x7 DUP2 GT ISZERO PUSH2 0x1243 JUMPI INVALID JUMPDEST EQ ISZERO PUSH2 0x1261 JUMPI PUSH1 0x40 MLOAD PUSH3 0x461BCD PUSH1 0xE5 SHL DUP2 MSTORE PUSH1 0x4 ADD PUSH2 0x5CA SWAP1 PUSH2 0x2AA6 JUMP JUMPDEST POP JUMPDEST PUSH1 0x0 PUSH2 0x1271 NUMBER PUSH2 0xA93 PUSH2 0x924 JUMP JUMPDEST SWAP1 POP PUSH1 0x0 PUSH2 0x1281 DUP3 PUSH2 0xA93 PUSH2 0x524 JUMP JUMPDEST PUSH1 0x3 DUP1 SLOAD PUSH1 0x1 ADD SWAP1 SSTORE SWAP1 POP PUSH2 0x1294 PUSH2 0x1D09 JUMP JUMPDEST PUSH1 0x40 MLOAD DUP1 PUSH2 0x1A0 ADD PUSH1 0x40 MSTORE DUP1 PUSH1 0x3 SLOAD DUP2 MSTORE PUSH1 0x20 ADD CALLER PUSH1 0x1 PUSH1 0x1 PUSH1 0xA0 SHL SUB AND DUP2 MSTORE PUSH1 0x20 ADD PUSH1 0x0 DUP2 MSTORE PUSH1 0x20 ADD DUP12 DUP2 MSTORE PUSH1 0x20 ADD DUP11 DUP2 MSTORE PUSH1 0x20 ADD DUP10 DUP2 MSTORE PUSH1 0x20 ADD DUP9 DUP2 MSTORE PUSH1 0x20 ADD DUP5 DUP2 MSTORE PUSH1 0x20 ADD DUP4 DUP2 MSTORE PUSH1 0x20 ADD PUSH1 0x0 DUP2 MSTORE PUSH1 0x20 ADD PUSH1 0x0 DUP2 MSTORE PUSH1 0x20 ADD PUSH1 0x0 ISZERO ISZERO DUP2 MSTORE PUSH1 0x20 ADD PUSH1 0x0 ISZERO ISZERO DUP2 MSTORE POP SWAP1 POP DUP1 PUSH1 0x4 PUSH1 0x0 DUP4 PUSH1 0x0 ADD MLOAD DUP2 MSTORE PUSH1 0x20 ADD SWAP1 DUP2 MSTORE PUSH1 0x20 ADD PUSH1 0x0 KECCAK256 PUSH1 0x0 DUP3 ADD MLOAD DUP2 PUSH1 0x0 ADD SSTORE PUSH1 0x20 DUP3 ADD MLOAD DUP2 PUSH1 0x1 ADD PUSH1 0x0 PUSH2 0x100 EXP DUP2 SLOAD DUP2 PUSH1 0x1 PUSH1 0x1 PUSH1 0xA0 SHL SUB MUL NOT AND SWAP1 DUP4 PUSH1 0x1 PUSH1 0x1 PUSH1 0xA0 SHL SUB AND MUL OR SWAP1 SSTORE POP PUSH1 0x40 DUP3 ADD MLOAD DUP2 PUSH1 0x2 ADD SSTORE PUSH1 0x60 DUP3 ADD MLOAD DUP2 PUSH1 0x3 ADD SWAP1 DUP1 MLOAD SWAP1 PUSH1 0x20 ADD SWAP1 PUSH2 0x1377 SWAP3 SWAP2 SWAP1 PUSH2 0x1D7E JUMP JUMPDEST POP PUSH1 0x80 DUP3 ADD MLOAD DUP1 MLOAD PUSH2 0x1393 SWAP2 PUSH1 0x4 DUP5 ADD SWAP2 PUSH1 0x20 SWAP1 SWAP2 ADD SWAP1 PUSH2 0x1DE3 JUMP JUMPDEST POP PUSH1 0xA0 DUP3 ADD MLOAD DUP1 MLOAD PUSH2 0x13AF SWAP2 PUSH1 0x5 DUP5 ADD SWAP2 PUSH1 0x20 SWAP1 SWAP2 ADD SWAP1 PUSH2 0x1E2A JUMP JUMPDEST POP PUSH1 0xC0 DUP3 ADD MLOAD DUP1 MLOAD PUSH2 0x13CB SWAP2 PUSH1 0x6 DUP5 ADD SWAP2 PUSH1 0x20 SWAP1 SWAP2 ADD SWAP1 PUSH2 0x1E83 JUMP JUMPDEST POP PUSH1 0xE0 DUP3 ADD MLOAD DUP2 PUSH1 0x7 ADD SSTORE PUSH2 0x100 DUP3 ADD MLOAD DUP2 PUSH1 0x8 ADD SSTORE PUSH2 0x120 DUP3 ADD MLOAD DUP2 PUSH1 0x9 ADD SSTORE PUSH2 0x140 DUP3 ADD MLOAD DUP2 PUSH1 0xA ADD SSTORE PUSH2 0x160 DUP3 ADD MLOAD DUP2 PUSH1 0xB ADD PUSH1 0x0 PUSH2 0x100 EXP DUP2 SLOAD DUP2 PUSH1 0xFF MUL NOT AND SWAP1 DUP4 ISZERO ISZERO MUL OR SWAP1 SSTORE POP PUSH2 0x180 DUP3 ADD MLOAD DUP2 PUSH1 0xB ADD PUSH1 0x1 PUSH2 0x100 EXP DUP2 SLOAD DUP2 PUSH1 0xFF MUL NOT AND SWAP1 DUP4 ISZERO ISZERO MUL OR SWAP1 SSTORE POP SWAP1 POP POP DUP1 PUSH1 0x0 ADD MLOAD PUSH1 0x5 PUSH1 0x0 DUP4 PUSH1 0x20 ADD MLOAD PUSH1 0x1 PUSH1 0x1 PUSH1 0xA0 SHL SUB AND PUSH1 0x1 PUSH1 0x1 PUSH1 0xA0 SHL SUB AND DUP2 MSTORE PUSH1 0x20 ADD SWAP1 DUP2 MSTORE PUSH1 0x20 ADD PUSH1 0x0 KECCAK256 DUP2 SWAP1 SSTORE POP PUSH32 0x7D84A6263AE0D98D3329BD7B46BB4E8D6F98CD35A7ADB45C274C8B7FD5EBD5E0 DUP2 PUSH1 0x0 ADD MLOAD CALLER DUP13 DUP13 DUP13 DUP13 DUP10 DUP10 DUP15 PUSH1 0x40 MLOAD PUSH2 0x14B1 SWAP10 SWAP9 SWAP8 SWAP7 SWAP6 SWAP5 SWAP4 SWAP3 SWAP2 SWAP1 PUSH2 0x2FFD JUMP JUMPDEST PUSH1 0x40 MLOAD DUP1 SWAP2 SUB SWAP1 LOG1 MLOAD SWAP10 SWAP9 POP POP POP POP POP POP POP POP POP JUMP JUMPDEST PUSH1 0x4 PUSH2 0x14D2 DUP3 PUSH2 0x929 JUMP JUMPDEST PUSH1 0x7 DUP2 GT ISZERO PUSH2 0x14DD JUMPI INVALID JUMPDEST EQ PUSH2 0x14FA JUMPI PUSH1 0x40 MLOAD PUSH3 0x461BCD PUSH1 0xE5 SHL DUP2 MSTORE PUSH1 0x4 ADD PUSH2 0x5CA SWAP1 PUSH2 0x28C9 JUMP JUMPDEST PUSH1 0x0 DUP2 DUP2 MSTORE PUSH1 0x4 PUSH1 0x20 DUP2 DUP2 MSTORE PUSH1 0x40 DUP1 DUP5 KECCAK256 DUP5 SLOAD DUP3 MLOAD PUSH4 0xD48571F PUSH1 0xE3 SHL DUP2 MSTORE SWAP3 MLOAD SWAP2 SWAP6 SWAP5 PUSH2 0x154F SWAP5 TIMESTAMP SWAP5 PUSH1 0x1 PUSH1 0x1 PUSH1 0xA0 SHL SUB SWAP1 SWAP4 AND SWAP4 PUSH4 0x6A42B8F8 SWAP4 DUP1 DUP5 ADD SWAP4 SWAP1 DUP3 SWAP1 SUB ADD DUP2 DUP7 DUP1 EXTCODESIZE ISZERO DUP1 ISZERO PUSH2 0xA5B JUMPI PUSH1 0x0 DUP1 REVERT JUMPDEST SWAP1 POP PUSH1 0x0 JUMPDEST PUSH1 0x3 DUP4 ADD SLOAD DUP2 LT ISZERO PUSH2 0x16F7 JUMPI PUSH2 0x16EF DUP4 PUSH1 0x3 ADD DUP3 DUP2 SLOAD DUP2 LT PUSH2 0x1572 JUMPI INVALID JUMPDEST PUSH1 0x0 SWAP2 DUP3 MSTORE PUSH1 0x20 SWAP1 SWAP2 KECCAK256 ADD SLOAD PUSH1 0x4 DUP6 ADD DUP1 SLOAD PUSH1 0x1 PUSH1 0x1 PUSH1 0xA0 SHL SUB SWAP1 SWAP3 AND SWAP2 DUP5 SWAP1 DUP2 LT PUSH2 0x159A JUMPI INVALID JUMPDEST SWAP1 PUSH1 0x0 MSTORE PUSH1 0x20 PUSH1 0x0 KECCAK256 ADD SLOAD DUP6 PUSH1 0x5 ADD DUP5 DUP2 SLOAD DUP2 LT PUSH2 0x15B4 JUMPI INVALID JUMPDEST PUSH1 0x0 SWAP2 DUP3 MSTORE PUSH1 0x20 SWAP2 DUP3 SWAP1 KECCAK256 ADD DUP1 SLOAD PUSH1 0x40 DUP1 MLOAD PUSH1 0x1F PUSH1 0x2 PUSH1 0x0 NOT PUSH2 0x100 PUSH1 0x1 DUP8 AND ISZERO MUL ADD SWAP1 SWAP5 AND SWAP4 SWAP1 SWAP4 DIV SWAP3 DUP4 ADD DUP6 SWAP1 DIV DUP6 MUL DUP2 ADD DUP6 ADD SWAP1 SWAP2 MSTORE DUP2 DUP2 MSTORE SWAP3 DUP4 ADD DUP3 DUP3 DUP1 ISZERO PUSH2 0x1642 JUMPI DUP1 PUSH1 0x1F LT PUSH2 0x1617 JUMPI PUSH2 0x100 DUP1 DUP4 SLOAD DIV MUL DUP4 MSTORE SWAP2 PUSH1 0x20 ADD SWAP2 PUSH2 0x1642 JUMP JUMPDEST DUP3 ADD SWAP2 SWAP1 PUSH1 0x0 MSTORE PUSH1 0x20 PUSH1 0x0 KECCAK256 SWAP1 JUMPDEST DUP2 SLOAD DUP2 MSTORE SWAP1 PUSH1 0x1 ADD SWAP1 PUSH1 0x20 ADD DUP1 DUP4 GT PUSH2 0x1625 JUMPI DUP3 SWAP1 SUB PUSH1 0x1F AND DUP3 ADD SWAP2 JUMPDEST POP POP POP POP POP DUP7 PUSH1 0x6 ADD DUP6 DUP2 SLOAD DUP2 LT PUSH2 0x1656 JUMPI INVALID JUMPDEST PUSH1 0x0 SWAP2 DUP3 MSTORE PUSH1 0x20 SWAP2 DUP3 SWAP1 KECCAK256 ADD DUP1 SLOAD PUSH1 0x40 DUP1 MLOAD PUSH1 0x1F PUSH1 0x2 PUSH1 0x0 NOT PUSH2 0x100 PUSH1 0x1 DUP8 AND ISZERO MUL ADD SWAP1 SWAP5 AND SWAP4 SWAP1 SWAP4 DIV SWAP3 DUP4 ADD DUP6 SWAP1 DIV DUP6 MUL DUP2 ADD DUP6 ADD SWAP1 SWAP2 MSTORE DUP2 DUP2 MSTORE SWAP3 DUP4 ADD DUP3 DUP3 DUP1 ISZERO PUSH2 0x16E4 JUMPI DUP1 PUSH1 0x1F LT PUSH2 0x16B9 JUMPI PUSH2 0x100 DUP1 DUP4 SLOAD DIV MUL DUP4 MSTORE SWAP2 PUSH1 0x20 ADD SWAP2 PUSH2 0x16E4 JUMP JUMPDEST DUP3 ADD SWAP2 SWAP1 PUSH1 0x0 MSTORE PUSH1 0x20 PUSH1 0x0 KECCAK256 SWAP1 JUMPDEST DUP2 SLOAD DUP2 MSTORE SWAP1 PUSH1 0x1 ADD SWAP1 PUSH1 0x20 ADD DUP1 DUP4 GT PUSH2 0x16C7 JUMPI DUP3 SWAP1 SUB PUSH1 0x1F AND DUP3 ADD SWAP2 JUMPDEST POP POP POP POP POP DUP7 PUSH2 0x1BAA JUMP JUMPDEST PUSH1 0x1 ADD PUSH2 0x1554 JUMP JUMPDEST POP PUSH1 0x2 DUP3 ADD DUP2 SWAP1 SSTORE PUSH1 0x40 MLOAD PUSH32 0x9A2E42FD6722813D69113E7D0079D3D940171428DF7373DF9C7F7617CFDA2892 SWAP1 PUSH2 0xD0F SWAP1 DUP6 SWAP1 DUP5 SWAP1 PUSH2 0x30E1 JUMP JUMPDEST PUSH32 0x8E25870C07E0B0B3884C78DA52790939A455C275406C44AE8B434B692FB916EE DUP2 JUMP JUMPDEST PUSH2 0x175D PUSH2 0x1EDC JUMP JUMPDEST POP PUSH1 0x0 DUP3 DUP2 MSTORE PUSH1 0x4 PUSH1 0x20 SWAP1 DUP2 MSTORE PUSH1 0x40 DUP1 DUP4 KECCAK256 PUSH1 0x1 PUSH1 0x1 PUSH1 0xA0 SHL SUB DUP6 AND DUP5 MSTORE PUSH1 0xC ADD DUP3 MSTORE SWAP2 DUP3 SWAP1 KECCAK256 DUP3 MLOAD PUSH1 0x60 DUP2 ADD DUP5 MSTORE SWAP1 SLOAD PUSH1 0xFF DUP1 DUP3 AND ISZERO ISZERO DUP4 MSTORE PUSH2 0x100 DUP3 DIV AND ISZERO ISZERO SWAP3 DUP3 ADD SWAP3 SWAP1 SWAP3 MSTORE PUSH3 0x10000 SWAP1 SWAP2 DIV PUSH1 0x1 PUSH1 0x1 PUSH1 0x60 SHL SUB AND SWAP2 DUP2 ADD SWAP2 SWAP1 SWAP2 MSTORE JUMPDEST SWAP3 SWAP2 POP POP JUMP JUMPDEST PUSH1 0x5 PUSH2 0x17CF DUP3 PUSH2 0x929 JUMP JUMPDEST PUSH1 0x7 DUP2 GT ISZERO PUSH2 0x17DA JUMPI INVALID JUMPDEST EQ PUSH2 0x17F7 JUMPI PUSH1 0x40 MLOAD PUSH3 0x461BCD PUSH1 0xE5 SHL DUP2 MSTORE PUSH1 0x4 ADD PUSH2 0x5CA SWAP1 PUSH2 0x2933 JUMP JUMPDEST PUSH1 0x0 DUP2 DUP2 MSTORE PUSH1 0x4 PUSH1 0x20 MSTORE PUSH1 0x40 DUP2 KECCAK256 PUSH1 0xB DUP2 ADD DUP1 SLOAD PUSH2 0xFF00 NOT AND PUSH2 0x100 OR SWAP1 SSTORE SWAP1 JUMPDEST PUSH1 0x3 DUP3 ADD SLOAD DUP2 LT ISZERO PUSH2 0x194D JUMPI PUSH1 0x0 SLOAD PUSH1 0x4 DUP4 ADD DUP1 SLOAD PUSH1 0x1 PUSH1 0x1 PUSH1 0xA0 SHL SUB SWAP1 SWAP3 AND SWAP2 PUSH4 0x825F38F SWAP2 SWAP1 DUP5 SWAP1 DUP2 LT PUSH2 0x184A JUMPI INVALID JUMPDEST SWAP1 PUSH1 0x0 MSTORE PUSH1 0x20 PUSH1 0x0 KECCAK256 ADD SLOAD DUP5 PUSH1 0x3 ADD DUP5 DUP2 SLOAD DUP2 LT PUSH2 0x1864 JUMPI INVALID JUMPDEST PUSH1 0x0 SWAP2 DUP3 MSTORE PUSH1 0x20 SWAP1 SWAP2 KECCAK256 ADD SLOAD PUSH1 0x4 DUP7 ADD DUP1 SLOAD PUSH1 0x1 PUSH1 0x1 PUSH1 0xA0 SHL SUB SWAP1 SWAP3 AND SWAP2 DUP7 SWAP1 DUP2 LT PUSH2 0x188C JUMPI INVALID JUMPDEST SWAP1 PUSH1 0x0 MSTORE PUSH1 0x20 PUSH1 0x0 KECCAK256 ADD SLOAD DUP7 PUSH1 0x5 ADD DUP7 DUP2 SLOAD DUP2 LT PUSH2 0x18A6 JUMPI INVALID JUMPDEST SWAP1 PUSH1 0x0 MSTORE PUSH1 0x20 PUSH1 0x0 KECCAK256 ADD DUP8 PUSH1 0x6 ADD DUP8 DUP2 SLOAD DUP2 LT PUSH2 0x18BF JUMPI INVALID JUMPDEST SWAP1 PUSH1 0x0 MSTORE PUSH1 0x20 PUSH1 0x0 KECCAK256 ADD DUP9 PUSH1 0x2 ADD SLOAD PUSH1 0x40 MLOAD DUP8 PUSH4 0xFFFFFFFF AND PUSH1 0xE0 SHL DUP2 MSTORE PUSH1 0x4 ADD PUSH2 0x18EE SWAP6 SWAP5 SWAP4 SWAP3 SWAP2 SWAP1 PUSH2 0x2751 JUMP JUMPDEST PUSH1 0x0 PUSH1 0x40 MLOAD DUP1 DUP4 SUB DUP2 DUP6 DUP9 DUP1 EXTCODESIZE ISZERO DUP1 ISZERO PUSH2 0x1907 JUMPI PUSH1 0x0 DUP1 REVERT JUMPDEST POP GAS CALL ISZERO DUP1 ISZERO PUSH2 0x191B JUMPI RETURNDATASIZE PUSH1 0x0 DUP1 RETURNDATACOPY RETURNDATASIZE PUSH1 0x0 REVERT JUMPDEST POP POP POP POP POP PUSH1 0x40 MLOAD RETURNDATASIZE PUSH1 0x0 DUP3 RETURNDATACOPY PUSH1 0x1F RETURNDATASIZE SWAP1 DUP2 ADD PUSH1 0x1F NOT AND DUP3 ADD PUSH1 0x40 MSTORE PUSH2 0x1944 SWAP2 SWAP1 DUP2 ADD SWAP1 PUSH2 0x234C JUMP JUMPDEST POP PUSH1 0x1 ADD PUSH2 0x1818 JUMP JUMPDEST POP PUSH32 0x712AE1383F79AC853F8D882153778E0260EF8F03B504E2866E0593E04D2B291F DUP3 PUSH1 0x40 MLOAD PUSH2 0x197D SWAP2 SWAP1 PUSH2 0x27E2 JUMP JUMPDEST PUSH1 0x40 MLOAD DUP1 SWAP2 SUB SWAP1 LOG1 POP POP JUMP JUMPDEST PUSH1 0x1 PUSH2 0x1994 DUP4 PUSH2 0x929 JUMP JUMPDEST PUSH1 0x7 DUP2 GT ISZERO PUSH2 0x199F JUMPI INVALID JUMPDEST EQ PUSH2 0x19BC JUMPI PUSH1 0x40 MLOAD PUSH3 0x461BCD PUSH1 0xE5 SHL DUP2 MSTORE PUSH1 0x4 ADD PUSH2 0x5CA SWAP1 PUSH2 0x2F00 JUMP JUMPDEST PUSH1 0x0 DUP3 DUP2 MSTORE PUSH1 0x4 PUSH1 0x20 SWAP1 DUP2 MSTORE PUSH1 0x40 DUP1 DUP4 KECCAK256 PUSH1 0x1 PUSH1 0x1 PUSH1 0xA0 SHL SUB DUP8 AND DUP5 MSTORE PUSH1 0xC DUP2 ADD SWAP1 SWAP3 MSTORE SWAP1 SWAP2 KECCAK256 DUP1 SLOAD PUSH1 0xFF AND ISZERO PUSH2 0x1A05 JUMPI PUSH1 0x40 MLOAD PUSH3 0x461BCD PUSH1 0xE5 SHL DUP2 MSTORE PUSH1 0x4 ADD PUSH2 0x5CA SWAP1 PUSH2 0x2A59 JUMP JUMPDEST PUSH1 0x1 SLOAD PUSH1 0x7 DUP4 ADD SLOAD PUSH1 0x40 MLOAD PUSH4 0x782D6FE1 PUSH1 0xE0 SHL DUP2 MSTORE PUSH1 0x0 SWAP3 PUSH1 0x1 PUSH1 0x1 PUSH1 0xA0 SHL SUB AND SWAP2 PUSH4 0x782D6FE1 SWAP2 PUSH2 0x1A3B SWAP2 DUP11 SWAP2 PUSH1 0x4 ADD PUSH2 0x264F JUMP JUMPDEST PUSH1 0x20 PUSH1 0x40 MLOAD DUP1 DUP4 SUB DUP2 DUP7 DUP1 EXTCODESIZE ISZERO DUP1 ISZERO PUSH2 0x1A53 JUMPI PUSH1 0x0 DUP1 REVERT JUMPDEST POP GAS STATICCALL ISZERO DUP1 ISZERO PUSH2 0x1A67 JUMPI RETURNDATASIZE PUSH1 0x0 DUP1 RETURNDATACOPY RETURNDATASIZE PUSH1 0x0 REVERT JUMPDEST POP POP POP POP PUSH1 0x40 MLOAD RETURNDATASIZE PUSH1 0x1F NOT PUSH1 0x1F DUP3 ADD AND DUP3 ADD DUP1 PUSH1 0x40 MSTORE POP DUP2 ADD SWAP1 PUSH2 0x1A8B SWAP2 SWAP1 PUSH2 0x2488 JUMP JUMPDEST SWAP1 POP DUP4 ISZERO PUSH2 0x1AB4 JUMPI PUSH2 0x1AAA DUP4 PUSH1 0x9 ADD SLOAD DUP3 PUSH1 0x1 PUSH1 0x1 PUSH1 0x60 SHL SUB AND PUSH2 0x1B52 JUMP JUMPDEST PUSH1 0x9 DUP5 ADD SSTORE PUSH2 0x1AD1 JUMP JUMPDEST PUSH2 0x1ACB DUP4 PUSH1 0xA ADD SLOAD DUP3 PUSH1 0x1 PUSH1 0x1 PUSH1 0x60 SHL SUB AND PUSH2 0x1B52 JUMP JUMPDEST PUSH1 0xA DUP5 ADD SSTORE JUMPDEST DUP2 SLOAD PUSH1 0x1 PUSH1 0xFF NOT SWAP1 SWAP2 AND OR PUSH2 0xFF00 NOT AND PUSH2 0x100 DUP6 ISZERO ISZERO MUL OR PUSH14 0xFFFFFFFFFFFFFFFFFFFFFFFF0000 NOT AND PUSH3 0x10000 PUSH1 0x1 PUSH1 0x1 PUSH1 0x60 SHL SUB DUP4 AND MUL OR DUP3 SSTORE PUSH1 0x40 MLOAD PUSH32 0x877856338E13F63D0C36822FF0EF736B80934CD90574A3A5BC9262C39D217C46 SWAP1 PUSH2 0x1B42 SWAP1 DUP9 SWAP1 DUP9 SWAP1 DUP9 SWAP1 DUP7 SWAP1 PUSH2 0x26D4 JUMP JUMPDEST PUSH1 0x40 MLOAD DUP1 SWAP2 SUB SWAP1 LOG1 POP POP POP POP POP POP JUMP JUMPDEST PUSH1 0x0 DUP3 DUP3 ADD DUP4 DUP2 LT ISZERO PUSH2 0x1B77 JUMPI PUSH1 0x40 MLOAD PUSH3 0x461BCD PUSH1 0xE5 SHL DUP2 MSTORE PUSH1 0x4 ADD PUSH2 0x5CA SWAP1 PUSH2 0x2BE1 JUMP JUMPDEST SWAP4 SWAP3 POP POP POP JUMP JUMPDEST PUSH1 0x0 DUP3 DUP3 GT ISZERO PUSH2 0x1BA0 JUMPI PUSH1 0x40 MLOAD PUSH3 0x461BCD PUSH1 0xE5 SHL DUP2 MSTORE PUSH1 0x4 ADD PUSH2 0x5CA SWAP1 PUSH2 0x2F4A JUMP JUMPDEST POP SWAP1 SUB SWAP1 JUMP JUMPDEST CHAINID SWAP1 JUMP JUMPDEST PUSH1 0x0 SLOAD PUSH1 0x40 MLOAD PUSH1 0x1 PUSH1 0x1 PUSH1 0xA0 SHL SUB SWAP1 SWAP2 AND SWAP1 PUSH4 0xF2B06537 SWAP1 PUSH2 0x1BD8 SWAP1 DUP9 SWAP1 DUP9 SWAP1 DUP9 SWAP1 DUP9 SWAP1 DUP9 SWAP1 PUSH1 0x20 ADD PUSH2 0x2705 JUMP JUMPDEST PUSH1 0x40 MLOAD PUSH1 0x20 DUP2 DUP4 SUB SUB DUP2 MSTORE SWAP1 PUSH1 0x40 MSTORE DUP1 MLOAD SWAP1 PUSH1 0x20 ADD KECCAK256 PUSH1 0x40 MLOAD DUP3 PUSH4 0xFFFFFFFF AND PUSH1 0xE0 SHL DUP2 MSTORE PUSH1 0x4 ADD PUSH2 0x1C0A SWAP2 SWAP1 PUSH2 0x27E2 JUMP JUMPDEST PUSH1 0x20 PUSH1 0x40 MLOAD DUP1 DUP4 SUB DUP2 DUP7 DUP1 EXTCODESIZE ISZERO DUP1 ISZERO PUSH2 0x1C22 JUMPI PUSH1 0x0 DUP1 REVERT JUMPDEST POP GAS STATICCALL ISZERO DUP1 ISZERO PUSH2 0x1C36 JUMPI RETURNDATASIZE PUSH1 0x0 DUP1 RETURNDATACOPY RETURNDATASIZE PUSH1 0x0 REVERT JUMPDEST POP POP POP POP PUSH1 0x40 MLOAD RETURNDATASIZE PUSH1 0x1F NOT PUSH1 0x1F DUP3 ADD AND DUP3 ADD DUP1 PUSH1 0x40 MSTORE POP DUP2 ADD SWAP1 PUSH2 0x1C5A SWAP2 SWAP1 PUSH2 0x2318 JUMP JUMPDEST ISZERO PUSH2 0x1C77 JUMPI PUSH1 0x40 MLOAD PUSH3 0x461BCD PUSH1 0xE5 SHL DUP2 MSTORE PUSH1 0x4 ADD PUSH2 0x5CA SWAP1 PUSH2 0x2CC5 JUMP JUMPDEST PUSH1 0x0 SLOAD PUSH1 0x40 MLOAD PUSH4 0x3A66F901 PUSH1 0xE0 SHL DUP2 MSTORE PUSH1 0x1 PUSH1 0x1 PUSH1 0xA0 SHL SUB SWAP1 SWAP2 AND SWAP1 PUSH4 0x3A66F901 SWAP1 PUSH2 0x1CAF SWAP1 DUP9 SWAP1 DUP9 SWAP1 DUP9 SWAP1 DUP9 SWAP1 DUP9 SWAP1 PUSH1 0x4 ADD PUSH2 0x2705 JUMP JUMPDEST PUSH1 0x20 PUSH1 0x40 MLOAD DUP1 DUP4 SUB DUP2 PUSH1 0x0 DUP8 DUP1 EXTCODESIZE ISZERO DUP1 ISZERO PUSH2 0x1CC9 JUMPI PUSH1 0x0 DUP1 REVERT JUMPDEST POP GAS CALL ISZERO DUP1 ISZERO PUSH2 0x1CDD JUMPI RETURNDATASIZE PUSH1 0x0 DUP1 RETURNDATACOPY RETURNDATASIZE PUSH1 0x0 REVERT JUMPDEST POP POP POP POP PUSH1 0x40 MLOAD RETURNDATASIZE PUSH1 0x1F NOT PUSH1 0x1F DUP3 ADD AND DUP3 ADD DUP1 PUSH1 0x40 MSTORE POP DUP2 ADD SWAP1 PUSH2 0x1D01 SWAP2 SWAP1 PUSH2 0x2334 JUMP JUMPDEST POP POP POP POP POP POP JUMP JUMPDEST PUSH1 0x40 MLOAD DUP1 PUSH2 0x1A0 ADD PUSH1 0x40 MSTORE DUP1 PUSH1 0x0 DUP2 MSTORE PUSH1 0x20 ADD PUSH1 0x0 PUSH1 0x1 PUSH1 0x1 PUSH1 0xA0 SHL SUB AND DUP2 MSTORE PUSH1 0x20 ADD PUSH1 0x0 DUP2 MSTORE PUSH1 0x20 ADD PUSH1 0x60 DUP2 MSTORE PUSH1 0x20 ADD PUSH1 0x60 DUP2 MSTORE PUSH1 0x20 ADD PUSH1 0x60 DUP2 MSTORE PUSH1 0x20 ADD PUSH1 0x60 DUP2 MSTORE PUSH1 0x20 ADD PUSH1 0x0 DUP2 MSTORE PUSH1 0x20 ADD PUSH1 0x0 DUP2 MSTORE PUSH1 0x20 ADD PUSH1 0x0 DUP2 MSTORE PUSH1 0x20 ADD PUSH1 0x0 DUP2 MSTORE PUSH1 0x20 ADD PUSH1 0x0 ISZERO ISZERO DUP2 MSTORE PUSH1 0x20 ADD PUSH1 0x0 ISZERO ISZERO DUP2 MSTORE POP SWAP1 JUMP JUMPDEST DUP3 DUP1 SLOAD DUP3 DUP3 SSTORE SWAP1 PUSH1 0x0 MSTORE PUSH1 0x20 PUSH1 0x0 KECCAK256 SWAP1 DUP2 ADD SWAP3 DUP3 ISZERO PUSH2 0x1DD3 JUMPI SWAP2 PUSH1 0x20 MUL DUP3 ADD JUMPDEST DUP3 DUP2 GT ISZERO PUSH2 0x1DD3 JUMPI DUP3 MLOAD DUP3 SLOAD PUSH1 0x1 PUSH1 0x1 PUSH1 0xA0 SHL SUB NOT AND PUSH1 0x1 PUSH1 0x1 PUSH1 0xA0 SHL SUB SWAP1 SWAP2 AND OR DUP3 SSTORE PUSH1 0x20 SWAP1 SWAP3 ADD SWAP2 PUSH1 0x1 SWAP1 SWAP2 ADD SWAP1 PUSH2 0x1D9E JUMP JUMPDEST POP PUSH2 0x1DDF SWAP3 SWAP2 POP PUSH2 0x1EFC JUMP JUMPDEST POP SWAP1 JUMP JUMPDEST DUP3 DUP1 SLOAD DUP3 DUP3 SSTORE SWAP1 PUSH1 0x0 MSTORE PUSH1 0x20 PUSH1 0x0 KECCAK256 SWAP1 DUP2 ADD SWAP3 DUP3 ISZERO PUSH2 0x1E1E JUMPI SWAP2 PUSH1 0x20 MUL DUP3 ADD JUMPDEST DUP3 DUP2 GT ISZERO PUSH2 0x1E1E JUMPI DUP3 MLOAD DUP3 SSTORE SWAP2 PUSH1 0x20 ADD SWAP2 SWAP1 PUSH1 0x1 ADD SWAP1 PUSH2 0x1E03 JUMP JUMPDEST POP PUSH2 0x1DDF SWAP3 SWAP2 POP PUSH2 0x1F1B JUMP JUMPDEST DUP3 DUP1 SLOAD DUP3 DUP3 SSTORE SWAP1 PUSH1 0x0 MSTORE PUSH1 0x20 PUSH1 0x0 KECCAK256 SWAP1 DUP2 ADD SWAP3 DUP3 ISZERO PUSH2 0x1E77 JUMPI SWAP2 PUSH1 0x20 MUL DUP3 ADD JUMPDEST DUP3 DUP2 GT ISZERO PUSH2 0x1E77 JUMPI DUP3 MLOAD DUP1 MLOAD PUSH2 0x1E67 SWAP2 DUP5 SWAP2 PUSH1 0x20 SWAP1 SWAP2 ADD SWAP1 PUSH2 0x1F30 JUMP JUMPDEST POP SWAP2 PUSH1 0x20 ADD SWAP2 SWAP1 PUSH1 0x1 ADD SWAP1 PUSH2 0x1E4A JUMP JUMPDEST POP PUSH2 0x1DDF SWAP3 SWAP2 POP PUSH2 0x1F9D JUMP JUMPDEST DUP3 DUP1 SLOAD DUP3 DUP3 SSTORE SWAP1 PUSH1 0x0 MSTORE PUSH1 0x20 PUSH1 0x0 KECCAK256 SWAP1 DUP2 ADD SWAP3 DUP3 ISZERO PUSH2 0x1ED0 JUMPI SWAP2 PUSH1 0x20 MUL DUP3 ADD JUMPDEST DUP3 DUP2 GT ISZERO PUSH2 0x1ED0 JUMPI DUP3 MLOAD DUP1 MLOAD PUSH2 0x1EC0 SWAP2 DUP5 SWAP2 PUSH1 0x20 SWAP1 SWAP2 ADD SWAP1 PUSH2 0x1F30 JUMP JUMPDEST POP SWAP2 PUSH1 0x20 ADD SWAP2 SWAP1 PUSH1 0x1 ADD SWAP1 PUSH2 0x1EA3 JUMP JUMPDEST POP PUSH2 0x1DDF SWAP3 SWAP2 POP PUSH2 0x1FBA JUMP JUMPDEST PUSH1 0x40 DUP1 MLOAD PUSH1 0x60 DUP2 ADD DUP3 MSTORE PUSH1 0x0 DUP1 DUP3 MSTORE PUSH1 0x20 DUP3 ADD DUP2 SWAP1 MSTORE SWAP2 DUP2 ADD SWAP2 SWAP1 SWAP2 MSTORE SWAP1 JUMP JUMPDEST JUMPDEST DUP1 DUP3 GT ISZERO PUSH2 0x1DDF JUMPI DUP1 SLOAD PUSH1 0x1 PUSH1 0x1 PUSH1 0xA0 SHL SUB NOT AND DUP2 SSTORE PUSH1 0x1 ADD PUSH2 0x1EFD JUMP JUMPDEST JUMPDEST DUP1 DUP3 GT ISZERO PUSH2 0x1DDF JUMPI PUSH1 0x0 DUP2 SSTORE PUSH1 0x1 ADD PUSH2 0x1F1C JUMP JUMPDEST DUP3 DUP1 SLOAD PUSH1 0x1 DUP2 PUSH1 0x1 AND ISZERO PUSH2 0x100 MUL SUB AND PUSH1 0x2 SWAP1 DIV SWAP1 PUSH1 0x0 MSTORE PUSH1 0x20 PUSH1 0x0 KECCAK256 SWAP1 PUSH1 0x1F ADD PUSH1 0x20 SWAP1 DIV DUP2 ADD SWAP3 DUP3 PUSH1 0x1F LT PUSH2 0x1F71 JUMPI DUP1 MLOAD PUSH1 0xFF NOT AND DUP4 DUP1 ADD OR DUP6 SSTORE PUSH2 0x1E1E JUMP JUMPDEST DUP3 DUP1 ADD PUSH1 0x1 ADD DUP6 SSTORE DUP3 ISZERO PUSH2 0x1E1E JUMPI SWAP2 DUP3 ADD DUP3 DUP2 GT ISZERO PUSH2 0x1E1E JUMPI DUP3 MLOAD DUP3 SSTORE SWAP2 PUSH1 0x20 ADD SWAP2 SWAP1 PUSH1 0x1 ADD SWAP1 PUSH2 0x1E03 JUMP JUMPDEST DUP1 DUP3 GT ISZERO PUSH2 0x1DDF JUMPI PUSH1 0x0 PUSH2 0x1FB1 DUP3 DUP3 PUSH2 0x1FD7 JUMP JUMPDEST POP PUSH1 0x1 ADD PUSH2 0x1F9D JUMP JUMPDEST DUP1 DUP3 GT ISZERO PUSH2 0x1DDF JUMPI PUSH1 0x0 PUSH2 0x1FCE DUP3 DUP3 PUSH2 0x1FD7 JUMP JUMPDEST POP PUSH1 0x1 ADD PUSH2 0x1FBA JUMP JUMPDEST POP DUP1 SLOAD PUSH1 0x1 DUP2 PUSH1 0x1 AND ISZERO PUSH2 0x100 MUL SUB AND PUSH1 0x2 SWAP1 DIV PUSH1 0x0 DUP3 SSTORE DUP1 PUSH1 0x1F LT PUSH2 0x1FFD JUMPI POP PUSH2 0x201B JUMP JUMPDEST PUSH1 0x1F ADD PUSH1 0x20 SWAP1 DIV SWAP1 PUSH1 0x0 MSTORE PUSH1 0x20 PUSH1 0x0 KECCAK256 SWAP1 DUP2 ADD SWAP1 PUSH2 0x201B SWAP2 SWAP1 PUSH2 0x1F1B JUMP JUMPDEST POP JUMP JUMPDEST DUP1 CALLDATALOAD PUSH1 0x1 PUSH1 0x1 PUSH1 0xA0 SHL SUB DUP2 AND DUP2 EQ PUSH2 0x17BE JUMPI PUSH1 0x0 DUP1 REVERT JUMPDEST PUSH1 0x0 DUP3 PUSH1 0x1F DUP4 ADD SLT PUSH2 0x2045 JUMPI DUP1 DUP2 REVERT JUMPDEST DUP2 CALLDATALOAD PUSH2 0x2058 PUSH2 0x2053 DUP3 PUSH2 0x3116 JUMP JUMPDEST PUSH2 0x30EF JUMP JUMPDEST DUP2 DUP2 MSTORE SWAP2 POP PUSH1 0x20 DUP1 DUP4 ADD SWAP1 DUP5 DUP2 ADD DUP2 DUP5 MUL DUP7 ADD DUP3 ADD DUP8 LT ISZERO PUSH2 0x2079 JUMPI PUSH1 0x0 DUP1 REVERT JUMPDEST PUSH1 0x0 JUMPDEST DUP5 DUP2 LT ISZERO PUSH2 0x20A0 JUMPI PUSH2 0x208E DUP9 DUP4 PUSH2 0x201E JUMP JUMPDEST DUP5 MSTORE SWAP3 DUP3 ADD SWAP3 SWAP1 DUP3 ADD SWAP1 PUSH1 0x1 ADD PUSH2 0x207C JUMP JUMPDEST POP POP POP POP POP SWAP3 SWAP2 POP POP JUMP JUMPDEST PUSH1 0x0 DUP3 PUSH1 0x1F DUP4 ADD SLT PUSH2 0x20BB JUMPI DUP1 DUP2 REVERT JUMPDEST DUP2 CALLDATALOAD PUSH2 0x20C9 PUSH2 0x2053 DUP3 PUSH2 0x3116 JUMP JUMPDEST DUP2 DUP2 MSTORE SWAP2 POP PUSH1 0x20 DUP1 DUP4 ADD SWAP1 DUP5 DUP2 ADD PUSH1 0x0 JUMPDEST DUP5 DUP2 LT ISZERO PUSH2 0x20A0 JUMPI PUSH2 0x20F1 DUP9 DUP5 DUP5 CALLDATALOAD DUP11 ADD ADD PUSH2 0x21B9 JUMP JUMPDEST DUP5 MSTORE SWAP3 DUP3 ADD SWAP3 SWAP1 DUP3 ADD SWAP1 PUSH1 0x1 ADD PUSH2 0x20DA JUMP JUMPDEST PUSH1 0x0 DUP3 PUSH1 0x1F DUP4 ADD SLT PUSH2 0x2113 JUMPI DUP1 DUP2 REVERT JUMPDEST DUP2 CALLDATALOAD PUSH2 0x2121 PUSH2 0x2053 DUP3 PUSH2 0x3116 JUMP JUMPDEST DUP2 DUP2 MSTORE SWAP2 POP PUSH1 0x20 DUP1 DUP4 ADD SWAP1 DUP5 DUP2 ADD PUSH1 0x0 JUMPDEST DUP5 DUP2 LT ISZERO PUSH2 0x20A0 JUMPI PUSH2 0x2149 DUP9 DUP5 DUP5 CALLDATALOAD DUP11 ADD ADD PUSH2 0x21B9 JUMP JUMPDEST DUP5 MSTORE SWAP3 DUP3 ADD SWAP3 SWAP1 DUP3 ADD SWAP1 PUSH1 0x1 ADD PUSH2 0x2132 JUMP JUMPDEST PUSH1 0x0 DUP3 PUSH1 0x1F DUP4 ADD SLT PUSH2 0x216B JUMPI DUP1 DUP2 REVERT JUMPDEST DUP2 CALLDATALOAD PUSH2 0x2179 PUSH2 0x2053 DUP3 PUSH2 0x3116 JUMP JUMPDEST DUP2 DUP2 MSTORE SWAP2 POP PUSH1 0x20 DUP1 DUP4 ADD SWAP1 DUP5 DUP2 ADD DUP2 DUP5 MUL DUP7 ADD DUP3 ADD DUP8 LT ISZERO PUSH2 0x219A JUMPI PUSH1 0x0 DUP1 REVERT JUMPDEST PUSH1 0x0 JUMPDEST DUP5 DUP2 LT ISZERO PUSH2 0x20A0 JUMPI DUP2 CALLDATALOAD DUP5 MSTORE SWAP3 DUP3 ADD SWAP3 SWAP1 DUP3 ADD SWAP1 PUSH1 0x1 ADD PUSH2 0x219D JUMP JUMPDEST PUSH1 0x0 DUP3 PUSH1 0x1F DUP4 ADD SLT PUSH2 0x21C9 JUMPI DUP1 DUP2 REVERT JUMPDEST DUP2 CALLDATALOAD PUSH2 0x21D7 PUSH2 0x2053 DUP3 PUSH2 0x3136 JUMP JUMPDEST SWAP2 POP DUP1 DUP3 MSTORE DUP4 PUSH1 0x20 DUP3 DUP6 ADD ADD GT ISZERO PUSH2 0x21EE JUMPI PUSH1 0x0 DUP1 REVERT JUMPDEST DUP1 PUSH1 0x20 DUP5 ADD PUSH1 0x20 DUP5 ADD CALLDATACOPY PUSH1 0x0 SWAP1 DUP3 ADD PUSH1 0x20 ADD MSTORE SWAP3 SWAP2 POP POP JUMP JUMPDEST PUSH1 0x0 PUSH1 0x20 DUP3 DUP5 SUB SLT ISZERO PUSH2 0x2218 JUMPI DUP1 DUP2 REVERT JUMPDEST PUSH2 0x1B77 DUP4 DUP4 PUSH2 0x201E JUMP JUMPDEST PUSH1 0x0 DUP1 PUSH1 0x40 DUP4 DUP6 SUB SLT ISZERO PUSH2 0x2234 JUMPI DUP1 DUP2 REVERT JUMPDEST PUSH2 0x223E DUP5 DUP5 PUSH2 0x201E JUMP JUMPDEST SWAP5 PUSH1 0x20 SWAP4 SWAP1 SWAP4 ADD CALLDATALOAD SWAP4 POP POP POP JUMP JUMPDEST PUSH1 0x0 DUP1 PUSH1 0x0 DUP1 PUSH1 0x0 PUSH1 0xA0 DUP7 DUP9 SUB SLT ISZERO PUSH2 0x2263 JUMPI DUP1 DUP2 REVERT JUMPDEST DUP6 CALLDATALOAD PUSH8 0xFFFFFFFFFFFFFFFF DUP1 DUP3 GT ISZERO PUSH2 0x227A JUMPI DUP3 DUP4 REVERT JUMPDEST PUSH2 0x2286 DUP10 DUP4 DUP11 ADD PUSH2 0x2035 JUMP JUMPDEST SWAP7 POP PUSH1 0x20 DUP9 ADD CALLDATALOAD SWAP2 POP DUP1 DUP3 GT ISZERO PUSH2 0x229B JUMPI DUP3 DUP4 REVERT JUMPDEST PUSH2 0x22A7 DUP10 DUP4 DUP11 ADD PUSH2 0x215B JUMP JUMPDEST SWAP6 POP PUSH1 0x40 DUP9 ADD CALLDATALOAD SWAP2 POP DUP1 DUP3 GT ISZERO PUSH2 0x22BC JUMPI DUP3 DUP4 REVERT JUMPDEST PUSH2 0x22C8 DUP10 DUP4 DUP11 ADD PUSH2 0x2103 JUMP JUMPDEST SWAP5 POP PUSH1 0x60 DUP9 ADD CALLDATALOAD SWAP2 POP DUP1 DUP3 GT ISZERO PUSH2 0x22DD JUMPI DUP3 DUP4 REVERT JUMPDEST PUSH2 0x22E9 DUP10 DUP4 DUP11 ADD PUSH2 0x20AB JUMP JUMPDEST SWAP4 POP PUSH1 0x80 DUP9 ADD CALLDATALOAD SWAP2 POP DUP1 DUP3 GT ISZERO PUSH2 0x22FE JUMPI DUP3 DUP4 REVERT JUMPDEST POP PUSH2 0x230B DUP9 DUP3 DUP10 ADD PUSH2 0x21B9 JUMP JUMPDEST SWAP2 POP POP SWAP3 SWAP6 POP SWAP3 SWAP6 SWAP1 SWAP4 POP JUMP JUMPDEST PUSH1 0x0 PUSH1 0x20 DUP3 DUP5 SUB SLT ISZERO PUSH2 0x2329 JUMPI DUP1 DUP2 REVERT JUMPDEST DUP2 MLOAD PUSH2 0x1B77 DUP2 PUSH2 0x3192 JUMP JUMPDEST PUSH1 0x0 PUSH1 0x20 DUP3 DUP5 SUB SLT ISZERO PUSH2 0x2345 JUMPI DUP1 DUP2 REVERT JUMPDEST POP MLOAD SWAP2 SWAP1 POP JUMP JUMPDEST PUSH1 0x0 PUSH1 0x20 DUP3 DUP5 SUB SLT ISZERO PUSH2 0x235D JUMPI DUP1 DUP2 REVERT JUMPDEST DUP2 MLOAD PUSH8 0xFFFFFFFFFFFFFFFF DUP2 GT ISZERO PUSH2 0x2373 JUMPI DUP2 DUP3 REVERT JUMPDEST DUP3 ADD PUSH1 0x1F DUP2 ADD DUP5 SGT PUSH2 0x2383 JUMPI DUP2 DUP3 REVERT JUMPDEST DUP1 MLOAD PUSH2 0x2391 PUSH2 0x2053 DUP3 PUSH2 0x3136 JUMP JUMPDEST DUP2 DUP2 MSTORE DUP6 PUSH1 0x20 DUP4 DUP6 ADD ADD GT ISZERO PUSH2 0x23A5 JUMPI DUP4 DUP5 REVERT JUMPDEST PUSH2 0x23B6 DUP3 PUSH1 0x20 DUP4 ADD PUSH1 0x20 DUP7 ADD PUSH2 0x3166 JUMP JUMPDEST SWAP6 SWAP5 POP POP POP POP POP JUMP JUMPDEST PUSH1 0x0 PUSH1 0x20 DUP3 DUP5 SUB SLT ISZERO PUSH2 0x23D0 JUMPI DUP1 DUP2 REVERT JUMPDEST POP CALLDATALOAD SWAP2 SWAP1 POP JUMP JUMPDEST PUSH1 0x0 DUP1 PUSH1 0x40 DUP4 DUP6 SUB SLT ISZERO PUSH2 0x23E9 JUMPI DUP2 DUP3 REVERT JUMPDEST DUP3 CALLDATALOAD SWAP2 POP PUSH2 0x23FA DUP5 PUSH1 0x20 DUP6 ADD PUSH2 0x201E JUMP JUMPDEST SWAP1 POP SWAP3 POP SWAP3 SWAP1 POP JUMP JUMPDEST PUSH1 0x0 DUP1 PUSH1 0x40 DUP4 DUP6 SUB SLT ISZERO PUSH2 0x2415 JUMPI DUP2 DUP3 REVERT JUMPDEST DUP3 CALLDATALOAD SWAP2 POP PUSH1 0x20 DUP4 ADD CALLDATALOAD PUSH2 0x2427 DUP2 PUSH2 0x3192 JUMP JUMPDEST DUP1 SWAP2 POP POP SWAP3 POP SWAP3 SWAP1 POP JUMP JUMPDEST PUSH1 0x0 DUP1 PUSH1 0x0 DUP1 PUSH1 0x0 PUSH1 0xA0 DUP7 DUP9 SUB SLT ISZERO PUSH2 0x2449 JUMPI DUP3 DUP4 REVERT JUMPDEST DUP6 CALLDATALOAD SWAP5 POP PUSH1 0x20 DUP7 ADD CALLDATALOAD PUSH2 0x245B DUP2 PUSH2 0x3192 JUMP JUMPDEST SWAP4 POP PUSH1 0x40 DUP7 ADD CALLDATALOAD PUSH1 0xFF DUP2 AND DUP2 EQ PUSH2 0x2470 JUMPI DUP4 DUP5 REVERT JUMPDEST SWAP5 SWAP8 SWAP4 SWAP7 POP SWAP4 SWAP5 PUSH1 0x60 DUP2 ADD CALLDATALOAD SWAP5 POP PUSH1 0x80 ADD CALLDATALOAD SWAP3 SWAP2 POP POP JUMP JUMPDEST PUSH1 0x0 PUSH1 0x20 DUP3 DUP5 SUB SLT ISZERO PUSH2 0x2499 JUMPI DUP1 DUP2 REVERT JUMPDEST DUP2 MLOAD PUSH1 0x1 PUSH1 0x1 PUSH1 0x60 SHL SUB DUP2 AND DUP2 EQ PUSH2 0x1B77 JUMPI DUP2 DUP3 REVERT JUMPDEST PUSH1 0x0 DUP2 MLOAD DUP1 DUP5 MSTORE PUSH1 0x20 DUP1 DUP6 ADD SWAP5 POP DUP1 DUP5 ADD DUP4 JUMPDEST DUP4 DUP2 LT ISZERO PUSH2 0x24E7 JUMPI DUP2 MLOAD PUSH1 0x1 PUSH1 0x1 PUSH1 0xA0 SHL SUB AND DUP8 MSTORE SWAP6 DUP3 ADD SWAP6 SWAP1 DUP3 ADD SWAP1 PUSH1 0x1 ADD PUSH2 0x24C2 JUMP JUMPDEST POP SWAP5 SWAP6 SWAP5 POP POP POP POP POP JUMP JUMPDEST PUSH1 0x0 DUP2 MLOAD DUP1 DUP5 MSTORE PUSH1 0x20 DUP1 DUP6 ADD SWAP5 POP DUP5 DUP2 DUP4 MUL DUP7 ADD DUP3 DUP7 ADD DUP6 JUMPDEST DUP6 DUP2 LT ISZERO PUSH2 0x2535 JUMPI DUP4 DUP4 SUB DUP10 MSTORE PUSH2 0x2523 DUP4 DUP4 MLOAD PUSH2 0x2571 JUMP JUMPDEST SWAP9 DUP6 ADD SWAP9 SWAP3 POP SWAP1 DUP5 ADD SWAP1 PUSH1 0x1 ADD PUSH2 0x250B JUMP JUMPDEST POP SWAP1 SWAP8 SWAP7 POP POP POP POP POP POP POP JUMP JUMPDEST PUSH1 0x0 DUP2 MLOAD DUP1 DUP5 MSTORE PUSH1 0x20 DUP1 DUP6 ADD SWAP5 POP DUP1 DUP5 ADD DUP4 JUMPDEST DUP4 DUP2 LT ISZERO PUSH2 0x24E7 JUMPI DUP2 MLOAD DUP8 MSTORE SWAP6 DUP3 ADD SWAP6 SWAP1 DUP3 ADD SWAP1 PUSH1 0x1 ADD PUSH2 0x2555 JUMP JUMPDEST PUSH1 0x0 DUP2 MLOAD DUP1 DUP5 MSTORE PUSH2 0x2589 DUP2 PUSH1 0x20 DUP7 ADD PUSH1 0x20 DUP7 ADD PUSH2 0x3166 JUMP JUMPDEST PUSH1 0x1F ADD PUSH1 0x1F NOT AND SWAP3 SWAP1 SWAP3 ADD PUSH1 0x20 ADD SWAP3 SWAP2 POP POP JUMP JUMPDEST PUSH1 0x0 DUP2 SLOAD PUSH1 0x1 DUP1 DUP3 AND PUSH1 0x0 DUP2 EQ PUSH2 0x25BB JUMPI PUSH1 0x1 DUP2 EQ PUSH2 0x25D9 JUMPI PUSH2 0x2617 JUMP JUMPDEST PUSH1 0x2 DUP4 DIV PUSH1 0x7F AND DUP7 MSTORE PUSH1 0xFF NOT DUP4 AND PUSH1 0x20 DUP8 ADD MSTORE PUSH1 0x40 DUP7 ADD SWAP4 POP PUSH2 0x2617 JUMP JUMPDEST PUSH1 0x2 DUP4 DIV DUP1 DUP8 MSTORE PUSH2 0x25E9 DUP7 PUSH2 0x315A JUMP JUMPDEST PUSH1 0x0 JUMPDEST DUP3 DUP2 LT ISZERO PUSH2 0x260D JUMPI DUP2 SLOAD PUSH1 0x20 DUP3 DUP12 ADD ADD MSTORE DUP5 DUP3 ADD SWAP2 POP PUSH1 0x20 DUP2 ADD SWAP1 POP PUSH2 0x25EC JUMP JUMPDEST DUP9 ADD PUSH1 0x20 ADD SWAP6 POP POP POP JUMPDEST POP POP POP SWAP3 SWAP2 POP POP JUMP JUMPDEST PUSH2 0x1901 PUSH1 0xF0 SHL DUP2 MSTORE PUSH1 0x2 DUP2 ADD SWAP3 SWAP1 SWAP3 MSTORE PUSH1 0x22 DUP3 ADD MSTORE PUSH1 0x42 ADD SWAP1 JUMP JUMPDEST PUSH1 0x1 PUSH1 0x1 PUSH1 0xA0 SHL SUB SWAP2 SWAP1 SWAP2 AND DUP2 MSTORE PUSH1 0x20 ADD SWAP1 JUMP JUMPDEST PUSH1 0x1 PUSH1 0x1 PUSH1 0xA0 SHL SUB SWAP3 SWAP1 SWAP3 AND DUP3 MSTORE PUSH1 0x20 DUP3 ADD MSTORE PUSH1 0x40 ADD SWAP1 JUMP JUMPDEST PUSH1 0x0 PUSH1 0x1 DUP1 PUSH1 0xA0 SHL SUB DUP7 AND DUP3 MSTORE DUP5 PUSH1 0x20 DUP4 ADD MSTORE PUSH1 0xA0 PUSH1 0x40 DUP4 ADD MSTORE PUSH1 0x18 PUSH1 0xA0 DUP4 ADD MSTORE PUSH32 0x73657450656E64696E6741646D696E2861646472657373290000000000000000 PUSH1 0xC0 DUP4 ADD MSTORE PUSH1 0xE0 PUSH1 0x60 DUP4 ADD MSTORE PUSH2 0x26C3 PUSH1 0xE0 DUP4 ADD DUP6 PUSH2 0x2571 JUMP JUMPDEST SWAP1 POP DUP3 PUSH1 0x80 DUP4 ADD MSTORE SWAP6 SWAP5 POP POP POP POP POP JUMP JUMPDEST PUSH1 0x1 PUSH1 0x1 PUSH1 0xA0 SHL SUB SWAP5 SWAP1 SWAP5 AND DUP5 MSTORE PUSH1 0x20 DUP5 ADD SWAP3 SWAP1 SWAP3 MSTORE ISZERO ISZERO PUSH1 0x40 DUP4 ADD MSTORE PUSH1 0x1 PUSH1 0x1 PUSH1 0x60 SHL SUB AND PUSH1 0x60 DUP3 ADD MSTORE PUSH1 0x80 ADD SWAP1 JUMP JUMPDEST PUSH1 0x0 PUSH1 0x1 DUP1 PUSH1 0xA0 SHL SUB DUP8 AND DUP3 MSTORE DUP6 PUSH1 0x20 DUP4 ADD MSTORE PUSH1 0xA0 PUSH1 0x40 DUP4 ADD MSTORE PUSH2 0x272C PUSH1 0xA0 DUP4 ADD DUP7 PUSH2 0x2571 JUMP JUMPDEST DUP3 DUP2 SUB PUSH1 0x60 DUP5 ADD MSTORE PUSH2 0x273E DUP2 DUP7 PUSH2 0x2571 JUMP JUMPDEST SWAP2 POP POP DUP3 PUSH1 0x80 DUP4 ADD MSTORE SWAP7 SWAP6 POP POP POP POP POP POP JUMP JUMPDEST PUSH1 0x0 PUSH1 0x1 DUP1 PUSH1 0xA0 SHL SUB DUP8 AND DUP3 MSTORE DUP6 PUSH1 0x20 DUP4 ADD MSTORE PUSH1 0xA0 PUSH1 0x40 DUP4 ADD MSTORE PUSH2 0x2778 PUSH1 0xA0 DUP4 ADD DUP7 PUSH2 0x259D JUMP JUMPDEST DUP3 DUP2 SUB PUSH1 0x60 DUP5 ADD MSTORE PUSH2 0x273E DUP2 DUP7 PUSH2 0x259D JUMP JUMPDEST PUSH1 0x0 PUSH1 0x80 DUP3 MSTORE PUSH2 0x279D PUSH1 0x80 DUP4 ADD DUP8 PUSH2 0x24AF JUMP JUMPDEST DUP3 DUP2 SUB PUSH1 0x20 DUP5 ADD MSTORE PUSH2 0x27AF DUP2 DUP8 PUSH2 0x2542 JUMP JUMPDEST SWAP1 POP DUP3 DUP2 SUB PUSH1 0x40 DUP5 ADD MSTORE PUSH2 0x27C3 DUP2 DUP7 PUSH2 0x24F2 JUMP JUMPDEST SWAP1 POP DUP3 DUP2 SUB PUSH1 0x60 DUP5 ADD MSTORE PUSH2 0x27D7 DUP2 DUP6 PUSH2 0x24F2 JUMP JUMPDEST SWAP8 SWAP7 POP POP POP POP POP POP POP JUMP JUMPDEST SWAP1 DUP2 MSTORE PUSH1 0x20 ADD SWAP1 JUMP JUMPDEST SWAP4 DUP5 MSTORE PUSH1 0x20 DUP5 ADD SWAP3 SWAP1 SWAP3 MSTORE PUSH1 0x40 DUP4 ADD MSTORE PUSH1 0x1 PUSH1 0x1 PUSH1 0xA0 SHL SUB AND PUSH1 0x60 DUP3 ADD MSTORE PUSH1 0x80 ADD SWAP1 JUMP JUMPDEST SWAP3 DUP4 MSTORE PUSH1 0x20 DUP4 ADD SWAP2 SWAP1 SWAP2 MSTORE ISZERO ISZERO PUSH1 0x40 DUP3 ADD MSTORE PUSH1 0x60 ADD SWAP1 JUMP JUMPDEST SWAP4 DUP5 MSTORE PUSH1 0xFF SWAP3 SWAP1 SWAP3 AND PUSH1 0x20 DUP5 ADD MSTORE PUSH1 0x40 DUP4 ADD MSTORE PUSH1 0x60 DUP3 ADD MSTORE PUSH1 0x80 ADD SWAP1 JUMP JUMPDEST PUSH1 0x20 DUP2 ADD PUSH1 0x8 DUP4 LT PUSH2 0x2853 JUMPI INVALID JUMPDEST SWAP2 SWAP1 MSTORE SWAP1 JUMP JUMPDEST PUSH1 0x0 PUSH1 0x20 DUP3 MSTORE PUSH2 0x1B77 PUSH1 0x20 DUP4 ADD DUP5 PUSH2 0x2571 JUMP JUMPDEST PUSH1 0x20 DUP1 DUP3 MSTORE PUSH1 0x39 SWAP1 DUP3 ADD MSTORE PUSH32 0x476F7665726E6F72416C7068613A3A5F5F61636365707441646D696E3A207365 PUSH1 0x40 DUP3 ADD MSTORE PUSH32 0x6E646572206D75737420626520676F7620677561726469616E00000000000000 PUSH1 0x60 DUP3 ADD MSTORE PUSH1 0x80 ADD SWAP1 JUMP JUMPDEST PUSH1 0x20 DUP1 DUP3 MSTORE PUSH1 0x44 SWAP1 DUP3 ADD MSTORE PUSH32 0x476F7665726E6F72416C7068613A3A71756575653A2070726F706F73616C2063 PUSH1 0x40 DUP3 ADD MSTORE PUSH32 0x616E206F6E6C7920626520717565756564206966206974206973207375636365 PUSH1 0x60 DUP3 ADD MSTORE PUSH4 0x19591959 PUSH1 0xE2 SHL PUSH1 0x80 DUP3 ADD MSTORE PUSH1 0xA0 ADD SWAP1 JUMP JUMPDEST PUSH1 0x20 DUP1 DUP3 MSTORE PUSH1 0x45 SWAP1 DUP3 ADD MSTORE PUSH32 0x476F7665726E6F72416C7068613A3A657865637574653A2070726F706F73616C PUSH1 0x40 DUP3 ADD MSTORE PUSH32 0x2063616E206F6E6C792062652065786563757465642069662069742069732071 PUSH1 0x60 DUP3 ADD MSTORE PUSH5 0x1D595D5959 PUSH1 0xDA SHL PUSH1 0x80 DUP3 ADD MSTORE PUSH1 0xA0 ADD SWAP1 JUMP JUMPDEST PUSH1 0x20 DUP1 DUP3 MSTORE PUSH1 0x4C SWAP1 DUP3 ADD MSTORE PUSH32 0x476F7665726E6F72416C7068613A3A5F5F6578656375746553657454696D656C PUSH1 0x40 DUP3 ADD MSTORE PUSH32 0x6F636B50656E64696E6741646D696E3A2073656E646572206D75737420626520 PUSH1 0x60 DUP3 ADD MSTORE PUSH12 0x33B7BB1033BAB0B93234B0B7 PUSH1 0xA1 SHL PUSH1 0x80 DUP3 ADD MSTORE PUSH1 0xA0 ADD SWAP1 JUMP JUMPDEST PUSH1 0x20 DUP1 DUP3 MSTORE PUSH1 0x29 SWAP1 DUP3 ADD MSTORE PUSH32 0x476F7665726E6F72416C7068613A3A73746174653A20696E76616C6964207072 PUSH1 0x40 DUP3 ADD MSTORE PUSH9 0x1BDC1BDCD85B081A59 PUSH1 0xBA SHL PUSH1 0x60 DUP3 ADD MSTORE PUSH1 0x80 ADD SWAP1 JUMP JUMPDEST PUSH1 0x20 DUP1 DUP3 MSTORE PUSH1 0x2D SWAP1 DUP3 ADD MSTORE PUSH32 0x476F7665726E6F72416C7068613A3A5F63617374566F74653A20766F74657220 PUSH1 0x40 DUP3 ADD MSTORE PUSH13 0x185B1C9958591E481D9BDD1959 PUSH1 0x9A SHL PUSH1 0x60 DUP3 ADD MSTORE PUSH1 0x80 ADD SWAP1 JUMP JUMPDEST PUSH1 0x20 DUP1 DUP3 MSTORE PUSH1 0x59 SWAP1 DUP3 ADD MSTORE PUSH32 0x476F7665726E6F72416C7068613A3A70726F706F73653A206F6E65206C697665 PUSH1 0x40 DUP3 ADD MSTORE PUSH32 0x2070726F706F73616C207065722070726F706F7365722C20666F756E6420616E PUSH1 0x60 DUP3 ADD MSTORE PUSH32 0x20616C72656164792070656E64696E672070726F706F73616C00000000000000 PUSH1 0x80 DUP3 ADD MSTORE PUSH1 0xA0 ADD SWAP1 JUMP JUMPDEST PUSH1 0x20 DUP1 DUP3 MSTORE PUSH1 0x4A SWAP1 DUP3 ADD MSTORE PUSH32 0x476F7665726E6F72416C7068613A3A5F5F717565756553657454696D656C6F63 PUSH1 0x40 DUP3 ADD MSTORE PUSH32 0x6B50656E64696E6741646D696E3A2073656E646572206D75737420626520676F PUSH1 0x60 DUP3 ADD MSTORE PUSH10 0x3B1033BAB0B93234B0B7 PUSH1 0xB1 SHL PUSH1 0x80 DUP3 ADD MSTORE PUSH1 0xA0 ADD SWAP1 JUMP JUMPDEST PUSH1 0x20 DUP1 DUP3 MSTORE PUSH1 0x28 SWAP1 DUP3 ADD MSTORE PUSH32 0x476F7665726E6F72416C7068613A3A70726F706F73653A20746F6F206D616E79 PUSH1 0x40 DUP3 ADD MSTORE PUSH8 0x20616374696F6E73 PUSH1 0xC0 SHL PUSH1 0x60 DUP3 ADD MSTORE PUSH1 0x80 ADD SWAP1 JUMP JUMPDEST PUSH1 0x20 DUP1 DUP3 MSTORE PUSH1 0x11 SWAP1 DUP3 ADD MSTORE PUSH17 0x6164646974696F6E206F766572666C6F77 PUSH1 0x78 SHL PUSH1 0x40 DUP3 ADD MSTORE PUSH1 0x60 ADD SWAP1 JUMP JUMPDEST PUSH1 0x20 DUP1 DUP3 MSTORE PUSH1 0x44 SWAP1 DUP3 ADD MSTORE PUSH32 0x476F7665726E6F72416C7068613A3A70726F706F73653A2070726F706F73616C PUSH1 0x40 DUP3 ADD MSTORE PUSH32 0x2066756E6374696F6E20696E666F726D6174696F6E206172697479206D69736D PUSH1 0x60 DUP3 ADD MSTORE PUSH4 0xC2E8C6D PUSH1 0xE3 SHL PUSH1 0x80 DUP3 ADD MSTORE PUSH1 0xA0 ADD SWAP1 JUMP JUMPDEST PUSH1 0x20 DUP1 DUP3 MSTORE PUSH1 0x2F SWAP1 DUP3 ADD MSTORE PUSH32 0x476F7665726E6F72416C7068613A3A63616E63656C3A2070726F706F73657220 PUSH1 0x40 DUP3 ADD MSTORE PUSH15 0x18589BDD99481D1A1C995CDA1BDB19 PUSH1 0x8A SHL PUSH1 0x60 DUP3 ADD MSTORE PUSH1 0x80 ADD SWAP1 JUMP JUMPDEST PUSH1 0x20 DUP1 DUP3 MSTORE PUSH1 0x44 SWAP1 DUP3 ADD MSTORE PUSH32 0x476F7665726E6F72416C7068613A3A5F71756575654F725265766572743A2070 PUSH1 0x40 DUP3 ADD MSTORE PUSH32 0x726F706F73616C20616374696F6E20616C726561647920717565756564206174 PUSH1 0x60 DUP3 ADD MSTORE PUSH4 0x20657461 PUSH1 0xE0 SHL PUSH1 0x80 DUP3 ADD MSTORE PUSH1 0xA0 ADD SWAP1 JUMP JUMPDEST PUSH1 0x20 DUP1 DUP3 MSTORE PUSH1 0x2C SWAP1 DUP3 ADD MSTORE PUSH32 0x476F7665726E6F72416C7068613A3A70726F706F73653A206D7573742070726F PUSH1 0x40 DUP3 ADD MSTORE PUSH12 0x7669646520616374696F6E73 PUSH1 0xA0 SHL PUSH1 0x60 DUP3 ADD MSTORE PUSH1 0x80 ADD SWAP1 JUMP JUMPDEST PUSH1 0x20 DUP1 DUP3 MSTORE PUSH1 0x3F SWAP1 DUP3 ADD MSTORE PUSH32 0x476F7665726E6F72416C7068613A3A70726F706F73653A2070726F706F736572 PUSH1 0x40 DUP3 ADD MSTORE PUSH32 0x20766F7465732062656C6F772070726F706F73616C207468726573686F6C6400 PUSH1 0x60 DUP3 ADD MSTORE PUSH1 0x80 ADD SWAP1 JUMP JUMPDEST PUSH1 0x20 DUP1 DUP3 MSTORE PUSH1 0x2F SWAP1 DUP3 ADD MSTORE PUSH32 0x476F7665726E6F72416C7068613A3A63617374566F746542795369673A20696E PUSH1 0x40 DUP3 ADD MSTORE PUSH15 0x76616C6964207369676E6174757265 PUSH1 0x88 SHL PUSH1 0x60 DUP3 ADD MSTORE PUSH1 0x80 ADD SWAP1 JUMP JUMPDEST PUSH1 0x20 DUP1 DUP3 MSTORE PUSH1 0x58 SWAP1 DUP3 ADD MSTORE PUSH32 0x476F7665726E6F72416C7068613A3A70726F706F73653A206F6E65206C697665 PUSH1 0x40 DUP3 ADD MSTORE PUSH32 0x2070726F706F73616C207065722070726F706F7365722C20666F756E6420616E PUSH1 0x60 DUP3 ADD MSTORE PUSH32 0x20616C7265616479206163746976652070726F706F73616C0000000000000000 PUSH1 0x80 DUP3 ADD MSTORE PUSH1 0xA0 ADD SWAP1 JUMP JUMPDEST PUSH1 0x20 DUP1 DUP3 MSTORE PUSH1 0x36 SWAP1 DUP3 ADD MSTORE PUSH32 0x476F7665726E6F72416C7068613A3A63616E63656C3A2063616E6E6F74206361 PUSH1 0x40 DUP3 ADD MSTORE PUSH22 0x1B98D95B08195E1958DD5D1959081C1C9BDC1BDCD85B PUSH1 0x52 SHL PUSH1 0x60 DUP3 ADD MSTORE PUSH1 0x80 ADD SWAP1 JUMP JUMPDEST PUSH1 0x20 DUP1 DUP3 MSTORE PUSH1 0x2A SWAP1 DUP3 ADD MSTORE PUSH32 0x476F7665726E6F72416C7068613A3A5F63617374566F74653A20766F74696E67 PUSH1 0x40 DUP3 ADD MSTORE PUSH10 0x81A5CC818DB1BDCD959 PUSH1 0xB2 SHL PUSH1 0x60 DUP3 ADD MSTORE PUSH1 0x80 ADD SWAP1 JUMP JUMPDEST PUSH1 0x20 DUP1 DUP3 MSTORE PUSH1 0x15 SWAP1 DUP3 ADD MSTORE PUSH21 0x7375627472616374696F6E20756E646572666C6F77 PUSH1 0x58 SHL PUSH1 0x40 DUP3 ADD MSTORE PUSH1 0x60 ADD SWAP1 JUMP JUMPDEST PUSH1 0x20 DUP1 DUP3 MSTORE PUSH1 0x36 SWAP1 DUP3 ADD MSTORE PUSH32 0x476F7665726E6F72416C7068613A3A5F5F61626469636174653A2073656E6465 PUSH1 0x40 DUP3 ADD MSTORE PUSH22 0x391036BAB9BA1031329033B7BB1033BAB0B93234B0B7 PUSH1 0x51 SHL PUSH1 0x60 DUP3 ADD MSTORE PUSH1 0x80 ADD SWAP1 JUMP JUMPDEST DUP2 MLOAD ISZERO ISZERO DUP2 MSTORE PUSH1 0x20 DUP1 DUP4 ADD MLOAD ISZERO ISZERO SWAP1 DUP3 ADD MSTORE PUSH1 0x40 SWAP2 DUP3 ADD MLOAD PUSH1 0x1 PUSH1 0x1 PUSH1 0x60 SHL SUB AND SWAP2 DUP2 ADD SWAP2 SWAP1 SWAP2 MSTORE PUSH1 0x60 ADD SWAP1 JUMP JUMPDEST DUP10 DUP2 MSTORE PUSH1 0x1 PUSH1 0x1 PUSH1 0xA0 SHL SUB DUP10 AND PUSH1 0x20 DUP3 ADD MSTORE PUSH2 0x120 PUSH1 0x40 DUP3 ADD DUP2 SWAP1 MSTORE PUSH1 0x0 SWAP1 PUSH2 0x3028 DUP4 DUP3 ADD DUP12 PUSH2 0x24AF JUMP JUMPDEST SWAP1 POP DUP3 DUP2 SUB PUSH1 0x60 DUP5 ADD MSTORE PUSH2 0x303C DUP2 DUP11 PUSH2 0x2542 JUMP JUMPDEST SWAP1 POP DUP3 DUP2 SUB PUSH1 0x80 DUP5 ADD MSTORE PUSH2 0x3050 DUP2 DUP10 PUSH2 0x24F2 JUMP JUMPDEST SWAP1 POP DUP3 DUP2 SUB PUSH1 0xA0 DUP5 ADD MSTORE PUSH2 0x3064 DUP2 DUP9 PUSH2 0x24F2 JUMP JUMPDEST SWAP1 POP DUP6 PUSH1 0xC0 DUP5 ADD MSTORE DUP5 PUSH1 0xE0 DUP5 ADD MSTORE DUP3 DUP2 SUB PUSH2 0x100 DUP5 ADD MSTORE PUSH2 0x3085 DUP2 DUP6 PUSH2 0x2571 JUMP JUMPDEST SWAP13 SWAP12 POP POP POP POP POP POP POP POP POP POP POP POP JUMP JUMPDEST SWAP9 DUP10 MSTORE PUSH1 0x1 PUSH1 0x1 PUSH1 0xA0 SHL SUB SWAP8 SWAP1 SWAP8 AND PUSH1 0x20 DUP10 ADD MSTORE PUSH1 0x40 DUP9 ADD SWAP6 SWAP1 SWAP6 MSTORE PUSH1 0x60 DUP8 ADD SWAP4 SWAP1 SWAP4 MSTORE PUSH1 0x80 DUP7 ADD SWAP2 SWAP1 SWAP2 MSTORE PUSH1 0xA0 DUP6 ADD MSTORE PUSH1 0xC0 DUP5 ADD MSTORE ISZERO ISZERO PUSH1 0xE0 DUP4 ADD MSTORE ISZERO ISZERO PUSH2 0x100 DUP3 ADD MSTORE PUSH2 0x120 ADD SWAP1 JUMP JUMPDEST SWAP2 DUP3 MSTORE PUSH1 0x20 DUP3 ADD MSTORE PUSH1 0x40 ADD SWAP1 JUMP JUMPDEST PUSH1 0x40 MLOAD DUP2 DUP2 ADD PUSH8 0xFFFFFFFFFFFFFFFF DUP2 GT DUP3 DUP3 LT OR ISZERO PUSH2 0x310E JUMPI PUSH1 0x0 DUP1 REVERT JUMPDEST PUSH1 0x40 MSTORE SWAP2 SWAP1 POP JUMP JUMPDEST PUSH1 0x0 PUSH8 0xFFFFFFFFFFFFFFFF DUP3 GT ISZERO PUSH2 0x312C JUMPI DUP1 DUP2 REVERT JUMPDEST POP PUSH1 0x20 SWAP1 DUP2 MUL ADD SWAP1 JUMP JUMPDEST PUSH1 0x0 PUSH8 0xFFFFFFFFFFFFFFFF DUP3 GT ISZERO PUSH2 0x314C JUMPI DUP1 DUP2 REVERT JUMPDEST POP PUSH1 0x1F ADD PUSH1 0x1F NOT AND PUSH1 0x20 ADD SWAP1 JUMP JUMPDEST PUSH1 0x0 SWAP1 DUP2 MSTORE PUSH1 0x20 SWAP1 KECCAK256 SWAP1 JUMP JUMPDEST PUSH1 0x0 JUMPDEST DUP4 DUP2 LT ISZERO PUSH2 0x3181 JUMPI DUP2 DUP2 ADD MLOAD DUP4 DUP3 ADD MSTORE PUSH1 0x20 ADD PUSH2 0x3169 JUMP JUMPDEST DUP4 DUP2 GT ISZERO PUSH2 0x108C JUMPI POP POP PUSH1 0x0 SWAP2 ADD MSTORE JUMP JUMPDEST DUP1 ISZERO ISZERO DUP2 EQ PUSH2 0x201B JUMPI PUSH1 0x0 DUP1 REVERT INVALID LOG2 PUSH5 0x6970667358 0x22 SLT KECCAK256 0xA8 0xE7 0xB0 0x28 PUSH17 0xEA98DC50A0EE1696C643D9D1929CD2BC17 PC 0xEB DUP9 PUSH24 0xE3BB65F78EC364736F6C634300060C003300000000000000 "
        },
        "methodIdentifiers": {
          "BALLOT_TYPEHASH()": "deaaa7cc",
          "DOMAIN_TYPEHASH()": "20606b70",
          "MPond()": "ad0d7f7d",
          "__abdicate()": "760fbc13",
          "__acceptAdmin()": "b9a61961",
          "__executeSetTimelockPendingAdmin(address,uint256)": "21f43e42",
          "__queueSetTimelockPendingAdmin(address,uint256)": "91500671",
          "cancel(uint256)": "40e58ee5",
          "castVote(uint256,bool)": "15373e3d",
          "castVoteBySig(uint256,bool,uint8,bytes32,bytes32)": "4634c61f",
          "execute(uint256)": "fe0d94c1",
          "getActions(uint256)": "328dd982",
          "getReceipt(uint256,address)": "e23a9a52",
          "guardian()": "452a9320",
          "latestProposalIds(address)": "17977c61",
          "name()": "06fdde03",
          "proposalCount()": "da35c664",
          "proposalMaxOperations()": "7bdbe4d0",
          "proposalThreshold()": "b58131b0",
          "proposals(uint256)": "013cf08b",
          "propose(address[],uint256[],string[],bytes[],string)": "da95691a",
          "queue(uint256)": "ddf0b009",
          "quorumVotes()": "24bc1a64",
          "state(uint256)": "3e4f49e6",
          "timelock()": "d33219b4",
          "votingDelay()": "3932abb1",
          "votingPeriod()": "02a251a3"
        }
      }
    }
  }
}