{
  "contracts/Compound/GovernorBravoDelegator.sol": {
    "GovernorBravoDelegator": {
      "abi": [
        {
          "inputs": [
            {
              "internalType": "address",
              "name": "timelock_",
              "type": "address"
            },
            {
              "internalType": "address",
              "name": "comp_",
              "type": "address"
            },
            {
              "internalType": "address",
              "name": "admin_",
              "type": "address"
            },
            {
              "internalType": "address",
              "name": "implementation_",
              "type": "address"
            },
            {
              "internalType": "uint256",
              "name": "votingPeriod_",
              "type": "uint256"
            },
            {
              "internalType": "uint256",
              "name": "votingDelay_",
              "type": "uint256"
            },
            {
              "internalType": "uint256",
              "name": "proposalThreshold_",
              "type": "uint256"
            }
          ],
          "stateMutability": "nonpayable",
          "type": "constructor"
        },
        {
          "anonymous": false,
          "inputs": [
            {
              "indexed": false,
              "internalType": "address",
              "name": "oldAdmin",
              "type": "address"
            },
            {
              "indexed": false,
              "internalType": "address",
              "name": "newAdmin",
              "type": "address"
            }
          ],
          "name": "NewAdmin",
          "type": "event"
        },
        {
          "anonymous": false,
          "inputs": [
            {
              "indexed": false,
              "internalType": "address",
              "name": "oldImplementation",
              "type": "address"
            },
            {
              "indexed": false,
              "internalType": "address",
              "name": "newImplementation",
              "type": "address"
            }
          ],
          "name": "NewImplementation",
          "type": "event"
        },
        {
          "anonymous": false,
          "inputs": [
            {
              "indexed": false,
              "internalType": "address",
              "name": "oldPendingAdmin",
              "type": "address"
            },
            {
              "indexed": false,
              "internalType": "address",
              "name": "newPendingAdmin",
              "type": "address"
            }
          ],
          "name": "NewPendingAdmin",
          "type": "event"
        },
        {
          "anonymous": false,
          "inputs": [
            {
              "indexed": false,
              "internalType": "uint256",
              "name": "id",
              "type": "uint256"
            }
          ],
          "name": "ProposalCanceled",
          "type": "event"
        },
        {
          "anonymous": false,
          "inputs": [
            {
              "indexed": false,
              "internalType": "uint256",
              "name": "id",
              "type": "uint256"
            },
            {
              "indexed": false,
              "internalType": "address",
              "name": "proposer",
              "type": "address"
            },
            {
              "indexed": false,
              "internalType": "address[]",
              "name": "targets",
              "type": "address[]"
            },
            {
              "indexed": false,
              "internalType": "uint256[]",
              "name": "values",
              "type": "uint256[]"
            },
            {
              "indexed": false,
              "internalType": "string[]",
              "name": "signatures",
              "type": "string[]"
            },
            {
              "indexed": false,
              "internalType": "bytes[]",
              "name": "calldatas",
              "type": "bytes[]"
            },
            {
              "indexed": false,
              "internalType": "uint256",
              "name": "startBlock",
              "type": "uint256"
            },
            {
              "indexed": false,
              "internalType": "uint256",
              "name": "endBlock",
              "type": "uint256"
            },
            {
              "indexed": false,
              "internalType": "string",
              "name": "description",
              "type": "string"
            }
          ],
          "name": "ProposalCreated",
          "type": "event"
        },
        {
          "anonymous": false,
          "inputs": [
            {
              "indexed": false,
              "internalType": "uint256",
              "name": "id",
              "type": "uint256"
            }
          ],
          "name": "ProposalExecuted",
          "type": "event"
        },
        {
          "anonymous": false,
          "inputs": [
            {
              "indexed": false,
              "internalType": "uint256",
              "name": "id",
              "type": "uint256"
            },
            {
              "indexed": false,
              "internalType": "uint256",
              "name": "eta",
              "type": "uint256"
            }
          ],
          "name": "ProposalQueued",
          "type": "event"
        },
        {
          "anonymous": false,
          "inputs": [
            {
              "indexed": false,
              "internalType": "uint256",
              "name": "oldProposalThreshold",
              "type": "uint256"
            },
            {
              "indexed": false,
              "internalType": "uint256",
              "name": "newProposalThreshold",
              "type": "uint256"
            }
          ],
          "name": "ProposalThresholdSet",
          "type": "event"
        },
        {
          "anonymous": false,
          "inputs": [
            {
              "indexed": true,
              "internalType": "address",
              "name": "voter",
              "type": "address"
            },
            {
              "indexed": false,
              "internalType": "uint256",
              "name": "proposalId",
              "type": "uint256"
            },
            {
              "indexed": false,
              "internalType": "uint8",
              "name": "support",
              "type": "uint8"
            },
            {
              "indexed": false,
              "internalType": "uint256",
              "name": "votes",
              "type": "uint256"
            },
            {
              "indexed": false,
              "internalType": "string",
              "name": "reason",
              "type": "string"
            }
          ],
          "name": "VoteCast",
          "type": "event"
        },
        {
          "anonymous": false,
          "inputs": [
            {
              "indexed": false,
              "internalType": "uint256",
              "name": "oldVotingDelay",
              "type": "uint256"
            },
            {
              "indexed": false,
              "internalType": "uint256",
              "name": "newVotingDelay",
              "type": "uint256"
            }
          ],
          "name": "VotingDelaySet",
          "type": "event"
        },
        {
          "anonymous": false,
          "inputs": [
            {
              "indexed": false,
              "internalType": "uint256",
              "name": "oldVotingPeriod",
              "type": "uint256"
            },
            {
              "indexed": false,
              "internalType": "uint256",
              "name": "newVotingPeriod",
              "type": "uint256"
            }
          ],
          "name": "VotingPeriodSet",
          "type": "event"
        },
        {
          "stateMutability": "payable",
          "type": "fallback"
        },
        {
          "inputs": [
            {
              "internalType": "address",
              "name": "implementation_",
              "type": "address"
            }
          ],
          "name": "_setImplementation",
          "outputs": [],
          "stateMutability": "nonpayable",
          "type": "function"
        },
        {
          "inputs": [],
          "name": "admin",
          "outputs": [
            {
              "internalType": "address",
              "name": "",
              "type": "address"
            }
          ],
          "stateMutability": "view",
          "type": "function"
        },
        {
          "inputs": [],
          "name": "implementation",
          "outputs": [
            {
              "internalType": "address",
              "name": "",
              "type": "address"
            }
          ],
          "stateMutability": "view",
          "type": "function"
        },
        {
          "inputs": [],
          "name": "pendingAdmin",
          "outputs": [
            {
              "internalType": "address",
              "name": "",
              "type": "address"
            }
          ],
          "stateMutability": "view",
          "type": "function"
        }
      ],
      "evm": {
        "bytecode": {
          "linkReferences": {},
          "object": "608060405234801561001057600080fd5b5060405161076738038061076783398101604081905261002f91610217565b600080546001600160a01b03191633179055604051610093908590610060908a908a908890889088906024016102de565b60408051601f198184030181529190526020810180516001600160e01b0390811663344fe42d60e21b179091526100c916565b61009c84610140565b5050600080546001600160a01b0319166001600160a01b039490941693909317909255506103b892505050565b60006060836001600160a01b0316836040516100e5919061028b565b600060405180830381855af49150503d8060008114610120576040519150601f19603f3d011682016040523d82523d6000602084013e610125565b606091505b5091509150600082141561013a573d60208201fd5b50505050565b6000546001600160a01b031633146101735760405162461bcd60e51b815260040161016a9061036d565b60405180910390fd5b6001600160a01b0381166101995760405162461bcd60e51b815260040161016a9061030f565b600280546001600160a01b038381166001600160a01b031983161792839055604051918116927fd604de94d45953f9138079ec1b82d533cb2160c906d1076d1f7ed54befbca97a926101ee92859216906102c4565b60405180910390a15050565b80516001600160a01b038116811461021157600080fd5b92915050565b600080600080600080600060e0888a031215610231578283fd5b61023b89896101fa565b965061024a8960208a016101fa565b95506102598960408a016101fa565b94506102688960608a016101fa565b93506080880151925060a0880151915060c0880151905092959891949750929550565b60008251815b818110156102ab5760208186018101518583015201610291565b818111156102b95782828501525b509190910192915050565b6001600160a01b0392831681529116602082015260400190565b6001600160a01b03958616815293909416602084015260408301919091526060820152608081019190915260a00190565b6020808252604a9082015260008051602061074783398151915260408201527f656d656e746174696f6e3a20696e76616c696420696d706c656d656e746174696060820152696f6e206164647265737360b01b608082015260a00190565b602080825260369082015260008051602061074783398151915260408201527f656d656e746174696f6e3a2061646d696e206f6e6c7900000000000000000000606082015260800190565b610380806103c76000396000f3fe60806040526004361061003f5760003560e01c806326782247146100ba5780635c60da1b146100e5578063bb913f41146100fa578063f851a4401461011c575b6002546040516000916001600160a01b03169061005f9083903690610246565b600060405180830381855af49150503d806000811461009a576040519150601f19603f3d011682016040523d82523d6000602084013e61009f565b606091505b505090506040513d6000823e8180156100b6573d82f35b3d82fd5b3480156100c657600080fd5b506100cf610131565b6040516100dc9190610256565b60405180910390f35b3480156100f157600080fd5b506100cf610140565b34801561010657600080fd5b5061011a610115366004610218565b61014f565b005b34801561012857600080fd5b506100cf610209565b6001546001600160a01b031681565b6002546001600160a01b031681565b6000546001600160a01b031633146101825760405162461bcd60e51b8152600401610179906102f4565b60405180910390fd5b6001600160a01b0381166101a85760405162461bcd60e51b815260040161017990610284565b600280546001600160a01b038381166001600160a01b031983161792839055604051918116927fd604de94d45953f9138079ec1b82d533cb2160c906d1076d1f7ed54befbca97a926101fd928592169061026a565b60405180910390a15050565b6000546001600160a01b031681565b600060208284031215610229578081fd5b81356001600160a01b038116811461023f578182fd5b9392505050565b6000828483379101908152919050565b6001600160a01b0391909116815260200190565b6001600160a01b0392831681529116602082015260400190565b6020808252604a908201527f476f7665726e6f72427261766f44656c656761746f723a3a5f736574496d706c60408201527f656d656e746174696f6e3a20696e76616c696420696d706c656d656e746174696060820152696f6e206164647265737360b01b608082015260a00190565b60208082526036908201527f476f7665726e6f72427261766f44656c656761746f723a3a5f736574496d706c604082015275656d656e746174696f6e3a2061646d696e206f6e6c7960501b60608201526080019056fea26469706673582212203ea6238149d7de3c8eecc20146cd58bcb76974197e4d92e7fbd51eef5ea7b49364736f6c634300060c0033476f7665726e6f72427261766f44656c656761746f723a3a5f736574496d706c",
          "opcodes": "PUSH1 0x80 PUSH1 0x40 MSTORE CALLVALUE DUP1 ISZERO PUSH2 0x10 JUMPI PUSH1 0x0 DUP1 REVERT JUMPDEST POP PUSH1 0x40 MLOAD PUSH2 0x767 CODESIZE SUB DUP1 PUSH2 0x767 DUP4 CODECOPY DUP2 ADD PUSH1 0x40 DUP2 SWAP1 MSTORE PUSH2 0x2F SWAP2 PUSH2 0x217 JUMP JUMPDEST PUSH1 0x0 DUP1 SLOAD PUSH1 0x1 PUSH1 0x1 PUSH1 0xA0 SHL SUB NOT AND CALLER OR SWAP1 SSTORE PUSH1 0x40 MLOAD PUSH2 0x93 SWAP1 DUP6 SWAP1 PUSH2 0x60 SWAP1 DUP11 SWAP1 DUP11 SWAP1 DUP9 SWAP1 DUP9 SWAP1 DUP9 SWAP1 PUSH1 0x24 ADD PUSH2 0x2DE JUMP JUMPDEST PUSH1 0x40 DUP1 MLOAD PUSH1 0x1F NOT DUP2 DUP5 SUB ADD DUP2 MSTORE SWAP2 SWAP1 MSTORE PUSH1 0x20 DUP2 ADD DUP1 MLOAD PUSH1 0x1 PUSH1 0x1 PUSH1 0xE0 SHL SUB SWAP1 DUP2 AND PUSH4 0x344FE42D PUSH1 0xE2 SHL OR SWAP1 SWAP2 MSTORE PUSH2 0xC9 AND JUMP JUMPDEST PUSH2 0x9C DUP5 PUSH2 0x140 JUMP JUMPDEST POP POP PUSH1 0x0 DUP1 SLOAD PUSH1 0x1 PUSH1 0x1 PUSH1 0xA0 SHL SUB NOT AND PUSH1 0x1 PUSH1 0x1 PUSH1 0xA0 SHL SUB SWAP5 SWAP1 SWAP5 AND SWAP4 SWAP1 SWAP4 OR SWAP1 SWAP3 SSTORE POP PUSH2 0x3B8 SWAP3 POP POP POP JUMP JUMPDEST PUSH1 0x0 PUSH1 0x60 DUP4 PUSH1 0x1 PUSH1 0x1 PUSH1 0xA0 SHL SUB AND DUP4 PUSH1 0x40 MLOAD PUSH2 0xE5 SWAP2 SWAP1 PUSH2 0x28B JUMP JUMPDEST PUSH1 0x0 PUSH1 0x40 MLOAD DUP1 DUP4 SUB DUP2 DUP6 GAS DELEGATECALL SWAP2 POP POP RETURNDATASIZE DUP1 PUSH1 0x0 DUP2 EQ PUSH2 0x120 JUMPI PUSH1 0x40 MLOAD SWAP2 POP PUSH1 0x1F NOT PUSH1 0x3F RETURNDATASIZE ADD AND DUP3 ADD PUSH1 0x40 MSTORE RETURNDATASIZE DUP3 MSTORE RETURNDATASIZE PUSH1 0x0 PUSH1 0x20 DUP5 ADD RETURNDATACOPY PUSH2 0x125 JUMP JUMPDEST PUSH1 0x60 SWAP2 POP JUMPDEST POP SWAP2 POP SWAP2 POP PUSH1 0x0 DUP3 EQ ISZERO PUSH2 0x13A JUMPI RETURNDATASIZE PUSH1 0x20 DUP3 ADD REVERT JUMPDEST POP POP POP POP JUMP JUMPDEST PUSH1 0x0 SLOAD PUSH1 0x1 PUSH1 0x1 PUSH1 0xA0 SHL SUB AND CALLER EQ PUSH2 0x173 JUMPI PUSH1 0x40 MLOAD PUSH3 0x461BCD PUSH1 0xE5 SHL DUP2 MSTORE PUSH1 0x4 ADD PUSH2 0x16A SWAP1 PUSH2 0x36D JUMP JUMPDEST PUSH1 0x40 MLOAD DUP1 SWAP2 SUB SWAP1 REVERT JUMPDEST PUSH1 0x1 PUSH1 0x1 PUSH1 0xA0 SHL SUB DUP2 AND PUSH2 0x199 JUMPI PUSH1 0x40 MLOAD PUSH3 0x461BCD PUSH1 0xE5 SHL DUP2 MSTORE PUSH1 0x4 ADD PUSH2 0x16A SWAP1 PUSH2 0x30F JUMP JUMPDEST PUSH1 0x2 DUP1 SLOAD PUSH1 0x1 PUSH1 0x1 PUSH1 0xA0 SHL SUB DUP4 DUP2 AND PUSH1 0x1 PUSH1 0x1 PUSH1 0xA0 SHL SUB NOT DUP4 AND OR SWAP3 DUP4 SWAP1 SSTORE PUSH1 0x40 MLOAD SWAP2 DUP2 AND SWAP3 PUSH32 0xD604DE94D45953F9138079EC1B82D533CB2160C906D1076D1F7ED54BEFBCA97A SWAP3 PUSH2 0x1EE SWAP3 DUP6 SWAP3 AND SWAP1 PUSH2 0x2C4 JUMP JUMPDEST PUSH1 0x40 MLOAD DUP1 SWAP2 SUB SWAP1 LOG1 POP POP JUMP JUMPDEST DUP1 MLOAD PUSH1 0x1 PUSH1 0x1 PUSH1 0xA0 SHL SUB DUP2 AND DUP2 EQ PUSH2 0x211 JUMPI PUSH1 0x0 DUP1 REVERT JUMPDEST SWAP3 SWAP2 POP POP JUMP JUMPDEST PUSH1 0x0 DUP1 PUSH1 0x0 DUP1 PUSH1 0x0 DUP1 PUSH1 0x0 PUSH1 0xE0 DUP9 DUP11 SUB SLT ISZERO PUSH2 0x231 JUMPI DUP3 DUP4 REVERT JUMPDEST PUSH2 0x23B DUP10 DUP10 PUSH2 0x1FA JUMP JUMPDEST SWAP7 POP PUSH2 0x24A DUP10 PUSH1 0x20 DUP11 ADD PUSH2 0x1FA JUMP JUMPDEST SWAP6 POP PUSH2 0x259 DUP10 PUSH1 0x40 DUP11 ADD PUSH2 0x1FA JUMP JUMPDEST SWAP5 POP PUSH2 0x268 DUP10 PUSH1 0x60 DUP11 ADD PUSH2 0x1FA JUMP JUMPDEST SWAP4 POP PUSH1 0x80 DUP9 ADD MLOAD SWAP3 POP PUSH1 0xA0 DUP9 ADD MLOAD SWAP2 POP PUSH1 0xC0 DUP9 ADD MLOAD SWAP1 POP SWAP3 SWAP6 SWAP9 SWAP2 SWAP5 SWAP8 POP SWAP3 SWAP6 POP JUMP JUMPDEST PUSH1 0x0 DUP3 MLOAD DUP2 JUMPDEST DUP2 DUP2 LT ISZERO PUSH2 0x2AB JUMPI PUSH1 0x20 DUP2 DUP7 ADD DUP2 ADD MLOAD DUP6 DUP4 ADD MSTORE ADD PUSH2 0x291 JUMP JUMPDEST DUP2 DUP2 GT ISZERO PUSH2 0x2B9 JUMPI DUP3 DUP3 DUP6 ADD MSTORE JUMPDEST POP SWAP2 SWAP1 SWAP2 ADD SWAP3 SWAP2 POP POP JUMP JUMPDEST PUSH1 0x1 PUSH1 0x1 PUSH1 0xA0 SHL SUB SWAP3 DUP4 AND DUP2 MSTORE SWAP2 AND PUSH1 0x20 DUP3 ADD MSTORE PUSH1 0x40 ADD SWAP1 JUMP JUMPDEST PUSH1 0x1 PUSH1 0x1 PUSH1 0xA0 SHL SUB SWAP6 DUP7 AND DUP2 MSTORE SWAP4 SWAP1 SWAP5 AND PUSH1 0x20 DUP5 ADD MSTORE PUSH1 0x40 DUP4 ADD SWAP2 SWAP1 SWAP2 MSTORE PUSH1 0x60 DUP3 ADD MSTORE PUSH1 0x80 DUP2 ADD SWAP2 SWAP1 SWAP2 MSTORE PUSH1 0xA0 ADD SWAP1 JUMP JUMPDEST PUSH1 0x20 DUP1 DUP3 MSTORE PUSH1 0x4A SWAP1 DUP3 ADD MSTORE PUSH1 0x0 DUP1 MLOAD PUSH1 0x20 PUSH2 0x747 DUP4 CODECOPY DUP2 MLOAD SWAP2 MSTORE PUSH1 0x40 DUP3 ADD MSTORE PUSH32 0x656D656E746174696F6E3A20696E76616C696420696D706C656D656E74617469 PUSH1 0x60 DUP3 ADD MSTORE PUSH10 0x6F6E2061646472657373 PUSH1 0xB0 SHL PUSH1 0x80 DUP3 ADD MSTORE PUSH1 0xA0 ADD SWAP1 JUMP JUMPDEST PUSH1 0x20 DUP1 DUP3 MSTORE PUSH1 0x36 SWAP1 DUP3 ADD MSTORE PUSH1 0x0 DUP1 MLOAD PUSH1 0x20 PUSH2 0x747 DUP4 CODECOPY DUP2 MLOAD SWAP2 MSTORE PUSH1 0x40 DUP3 ADD MSTORE PUSH32 0x656D656E746174696F6E3A2061646D696E206F6E6C7900000000000000000000 PUSH1 0x60 DUP3 ADD MSTORE PUSH1 0x80 ADD SWAP1 JUMP JUMPDEST PUSH2 0x380 DUP1 PUSH2 0x3C7 PUSH1 0x0 CODECOPY PUSH1 0x0 RETURN INVALID PUSH1 0x80 PUSH1 0x40 MSTORE PUSH1 0x4 CALLDATASIZE LT PUSH2 0x3F JUMPI PUSH1 0x0 CALLDATALOAD PUSH1 0xE0 SHR DUP1 PUSH4 0x26782247 EQ PUSH2 0xBA JUMPI DUP1 PUSH4 0x5C60DA1B EQ PUSH2 0xE5 JUMPI DUP1 PUSH4 0xBB913F41 EQ PUSH2 0xFA JUMPI DUP1 PUSH4 0xF851A440 EQ PUSH2 0x11C JUMPI JUMPDEST PUSH1 0x2 SLOAD PUSH1 0x40 MLOAD PUSH1 0x0 SWAP2 PUSH1 0x1 PUSH1 0x1 PUSH1 0xA0 SHL SUB AND SWAP1 PUSH2 0x5F SWAP1 DUP4 SWAP1 CALLDATASIZE SWAP1 PUSH2 0x246 JUMP JUMPDEST PUSH1 0x0 PUSH1 0x40 MLOAD DUP1 DUP4 SUB DUP2 DUP6 GAS DELEGATECALL SWAP2 POP POP RETURNDATASIZE DUP1 PUSH1 0x0 DUP2 EQ PUSH2 0x9A JUMPI PUSH1 0x40 MLOAD SWAP2 POP PUSH1 0x1F NOT PUSH1 0x3F RETURNDATASIZE ADD AND DUP3 ADD PUSH1 0x40 MSTORE RETURNDATASIZE DUP3 MSTORE RETURNDATASIZE PUSH1 0x0 PUSH1 0x20 DUP5 ADD RETURNDATACOPY PUSH2 0x9F JUMP JUMPDEST PUSH1 0x60 SWAP2 POP JUMPDEST POP POP SWAP1 POP PUSH1 0x40 MLOAD RETURNDATASIZE PUSH1 0x0 DUP3 RETURNDATACOPY DUP2 DUP1 ISZERO PUSH2 0xB6 JUMPI RETURNDATASIZE DUP3 RETURN JUMPDEST RETURNDATASIZE DUP3 REVERT JUMPDEST CALLVALUE DUP1 ISZERO PUSH2 0xC6 JUMPI PUSH1 0x0 DUP1 REVERT JUMPDEST POP PUSH2 0xCF PUSH2 0x131 JUMP JUMPDEST PUSH1 0x40 MLOAD PUSH2 0xDC SWAP2 SWAP1 PUSH2 0x256 JUMP JUMPDEST PUSH1 0x40 MLOAD DUP1 SWAP2 SUB SWAP1 RETURN JUMPDEST CALLVALUE DUP1 ISZERO PUSH2 0xF1 JUMPI PUSH1 0x0 DUP1 REVERT JUMPDEST POP PUSH2 0xCF PUSH2 0x140 JUMP JUMPDEST CALLVALUE DUP1 ISZERO PUSH2 0x106 JUMPI PUSH1 0x0 DUP1 REVERT JUMPDEST POP PUSH2 0x11A PUSH2 0x115 CALLDATASIZE PUSH1 0x4 PUSH2 0x218 JUMP JUMPDEST PUSH2 0x14F JUMP JUMPDEST STOP JUMPDEST CALLVALUE DUP1 ISZERO PUSH2 0x128 JUMPI PUSH1 0x0 DUP1 REVERT JUMPDEST POP PUSH2 0xCF PUSH2 0x209 JUMP JUMPDEST PUSH1 0x1 SLOAD PUSH1 0x1 PUSH1 0x1 PUSH1 0xA0 SHL SUB AND DUP2 JUMP JUMPDEST PUSH1 0x2 SLOAD PUSH1 0x1 PUSH1 0x1 PUSH1 0xA0 SHL SUB AND DUP2 JUMP JUMPDEST PUSH1 0x0 SLOAD PUSH1 0x1 PUSH1 0x1 PUSH1 0xA0 SHL SUB AND CALLER EQ PUSH2 0x182 JUMPI PUSH1 0x40 MLOAD PUSH3 0x461BCD PUSH1 0xE5 SHL DUP2 MSTORE PUSH1 0x4 ADD PUSH2 0x179 SWAP1 PUSH2 0x2F4 JUMP JUMPDEST PUSH1 0x40 MLOAD DUP1 SWAP2 SUB SWAP1 REVERT JUMPDEST PUSH1 0x1 PUSH1 0x1 PUSH1 0xA0 SHL SUB DUP2 AND PUSH2 0x1A8 JUMPI PUSH1 0x40 MLOAD PUSH3 0x461BCD PUSH1 0xE5 SHL DUP2 MSTORE PUSH1 0x4 ADD PUSH2 0x179 SWAP1 PUSH2 0x284 JUMP JUMPDEST PUSH1 0x2 DUP1 SLOAD PUSH1 0x1 PUSH1 0x1 PUSH1 0xA0 SHL SUB DUP4 DUP2 AND PUSH1 0x1 PUSH1 0x1 PUSH1 0xA0 SHL SUB NOT DUP4 AND OR SWAP3 DUP4 SWAP1 SSTORE PUSH1 0x40 MLOAD SWAP2 DUP2 AND SWAP3 PUSH32 0xD604DE94D45953F9138079EC1B82D533CB2160C906D1076D1F7ED54BEFBCA97A SWAP3 PUSH2 0x1FD SWAP3 DUP6 SWAP3 AND SWAP1 PUSH2 0x26A JUMP JUMPDEST PUSH1 0x40 MLOAD DUP1 SWAP2 SUB SWAP1 LOG1 POP POP JUMP JUMPDEST PUSH1 0x0 SLOAD PUSH1 0x1 PUSH1 0x1 PUSH1 0xA0 SHL SUB AND DUP2 JUMP JUMPDEST PUSH1 0x0 PUSH1 0x20 DUP3 DUP5 SUB SLT ISZERO PUSH2 0x229 JUMPI DUP1 DUP2 REVERT JUMPDEST DUP2 CALLDATALOAD PUSH1 0x1 PUSH1 0x1 PUSH1 0xA0 SHL SUB DUP2 AND DUP2 EQ PUSH2 0x23F JUMPI DUP2 DUP3 REVERT JUMPDEST SWAP4 SWAP3 POP POP POP JUMP JUMPDEST PUSH1 0x0 DUP3 DUP5 DUP4 CALLDATACOPY SWAP2 ADD SWAP1 DUP2 MSTORE SWAP2 SWAP1 POP JUMP JUMPDEST PUSH1 0x1 PUSH1 0x1 PUSH1 0xA0 SHL SUB SWAP2 SWAP1 SWAP2 AND DUP2 MSTORE PUSH1 0x20 ADD SWAP1 JUMP JUMPDEST PUSH1 0x1 PUSH1 0x1 PUSH1 0xA0 SHL SUB SWAP3 DUP4 AND DUP2 MSTORE SWAP2 AND PUSH1 0x20 DUP3 ADD MSTORE PUSH1 0x40 ADD SWAP1 JUMP JUMPDEST PUSH1 0x20 DUP1 DUP3 MSTORE PUSH1 0x4A SWAP1 DUP3 ADD MSTORE PUSH32 0x476F7665726E6F72427261766F44656C656761746F723A3A5F736574496D706C PUSH1 0x40 DUP3 ADD MSTORE PUSH32 0x656D656E746174696F6E3A20696E76616C696420696D706C656D656E74617469 PUSH1 0x60 DUP3 ADD MSTORE PUSH10 0x6F6E2061646472657373 PUSH1 0xB0 SHL PUSH1 0x80 DUP3 ADD MSTORE PUSH1 0xA0 ADD SWAP1 JUMP JUMPDEST PUSH1 0x20 DUP1 DUP3 MSTORE PUSH1 0x36 SWAP1 DUP3 ADD MSTORE PUSH32 0x476F7665726E6F72427261766F44656C656761746F723A3A5F736574496D706C PUSH1 0x40 DUP3 ADD MSTORE PUSH22 0x656D656E746174696F6E3A2061646D696E206F6E6C79 PUSH1 0x50 SHL PUSH1 0x60 DUP3 ADD MSTORE PUSH1 0x80 ADD SWAP1 JUMP INVALID LOG2 PUSH5 0x6970667358 0x22 SLT KECCAK256 RETURNDATACOPY 0xA6 0x23 DUP2 0x49 0xD7 0xDE EXTCODECOPY DUP15 0xEC 0xC2 ADD CHAINID 0xCD PC 0xBC 0xB7 PUSH10 0x74197E4D92E7FBD51EEF 0x5E 0xA7 0xB4 SWAP4 PUSH5 0x736F6C6343 STOP MOD 0xC STOP CALLER SELFBALANCE PUSH16 0x7665726E6F72427261766F44656C6567 PUSH2 0x746F PUSH19 0x3A3A5F736574496D706C000000000000000000 "
        },
        "methodIdentifiers": {
          "_setImplementation(address)": "bb913f41",
          "admin()": "f851a440",
          "implementation()": "5c60da1b",
          "pendingAdmin()": "26782247"
        }
      }
    }
  }
}