{
  "_format": "hh-sol-artifact-1",
  "contractName": "GuildBank2",
  "sourceName": "contracts/MolochV2/GuildBank.sol",
  "abi": [
    {
      "constant": false,
      "inputs": [
        {
          "name": "token",
          "type": "address"
        },
        {
          "name": "receiver",
          "type": "address"
        },
        {
          "name": "amount",
          "type": "uint256"
        }
      ],
      "name": "withdrawToken",
      "outputs": [
        {
          "name": "",
          "type": "bool"
        }
      ],
      "payable": false,
      "stateMutability": "nonpayable",
      "type": "function"
    },
    {
      "constant": false,
      "inputs": [],
      "name": "renounceOwnership",
      "outputs": [],
      "payable": false,
      "stateMutability": "nonpayable",
      "type": "function"
    },
    {
      "constant": false,
      "inputs": [
        {
          "name": "receiver",
          "type": "address"
        },
        {
          "name": "shares",
          "type": "uint256"
        },
        {
          "name": "totalShares",
          "type": "uint256"
        },
        {
          "name": "_approvedTokens",
          "type": "address[]"
        }
      ],
      "name": "withdraw",
      "outputs": [
        {
          "name": "",
          "type": "bool"
        }
      ],
      "payable": false,
      "stateMutability": "nonpayable",
      "type": "function"
    },
    {
      "constant": true,
      "inputs": [],
      "name": "owner",
      "outputs": [
        {
          "name": "",
          "type": "address"
        }
      ],
      "payable": false,
      "stateMutability": "view",
      "type": "function"
    },
    {
      "constant": true,
      "inputs": [],
      "name": "isOwner",
      "outputs": [
        {
          "name": "",
          "type": "bool"
        }
      ],
      "payable": false,
      "stateMutability": "view",
      "type": "function"
    },
    {
      "constant": false,
      "inputs": [
        {
          "name": "newOwner",
          "type": "address"
        }
      ],
      "name": "transferOwnership",
      "outputs": [],
      "payable": false,
      "stateMutability": "nonpayable",
      "type": "function"
    },
    {
      "anonymous": false,
      "inputs": [
        {
          "indexed": true,
          "name": "receiver",
          "type": "address"
        },
        {
          "indexed": true,
          "name": "tokenAddress",
          "type": "address"
        },
        {
          "indexed": false,
          "name": "amount",
          "type": "uint256"
        }
      ],
      "name": "Withdrawal",
      "type": "event"
    },
    {
      "anonymous": false,
      "inputs": [
        {
          "indexed": true,
          "name": "previousOwner",
          "type": "address"
        },
        {
          "indexed": true,
          "name": "newOwner",
          "type": "address"
        }
      ],
      "name": "OwnershipTransferred",
      "type": "event"
    }
  ],
  "bytecode": "0x6080604052600061001461006360201b60201c565b600080546001600160a01b0319166001600160a01b0383169081178255604051929350917f8be0079c531659141344cd1fd0a4f28419497f9722a3daafe3b4186f6b6457e0908290a350610067565b3390565b6108ca806100766000396000f3fe608060405234801561001057600080fd5b50600436106100625760003560e01c806301e3366714610067578063715018a6146100b1578063732c8f57146100bb5780638da5cb5b1461017a5780638f32d59b1461019e578063f2fde38b146101a6575b600080fd5b61009d6004803603606081101561007d57600080fd5b506001600160a01b038135811691602081013590911690604001356101cc565b604080519115158252519081900360200190f35b6100b96102f9565b005b61009d600480360360808110156100d157600080fd5b6001600160a01b03823516916020810135916040820135919081019060808101606082013564010000000081111561010857600080fd5b82018360208201111561011a57600080fd5b8035906020019184602083028401116401000000008311171561013c57600080fd5b91908080602002602001604051908101604052809392919081815260200183836020028082843760009201919091525092955061038f945050505050565b6101826105af565b604080516001600160a01b039092168252519081900360200190f35b61009d6105be565b6100b9600480360360208110156101bc57600080fd5b50356001600160a01b03166105e2565b60006101d66105be565b151561021a5760408051600160e51b62461bcd028152602060048201819052602482015260008051602061087f833981519152604482015290519081900360640190fd5b836001600160a01b0316836001600160a01b03167f2717ead6b9200dd235aad468c9809ea400fe33ac69b5bfaa6d3e90fc922b6398846040518082815260200191505060405180910390a3836001600160a01b031663a9059cbb84846040518363ffffffff1660e01b815260040180836001600160a01b03166001600160a01b0316815260200182815260200192505050602060405180830381600087803b1580156102c557600080fd5b505af11580156102d9573d6000803e3d6000fd5b505050506040513d60208110156102ef57600080fd5b5051949350505050565b6103016105be565b15156103455760408051600160e51b62461bcd028152602060048201819052602482015260008051602061087f833981519152604482015290519081900360640190fd5b600080546040516001600160a01b03909116907f8be0079c531659141344cd1fd0a4f28419497f9722a3daafe3b4186f6b6457e0908390a3600080546001600160a01b0319169055565b60006103996105be565b15156103dd5760408051600160e51b62461bcd028152602060048201819052602482015260008051602061087f833981519152604482015290519081900360640190fd5b600082518110156105a55760006104948561048888878681518110151561040057fe5b602090810290910181015160408051600160e01b6370a0823102815230600482015290516001600160a01b03909216926370a0823192602480840193829003018186803b15801561045057600080fd5b505afa158015610464573d6000803e3d6000fd5b505050506040513d602081101561047a57600080fd5b50519063ffffffff61063a16565b9063ffffffff6106a316565b905083828151811015156104a457fe5b906020019060200201516001600160a01b0316876001600160a01b03167f2717ead6b9200dd235aad468c9809ea400fe33ac69b5bfaa6d3e90fc922b6398836040518082815260200191505060405180910390a3838281518110151561050657fe5b906020019060200201516001600160a01b031663a9059cbb88836040518363ffffffff1660e01b815260040180836001600160a01b03166001600160a01b0316815260200182815260200192505050602060405180830381600087803b15801561056f57600080fd5b505af1158015610583573d6000803e3d6000fd5b505050506040513d602081101561059957600080fd5b505192506105a7915050565b505b949350505050565b6000546001600160a01b031690565b600080546001600160a01b03166105d36106e5565b6001600160a01b031614905090565b6105ea6105be565b151561062e5760408051600160e51b62461bcd028152602060048201819052602482015260008051602061087f833981519152604482015290519081900360640190fd5b610637816106e9565b50565b600082151561064b5750600061069d565b82820282848281151561065a57fe5b041461069a57604051600160e51b62461bcd02815260040180806020018281038252602181526020018061085e6021913960400191505060405180910390fd5b90505b92915050565b600061069a83836040518060400160405280601a81526020017f536166654d6174683a206469766973696f6e206279207a65726f00000000000081525061078e565b3390565b6001600160a01b038116151561073357604051600160e51b62461bcd0281526004018080602001828103825260268152602001806108386026913960400191505060405180910390fd5b600080546040516001600160a01b03808516939216917f8be0079c531659141344cd1fd0a4f28419497f9722a3daafe3b4186f6b6457e091a3600080546001600160a01b0319166001600160a01b0392909216919091179055565b60008183151561081f57604051600160e51b62461bcd0281526004018080602001828103825283818151815260200191508051906020019080838360005b838110156107e45781810151838201526020016107cc565b50505050905090810190601f1680156108115780820380516001836020036101000a031916815260200191505b509250505060405180910390fd5b506000838581151561082d57fe5b049594505050505056fe4f776e61626c653a206e6577206f776e657220697320746865207a65726f2061646472657373536166654d6174683a206d756c7469706c69636174696f6e206f766572666c6f774f776e61626c653a2063616c6c6572206973206e6f7420746865206f776e6572a165627a7a7230582066b7fde15f07b79eb46836ad49891f74e707c0e6f7da48fed0b49edecbff4c1c0029",
  "linkReferences": {},
  "deployedLinkReferences": {}
}